{"contracts/core/EventManager.sol":{"EventManager":{"abi":[{"inputs":[],"stateMutability":"nonpayable","type":"constructor"},{"inputs":[],"name":"EnforcedPause","type":"error"},{"inputs":[],"name":"ExpectedPause","type":"error"},{"inputs":[{"internalType":"address","name":"owner","type":"address"}],"name":"OwnableInvalidOwner","type":"error"},{"inputs":[{"internalType":"address","name":"account","type":"address"}],"name":"OwnableUnauthorizedAccount","type":"error"},{"inputs":[],"name":"ReentrancyGuardReentrantCall","type":"error"},{"anonymous":false,"inputs":[{"indexed":true,"internalType":"uint256","name":"eventId","type":"uint256"}],"name":"EventCancelled","type":"event"},{"anonymous":false,"inputs":[{"indexed":true,"internalType":"uint256","name":"eventId","type":"uint256"},{"indexed":false,"internalType":"string","name":"name","type":"string"},{"indexed":false,"internalType":"uint256","name":"date","type":"uint256"},{"indexed":false,"internalType":"address","name":"organizer","type":"address"}],"name":"EventCreated","type":"event"},{"anonymous":false,"inputs":[{"indexed":true,"internalType":"address","name":"previousOwner","type":"address"},{"indexed":true,"internalType":"address","name":"newOwner","type":"address"}],"name":"OwnershipTransferred","type":"event"},{"anonymous":false,"inputs":[{"indexed":false,"internalType":"address","name":"account","type":"address"}],"name":"Paused","type":"event"},{"anonymous":false,"inputs":[{"indexed":true,"internalType":"uint256","name":"eventId","type":"uint256"},{"indexed":true,"internalType":"uint256","name":"ticketId","type":"uint256"},{"indexed":false,"internalType":"address","name":"buyer","type":"address"}],"name":"TicketPurchased","type":"event"},{"anonymous":false,"inputs":[{"indexed":false,"internalType":"address","name":"account","type":"address"}],"name":"Unpaused","type":"event"},{"inputs":[],"name":"PLATFORM_FEE_PERCENTAGE","outputs":[{"internalType":"uint256","name":"","type":"uint256"}],"stateMutability":"view","type":"function"},{"inputs":[{"internalType":"uint256","name":"eventId","type":"uint256"}],"name":"cancelEvent","outputs":[],"stateMutability":"nonpayable","type":"function"},{"inputs":[{"internalType":"string","name":"name","type":"string"},{"internalType":"uint256","name":"date","type":"uint256"},{"internalType":"uint256","name":"basePrice","type":"uint256"},{"internalType":"uint256[]","name":"zoneCapacities","type":"uint256[]"},{"internalType":"uint256[]","name":"zonePrices","type":"uint256[]"}],"name":"createEvent","outputs":[{"internalType":"uint256","name":"","type":"uint256"}],"stateMutability":"nonpayable","type":"function"},{"inputs":[{"internalType":"uint256","name":"eventId","type":"uint256"}],"name":"getEvent","outputs":[{"components":[{"internalType":"string","name":"name","type":"string"},{"internalType":"uint256","name":"date","type":"uint256"},{"internalType":"uint256","name":"basePrice","type":"uint256"},{"internalType":"address","name":"organizer","type":"address"},{"internalType":"bool","name":"cancelled","type":"bool"},{"internalType":"uint256[]","name":"zoneCapacities","type":"uint256[]"},{"internalType":"uint256[]","name":"zonePrices","type":"uint256[]"}],"internalType":"struct IEventManager.Event","name":"","type":"tuple"}],"stateMutability":"view","type":"function"},{"inputs":[{"internalType":"uint256","name":"eventId","type":"uint256"},{"internalType":"uint256","name":"zoneId","type":"uint256"}],"name":"getZone","outputs":[{"components":[{"internalType":"uint256","name":"capacity","type":"uint256"},{"internalType":"uint256","name":"price","type":"uint256"},{"internalType":"uint256","name":"availableSeats","type":"uint256"}],"internalType":"struct IEventManager.Zone","name":"","type":"tuple"}],"stateMutability":"view","type":"function"},{"inputs":[],"name":"owner","outputs":[{"internalType":"address","name":"","type":"address"}],"stateMutability":"view","type":"function"},{"inputs":[],"name":"pause","outputs":[],"stateMutability":"nonpayable","type":"function"},{"inputs":[],"name":"paused","outputs":[{"internalType":"bool","name":"","type":"bool"}],"stateMutability":"view","type":"function"},{"inputs":[{"internalType":"uint256","name":"eventId","type":"uint256"},{"internalType":"uint256","name":"zoneId","type":"uint256"}],"name":"purchaseTicket","outputs":[],"stateMutability":"payable","type":"function"},{"inputs":[],"name":"renounceOwnership","outputs":[],"stateMutability":"nonpayable","type":"function"},{"inputs":[{"internalType":"address","name":"newOwner","type":"address"}],"name":"transferOwnership","outputs":[],"stateMutability":"nonpayable","type":"function"},{"inputs":[],"name":"unpause","outputs":[],"stateMutability":"nonpayable","type":"function"}],"evm":{"bytecode":{"linkReferences":{},"object":"608080604052346100885733156100725760008054336001600160a01b03198216811783556040519290916001600160a01b0316907f8be0079c531659141344cd1fd0a4f28419497f9722a3daafe3b4186f6b6457e09080a36001805560ff1960025416600255611110908161008e8239f35b631e4fbdf760e01b815260006004820152602490fd5b600080fdfe608080604052600436101561001357600080fd5b60003560e01c9081631554823214610e04575080633f4ba83a14610d9a5780633f69babd14610c9057806346eff86714610c0e5780635c975abb14610beb5780636d1884e014610a28578063715018a6146109cf5780638456cb59146109755780638da5cb5b1461094c578063bdbbb0cb1461065f578063efdf49d7146101385763f2fde38b146100a357600080fd5b34610133576020366003190112610133576004356001600160a01b0381811691829003610133576100d2610f85565b811561011a57600054826bffffffffffffffffffffffff60a01b821617600055167f8be0079c531659141344cd1fd0a4f28419497f9722a3daafe3b4186f6b6457e0600080a3005b604051631e4fbdf760e01b815260006004820152602490fd5b600080fd5b346101335760a03660031901126101335760043567ffffffffffffffff8111610133573660238201121561013357806004013561017481610f02565b916101826040519384610ee0565b81835236602483830101116101335781600092602460209301838601378301015260643567ffffffffffffffff8111610133576101c3903690600401610f1e565b60843567ffffffffffffffff8111610133576101e3903690600401610f1e565b6101eb61103b565b42602435111561061b5781518151036105dd5781511561059857610210600354610fb1565b806003556040519261022184610ec4565b84845260208401936024358552604435604082015260608101338152600060808301528260a08301528460c0830152836000526004602052604060002095825180519067ffffffffffffffff82116104a357819061027f8a54610fc0565b601f811161055b575b50602090601f83116001146104f5576000926104ea575b50508160011b916000199060031b1c19161787555b51600187015560408201516002870155600386019060018060a01b0390511681549060ff60a01b6080850151151560a01b16916affffffffffffffffffffff60a81b161717905560a081015180519067ffffffffffffffff82116104a357600160401b82116104a3576020600488019182548484558085106104cd575b500190600052602060002060005b8381106104b9575050505060c060058096019101519081519167ffffffffffffffff83116104a357600160401b83116104a3576020908254848455808510610486575b500190600052602060002060005b838110610472575050505060005b815181101561041d57806103b56104189284611011565b5160026103c28388611011565b516103cd8487611011565b5190604051936103dc85610ea8565b84526020840190815260408401918252876000528960205260406000208560005260205260406000209351845551600184015551910155610fb1565b61039e565b602083807f9c2f02f9bc3109d6ef9e6ddb6bd47137ccc8e9deabc67b747c58342a70d9e2c861045a8a604051918291606083526060830190610e34565b602435878301523360408301520390a2604051908152f35b600190602084519401938184015501610390565b61049d908460005285846000209182019101610ffa565b89610382565b634e487b7160e01b600052604160045260246000fd5b60019060208451940193818401550161033f565b6104e4908460005285846000209182019101610ffa565b8a610331565b015190508a8061029f565b60008b8152602081209350601f198516905b818110610543575090846001959493921061052a575b505050811b0187556102b4565b015160001960f88460031b161c191690558a808061051d565b92936020600181928786015181550195019301610507565b610588908b6000526020600020601f850160051c8101916020861061058e575b601f0160051c0190610ffa565b8b610288565b909150819061057b565b60405162461bcd60e51b815260206004820152601b60248201527f4d7573742068617665206174206c65617374206f6e65207a6f6e6500000000006044820152606490fd5b60405162461bcd60e51b81526020600482015260166024820152750b4dedcca40c2e4e4c2f2e640daeae6e840dac2e8c6d60531b6044820152606490fd5b606460405162461bcd60e51b815260206004820152602060248201527f4576656e742064617465206d75737420626520696e20746865206675747572656044820152fd5b61066836610e1e565b600191600283541461093a576002835561068061103b565b8060005260206004815260406000209060038201549160ff8360a01c16610900578501544210156108bc578260005260068152604060002033600052815260ff604060002054166108835782600052600581526040600020846000528152604060002091600283019283541561084b5786015434036108065760053402348104600514341517156107b257606490048034033481116107b257600080809381808080809760018060a01b03809b165af195610739611059565b508254165af1610747611059565b50816107fe575b50156107c85781549182156107b2577f94c5953e15f54d38b82a662bdd5739fc91af3a23d3ef7e67269dfaeee71a813c926000190190558260005260068152604060002033600052815260406000208560ff19825416179055604051338152a38055005b634e487b7160e01b600052601160045260246000fd5b6064906040519062461bcd60e51b82526004820152600f60248201526e151c985b9cd9995c8819985a5b1959608a1b6044820152fd5b90508661074e565b60405162461bcd60e51b815260048101839052601860248201527f496e636f7272656374207061796d656e7420616d6f756e7400000000000000006044820152606490fd5b60405162461bcd60e51b815260048101849052601060248201526f169bdb99481a5cc81cdbdb19081bdd5d60821b6044820152606490fd5b6064906040519062461bcd60e51b825260048201526012602482015271105b1c9958591e481a185cc81d1a58dad95d60721b6044820152fd5b6064906040519062461bcd60e51b82526004820152601a60248201527f4576656e742068617320616c7265616479206f636375727265640000000000006044820152fd5b60405162461bcd60e51b8152600481018390526012602482015271115d995b9d081a5cc818d85b98d95b1b195960721b6044820152606490fd5b604051633ee5aeb560e01b8152600490fd5b34610133576000366003190112610133576000546040516001600160a01b039091168152602090f35b346101335760003660031901126101335761098e610f85565b61099661103b565b600160ff1960025416176002557f62e78cea01bee320cd4e420270b5ea74000d11b0c9f74754ebdbfc544b05a2586020604051338152a1005b34610133576000366003190112610133576109e8610f85565b600080546001600160a01b0319811682556001600160a01b03167f8be0079c531659141344cd1fd0a4f28419497f9722a3daafe3b4186f6b6457e08280a3005b34610133576020806003193601126101335760c0604051610a4881610ec4565b606091818380935260008582015260006040820152600083820152600060808201528260a082015201526004356000526004825260406000209060405191610a8f83610ec4565b6040518154906000610aa083610fc0565b808352600193808516908115610bcf5750600114610b9b575b60e088610b978989610b868a8a8a610ad3818c0382610ee0565b8552810154928685019384526002820154604086019081526003830154918087019060018060a01b0392838516835260ff60808a019560a01c1615158552610b56610b336005610b2560048a01611089565b9860a08d01998a5201611089565b9960c081019a8b526040519d8d8f9e928f938452519201526101008d0190610e34565b975160408c015251908a01525116608088015251151560a08701525191601f1992838783030160c0880152610e74565b9151908483030160e0850152610e74565b0390f35b60008581528881209092505b818310610bbc57505081018601610b97610ab9565b80548484018a0152918801918401610ba7565b60ff1916848a015250151560051b820187019050610b97610ab9565b3461013357600036600319011261013357602060ff600254166040519015158152f35b3461013357610c1c36610e1e565b90600060408051610c2c81610ea8565b8281528260208201520152600052600560205260406000209060005260205260606040600020604051610c5e81610ea8565b815491828252604060026001830154926020850193845201549201918252604051928352516020830152516040820152f35b3461013357602036600319011261013357600435610cac61103b565b600081815260046020526040902060030180546001600160a01b0381163303610d555760ff8160a01c16610d105760ff60a01b1916600160a01b1790557fdc3cb569b066460f4a22dffa05317bdcce5d3826382ed49a21f13e5fa2063d39600080a2005b60405162461bcd60e51b815260206004820152601760248201527f4576656e7420616c72656164792063616e63656c6c65640000000000000000006044820152606490fd5b60405162461bcd60e51b815260206004820152601960248201527f4f6e6c79206f7267616e697a65722063616e2063616e63656c000000000000006044820152606490fd5b3461013357600036600319011261013357610db3610f85565b60025460ff811615610df25760ff19166002557f5db9ee0a495bf2e6ff9c91a7834c1ba4fdd244a5e8aa4e537bd38aeae4b073aa6020604051338152a1005b604051638dfc202b60e01b8152600490fd5b346101335760003660031901126101335780600560209252f35b6040906003190112610133576004359060243590565b919082519283825260005b848110610e60575050826000602080949584010152601f8019910116010190565b602081830181015184830182015201610e3f565b90815180825260208080930193019160005b828110610e94575050505090565b835185529381019392810192600101610e86565b6060810190811067ffffffffffffffff8211176104a357604052565b60e0810190811067ffffffffffffffff8211176104a357604052565b90601f8019910116810190811067ffffffffffffffff8211176104a357604052565b67ffffffffffffffff81116104a357601f01601f191660200190565b9080601f830112156101335781359067ffffffffffffffff82116104a3578160051b60405193602093610f5385840187610ee0565b85528380860192820101928311610133578301905b828210610f76575050505090565b81358152908301908301610f68565b6000546001600160a01b03163303610f9957565b60405163118cdaa760e01b8152336004820152602490fd5b60001981146107b25760010190565b90600182811c92168015610ff0575b6020831014610fda57565b634e487b7160e01b600052602260045260246000fd5b91607f1691610fcf565b818110611005575050565b60008155600101610ffa565b80518210156110255760209160051b010190565b634e487b7160e01b600052603260045260246000fd5b60ff6002541661104757565b60405163d93c066560e01b8152600490fd5b3d15611084573d9061106a82610f02565b916110786040519384610ee0565b82523d6000602084013e565b606090565b9060405191828154918282526020928383019160005283600020936000905b8282106110c0575050506110be92500383610ee0565b565b8554845260019586019588955093810193909101906110a856fea26469706673582212204ff77107e96e713296f96721904c606d6aa9ccfe31daf22c608b47c69e12b28564736f6c63430008140033","opcodes":"PUSH1 0x80 DUP1 PUSH1 0x40 MSTORE CALLVALUE PUSH2 0x88 JUMPI CALLER ISZERO PUSH2 0x72 JUMPI PUSH1 0x0 DUP1 SLOAD CALLER PUSH1 0x1 PUSH1 0x1 PUSH1 0xA0 SHL SUB NOT DUP3 AND DUP2 OR DUP4 SSTORE PUSH1 0x40 MLOAD SWAP3 SWAP1 SWAP2 PUSH1 0x1 PUSH1 0x1 PUSH1 0xA0 SHL SUB AND SWAP1 PUSH32 0x8BE0079C531659141344CD1FD0A4F28419497F9722A3DAAFE3B4186F6B6457E0 SWAP1 DUP1 LOG3 PUSH1 0x1 DUP1 SSTORE PUSH1 0xFF NOT PUSH1 0x2 SLOAD AND PUSH1 0x2 SSTORE PUSH2 0x1110 SWAP1 DUP2 PUSH2 0x8E DUP3 CODECOPY RETURN JUMPDEST PUSH4 0x1E4FBDF7 PUSH1 0xE0 SHL DUP2 MSTORE PUSH1 0x0 PUSH1 0x4 DUP3 ADD MSTORE PUSH1 0x24 SWAP1 REVERT JUMPDEST PUSH1 0x0 DUP1 REVERT INVALID PUSH1 0x80 DUP1 PUSH1 0x40 MSTORE PUSH1 0x4 CALLDATASIZE LT ISZERO PUSH2 0x13 JUMPI PUSH1 0x0 DUP1 REVERT JUMPDEST PUSH1 0x0 CALLDATALOAD PUSH1 0xE0 SHR SWAP1 DUP2 PUSH4 0x15548232 EQ PUSH2 0xE04 JUMPI POP DUP1 PUSH4 0x3F4BA83A EQ PUSH2 0xD9A JUMPI DUP1 PUSH4 0x3F69BABD EQ PUSH2 0xC90 JUMPI DUP1 PUSH4 0x46EFF867 EQ PUSH2 0xC0E JUMPI DUP1 PUSH4 0x5C975ABB EQ PUSH2 0xBEB JUMPI DUP1 PUSH4 0x6D1884E0 EQ PUSH2 0xA28 JUMPI DUP1 PUSH4 0x715018A6 EQ PUSH2 0x9CF JUMPI DUP1 PUSH4 0x8456CB59 EQ PUSH2 0x975 JUMPI DUP1 PUSH4 0x8DA5CB5B EQ PUSH2 0x94C JUMPI DUP1 PUSH4 0xBDBBB0CB EQ PUSH2 0x65F JUMPI DUP1 PUSH4 0xEFDF49D7 EQ PUSH2 0x138 JUMPI PUSH4 0xF2FDE38B EQ PUSH2 0xA3 JUMPI PUSH1 0x0 DUP1 REVERT JUMPDEST CALLVALUE PUSH2 0x133 JUMPI PUSH1 0x20 CALLDATASIZE PUSH1 0x3 NOT ADD SLT PUSH2 0x133 JUMPI PUSH1 0x4 CALLDATALOAD PUSH1 0x1 PUSH1 0x1 PUSH1 0xA0 SHL SUB DUP2 DUP2 AND SWAP2 DUP3 SWAP1 SUB PUSH2 0x133 JUMPI PUSH2 0xD2 PUSH2 0xF85 JUMP JUMPDEST DUP2 ISZERO PUSH2 0x11A JUMPI PUSH1 0x0 SLOAD DUP3 PUSH12 0xFFFFFFFFFFFFFFFFFFFFFFFF PUSH1 0xA0 SHL DUP3 AND OR PUSH1 0x0 SSTORE AND PUSH32 0x8BE0079C531659141344CD1FD0A4F28419497F9722A3DAAFE3B4186F6B6457E0 PUSH1 0x0 DUP1 LOG3 STOP JUMPDEST PUSH1 0x40 MLOAD PUSH4 0x1E4FBDF7 PUSH1 0xE0 SHL DUP2 MSTORE PUSH1 0x0 PUSH1 0x4 DUP3 ADD MSTORE PUSH1 0x24 SWAP1 REVERT JUMPDEST PUSH1 0x0 DUP1 REVERT JUMPDEST CALLVALUE PUSH2 0x133 JUMPI PUSH1 0xA0 CALLDATASIZE PUSH1 0x3 NOT ADD SLT PUSH2 0x133 JUMPI PUSH1 0x4 CALLDATALOAD PUSH8 0xFFFFFFFFFFFFFFFF DUP2 GT PUSH2 0x133 JUMPI CALLDATASIZE PUSH1 0x23 DUP3 ADD SLT ISZERO PUSH2 0x133 JUMPI DUP1 PUSH1 0x4 ADD CALLDATALOAD PUSH2 0x174 DUP2 PUSH2 0xF02 JUMP JUMPDEST SWAP2 PUSH2 0x182 PUSH1 0x40 MLOAD SWAP4 DUP5 PUSH2 0xEE0 JUMP JUMPDEST DUP2 DUP4 MSTORE CALLDATASIZE PUSH1 0x24 DUP4 DUP4 ADD ADD GT PUSH2 0x133 JUMPI DUP2 PUSH1 0x0 SWAP3 PUSH1 0x24 PUSH1 0x20 SWAP4 ADD DUP4 DUP7 ADD CALLDATACOPY DUP4 ADD ADD MSTORE PUSH1 0x64 CALLDATALOAD PUSH8 0xFFFFFFFFFFFFFFFF DUP2 GT PUSH2 0x133 JUMPI PUSH2 0x1C3 SWAP1 CALLDATASIZE SWAP1 PUSH1 0x4 ADD PUSH2 0xF1E JUMP JUMPDEST PUSH1 0x84 CALLDATALOAD PUSH8 0xFFFFFFFFFFFFFFFF DUP2 GT PUSH2 0x133 JUMPI PUSH2 0x1E3 SWAP1 CALLDATASIZE SWAP1 PUSH1 0x4 ADD PUSH2 0xF1E JUMP JUMPDEST PUSH2 0x1EB PUSH2 0x103B JUMP JUMPDEST TIMESTAMP PUSH1 0x24 CALLDATALOAD GT ISZERO PUSH2 0x61B JUMPI DUP2 MLOAD DUP2 MLOAD SUB PUSH2 0x5DD JUMPI DUP2 MLOAD ISZERO PUSH2 0x598 JUMPI PUSH2 0x210 PUSH1 0x3 SLOAD PUSH2 0xFB1 JUMP JUMPDEST DUP1 PUSH1 0x3 SSTORE PUSH1 0x40 MLOAD SWAP3 PUSH2 0x221 DUP5 PUSH2 0xEC4 JUMP JUMPDEST DUP5 DUP5 MSTORE PUSH1 0x20 DUP5 ADD SWAP4 PUSH1 0x24 CALLDATALOAD DUP6 MSTORE PUSH1 0x44 CALLDATALOAD PUSH1 0x40 DUP3 ADD MSTORE PUSH1 0x60 DUP2 ADD CALLER DUP2 MSTORE PUSH1 0x0 PUSH1 0x80 DUP4 ADD MSTORE DUP3 PUSH1 0xA0 DUP4 ADD MSTORE DUP5 PUSH1 0xC0 DUP4 ADD MSTORE DUP4 PUSH1 0x0 MSTORE PUSH1 0x4 PUSH1 0x20 MSTORE PUSH1 0x40 PUSH1 0x0 KECCAK256 SWAP6 DUP3 MLOAD DUP1 MLOAD SWAP1 PUSH8 0xFFFFFFFFFFFFFFFF DUP3 GT PUSH2 0x4A3 JUMPI DUP2 SWAP1 PUSH2 0x27F DUP11 SLOAD PUSH2 0xFC0 JUMP JUMPDEST PUSH1 0x1F DUP2 GT PUSH2 0x55B JUMPI JUMPDEST POP PUSH1 0x20 SWAP1 PUSH1 0x1F DUP4 GT PUSH1 0x1 EQ PUSH2 0x4F5 JUMPI PUSH1 0x0 SWAP3 PUSH2 0x4EA JUMPI JUMPDEST POP POP DUP2 PUSH1 0x1 SHL SWAP2 PUSH1 0x0 NOT SWAP1 PUSH1 0x3 SHL SHR NOT AND OR DUP8 SSTORE JUMPDEST MLOAD PUSH1 0x1 DUP8 ADD SSTORE PUSH1 0x40 DUP3 ADD MLOAD PUSH1 0x2 DUP8 ADD SSTORE PUSH1 0x3 DUP7 ADD SWAP1 PUSH1 0x1 DUP1 PUSH1 0xA0 SHL SUB SWAP1 MLOAD AND DUP2 SLOAD SWAP1 PUSH1 0xFF PUSH1 0xA0 SHL PUSH1 0x80 DUP6 ADD MLOAD ISZERO ISZERO PUSH1 0xA0 SHL AND SWAP2 PUSH11 0xFFFFFFFFFFFFFFFFFFFFFF PUSH1 0xA8 SHL AND OR OR SWAP1 SSTORE PUSH1 0xA0 DUP2 ADD MLOAD DUP1 MLOAD SWAP1 PUSH8 0xFFFFFFFFFFFFFFFF DUP3 GT PUSH2 0x4A3 JUMPI PUSH1 0x1 PUSH1 0x40 SHL DUP3 GT PUSH2 0x4A3 JUMPI PUSH1 0x20 PUSH1 0x4 DUP9 ADD SWAP2 DUP3 SLOAD DUP5 DUP5 SSTORE DUP1 DUP6 LT PUSH2 0x4CD JUMPI JUMPDEST POP ADD SWAP1 PUSH1 0x0 MSTORE PUSH1 0x20 PUSH1 0x0 KECCAK256 PUSH1 0x0 JUMPDEST DUP4 DUP2 LT PUSH2 0x4B9 JUMPI POP POP POP POP PUSH1 0xC0 PUSH1 0x5 DUP1 SWAP7 ADD SWAP2 ADD MLOAD SWAP1 DUP2 MLOAD SWAP2 PUSH8 0xFFFFFFFFFFFFFFFF DUP4 GT PUSH2 0x4A3 JUMPI PUSH1 0x1 PUSH1 0x40 SHL DUP4 GT PUSH2 0x4A3 JUMPI PUSH1 0x20 SWAP1 DUP3 SLOAD DUP5 DUP5 SSTORE DUP1 DUP6 LT PUSH2 0x486 JUMPI JUMPDEST POP ADD SWAP1 PUSH1 0x0 MSTORE PUSH1 0x20 PUSH1 0x0 KECCAK256 PUSH1 0x0 JUMPDEST DUP4 DUP2 LT PUSH2 0x472 JUMPI POP POP POP POP PUSH1 0x0 JUMPDEST DUP2 MLOAD DUP2 LT ISZERO PUSH2 0x41D JUMPI DUP1 PUSH2 0x3B5 PUSH2 0x418 SWAP3 DUP5 PUSH2 0x1011 JUMP JUMPDEST MLOAD PUSH1 0x2 PUSH2 0x3C2 DUP4 DUP9 PUSH2 0x1011 JUMP JUMPDEST MLOAD PUSH2 0x3CD DUP5 DUP8 PUSH2 0x1011 JUMP JUMPDEST MLOAD SWAP1 PUSH1 0x40 MLOAD SWAP4 PUSH2 0x3DC DUP6 PUSH2 0xEA8 JUMP JUMPDEST DUP5 MSTORE PUSH1 0x20 DUP5 ADD SWAP1 DUP2 MSTORE PUSH1 0x40 DUP5 ADD SWAP2 DUP3 MSTORE DUP8 PUSH1 0x0 MSTORE DUP10 PUSH1 0x20 MSTORE PUSH1 0x40 PUSH1 0x0 KECCAK256 DUP6 PUSH1 0x0 MSTORE PUSH1 0x20 MSTORE PUSH1 0x40 PUSH1 0x0 KECCAK256 SWAP4 MLOAD DUP5 SSTORE MLOAD PUSH1 0x1 DUP5 ADD SSTORE MLOAD SWAP2 ADD SSTORE PUSH2 0xFB1 JUMP JUMPDEST PUSH2 0x39E JUMP JUMPDEST PUSH1 0x20 DUP4 DUP1 PUSH32 0x9C2F02F9BC3109D6EF9E6DDB6BD47137CCC8E9DEABC67B747C58342A70D9E2C8 PUSH2 0x45A DUP11 PUSH1 0x40 MLOAD SWAP2 DUP3 SWAP2 PUSH1 0x60 DUP4 MSTORE PUSH1 0x60 DUP4 ADD SWAP1 PUSH2 0xE34 JUMP JUMPDEST PUSH1 0x24 CALLDATALOAD DUP8 DUP4 ADD MSTORE CALLER PUSH1 0x40 DUP4 ADD MSTORE SUB SWAP1 LOG2 PUSH1 0x40 MLOAD SWAP1 DUP2 MSTORE RETURN JUMPDEST PUSH1 0x1 SWAP1 PUSH1 0x20 DUP5 MLOAD SWAP5 ADD SWAP4 DUP2 DUP5 ADD SSTORE ADD PUSH2 0x390 JUMP JUMPDEST PUSH2 0x49D SWAP1 DUP5 PUSH1 0x0 MSTORE DUP6 DUP5 PUSH1 0x0 KECCAK256 SWAP2 DUP3 ADD SWAP2 ADD PUSH2 0xFFA JUMP JUMPDEST DUP10 PUSH2 0x382 JUMP JUMPDEST PUSH4 0x4E487B71 PUSH1 0xE0 SHL PUSH1 0x0 MSTORE PUSH1 0x41 PUSH1 0x4 MSTORE PUSH1 0x24 PUSH1 0x0 REVERT JUMPDEST PUSH1 0x1 SWAP1 PUSH1 0x20 DUP5 MLOAD SWAP5 ADD SWAP4 DUP2 DUP5 ADD SSTORE ADD PUSH2 0x33F JUMP JUMPDEST PUSH2 0x4E4 SWAP1 DUP5 PUSH1 0x0 MSTORE DUP6 DUP5 PUSH1 0x0 KECCAK256 SWAP2 DUP3 ADD SWAP2 ADD PUSH2 0xFFA JUMP JUMPDEST DUP11 PUSH2 0x331 JUMP JUMPDEST ADD MLOAD SWAP1 POP DUP11 DUP1 PUSH2 0x29F JUMP JUMPDEST PUSH1 0x0 DUP12 DUP2 MSTORE PUSH1 0x20 DUP2 KECCAK256 SWAP4 POP PUSH1 0x1F NOT DUP6 AND SWAP1 JUMPDEST DUP2 DUP2 LT PUSH2 0x543 JUMPI POP SWAP1 DUP5 PUSH1 0x1 SWAP6 SWAP5 SWAP4 SWAP3 LT PUSH2 0x52A JUMPI JUMPDEST POP POP POP DUP2 SHL ADD DUP8 SSTORE PUSH2 0x2B4 JUMP JUMPDEST ADD MLOAD PUSH1 0x0 NOT PUSH1 0xF8 DUP5 PUSH1 0x3 SHL AND SHR NOT AND SWAP1 SSTORE DUP11 DUP1 DUP1 PUSH2 0x51D JUMP JUMPDEST SWAP3 SWAP4 PUSH1 0x20 PUSH1 0x1 DUP2 SWAP3 DUP8 DUP7 ADD MLOAD DUP2 SSTORE ADD SWAP6 ADD SWAP4 ADD PUSH2 0x507 JUMP JUMPDEST PUSH2 0x588 SWAP1 DUP12 PUSH1 0x0 MSTORE PUSH1 0x20 PUSH1 0x0 KECCAK256 PUSH1 0x1F DUP6 ADD PUSH1 0x5 SHR DUP2 ADD SWAP2 PUSH1 0x20 DUP7 LT PUSH2 0x58E JUMPI JUMPDEST PUSH1 0x1F ADD PUSH1 0x5 SHR ADD SWAP1 PUSH2 0xFFA JUMP JUMPDEST DUP12 PUSH2 0x288 JUMP JUMPDEST SWAP1 SWAP2 POP DUP2 SWAP1 PUSH2 0x57B JUMP JUMPDEST PUSH1 0x40 MLOAD PUSH3 0x461BCD PUSH1 0xE5 SHL DUP2 MSTORE PUSH1 0x20 PUSH1 0x4 DUP3 ADD MSTORE PUSH1 0x1B PUSH1 0x24 DUP3 ADD MSTORE PUSH32 0x4D7573742068617665206174206C65617374206F6E65207A6F6E650000000000 PUSH1 0x44 DUP3 ADD MSTORE PUSH1 0x64 SWAP1 REVERT JUMPDEST PUSH1 0x40 MLOAD PUSH3 0x461BCD PUSH1 0xE5 SHL DUP2 MSTORE PUSH1 0x20 PUSH1 0x4 DUP3 ADD MSTORE PUSH1 0x16 PUSH1 0x24 DUP3 ADD MSTORE PUSH22 0xB4DEDCCA40C2E4E4C2F2E640DAEAE6E840DAC2E8C6D PUSH1 0x53 SHL PUSH1 0x44 DUP3 ADD MSTORE PUSH1 0x64 SWAP1 REVERT JUMPDEST PUSH1 0x64 PUSH1 0x40 MLOAD PUSH3 0x461BCD PUSH1 0xE5 SHL DUP2 MSTORE PUSH1 0x20 PUSH1 0x4 DUP3 ADD MSTORE PUSH1 0x20 PUSH1 0x24 DUP3 ADD MSTORE PUSH32 0x4576656E742064617465206D75737420626520696E2074686520667574757265 PUSH1 0x44 DUP3 ADD MSTORE REVERT JUMPDEST PUSH2 0x668 CALLDATASIZE PUSH2 0xE1E JUMP JUMPDEST PUSH1 0x1 SWAP2 PUSH1 0x2 DUP4 SLOAD EQ PUSH2 0x93A JUMPI PUSH1 0x2 DUP4 SSTORE PUSH2 0x680 PUSH2 0x103B JUMP JUMPDEST DUP1 PUSH1 0x0 MSTORE PUSH1 0x20 PUSH1 0x4 DUP2 MSTORE PUSH1 0x40 PUSH1 0x0 KECCAK256 SWAP1 PUSH1 0x3 DUP3 ADD SLOAD SWAP2 PUSH1 0xFF DUP4 PUSH1 0xA0 SHR AND PUSH2 0x900 JUMPI DUP6 ADD SLOAD TIMESTAMP LT ISZERO PUSH2 0x8BC JUMPI DUP3 PUSH1 0x0 MSTORE PUSH1 0x6 DUP2 MSTORE PUSH1 0x40 PUSH1 0x0 KECCAK256 CALLER PUSH1 0x0 MSTORE DUP2 MSTORE PUSH1 0xFF PUSH1 0x40 PUSH1 0x0 KECCAK256 SLOAD AND PUSH2 0x883 JUMPI DUP3 PUSH1 0x0 MSTORE PUSH1 0x5 DUP2 MSTORE PUSH1 0x40 PUSH1 0x0 KECCAK256 DUP5 PUSH1 0x0 MSTORE DUP2 MSTORE PUSH1 0x40 PUSH1 0x0 KECCAK256 SWAP2 PUSH1 0x2 DUP4 ADD SWAP3 DUP4 SLOAD ISZERO PUSH2 0x84B JUMPI DUP7 ADD SLOAD CALLVALUE SUB PUSH2 0x806 JUMPI PUSH1 0x5 CALLVALUE MUL CALLVALUE DUP2 DIV PUSH1 0x5 EQ CALLVALUE ISZERO OR ISZERO PUSH2 0x7B2 JUMPI PUSH1 0x64 SWAP1 DIV DUP1 CALLVALUE SUB CALLVALUE DUP2 GT PUSH2 0x7B2 JUMPI PUSH1 0x0 DUP1 DUP1 SWAP4 DUP2 DUP1 DUP1 DUP1 DUP1 SWAP8 PUSH1 0x1 DUP1 PUSH1 0xA0 SHL SUB DUP1 SWAP12 AND GAS CALL SWAP6 PUSH2 0x739 PUSH2 0x1059 JUMP JUMPDEST POP DUP3 SLOAD AND GAS CALL PUSH2 0x747 PUSH2 0x1059 JUMP JUMPDEST POP DUP2 PUSH2 0x7FE JUMPI JUMPDEST POP ISZERO PUSH2 0x7C8 JUMPI DUP2 SLOAD SWAP2 DUP3 ISZERO PUSH2 0x7B2 JUMPI PUSH32 0x94C5953E15F54D38B82A662BDD5739FC91AF3A23D3EF7E67269DFAEEE71A813C SWAP3 PUSH1 0x0 NOT ADD SWAP1 SSTORE DUP3 PUSH1 0x0 MSTORE PUSH1 0x6 DUP2 MSTORE PUSH1 0x40 PUSH1 0x0 KECCAK256 CALLER PUSH1 0x0 MSTORE DUP2 MSTORE PUSH1 0x40 PUSH1 0x0 KECCAK256 DUP6 PUSH1 0xFF NOT DUP3 SLOAD AND OR SWAP1 SSTORE PUSH1 0x40 MLOAD CALLER DUP2 MSTORE LOG3 DUP1 SSTORE STOP JUMPDEST PUSH4 0x4E487B71 PUSH1 0xE0 SHL PUSH1 0x0 MSTORE PUSH1 0x11 PUSH1 0x4 MSTORE PUSH1 0x24 PUSH1 0x0 REVERT JUMPDEST PUSH1 0x64 SWAP1 PUSH1 0x40 MLOAD SWAP1 PUSH3 0x461BCD PUSH1 0xE5 SHL DUP3 MSTORE PUSH1 0x4 DUP3 ADD MSTORE PUSH1 0xF PUSH1 0x24 DUP3 ADD MSTORE PUSH15 0x151C985B9CD9995C8819985A5B1959 PUSH1 0x8A SHL PUSH1 0x44 DUP3 ADD MSTORE REVERT JUMPDEST SWAP1 POP DUP7 PUSH2 0x74E JUMP JUMPDEST PUSH1 0x40 MLOAD PUSH3 0x461BCD PUSH1 0xE5 SHL DUP2 MSTORE PUSH1 0x4 DUP2 ADD DUP4 SWAP1 MSTORE PUSH1 0x18 PUSH1 0x24 DUP3 ADD MSTORE PUSH32 0x496E636F7272656374207061796D656E7420616D6F756E740000000000000000 PUSH1 0x44 DUP3 ADD MSTORE PUSH1 0x64 SWAP1 REVERT JUMPDEST PUSH1 0x40 MLOAD PUSH3 0x461BCD PUSH1 0xE5 SHL DUP2 MSTORE PUSH1 0x4 DUP2 ADD DUP5 SWAP1 MSTORE PUSH1 0x10 PUSH1 0x24 DUP3 ADD MSTORE PUSH16 0x169BDB99481A5CC81CDBDB19081BDD5D PUSH1 0x82 SHL PUSH1 0x44 DUP3 ADD MSTORE PUSH1 0x64 SWAP1 REVERT JUMPDEST PUSH1 0x64 SWAP1 PUSH1 0x40 MLOAD SWAP1 PUSH3 0x461BCD PUSH1 0xE5 SHL DUP3 MSTORE PUSH1 0x4 DUP3 ADD MSTORE PUSH1 0x12 PUSH1 0x24 DUP3 ADD MSTORE PUSH18 0x105B1C9958591E481A185CC81D1A58DAD95D PUSH1 0x72 SHL PUSH1 0x44 DUP3 ADD MSTORE REVERT JUMPDEST PUSH1 0x64 SWAP1 PUSH1 0x40 MLOAD SWAP1 PUSH3 0x461BCD PUSH1 0xE5 SHL DUP3 MSTORE PUSH1 0x4 DUP3 ADD MSTORE PUSH1 0x1A PUSH1 0x24 DUP3 ADD MSTORE PUSH32 0x4576656E742068617320616C7265616479206F63637572726564000000000000 PUSH1 0x44 DUP3 ADD MSTORE REVERT JUMPDEST PUSH1 0x40 MLOAD PUSH3 0x461BCD PUSH1 0xE5 SHL DUP2 MSTORE PUSH1 0x4 DUP2 ADD DUP4 SWAP1 MSTORE PUSH1 0x12 PUSH1 0x24 DUP3 ADD MSTORE PUSH18 0x115D995B9D081A5CC818D85B98D95B1B1959 PUSH1 0x72 SHL PUSH1 0x44 DUP3 ADD MSTORE PUSH1 0x64 SWAP1 REVERT JUMPDEST PUSH1 0x40 MLOAD PUSH4 0x3EE5AEB5 PUSH1 0xE0 SHL DUP2 MSTORE PUSH1 0x4 SWAP1 REVERT JUMPDEST CALLVALUE PUSH2 0x133 JUMPI PUSH1 0x0 CALLDATASIZE PUSH1 0x3 NOT ADD SLT PUSH2 0x133 JUMPI PUSH1 0x0 SLOAD PUSH1 0x40 MLOAD PUSH1 0x1 PUSH1 0x1 PUSH1 0xA0 SHL SUB SWAP1 SWAP2 AND DUP2 MSTORE PUSH1 0x20 SWAP1 RETURN JUMPDEST CALLVALUE PUSH2 0x133 JUMPI PUSH1 0x0 CALLDATASIZE PUSH1 0x3 NOT ADD SLT PUSH2 0x133 JUMPI PUSH2 0x98E PUSH2 0xF85 JUMP JUMPDEST PUSH2 0x996 PUSH2 0x103B JUMP JUMPDEST PUSH1 0x1 PUSH1 0xFF NOT PUSH1 0x2 SLOAD AND OR PUSH1 0x2 SSTORE PUSH32 0x62E78CEA01BEE320CD4E420270B5EA74000D11B0C9F74754EBDBFC544B05A258 PUSH1 0x20 PUSH1 0x40 MLOAD CALLER DUP2 MSTORE LOG1 STOP JUMPDEST CALLVALUE PUSH2 0x133 JUMPI PUSH1 0x0 CALLDATASIZE PUSH1 0x3 NOT ADD SLT PUSH2 0x133 JUMPI PUSH2 0x9E8 PUSH2 0xF85 JUMP JUMPDEST PUSH1 0x0 DUP1 SLOAD PUSH1 0x1 PUSH1 0x1 PUSH1 0xA0 SHL SUB NOT DUP2 AND DUP3 SSTORE PUSH1 0x1 PUSH1 0x1 PUSH1 0xA0 SHL SUB AND PUSH32 0x8BE0079C531659141344CD1FD0A4F28419497F9722A3DAAFE3B4186F6B6457E0 DUP3 DUP1 LOG3 STOP JUMPDEST CALLVALUE PUSH2 0x133 JUMPI PUSH1 0x20 DUP1 PUSH1 0x3 NOT CALLDATASIZE ADD SLT PUSH2 0x133 JUMPI PUSH1 0xC0 PUSH1 0x40 MLOAD PUSH2 0xA48 DUP2 PUSH2 0xEC4 JUMP JUMPDEST PUSH1 0x60 SWAP2 DUP2 DUP4 DUP1 SWAP4 MSTORE PUSH1 0x0 DUP6 DUP3 ADD MSTORE PUSH1 0x0 PUSH1 0x40 DUP3 ADD MSTORE PUSH1 0x0 DUP4 DUP3 ADD MSTORE PUSH1 0x0 PUSH1 0x80 DUP3 ADD MSTORE DUP3 PUSH1 0xA0 DUP3 ADD MSTORE ADD MSTORE PUSH1 0x4 CALLDATALOAD PUSH1 0x0 MSTORE PUSH1 0x4 DUP3 MSTORE PUSH1 0x40 PUSH1 0x0 KECCAK256 SWAP1 PUSH1 0x40 MLOAD SWAP2 PUSH2 0xA8F DUP4 PUSH2 0xEC4 JUMP JUMPDEST PUSH1 0x40 MLOAD DUP2 SLOAD SWAP1 PUSH1 0x0 PUSH2 0xAA0 DUP4 PUSH2 0xFC0 JUMP JUMPDEST DUP1 DUP4 MSTORE PUSH1 0x1 SWAP4 DUP1 DUP6 AND SWAP1 DUP2 ISZERO PUSH2 0xBCF JUMPI POP PUSH1 0x1 EQ PUSH2 0xB9B JUMPI JUMPDEST PUSH1 0xE0 DUP9 PUSH2 0xB97 DUP10 DUP10 PUSH2 0xB86 DUP11 DUP11 DUP11 PUSH2 0xAD3 DUP2 DUP13 SUB DUP3 PUSH2 0xEE0 JUMP JUMPDEST DUP6 MSTORE DUP2 ADD SLOAD SWAP3 DUP7 DUP6 ADD SWAP4 DUP5 MSTORE PUSH1 0x2 DUP3 ADD SLOAD PUSH1 0x40 DUP7 ADD SWAP1 DUP2 MSTORE PUSH1 0x3 DUP4 ADD SLOAD SWAP2 DUP1 DUP8 ADD SWAP1 PUSH1 0x1 DUP1 PUSH1 0xA0 SHL SUB SWAP3 DUP4 DUP6 AND DUP4 MSTORE PUSH1 0xFF PUSH1 0x80 DUP11 ADD SWAP6 PUSH1 0xA0 SHR AND ISZERO ISZERO DUP6 MSTORE PUSH2 0xB56 PUSH2 0xB33 PUSH1 0x5 PUSH2 0xB25 PUSH1 0x4 DUP11 ADD PUSH2 0x1089 JUMP JUMPDEST SWAP9 PUSH1 0xA0 DUP14 ADD SWAP10 DUP11 MSTORE ADD PUSH2 0x1089 JUMP JUMPDEST SWAP10 PUSH1 0xC0 DUP2 ADD SWAP11 DUP12 MSTORE PUSH1 0x40 MLOAD SWAP14 DUP14 DUP16 SWAP15 SWAP3 DUP16 SWAP4 DUP5 MSTORE MLOAD SWAP3 ADD MSTORE PUSH2 0x100 DUP14 ADD SWAP1 PUSH2 0xE34 JUMP JUMPDEST SWAP8 MLOAD PUSH1 0x40 DUP13 ADD MSTORE MLOAD SWAP1 DUP11 ADD MSTORE MLOAD AND PUSH1 0x80 DUP9 ADD MSTORE MLOAD ISZERO ISZERO PUSH1 0xA0 DUP8 ADD MSTORE MLOAD SWAP2 PUSH1 0x1F NOT SWAP3 DUP4 DUP8 DUP4 SUB ADD PUSH1 0xC0 DUP9 ADD MSTORE PUSH2 0xE74 JUMP JUMPDEST SWAP2 MLOAD SWAP1 DUP5 DUP4 SUB ADD PUSH1 0xE0 DUP6 ADD MSTORE PUSH2 0xE74 JUMP JUMPDEST SUB SWAP1 RETURN JUMPDEST PUSH1 0x0 DUP6 DUP2 MSTORE DUP9 DUP2 KECCAK256 SWAP1 SWAP3 POP JUMPDEST DUP2 DUP4 LT PUSH2 0xBBC JUMPI POP POP DUP2 ADD DUP7 ADD PUSH2 0xB97 PUSH2 0xAB9 JUMP JUMPDEST DUP1 SLOAD DUP5 DUP5 ADD DUP11 ADD MSTORE SWAP2 DUP9 ADD SWAP2 DUP5 ADD PUSH2 0xBA7 JUMP JUMPDEST PUSH1 0xFF NOT AND DUP5 DUP11 ADD MSTORE POP ISZERO ISZERO PUSH1 0x5 SHL DUP3 ADD DUP8 ADD SWAP1 POP PUSH2 0xB97 PUSH2 0xAB9 JUMP JUMPDEST CALLVALUE PUSH2 0x133 JUMPI PUSH1 0x0 CALLDATASIZE PUSH1 0x3 NOT ADD SLT PUSH2 0x133 JUMPI PUSH1 0x20 PUSH1 0xFF PUSH1 0x2 SLOAD AND PUSH1 0x40 MLOAD SWAP1 ISZERO ISZERO DUP2 MSTORE RETURN JUMPDEST CALLVALUE PUSH2 0x133 JUMPI PUSH2 0xC1C CALLDATASIZE PUSH2 0xE1E JUMP JUMPDEST SWAP1 PUSH1 0x0 PUSH1 0x40 DUP1 MLOAD PUSH2 0xC2C DUP2 PUSH2 0xEA8 JUMP JUMPDEST DUP3 DUP2 MSTORE DUP3 PUSH1 0x20 DUP3 ADD MSTORE ADD MSTORE PUSH1 0x0 MSTORE PUSH1 0x5 PUSH1 0x20 MSTORE PUSH1 0x40 PUSH1 0x0 KECCAK256 SWAP1 PUSH1 0x0 MSTORE PUSH1 0x20 MSTORE PUSH1 0x60 PUSH1 0x40 PUSH1 0x0 KECCAK256 PUSH1 0x40 MLOAD PUSH2 0xC5E DUP2 PUSH2 0xEA8 JUMP JUMPDEST DUP2 SLOAD SWAP2 DUP3 DUP3 MSTORE PUSH1 0x40 PUSH1 0x2 PUSH1 0x1 DUP4 ADD SLOAD SWAP3 PUSH1 0x20 DUP6 ADD SWAP4 DUP5 MSTORE ADD SLOAD SWAP3 ADD SWAP2 DUP3 MSTORE PUSH1 0x40 MLOAD SWAP3 DUP4 MSTORE MLOAD PUSH1 0x20 DUP4 ADD MSTORE MLOAD PUSH1 0x40 DUP3 ADD MSTORE RETURN JUMPDEST CALLVALUE PUSH2 0x133 JUMPI PUSH1 0x20 CALLDATASIZE PUSH1 0x3 NOT ADD SLT PUSH2 0x133 JUMPI PUSH1 0x4 CALLDATALOAD PUSH2 0xCAC PUSH2 0x103B JUMP JUMPDEST PUSH1 0x0 DUP2 DUP2 MSTORE PUSH1 0x4 PUSH1 0x20 MSTORE PUSH1 0x40 SWAP1 KECCAK256 PUSH1 0x3 ADD DUP1 SLOAD PUSH1 0x1 PUSH1 0x1 PUSH1 0xA0 SHL SUB DUP2 AND CALLER SUB PUSH2 0xD55 JUMPI PUSH1 0xFF DUP2 PUSH1 0xA0 SHR AND PUSH2 0xD10 JUMPI PUSH1 0xFF PUSH1 0xA0 SHL NOT AND PUSH1 0x1 PUSH1 0xA0 SHL OR SWAP1 SSTORE PUSH32 0xDC3CB569B066460F4A22DFFA05317BDCCE5D3826382ED49A21F13E5FA2063D39 PUSH1 0x0 DUP1 LOG2 STOP JUMPDEST PUSH1 0x40 MLOAD PUSH3 0x461BCD PUSH1 0xE5 SHL DUP2 MSTORE PUSH1 0x20 PUSH1 0x4 DUP3 ADD MSTORE PUSH1 0x17 PUSH1 0x24 DUP3 ADD MSTORE PUSH32 0x4576656E7420616C72656164792063616E63656C6C6564000000000000000000 PUSH1 0x44 DUP3 ADD MSTORE PUSH1 0x64 SWAP1 REVERT JUMPDEST PUSH1 0x40 MLOAD PUSH3 0x461BCD PUSH1 0xE5 SHL DUP2 MSTORE PUSH1 0x20 PUSH1 0x4 DUP3 ADD MSTORE PUSH1 0x19 PUSH1 0x24 DUP3 ADD MSTORE PUSH32 0x4F6E6C79206F7267616E697A65722063616E2063616E63656C00000000000000 PUSH1 0x44 DUP3 ADD MSTORE PUSH1 0x64 SWAP1 REVERT JUMPDEST CALLVALUE PUSH2 0x133 JUMPI PUSH1 0x0 CALLDATASIZE PUSH1 0x3 NOT ADD SLT PUSH2 0x133 JUMPI PUSH2 0xDB3 PUSH2 0xF85 JUMP JUMPDEST PUSH1 0x2 SLOAD PUSH1 0xFF DUP2 AND ISZERO PUSH2 0xDF2 JUMPI PUSH1 0xFF NOT AND PUSH1 0x2 SSTORE PUSH32 0x5DB9EE0A495BF2E6FF9C91A7834C1BA4FDD244A5E8AA4E537BD38AEAE4B073AA PUSH1 0x20 PUSH1 0x40 MLOAD CALLER DUP2 MSTORE LOG1 STOP JUMPDEST PUSH1 0x40 MLOAD PUSH4 0x8DFC202B PUSH1 0xE0 SHL DUP2 MSTORE PUSH1 0x4 SWAP1 REVERT JUMPDEST CALLVALUE PUSH2 0x133 JUMPI PUSH1 0x0 CALLDATASIZE PUSH1 0x3 NOT ADD SLT PUSH2 0x133 JUMPI DUP1 PUSH1 0x5 PUSH1 0x20 SWAP3 MSTORE RETURN JUMPDEST PUSH1 0x40 SWAP1 PUSH1 0x3 NOT ADD SLT PUSH2 0x133 JUMPI PUSH1 0x4 CALLDATALOAD SWAP1 PUSH1 0x24 CALLDATALOAD SWAP1 JUMP JUMPDEST SWAP2 SWAP1 DUP3 MLOAD SWAP3 DUP4 DUP3 MSTORE PUSH1 0x0 JUMPDEST DUP5 DUP2 LT PUSH2 0xE60 JUMPI POP POP DUP3 PUSH1 0x0 PUSH1 0x20 DUP1 SWAP5 SWAP6 DUP5 ADD ADD MSTORE PUSH1 0x1F DUP1 NOT SWAP2 ADD AND ADD ADD SWAP1 JUMP JUMPDEST PUSH1 0x20 DUP2 DUP4 ADD DUP2 ADD MLOAD DUP5 DUP4 ADD DUP3 ADD MSTORE ADD PUSH2 0xE3F JUMP JUMPDEST SWAP1 DUP2 MLOAD DUP1 DUP3 MSTORE PUSH1 0x20 DUP1 DUP1 SWAP4 ADD SWAP4 ADD SWAP2 PUSH1 0x0 JUMPDEST DUP3 DUP2 LT PUSH2 0xE94 JUMPI POP POP POP POP SWAP1 JUMP JUMPDEST DUP4 MLOAD DUP6 MSTORE SWAP4 DUP2 ADD SWAP4 SWAP3 DUP2 ADD SWAP3 PUSH1 0x1 ADD PUSH2 0xE86 JUMP JUMPDEST PUSH1 0x60 DUP2 ADD SWAP1 DUP2 LT PUSH8 0xFFFFFFFFFFFFFFFF DUP3 GT OR PUSH2 0x4A3 JUMPI PUSH1 0x40 MSTORE JUMP JUMPDEST PUSH1 0xE0 DUP2 ADD SWAP1 DUP2 LT PUSH8 0xFFFFFFFFFFFFFFFF DUP3 GT OR PUSH2 0x4A3 JUMPI PUSH1 0x40 MSTORE JUMP JUMPDEST SWAP1 PUSH1 0x1F DUP1 NOT SWAP2 ADD AND DUP2 ADD SWAP1 DUP2 LT PUSH8 0xFFFFFFFFFFFFFFFF DUP3 GT OR PUSH2 0x4A3 JUMPI PUSH1 0x40 MSTORE JUMP JUMPDEST PUSH8 0xFFFFFFFFFFFFFFFF DUP2 GT PUSH2 0x4A3 JUMPI PUSH1 0x1F ADD PUSH1 0x1F NOT AND PUSH1 0x20 ADD SWAP1 JUMP JUMPDEST SWAP1 DUP1 PUSH1 0x1F DUP4 ADD SLT ISZERO PUSH2 0x133 JUMPI DUP2 CALLDATALOAD SWAP1 PUSH8 0xFFFFFFFFFFFFFFFF DUP3 GT PUSH2 0x4A3 JUMPI DUP2 PUSH1 0x5 SHL PUSH1 0x40 MLOAD SWAP4 PUSH1 0x20 SWAP4 PUSH2 0xF53 DUP6 DUP5 ADD DUP8 PUSH2 0xEE0 JUMP JUMPDEST DUP6 MSTORE DUP4 DUP1 DUP7 ADD SWAP3 DUP3 ADD ADD SWAP3 DUP4 GT PUSH2 0x133 JUMPI DUP4 ADD SWAP1 JUMPDEST DUP3 DUP3 LT PUSH2 0xF76 JUMPI POP POP POP POP SWAP1 JUMP JUMPDEST DUP2 CALLDATALOAD DUP2 MSTORE SWAP1 DUP4 ADD SWAP1 DUP4 ADD PUSH2 0xF68 JUMP JUMPDEST PUSH1 0x0 SLOAD PUSH1 0x1 PUSH1 0x1 PUSH1 0xA0 SHL SUB AND CALLER SUB PUSH2 0xF99 JUMPI JUMP JUMPDEST PUSH1 0x40 MLOAD PUSH4 0x118CDAA7 PUSH1 0xE0 SHL DUP2 MSTORE CALLER PUSH1 0x4 DUP3 ADD MSTORE PUSH1 0x24 SWAP1 REVERT JUMPDEST PUSH1 0x0 NOT DUP2 EQ PUSH2 0x7B2 JUMPI PUSH1 0x1 ADD SWAP1 JUMP JUMPDEST SWAP1 PUSH1 0x1 DUP3 DUP2 SHR SWAP3 AND DUP1 ISZERO PUSH2 0xFF0 JUMPI JUMPDEST PUSH1 0x20 DUP4 LT EQ PUSH2 0xFDA JUMPI JUMP JUMPDEST PUSH4 0x4E487B71 PUSH1 0xE0 SHL PUSH1 0x0 MSTORE PUSH1 0x22 PUSH1 0x4 MSTORE PUSH1 0x24 PUSH1 0x0 REVERT JUMPDEST SWAP2 PUSH1 0x7F AND SWAP2 PUSH2 0xFCF JUMP JUMPDEST DUP2 DUP2 LT PUSH2 0x1005 JUMPI POP POP JUMP JUMPDEST PUSH1 0x0 DUP2 SSTORE PUSH1 0x1 ADD PUSH2 0xFFA JUMP JUMPDEST DUP1 MLOAD DUP3 LT ISZERO PUSH2 0x1025 JUMPI PUSH1 0x20 SWAP2 PUSH1 0x5 SHL ADD ADD SWAP1 JUMP JUMPDEST PUSH4 0x4E487B71 PUSH1 0xE0 SHL PUSH1 0x0 MSTORE PUSH1 0x32 PUSH1 0x4 MSTORE PUSH1 0x24 PUSH1 0x0 REVERT JUMPDEST PUSH1 0xFF PUSH1 0x2 SLOAD AND PUSH2 0x1047 JUMPI JUMP JUMPDEST PUSH1 0x40 MLOAD PUSH4 0xD93C0665 PUSH1 0xE0 SHL DUP2 MSTORE PUSH1 0x4 SWAP1 REVERT JUMPDEST RETURNDATASIZE ISZERO PUSH2 0x1084 JUMPI RETURNDATASIZE SWAP1 PUSH2 0x106A DUP3 PUSH2 0xF02 JUMP JUMPDEST SWAP2 PUSH2 0x1078 PUSH1 0x40 MLOAD SWAP4 DUP5 PUSH2 0xEE0 JUMP JUMPDEST DUP3 MSTORE RETURNDATASIZE PUSH1 0x0 PUSH1 0x20 DUP5 ADD RETURNDATACOPY JUMP JUMPDEST PUSH1 0x60 SWAP1 JUMP JUMPDEST SWAP1 PUSH1 0x40 MLOAD SWAP2 DUP3 DUP2 SLOAD SWAP2 DUP3 DUP3 MSTORE PUSH1 0x20 SWAP3 DUP4 DUP4 ADD SWAP2 PUSH1 0x0 MSTORE DUP4 PUSH1 0x0 KECCAK256 SWAP4 PUSH1 0x0 SWAP1 JUMPDEST DUP3 DUP3 LT PUSH2 0x10C0 JUMPI POP POP POP PUSH2 0x10BE SWAP3 POP SUB DUP4 PUSH2 0xEE0 JUMP JUMPDEST JUMP JUMPDEST DUP6 SLOAD DUP5 MSTORE PUSH1 0x1 SWAP6 DUP7 ADD SWAP6 DUP9 SWAP6 POP SWAP4 DUP2 ADD SWAP4 SWAP1 SWAP2 ADD SWAP1 PUSH2 0x10A8 JUMP INVALID LOG2 PUSH5 0x6970667358 0x22 SLT KECCAK256 0x4F 0xF7 PUSH18 0x7E96E713296F96721904C606D6AA9CCFE31 0xDA CALLCODE 0x2C PUSH1 0x8B SELFBALANCE 0xC6 SWAP15 SLT 0xB2 DUP6 PUSH5 0x736F6C6343 STOP ADDMOD EQ STOP CALLER "},"methodIdentifiers":{"PLATFORM_FEE_PERCENTAGE()":"15548232","cancelEvent(uint256)":"3f69babd","createEvent(string,uint256,uint256,uint256[],uint256[])":"efdf49d7","getEvent(uint256)":"6d1884e0","getZone(uint256,uint256)":"46eff867","owner()":"8da5cb5b","pause()":"8456cb59","paused()":"5c975abb","purchaseTicket(uint256,uint256)":"bdbbb0cb","renounceOwnership()":"715018a6","transferOwnership(address)":"f2fde38b","unpause()":"3f4ba83a"}}}}}