{"contracts/core/RefundEscrow.sol":{"RefundEscrow":{"abi":[{"inputs":[{"internalType":"address","name":"_eventManager","type":"address"}],"stateMutability":"nonpayable","type":"constructor"},{"inputs":[],"name":"EnforcedPause","type":"error"},{"inputs":[],"name":"ExpectedPause","type":"error"},{"inputs":[{"internalType":"address","name":"owner","type":"address"}],"name":"OwnableInvalidOwner","type":"error"},{"inputs":[{"internalType":"address","name":"account","type":"address"}],"name":"OwnableUnauthorizedAccount","type":"error"},{"inputs":[],"name":"ReentrancyGuardReentrantCall","type":"error"},{"anonymous":false,"inputs":[{"indexed":true,"internalType":"address","name":"previousOwner","type":"address"},{"indexed":true,"internalType":"address","name":"newOwner","type":"address"}],"name":"OwnershipTransferred","type":"event"},{"anonymous":false,"inputs":[{"indexed":false,"internalType":"address","name":"account","type":"address"}],"name":"Paused","type":"event"},{"anonymous":false,"inputs":[{"indexed":true,"internalType":"uint256","name":"eventId","type":"uint256"},{"indexed":true,"internalType":"address","name":"payer","type":"address"},{"indexed":false,"internalType":"uint256","name":"amount","type":"uint256"}],"name":"PaymentDeposited","type":"event"},{"anonymous":false,"inputs":[{"indexed":true,"internalType":"uint256","name":"eventId","type":"uint256"},{"indexed":true,"internalType":"address","name":"payer","type":"address"},{"indexed":false,"internalType":"uint256","name":"amount","type":"uint256"}],"name":"PaymentRefunded","type":"event"},{"anonymous":false,"inputs":[{"indexed":true,"internalType":"uint256","name":"eventId","type":"uint256"},{"indexed":true,"internalType":"address","name":"payee","type":"address"},{"indexed":false,"internalType":"uint256","name":"amount","type":"uint256"}],"name":"PaymentReleased","type":"event"},{"anonymous":false,"inputs":[{"indexed":false,"internalType":"address","name":"account","type":"address"}],"name":"Unpaused","type":"event"},{"anonymous":false,"inputs":[{"indexed":true,"internalType":"uint256","name":"eventId","type":"uint256"},{"indexed":true,"internalType":"uint256","name":"ticketId","type":"uint256"}],"name":"WaitlistRefundEnabled","type":"event"},{"inputs":[],"name":"PLATFORM_FEE_PERCENTAGE","outputs":[{"internalType":"uint256","name":"","type":"uint256"}],"stateMutability":"view","type":"function"},{"inputs":[{"internalType":"uint256","name":"eventId","type":"uint256"},{"internalType":"uint256","name":"ticketId","type":"uint256"}],"name":"depositPayment","outputs":[],"stateMutability":"payable","type":"function"},{"inputs":[{"internalType":"uint256","name":"eventId","type":"uint256"},{"internalType":"uint256","name":"ticketId","type":"uint256"}],"name":"enableWaitlistRefund","outputs":[],"stateMutability":"nonpayable","type":"function"},{"inputs":[],"name":"eventManager","outputs":[{"internalType":"contract IEventManager","name":"","type":"address"}],"stateMutability":"view","type":"function"},{"inputs":[{"internalType":"uint256","name":"eventId","type":"uint256"},{"internalType":"uint256","name":"ticketId","type":"uint256"}],"name":"getPaymentAmount","outputs":[{"internalType":"uint256","name":"","type":"uint256"}],"stateMutability":"view","type":"function"},{"inputs":[{"internalType":"uint256","name":"eventId","type":"uint256"},{"internalType":"uint256","name":"ticketId","type":"uint256"}],"name":"getPaymentStatus","outputs":[{"internalType":"enum IRefundEscrow.PaymentStatus","name":"","type":"uint8"}],"stateMutability":"view","type":"function"},{"inputs":[],"name":"owner","outputs":[{"internalType":"address","name":"","type":"address"}],"stateMutability":"view","type":"function"},{"inputs":[],"name":"pause","outputs":[],"stateMutability":"nonpayable","type":"function"},{"inputs":[],"name":"paused","outputs":[{"internalType":"bool","name":"","type":"bool"}],"stateMutability":"view","type":"function"},{"inputs":[{"internalType":"uint256","name":"eventId","type":"uint256"},{"internalType":"uint256","name":"ticketId","type":"uint256"}],"name":"refundPayment","outputs":[],"stateMutability":"nonpayable","type":"function"},{"inputs":[{"internalType":"uint256","name":"eventId","type":"uint256"},{"internalType":"uint256","name":"ticketId","type":"uint256"}],"name":"releasePayment","outputs":[],"stateMutability":"nonpayable","type":"function"},{"inputs":[],"name":"renounceOwnership","outputs":[],"stateMutability":"nonpayable","type":"function"},{"inputs":[{"internalType":"address","name":"newOwner","type":"address"}],"name":"transferOwnership","outputs":[],"stateMutability":"nonpayable","type":"function"},{"inputs":[],"name":"unpause","outputs":[],"stateMutability":"nonpayable","type":"function"},{"inputs":[],"name":"withdrawStuckFunds","outputs":[],"stateMutability":"nonpayable","type":"function"}],"evm":{"bytecode":{"linkReferences":{},"object":"6080346100e257601f610ea038819003918201601f19168301916001600160401b038311848410176100e7578084926020946040528339810103126100e257516001600160a01b039081811681036100e25733156100c9576000543360018060a01b0319821617600055604051923391167f8be0079c531659141344cd1fd0a4f28419497f9722a3daafe3b4186f6b6457e0600080a360018055600280546001600160a81b03191660089290921b610100600160a81b0316919091179055610da290816100fe8239f35b604051631e4fbdf760e01b815260006004820152602490fd5b600080fd5b634e487b7160e01b600052604160045260246000fdfe608060408181526004908136101561001657600080fd5b600092833560e01c9081631554823214610a31575080632f62582c146108cd5780633f4ba83a146108635780635c975abb1461083f57806366e008f814610810578063715018a6146107b657806378c5e06d146107635780638456cb59146107085780638da5cb5b146106e05780638fd611be146106af57806395144dc4146104da57806397e99a80146103025780639bdc727c1461019b578063c5b60a48146101595763f2fde38b146100c957600080fd5b34610155576020366003190112610155576001600160a01b03823581811693919290849003610151576100fa610a67565b831561013b57505082546001600160a01b0319811683178455167f8be0079c531659141344cd1fd0a4f28419497f9722a3daafe3b4186f6b6457e08380a380f35b51631e4fbdf760e01b8152908101849052602490fd5b8480fd5b8280fd5b8334610198578060031936011261019857610172610a67565b6101958180808060018060a01b0381541647905af161018f610cfe565b50610d2e565b80f35b80fd5b506101a536610a4c565b90926101af610ae9565b6101b7610acb565b34156102b1578251916080830183811067ffffffffffffffff82111761029e57845233835260026020840193348552858101948886526060820193898552888a526003602052878a20908a526020528689209160018060a01b039051166bffffffffffffffffffffffff60a01b83541617825551600182015501925191600383101561028b575060ff61ff0084549251151560081b1692169061ffff19161717905551903482527f71284872bb4c088a81295dff2513729babbccfeda38a8d824bb1a73bcaab494e60203393a36001805580f35b634e487b7160e01b875260219052602486fd5b634e487b7160e01b875260418352602487fd5b608490602084519162461bcd60e51b8352820152602560248201527f5061796d656e7420616d6f756e74206d75737420626520677265617465722074604482015264068616e20360dc1b6064820152fd5b5090346101555761031236610a4c565b909161031c610ae9565b610324610acb565b6002546001600160a01b03929060081c8316330361049757838652600360205284862090865260205283852060028101805460ff81166003811015610484576001939291610373859215610b0c565b60ff19161790550154600581028181046005148215171561047157606490049283820391821161047157868560248360025460081c169589519687938492630368c42760e51b84528301525afa9384156104675761042e60607f21d71db5be59bb9fa133895586b7404307dd33fb93b16db09dc6f1d9d7d231b0966020968b91610445575b50019189808080808080808c8c8c51165af194610413610cfe565b50888254165af1610422610cfe565b508161043d5750610d2e565b51169451908152a36001805580f35b90503861018f565b61046191503d808d833e6104598183610a93565b810190610bdb565b386103f8565b86513d89823e3d90fd5b634e487b7160e01b875260118352602487fd5b634e487b7160e01b895260218552602489fd5b845162461bcd60e51b8152602081840152601a60248201527f43616c6c6572206973206e6f74204576656e744d616e616765720000000000006044820152606490fd5b5034610155576104e936610a4c565b6104f4929192610ae9565b6104fc610acb565b8285526003602052818520908552602052808420600281019081549160ff8316600381101561069c5761052f9015610b0c565b6002548451630368c42760e51b81528781018790526001600160a01b03949189908290602490829060081c89165afa90811561069257906080918a91610678575b5001511580159061066b575b801561065f575b156106275760029060ff191617905581815416948680808060018601998a54905af16105ad610cfe565b50156105eb5750916020917fe89ec1881a76229445bcd179b8c4b24f9edc7ddd87d07fb3b19c67ae9c6e27cc93541694549051908152a36001805580f35b606490602085519162461bcd60e51b835282015260166024820152751499599d5b99081d1c985b9cd9995c8819985a5b195960521b6044820152fd5b845162461bcd60e51b815260208189015260126024820152711499599d5b99081b9bdd08185b1b1bddd95960721b6044820152606490fd5b50838854163314610583565b5060ff8160081c1661057c565b61068c91503d808c833e6104598183610a93565b38610570565b86513d8b823e3d90fd5b634e487b7160e01b885260218752602488fd5b8382346106dc57816003193601126106dc57600254905160089190911c6001600160a01b03168152602090f35b5080fd5b8382346106dc57816003193601126106dc57905490516001600160a01b039091168152602090f35b8382346106dc57816003193601126106dc5760207f62e78cea01bee320cd4e420270b5ea74000d11b0c9f74754ebdbfc544b05a25891610746610a67565b61074e610acb565b600160ff19600254161760025551338152a180f35b508290346106dc5761077436610a4c565b908352600360205281832090835260205260ff600282842001541690519160038210156107a357602083838152f35b634e487b7160e01b815260218452602490fd5b83346101985780600319360112610198576107cf610a67565b80546001600160a01b03198116825581906001600160a01b03167f8be0079c531659141344cd1fd0a4f28419497f9722a3daafe3b4186f6b6457e08280a380f35b8382346106dc5760018160209361082636610a4c565b9082526003865282822090825285522001549051908152f35b8382346106dc57816003193601126106dc5760209060ff6002541690519015158152f35b50903461015557826003193601126101555761087d610a67565b6002549060ff8216156108bf575060ff1916600255513381527f5db9ee0a495bf2e6ff9c91a7834c1ba4fdd244a5e8aa4e537bd38aeae4b073aa90602090a180f35b8251638dfc202b60e01b8152fd5b5034610155576108dc36610a4c565b9290916108e7610acb565b8285526003602052808520848652602052808520600281019081549060ff82166003811015610a1e5761091a9015610b0c565b546001600160a01b031633036109c65761ff00191661010017905582855260208290528420805491680100000000000000008310156109b357600183018083558310156109a057508452602084200180546001600160a01b031916331790557f42a333aa9f5e83ed874e2c82d84df396c2a89c4ad056bc332d38ba044bbe8bba8380a380f35b634e487b7160e01b865260329052602485fd5b634e487b7160e01b865260419052602485fd5b825162461bcd60e51b8152602081860152602c60248201527f4f6e6c79207469636b6574206f776e65722063616e20656e61626c652077616960448201526b1d1b1a5cdd081c99599d5b9960a21b6064820152608490fd5b634e487b7160e01b895260218652602489fd5b8490346106dc57816003193601126106dc5780600560209252f35b6040906003190112610a62576004359060243590565b600080fd5b6000546001600160a01b03163303610a7b57565b60405163118cdaa760e01b8152336004820152602490fd5b90601f8019910116810190811067ffffffffffffffff821117610ab557604052565b634e487b7160e01b600052604160045260246000fd5b60ff60025416610ad757565b60405163d93c066560e01b8152600490fd5b600260015414610afa576002600155565b604051633ee5aeb560e01b8152600490fd5b15610b1357565b60405162461bcd60e51b815260206004820152601d60248201527f5061796d656e74206e6f7420696e2070656e64696e67207374617475730000006044820152606490fd5b67ffffffffffffffff8111610ab557601f01601f191660200190565b9080601f83011215610a625781519067ffffffffffffffff8211610ab5578160051b60405193602093610ba985840187610a93565b85528380860192820101928311610a62578301905b828210610bcc575050505090565b81518152908301908301610bbe565b6020918282820312610a6257815167ffffffffffffffff92838211610a6257019160e083830312610a62576040519360e0850185811083821117610ab5576040528351828111610a6257840183601f82011215610a62578051610c3d81610b58565b91610c4b6040519384610a93565b81835285848383010111610a6257839060005b838110610cea57505060009183010152855283810151908501526040808401519085015260608301516001600160a01b0381168103610a6257606085015260808301518015158103610a6257608085015260a0830151818111610a625782610cc7918501610b74565b60a085015260c0830151908111610a6257610ce29201610b74565b60c082015290565b818101830151858201840152859201610c5e565b3d15610d29573d90610d0f82610b58565b91610d1d6040519384610a93565b82523d6000602084013e565b606090565b15610d3557565b60405162461bcd60e51b815260206004820152600f60248201526e151c985b9cd9995c8819985a5b1959608a1b6044820152606490fdfea264697066735822122050f6c5d478577aa7ad4eccf4c36e6aa2895916d01a8561a0295e59847b6ed5ef64736f6c63430008140033","opcodes":"PUSH1 0x80 CALLVALUE PUSH2 0xE2 JUMPI PUSH1 0x1F PUSH2 0xEA0 CODESIZE DUP2 SWAP1 SUB SWAP2 DUP3 ADD PUSH1 0x1F NOT AND DUP4 ADD SWAP2 PUSH1 0x1 PUSH1 0x1 PUSH1 0x40 SHL SUB DUP4 GT DUP5 DUP5 LT OR PUSH2 0xE7 JUMPI DUP1 DUP5 SWAP3 PUSH1 0x20 SWAP5 PUSH1 0x40 MSTORE DUP4 CODECOPY DUP2 ADD SUB SLT PUSH2 0xE2 JUMPI MLOAD PUSH1 0x1 PUSH1 0x1 PUSH1 0xA0 SHL SUB SWAP1 DUP2 DUP2 AND DUP2 SUB PUSH2 0xE2 JUMPI CALLER ISZERO PUSH2 0xC9 JUMPI PUSH1 0x0 SLOAD CALLER PUSH1 0x1 DUP1 PUSH1 0xA0 SHL SUB NOT DUP3 AND OR PUSH1 0x0 SSTORE PUSH1 0x40 MLOAD SWAP3 CALLER SWAP2 AND PUSH32 0x8BE0079C531659141344CD1FD0A4F28419497F9722A3DAAFE3B4186F6B6457E0 PUSH1 0x0 DUP1 LOG3 PUSH1 0x1 DUP1 SSTORE PUSH1 0x2 DUP1 SLOAD PUSH1 0x1 PUSH1 0x1 PUSH1 0xA8 SHL SUB NOT AND PUSH1 0x8 SWAP3 SWAP1 SWAP3 SHL PUSH2 0x100 PUSH1 0x1 PUSH1 0xA8 SHL SUB AND SWAP2 SWAP1 SWAP2 OR SWAP1 SSTORE PUSH2 0xDA2 SWAP1 DUP2 PUSH2 0xFE DUP3 CODECOPY RETURN JUMPDEST PUSH1 0x40 MLOAD PUSH4 0x1E4FBDF7 PUSH1 0xE0 SHL DUP2 MSTORE PUSH1 0x0 PUSH1 0x4 DUP3 ADD MSTORE PUSH1 0x24 SWAP1 REVERT JUMPDEST PUSH1 0x0 DUP1 REVERT JUMPDEST PUSH4 0x4E487B71 PUSH1 0xE0 SHL PUSH1 0x0 MSTORE PUSH1 0x41 PUSH1 0x4 MSTORE PUSH1 0x24 PUSH1 0x0 REVERT INVALID PUSH1 0x80 PUSH1 0x40 DUP2 DUP2 MSTORE PUSH1 0x4 SWAP1 DUP2 CALLDATASIZE LT ISZERO PUSH2 0x16 JUMPI PUSH1 0x0 DUP1 REVERT JUMPDEST PUSH1 0x0 SWAP3 DUP4 CALLDATALOAD PUSH1 0xE0 SHR SWAP1 DUP2 PUSH4 0x15548232 EQ PUSH2 0xA31 JUMPI POP DUP1 PUSH4 0x2F62582C EQ PUSH2 0x8CD JUMPI DUP1 PUSH4 0x3F4BA83A EQ PUSH2 0x863 JUMPI DUP1 PUSH4 0x5C975ABB EQ PUSH2 0x83F JUMPI DUP1 PUSH4 0x66E008F8 EQ PUSH2 0x810 JUMPI DUP1 PUSH4 0x715018A6 EQ PUSH2 0x7B6 JUMPI DUP1 PUSH4 0x78C5E06D EQ PUSH2 0x763 JUMPI DUP1 PUSH4 0x8456CB59 EQ PUSH2 0x708 JUMPI DUP1 PUSH4 0x8DA5CB5B EQ PUSH2 0x6E0 JUMPI DUP1 PUSH4 0x8FD611BE EQ PUSH2 0x6AF JUMPI DUP1 PUSH4 0x95144DC4 EQ PUSH2 0x4DA JUMPI DUP1 PUSH4 0x97E99A80 EQ PUSH2 0x302 JUMPI DUP1 PUSH4 0x9BDC727C EQ PUSH2 0x19B JUMPI DUP1 PUSH4 0xC5B60A48 EQ PUSH2 0x159 JUMPI PUSH4 0xF2FDE38B EQ PUSH2 0xC9 JUMPI PUSH1 0x0 DUP1 REVERT JUMPDEST CALLVALUE PUSH2 0x155 JUMPI PUSH1 0x20 CALLDATASIZE PUSH1 0x3 NOT ADD SLT PUSH2 0x155 JUMPI PUSH1 0x1 PUSH1 0x1 PUSH1 0xA0 SHL SUB DUP3 CALLDATALOAD DUP2 DUP2 AND SWAP4 SWAP2 SWAP3 SWAP1 DUP5 SWAP1 SUB PUSH2 0x151 JUMPI PUSH2 0xFA PUSH2 0xA67 JUMP JUMPDEST DUP4 ISZERO PUSH2 0x13B JUMPI POP POP DUP3 SLOAD PUSH1 0x1 PUSH1 0x1 PUSH1 0xA0 SHL SUB NOT DUP2 AND DUP4 OR DUP5 SSTORE AND PUSH32 0x8BE0079C531659141344CD1FD0A4F28419497F9722A3DAAFE3B4186F6B6457E0 DUP4 DUP1 LOG3 DUP1 RETURN JUMPDEST MLOAD PUSH4 0x1E4FBDF7 PUSH1 0xE0 SHL DUP2 MSTORE SWAP1 DUP2 ADD DUP5 SWAP1 MSTORE PUSH1 0x24 SWAP1 REVERT JUMPDEST DUP5 DUP1 REVERT JUMPDEST DUP3 DUP1 REVERT JUMPDEST DUP4 CALLVALUE PUSH2 0x198 JUMPI DUP1 PUSH1 0x3 NOT CALLDATASIZE ADD SLT PUSH2 0x198 JUMPI PUSH2 0x172 PUSH2 0xA67 JUMP JUMPDEST PUSH2 0x195 DUP2 DUP1 DUP1 DUP1 PUSH1 0x1 DUP1 PUSH1 0xA0 SHL SUB DUP2 SLOAD AND SELFBALANCE SWAP1 GAS CALL PUSH2 0x18F PUSH2 0xCFE JUMP JUMPDEST POP PUSH2 0xD2E JUMP JUMPDEST DUP1 RETURN JUMPDEST DUP1 REVERT JUMPDEST POP PUSH2 0x1A5 CALLDATASIZE PUSH2 0xA4C JUMP JUMPDEST SWAP1 SWAP3 PUSH2 0x1AF PUSH2 0xAE9 JUMP JUMPDEST PUSH2 0x1B7 PUSH2 0xACB JUMP JUMPDEST CALLVALUE ISZERO PUSH2 0x2B1 JUMPI DUP3 MLOAD SWAP2 PUSH1 0x80 DUP4 ADD DUP4 DUP2 LT PUSH8 0xFFFFFFFFFFFFFFFF DUP3 GT OR PUSH2 0x29E JUMPI DUP5 MSTORE CALLER DUP4 MSTORE PUSH1 0x2 PUSH1 0x20 DUP5 ADD SWAP4 CALLVALUE DUP6 MSTORE DUP6 DUP2 ADD SWAP5 DUP9 DUP7 MSTORE PUSH1 0x60 DUP3 ADD SWAP4 DUP10 DUP6 MSTORE DUP9 DUP11 MSTORE PUSH1 0x3 PUSH1 0x20 MSTORE DUP8 DUP11 KECCAK256 SWAP1 DUP11 MSTORE PUSH1 0x20 MSTORE DUP7 DUP10 KECCAK256 SWAP2 PUSH1 0x1 DUP1 PUSH1 0xA0 SHL SUB SWAP1 MLOAD AND PUSH12 0xFFFFFFFFFFFFFFFFFFFFFFFF PUSH1 0xA0 SHL DUP4 SLOAD AND OR DUP3 SSTORE MLOAD PUSH1 0x1 DUP3 ADD SSTORE ADD SWAP3 MLOAD SWAP2 PUSH1 0x3 DUP4 LT ISZERO PUSH2 0x28B JUMPI POP PUSH1 0xFF PUSH2 0xFF00 DUP5 SLOAD SWAP3 MLOAD ISZERO ISZERO PUSH1 0x8 SHL AND SWAP3 AND SWAP1 PUSH2 0xFFFF NOT AND OR OR SWAP1 SSTORE MLOAD SWAP1 CALLVALUE DUP3 MSTORE PUSH32 0x71284872BB4C088A81295DFF2513729BABBCCFEDA38A8D824BB1A73BCAAB494E PUSH1 0x20 CALLER SWAP4 LOG3 PUSH1 0x1 DUP1 SSTORE DUP1 RETURN JUMPDEST PUSH4 0x4E487B71 PUSH1 0xE0 SHL DUP8 MSTORE PUSH1 0x21 SWAP1 MSTORE PUSH1 0x24 DUP7 REVERT JUMPDEST PUSH4 0x4E487B71 PUSH1 0xE0 SHL DUP8 MSTORE PUSH1 0x41 DUP4 MSTORE PUSH1 0x24 DUP8 REVERT JUMPDEST PUSH1 0x84 SWAP1 PUSH1 0x20 DUP5 MLOAD SWAP2 PUSH3 0x461BCD PUSH1 0xE5 SHL DUP4 MSTORE DUP3 ADD MSTORE PUSH1 0x25 PUSH1 0x24 DUP3 ADD MSTORE PUSH32 0x5061796D656E7420616D6F756E74206D75737420626520677265617465722074 PUSH1 0x44 DUP3 ADD MSTORE PUSH5 0x68616E203 PUSH1 0xDC SHL PUSH1 0x64 DUP3 ADD MSTORE REVERT JUMPDEST POP SWAP1 CALLVALUE PUSH2 0x155 JUMPI PUSH2 0x312 CALLDATASIZE PUSH2 0xA4C JUMP JUMPDEST SWAP1 SWAP2 PUSH2 0x31C PUSH2 0xAE9 JUMP JUMPDEST PUSH2 0x324 PUSH2 0xACB JUMP JUMPDEST PUSH1 0x2 SLOAD PUSH1 0x1 PUSH1 0x1 PUSH1 0xA0 SHL SUB SWAP3 SWAP1 PUSH1 0x8 SHR DUP4 AND CALLER SUB PUSH2 0x497 JUMPI DUP4 DUP7 MSTORE PUSH1 0x3 PUSH1 0x20 MSTORE DUP5 DUP7 KECCAK256 SWAP1 DUP7 MSTORE PUSH1 0x20 MSTORE DUP4 DUP6 KECCAK256 PUSH1 0x2 DUP2 ADD DUP1 SLOAD PUSH1 0xFF DUP2 AND PUSH1 0x3 DUP2 LT ISZERO PUSH2 0x484 JUMPI PUSH1 0x1 SWAP4 SWAP3 SWAP2 PUSH2 0x373 DUP6 SWAP3 ISZERO PUSH2 0xB0C JUMP JUMPDEST PUSH1 0xFF NOT AND OR SWAP1 SSTORE ADD SLOAD PUSH1 0x5 DUP2 MUL DUP2 DUP2 DIV PUSH1 0x5 EQ DUP3 ISZERO OR ISZERO PUSH2 0x471 JUMPI PUSH1 0x64 SWAP1 DIV SWAP3 DUP4 DUP3 SUB SWAP2 DUP3 GT PUSH2 0x471 JUMPI DUP7 DUP6 PUSH1 0x24 DUP4 PUSH1 0x2 SLOAD PUSH1 0x8 SHR AND SWAP6 DUP10 MLOAD SWAP7 DUP8 SWAP4 DUP5 SWAP3 PUSH4 0x368C427 PUSH1 0xE5 SHL DUP5 MSTORE DUP4 ADD MSTORE GAS STATICCALL SWAP4 DUP5 ISZERO PUSH2 0x467 JUMPI PUSH2 0x42E PUSH1 0x60 PUSH32 0x21D71DB5BE59BB9FA133895586B7404307DD33FB93B16DB09DC6F1D9D7D231B0 SWAP7 PUSH1 0x20 SWAP7 DUP12 SWAP2 PUSH2 0x445 JUMPI JUMPDEST POP ADD SWAP2 DUP10 DUP1 DUP1 DUP1 DUP1 DUP1 DUP1 DUP1 DUP13 DUP13 DUP13 MLOAD AND GAS CALL SWAP5 PUSH2 0x413 PUSH2 0xCFE JUMP JUMPDEST POP DUP9 DUP3 SLOAD AND GAS CALL PUSH2 0x422 PUSH2 0xCFE JUMP JUMPDEST POP DUP2 PUSH2 0x43D JUMPI POP PUSH2 0xD2E JUMP JUMPDEST MLOAD AND SWAP5 MLOAD SWAP1 DUP2 MSTORE LOG3 PUSH1 0x1 DUP1 SSTORE DUP1 RETURN JUMPDEST SWAP1 POP CODESIZE PUSH2 0x18F JUMP JUMPDEST PUSH2 0x461 SWAP2 POP RETURNDATASIZE DUP1 DUP14 DUP4 RETURNDATACOPY PUSH2 0x459 DUP2 DUP4 PUSH2 0xA93 JUMP JUMPDEST DUP2 ADD SWAP1 PUSH2 0xBDB JUMP JUMPDEST CODESIZE PUSH2 0x3F8 JUMP JUMPDEST DUP7 MLOAD RETURNDATASIZE DUP10 DUP3 RETURNDATACOPY RETURNDATASIZE SWAP1 REVERT JUMPDEST PUSH4 0x4E487B71 PUSH1 0xE0 SHL DUP8 MSTORE PUSH1 0x11 DUP4 MSTORE PUSH1 0x24 DUP8 REVERT JUMPDEST PUSH4 0x4E487B71 PUSH1 0xE0 SHL DUP10 MSTORE PUSH1 0x21 DUP6 MSTORE PUSH1 0x24 DUP10 REVERT JUMPDEST DUP5 MLOAD PUSH3 0x461BCD PUSH1 0xE5 SHL DUP2 MSTORE PUSH1 0x20 DUP2 DUP5 ADD MSTORE PUSH1 0x1A PUSH1 0x24 DUP3 ADD MSTORE PUSH32 0x43616C6C6572206973206E6F74204576656E744D616E61676572000000000000 PUSH1 0x44 DUP3 ADD MSTORE PUSH1 0x64 SWAP1 REVERT JUMPDEST POP CALLVALUE PUSH2 0x155 JUMPI PUSH2 0x4E9 CALLDATASIZE PUSH2 0xA4C JUMP JUMPDEST PUSH2 0x4F4 SWAP3 SWAP2 SWAP3 PUSH2 0xAE9 JUMP JUMPDEST PUSH2 0x4FC PUSH2 0xACB JUMP JUMPDEST DUP3 DUP6 MSTORE PUSH1 0x3 PUSH1 0x20 MSTORE DUP2 DUP6 KECCAK256 SWAP1 DUP6 MSTORE PUSH1 0x20 MSTORE DUP1 DUP5 KECCAK256 PUSH1 0x2 DUP2 ADD SWAP1 DUP2 SLOAD SWAP2 PUSH1 0xFF DUP4 AND PUSH1 0x3 DUP2 LT ISZERO PUSH2 0x69C JUMPI PUSH2 0x52F SWAP1 ISZERO PUSH2 0xB0C JUMP JUMPDEST PUSH1 0x2 SLOAD DUP5 MLOAD PUSH4 0x368C427 PUSH1 0xE5 SHL DUP2 MSTORE DUP8 DUP2 ADD DUP8 SWAP1 MSTORE PUSH1 0x1 PUSH1 0x1 PUSH1 0xA0 SHL SUB SWAP5 SWAP2 DUP10 SWAP1 DUP3 SWAP1 PUSH1 0x24 SWAP1 DUP3 SWAP1 PUSH1 0x8 SHR DUP10 AND GAS STATICCALL SWAP1 DUP2 ISZERO PUSH2 0x692 JUMPI SWAP1 PUSH1 0x80 SWAP2 DUP11 SWAP2 PUSH2 0x678 JUMPI JUMPDEST POP ADD MLOAD ISZERO DUP1 ISZERO SWAP1 PUSH2 0x66B JUMPI JUMPDEST DUP1 ISZERO PUSH2 0x65F JUMPI JUMPDEST ISZERO PUSH2 0x627 JUMPI PUSH1 0x2 SWAP1 PUSH1 0xFF NOT AND OR SWAP1 SSTORE DUP2 DUP2 SLOAD AND SWAP5 DUP7 DUP1 DUP1 DUP1 PUSH1 0x1 DUP7 ADD SWAP10 DUP11 SLOAD SWAP1 GAS CALL PUSH2 0x5AD PUSH2 0xCFE JUMP JUMPDEST POP ISZERO PUSH2 0x5EB JUMPI POP SWAP2 PUSH1 0x20 SWAP2 PUSH32 0xE89EC1881A76229445BCD179B8C4B24F9EDC7DDD87D07FB3B19C67AE9C6E27CC SWAP4 SLOAD AND SWAP5 SLOAD SWAP1 MLOAD SWAP1 DUP2 MSTORE LOG3 PUSH1 0x1 DUP1 SSTORE DUP1 RETURN JUMPDEST PUSH1 0x64 SWAP1 PUSH1 0x20 DUP6 MLOAD SWAP2 PUSH3 0x461BCD PUSH1 0xE5 SHL DUP4 MSTORE DUP3 ADD MSTORE PUSH1 0x16 PUSH1 0x24 DUP3 ADD MSTORE PUSH22 0x1499599D5B99081D1C985B9CD9995C8819985A5B1959 PUSH1 0x52 SHL PUSH1 0x44 DUP3 ADD MSTORE REVERT JUMPDEST DUP5 MLOAD PUSH3 0x461BCD PUSH1 0xE5 SHL DUP2 MSTORE PUSH1 0x20 DUP2 DUP10 ADD MSTORE PUSH1 0x12 PUSH1 0x24 DUP3 ADD MSTORE PUSH18 0x1499599D5B99081B9BDD08185B1B1BDDD959 PUSH1 0x72 SHL PUSH1 0x44 DUP3 ADD MSTORE PUSH1 0x64 SWAP1 REVERT JUMPDEST POP DUP4 DUP9 SLOAD AND CALLER EQ PUSH2 0x583 JUMP JUMPDEST POP PUSH1 0xFF DUP2 PUSH1 0x8 SHR AND PUSH2 0x57C JUMP JUMPDEST PUSH2 0x68C SWAP2 POP RETURNDATASIZE DUP1 DUP13 DUP4 RETURNDATACOPY PUSH2 0x459 DUP2 DUP4 PUSH2 0xA93 JUMP JUMPDEST CODESIZE PUSH2 0x570 JUMP JUMPDEST DUP7 MLOAD RETURNDATASIZE DUP12 DUP3 RETURNDATACOPY RETURNDATASIZE SWAP1 REVERT JUMPDEST PUSH4 0x4E487B71 PUSH1 0xE0 SHL DUP9 MSTORE PUSH1 0x21 DUP8 MSTORE PUSH1 0x24 DUP9 REVERT JUMPDEST DUP4 DUP3 CALLVALUE PUSH2 0x6DC JUMPI DUP2 PUSH1 0x3 NOT CALLDATASIZE ADD SLT PUSH2 0x6DC JUMPI PUSH1 0x2 SLOAD SWAP1 MLOAD PUSH1 0x8 SWAP2 SWAP1 SWAP2 SHR PUSH1 0x1 PUSH1 0x1 PUSH1 0xA0 SHL SUB AND DUP2 MSTORE PUSH1 0x20 SWAP1 RETURN JUMPDEST POP DUP1 REVERT JUMPDEST DUP4 DUP3 CALLVALUE PUSH2 0x6DC JUMPI DUP2 PUSH1 0x3 NOT CALLDATASIZE ADD SLT PUSH2 0x6DC JUMPI SWAP1 SLOAD SWAP1 MLOAD PUSH1 0x1 PUSH1 0x1 PUSH1 0xA0 SHL SUB SWAP1 SWAP2 AND DUP2 MSTORE PUSH1 0x20 SWAP1 RETURN JUMPDEST DUP4 DUP3 CALLVALUE PUSH2 0x6DC JUMPI DUP2 PUSH1 0x3 NOT CALLDATASIZE ADD SLT PUSH2 0x6DC JUMPI PUSH1 0x20 PUSH32 0x62E78CEA01BEE320CD4E420270B5EA74000D11B0C9F74754EBDBFC544B05A258 SWAP2 PUSH2 0x746 PUSH2 0xA67 JUMP JUMPDEST PUSH2 0x74E PUSH2 0xACB JUMP JUMPDEST PUSH1 0x1 PUSH1 0xFF NOT PUSH1 0x2 SLOAD AND OR PUSH1 0x2 SSTORE MLOAD CALLER DUP2 MSTORE LOG1 DUP1 RETURN JUMPDEST POP DUP3 SWAP1 CALLVALUE PUSH2 0x6DC JUMPI PUSH2 0x774 CALLDATASIZE PUSH2 0xA4C JUMP JUMPDEST SWAP1 DUP4 MSTORE PUSH1 0x3 PUSH1 0x20 MSTORE DUP2 DUP4 KECCAK256 SWAP1 DUP4 MSTORE PUSH1 0x20 MSTORE PUSH1 0xFF PUSH1 0x2 DUP3 DUP5 KECCAK256 ADD SLOAD AND SWAP1 MLOAD SWAP2 PUSH1 0x3 DUP3 LT ISZERO PUSH2 0x7A3 JUMPI PUSH1 0x20 DUP4 DUP4 DUP2 MSTORE RETURN JUMPDEST PUSH4 0x4E487B71 PUSH1 0xE0 SHL DUP2 MSTORE PUSH1 0x21 DUP5 MSTORE PUSH1 0x24 SWAP1 REVERT JUMPDEST DUP4 CALLVALUE PUSH2 0x198 JUMPI DUP1 PUSH1 0x3 NOT CALLDATASIZE ADD SLT PUSH2 0x198 JUMPI PUSH2 0x7CF PUSH2 0xA67 JUMP JUMPDEST DUP1 SLOAD PUSH1 0x1 PUSH1 0x1 PUSH1 0xA0 SHL SUB NOT DUP2 AND DUP3 SSTORE DUP2 SWAP1 PUSH1 0x1 PUSH1 0x1 PUSH1 0xA0 SHL SUB AND PUSH32 0x8BE0079C531659141344CD1FD0A4F28419497F9722A3DAAFE3B4186F6B6457E0 DUP3 DUP1 LOG3 DUP1 RETURN JUMPDEST DUP4 DUP3 CALLVALUE PUSH2 0x6DC JUMPI PUSH1 0x1 DUP2 PUSH1 0x20 SWAP4 PUSH2 0x826 CALLDATASIZE PUSH2 0xA4C JUMP JUMPDEST SWAP1 DUP3 MSTORE PUSH1 0x3 DUP7 MSTORE DUP3 DUP3 KECCAK256 SWAP1 DUP3 MSTORE DUP6 MSTORE KECCAK256 ADD SLOAD SWAP1 MLOAD SWAP1 DUP2 MSTORE RETURN JUMPDEST DUP4 DUP3 CALLVALUE PUSH2 0x6DC JUMPI DUP2 PUSH1 0x3 NOT CALLDATASIZE ADD SLT PUSH2 0x6DC JUMPI PUSH1 0x20 SWAP1 PUSH1 0xFF PUSH1 0x2 SLOAD AND SWAP1 MLOAD SWAP1 ISZERO ISZERO DUP2 MSTORE RETURN JUMPDEST POP SWAP1 CALLVALUE PUSH2 0x155 JUMPI DUP3 PUSH1 0x3 NOT CALLDATASIZE ADD SLT PUSH2 0x155 JUMPI PUSH2 0x87D PUSH2 0xA67 JUMP JUMPDEST PUSH1 0x2 SLOAD SWAP1 PUSH1 0xFF DUP3 AND ISZERO PUSH2 0x8BF JUMPI POP PUSH1 0xFF NOT AND PUSH1 0x2 SSTORE MLOAD CALLER DUP2 MSTORE PUSH32 0x5DB9EE0A495BF2E6FF9C91A7834C1BA4FDD244A5E8AA4E537BD38AEAE4B073AA SWAP1 PUSH1 0x20 SWAP1 LOG1 DUP1 RETURN JUMPDEST DUP3 MLOAD PUSH4 0x8DFC202B PUSH1 0xE0 SHL DUP2 MSTORE REVERT JUMPDEST POP CALLVALUE PUSH2 0x155 JUMPI PUSH2 0x8DC CALLDATASIZE PUSH2 0xA4C JUMP JUMPDEST SWAP3 SWAP1 SWAP2 PUSH2 0x8E7 PUSH2 0xACB JUMP JUMPDEST DUP3 DUP6 MSTORE PUSH1 0x3 PUSH1 0x20 MSTORE DUP1 DUP6 KECCAK256 DUP5 DUP7 MSTORE PUSH1 0x20 MSTORE DUP1 DUP6 KECCAK256 PUSH1 0x2 DUP2 ADD SWAP1 DUP2 SLOAD SWAP1 PUSH1 0xFF DUP3 AND PUSH1 0x3 DUP2 LT ISZERO PUSH2 0xA1E JUMPI PUSH2 0x91A SWAP1 ISZERO PUSH2 0xB0C JUMP JUMPDEST SLOAD PUSH1 0x1 PUSH1 0x1 PUSH1 0xA0 SHL SUB AND CALLER SUB PUSH2 0x9C6 JUMPI PUSH2 0xFF00 NOT AND PUSH2 0x100 OR SWAP1 SSTORE DUP3 DUP6 MSTORE PUSH1 0x20 DUP3 SWAP1 MSTORE DUP5 KECCAK256 DUP1 SLOAD SWAP2 PUSH9 0x10000000000000000 DUP4 LT ISZERO PUSH2 0x9B3 JUMPI PUSH1 0x1 DUP4 ADD DUP1 DUP4 SSTORE DUP4 LT ISZERO PUSH2 0x9A0 JUMPI POP DUP5 MSTORE PUSH1 0x20 DUP5 KECCAK256 ADD DUP1 SLOAD PUSH1 0x1 PUSH1 0x1 PUSH1 0xA0 SHL SUB NOT AND CALLER OR SWAP1 SSTORE PUSH32 0x42A333AA9F5E83ED874E2C82D84DF396C2A89C4AD056BC332D38BA044BBE8BBA DUP4 DUP1 LOG3 DUP1 RETURN JUMPDEST PUSH4 0x4E487B71 PUSH1 0xE0 SHL DUP7 MSTORE PUSH1 0x32 SWAP1 MSTORE PUSH1 0x24 DUP6 REVERT JUMPDEST PUSH4 0x4E487B71 PUSH1 0xE0 SHL DUP7 MSTORE PUSH1 0x41 SWAP1 MSTORE PUSH1 0x24 DUP6 REVERT JUMPDEST DUP3 MLOAD PUSH3 0x461BCD PUSH1 0xE5 SHL DUP2 MSTORE PUSH1 0x20 DUP2 DUP7 ADD MSTORE PUSH1 0x2C PUSH1 0x24 DUP3 ADD MSTORE PUSH32 0x4F6E6C79207469636B6574206F776E65722063616E20656E61626C6520776169 PUSH1 0x44 DUP3 ADD MSTORE PUSH12 0x1D1B1A5CDD081C99599D5B99 PUSH1 0xA2 SHL PUSH1 0x64 DUP3 ADD MSTORE PUSH1 0x84 SWAP1 REVERT JUMPDEST PUSH4 0x4E487B71 PUSH1 0xE0 SHL DUP10 MSTORE PUSH1 0x21 DUP7 MSTORE PUSH1 0x24 DUP10 REVERT JUMPDEST DUP5 SWAP1 CALLVALUE PUSH2 0x6DC JUMPI DUP2 PUSH1 0x3 NOT CALLDATASIZE ADD SLT PUSH2 0x6DC JUMPI DUP1 PUSH1 0x5 PUSH1 0x20 SWAP3 MSTORE RETURN JUMPDEST PUSH1 0x40 SWAP1 PUSH1 0x3 NOT ADD SLT PUSH2 0xA62 JUMPI PUSH1 0x4 CALLDATALOAD SWAP1 PUSH1 0x24 CALLDATALOAD SWAP1 JUMP JUMPDEST PUSH1 0x0 DUP1 REVERT JUMPDEST PUSH1 0x0 SLOAD PUSH1 0x1 PUSH1 0x1 PUSH1 0xA0 SHL SUB AND CALLER SUB PUSH2 0xA7B JUMPI JUMP JUMPDEST PUSH1 0x40 MLOAD PUSH4 0x118CDAA7 PUSH1 0xE0 SHL DUP2 MSTORE CALLER PUSH1 0x4 DUP3 ADD MSTORE PUSH1 0x24 SWAP1 REVERT JUMPDEST SWAP1 PUSH1 0x1F DUP1 NOT SWAP2 ADD AND DUP2 ADD SWAP1 DUP2 LT PUSH8 0xFFFFFFFFFFFFFFFF DUP3 GT OR PUSH2 0xAB5 JUMPI PUSH1 0x40 MSTORE JUMP JUMPDEST PUSH4 0x4E487B71 PUSH1 0xE0 SHL PUSH1 0x0 MSTORE PUSH1 0x41 PUSH1 0x4 MSTORE PUSH1 0x24 PUSH1 0x0 REVERT JUMPDEST PUSH1 0xFF PUSH1 0x2 SLOAD AND PUSH2 0xAD7 JUMPI JUMP JUMPDEST PUSH1 0x40 MLOAD PUSH4 0xD93C0665 PUSH1 0xE0 SHL DUP2 MSTORE PUSH1 0x4 SWAP1 REVERT JUMPDEST PUSH1 0x2 PUSH1 0x1 SLOAD EQ PUSH2 0xAFA JUMPI PUSH1 0x2 PUSH1 0x1 SSTORE JUMP JUMPDEST PUSH1 0x40 MLOAD PUSH4 0x3EE5AEB5 PUSH1 0xE0 SHL DUP2 MSTORE PUSH1 0x4 SWAP1 REVERT JUMPDEST ISZERO PUSH2 0xB13 JUMPI JUMP JUMPDEST PUSH1 0x40 MLOAD PUSH3 0x461BCD PUSH1 0xE5 SHL DUP2 MSTORE PUSH1 0x20 PUSH1 0x4 DUP3 ADD MSTORE PUSH1 0x1D PUSH1 0x24 DUP3 ADD MSTORE PUSH32 0x5061796D656E74206E6F7420696E2070656E64696E6720737461747573000000 PUSH1 0x44 DUP3 ADD MSTORE PUSH1 0x64 SWAP1 REVERT JUMPDEST PUSH8 0xFFFFFFFFFFFFFFFF DUP2 GT PUSH2 0xAB5 JUMPI PUSH1 0x1F ADD PUSH1 0x1F NOT AND PUSH1 0x20 ADD SWAP1 JUMP JUMPDEST SWAP1 DUP1 PUSH1 0x1F DUP4 ADD SLT ISZERO PUSH2 0xA62 JUMPI DUP2 MLOAD SWAP1 PUSH8 0xFFFFFFFFFFFFFFFF DUP3 GT PUSH2 0xAB5 JUMPI DUP2 PUSH1 0x5 SHL PUSH1 0x40 MLOAD SWAP4 PUSH1 0x20 SWAP4 PUSH2 0xBA9 DUP6 DUP5 ADD DUP8 PUSH2 0xA93 JUMP JUMPDEST DUP6 MSTORE DUP4 DUP1 DUP7 ADD SWAP3 DUP3 ADD ADD SWAP3 DUP4 GT PUSH2 0xA62 JUMPI DUP4 ADD SWAP1 JUMPDEST DUP3 DUP3 LT PUSH2 0xBCC JUMPI POP POP POP POP SWAP1 JUMP JUMPDEST DUP2 MLOAD DUP2 MSTORE SWAP1 DUP4 ADD SWAP1 DUP4 ADD PUSH2 0xBBE JUMP JUMPDEST PUSH1 0x20 SWAP2 DUP3 DUP3 DUP3 SUB SLT PUSH2 0xA62 JUMPI DUP2 MLOAD PUSH8 0xFFFFFFFFFFFFFFFF SWAP3 DUP4 DUP3 GT PUSH2 0xA62 JUMPI ADD SWAP2 PUSH1 0xE0 DUP4 DUP4 SUB SLT PUSH2 0xA62 JUMPI PUSH1 0x40 MLOAD SWAP4 PUSH1 0xE0 DUP6 ADD DUP6 DUP2 LT DUP4 DUP3 GT OR PUSH2 0xAB5 JUMPI PUSH1 0x40 MSTORE DUP4 MLOAD DUP3 DUP2 GT PUSH2 0xA62 JUMPI DUP5 ADD DUP4 PUSH1 0x1F DUP3 ADD SLT ISZERO PUSH2 0xA62 JUMPI DUP1 MLOAD PUSH2 0xC3D DUP2 PUSH2 0xB58 JUMP JUMPDEST SWAP2 PUSH2 0xC4B PUSH1 0x40 MLOAD SWAP4 DUP5 PUSH2 0xA93 JUMP JUMPDEST DUP2 DUP4 MSTORE DUP6 DUP5 DUP4 DUP4 ADD ADD GT PUSH2 0xA62 JUMPI DUP4 SWAP1 PUSH1 0x0 JUMPDEST DUP4 DUP2 LT PUSH2 0xCEA JUMPI POP POP PUSH1 0x0 SWAP2 DUP4 ADD ADD MSTORE DUP6 MSTORE DUP4 DUP2 ADD MLOAD SWAP1 DUP6 ADD MSTORE PUSH1 0x40 DUP1 DUP5 ADD MLOAD SWAP1 DUP6 ADD MSTORE PUSH1 0x60 DUP4 ADD MLOAD PUSH1 0x1 PUSH1 0x1 PUSH1 0xA0 SHL SUB DUP2 AND DUP2 SUB PUSH2 0xA62 JUMPI PUSH1 0x60 DUP6 ADD MSTORE PUSH1 0x80 DUP4 ADD MLOAD DUP1 ISZERO ISZERO DUP2 SUB PUSH2 0xA62 JUMPI PUSH1 0x80 DUP6 ADD MSTORE PUSH1 0xA0 DUP4 ADD MLOAD DUP2 DUP2 GT PUSH2 0xA62 JUMPI DUP3 PUSH2 0xCC7 SWAP2 DUP6 ADD PUSH2 0xB74 JUMP JUMPDEST PUSH1 0xA0 DUP6 ADD MSTORE PUSH1 0xC0 DUP4 ADD MLOAD SWAP1 DUP2 GT PUSH2 0xA62 JUMPI PUSH2 0xCE2 SWAP3 ADD PUSH2 0xB74 JUMP JUMPDEST PUSH1 0xC0 DUP3 ADD MSTORE SWAP1 JUMP JUMPDEST DUP2 DUP2 ADD DUP4 ADD MLOAD DUP6 DUP3 ADD DUP5 ADD MSTORE DUP6 SWAP3 ADD PUSH2 0xC5E JUMP JUMPDEST RETURNDATASIZE ISZERO PUSH2 0xD29 JUMPI RETURNDATASIZE SWAP1 PUSH2 0xD0F DUP3 PUSH2 0xB58 JUMP JUMPDEST SWAP2 PUSH2 0xD1D PUSH1 0x40 MLOAD SWAP4 DUP5 PUSH2 0xA93 JUMP JUMPDEST DUP3 MSTORE RETURNDATASIZE PUSH1 0x0 PUSH1 0x20 DUP5 ADD RETURNDATACOPY JUMP JUMPDEST PUSH1 0x60 SWAP1 JUMP JUMPDEST ISZERO PUSH2 0xD35 JUMPI JUMP JUMPDEST PUSH1 0x40 MLOAD PUSH3 0x461BCD PUSH1 0xE5 SHL DUP2 MSTORE PUSH1 0x20 PUSH1 0x4 DUP3 ADD MSTORE PUSH1 0xF PUSH1 0x24 DUP3 ADD MSTORE PUSH15 0x151C985B9CD9995C8819985A5B1959 PUSH1 0x8A SHL PUSH1 0x44 DUP3 ADD MSTORE PUSH1 0x64 SWAP1 REVERT INVALID LOG2 PUSH5 0x6970667358 0x22 SLT KECCAK256 POP 0xF6 0xC5 0xD4 PUSH25 0x577AA7AD4ECCF4C36E6AA2895916D01A8561A0295E59847B6E 0xD5 0xEF PUSH5 0x736F6C6343 STOP ADDMOD EQ STOP CALLER "},"methodIdentifiers":{"PLATFORM_FEE_PERCENTAGE()":"15548232","depositPayment(uint256,uint256)":"9bdc727c","enableWaitlistRefund(uint256,uint256)":"2f62582c","eventManager()":"8fd611be","getPaymentAmount(uint256,uint256)":"66e008f8","getPaymentStatus(uint256,uint256)":"78c5e06d","owner()":"8da5cb5b","pause()":"8456cb59","paused()":"5c975abb","refundPayment(uint256,uint256)":"95144dc4","releasePayment(uint256,uint256)":"97e99a80","renounceOwnership()":"715018a6","transferOwnership(address)":"f2fde38b","unpause()":"3f4ba83a","withdrawStuckFunds()":"c5b60a48"}}}}}