{"contracts/core/ResaleManager.sol":{"ResaleManager":{"abi":[{"inputs":[{"internalType":"address","name":"ticketFactoryAddress","type":"address"}],"stateMutability":"nonpayable","type":"constructor"},{"inputs":[],"name":"EnforcedPause","type":"error"},{"inputs":[],"name":"ExpectedPause","type":"error"},{"inputs":[{"internalType":"address","name":"owner","type":"address"}],"name":"OwnableInvalidOwner","type":"error"},{"inputs":[{"internalType":"address","name":"account","type":"address"}],"name":"OwnableUnauthorizedAccount","type":"error"},{"inputs":[],"name":"ReentrancyGuardReentrantCall","type":"error"},{"anonymous":false,"inputs":[{"indexed":true,"internalType":"address","name":"previousOwner","type":"address"},{"indexed":true,"internalType":"address","name":"newOwner","type":"address"}],"name":"OwnershipTransferred","type":"event"},{"anonymous":false,"inputs":[{"indexed":false,"internalType":"address","name":"account","type":"address"}],"name":"Paused","type":"event"},{"anonymous":false,"inputs":[{"indexed":true,"internalType":"uint256","name":"tokenId","type":"uint256"},{"indexed":false,"internalType":"uint256","name":"amount","type":"uint256"}],"name":"PlatformFeeCollected","type":"event"},{"anonymous":false,"inputs":[{"indexed":true,"internalType":"uint256","name":"tokenId","type":"uint256"},{"indexed":true,"internalType":"address","name":"seller","type":"address"},{"indexed":false,"internalType":"uint256","name":"price","type":"uint256"}],"name":"TicketListed","type":"event"},{"anonymous":false,"inputs":[{"indexed":true,"internalType":"uint256","name":"tokenId","type":"uint256"},{"indexed":true,"internalType":"address","name":"seller","type":"address"},{"indexed":true,"internalType":"address","name":"buyer","type":"address"},{"indexed":false,"internalType":"uint256","name":"price","type":"uint256"}],"name":"TicketResold","type":"event"},{"anonymous":false,"inputs":[{"indexed":true,"internalType":"uint256","name":"tokenId","type":"uint256"},{"indexed":true,"internalType":"address","name":"seller","type":"address"}],"name":"TicketUnlisted","type":"event"},{"anonymous":false,"inputs":[{"indexed":false,"internalType":"address","name":"account","type":"address"}],"name":"Unpaused","type":"event"},{"inputs":[],"name":"MAX_RESALE_MARKUP","outputs":[{"internalType":"uint256","name":"","type":"uint256"}],"stateMutability":"view","type":"function"},{"inputs":[],"name":"PLATFORM_FEE_PERCENTAGE","outputs":[{"internalType":"uint256","name":"","type":"uint256"}],"stateMutability":"view","type":"function"},{"inputs":[],"name":"RESALE_TIMEOUT","outputs":[{"internalType":"uint256","name":"","type":"uint256"}],"stateMutability":"view","type":"function"},{"inputs":[{"internalType":"uint256","name":"tokenId","type":"uint256"}],"name":"cancelResaleListing","outputs":[],"stateMutability":"nonpayable","type":"function"},{"inputs":[{"internalType":"uint256","name":"tokenId","type":"uint256"}],"name":"getResaleListing","outputs":[{"internalType":"address","name":"seller","type":"address"},{"internalType":"uint256","name":"price","type":"uint256"},{"internalType":"uint256","name":"listingTime","type":"uint256"},{"internalType":"bool","name":"isActive","type":"bool"}],"stateMutability":"view","type":"function"},{"inputs":[{"internalType":"uint256","name":"tokenId","type":"uint256"}],"name":"isListingValid","outputs":[{"internalType":"bool","name":"","type":"bool"}],"stateMutability":"view","type":"function"},{"inputs":[{"internalType":"uint256","name":"tokenId","type":"uint256"},{"internalType":"uint256","name":"price","type":"uint256"}],"name":"listTicketForResale","outputs":[],"stateMutability":"nonpayable","type":"function"},{"inputs":[],"name":"owner","outputs":[{"internalType":"address","name":"","type":"address"}],"stateMutability":"view","type":"function"},{"inputs":[],"name":"pause","outputs":[],"stateMutability":"nonpayable","type":"function"},{"inputs":[],"name":"paused","outputs":[{"internalType":"bool","name":"","type":"bool"}],"stateMutability":"view","type":"function"},{"inputs":[{"internalType":"uint256","name":"tokenId","type":"uint256"}],"name":"purchaseResaleTicket","outputs":[],"stateMutability":"payable","type":"function"},{"inputs":[],"name":"renounceOwnership","outputs":[],"stateMutability":"nonpayable","type":"function"},{"inputs":[{"internalType":"uint256","name":"","type":"uint256"}],"name":"resaleListings","outputs":[{"internalType":"address","name":"seller","type":"address"},{"internalType":"uint256","name":"price","type":"uint256"},{"internalType":"uint256","name":"listingTime","type":"uint256"},{"internalType":"bool","name":"isActive","type":"bool"}],"stateMutability":"view","type":"function"},{"inputs":[{"internalType":"address","name":"newTicketFactory","type":"address"}],"name":"setTicketFactory","outputs":[],"stateMutability":"nonpayable","type":"function"},{"inputs":[],"name":"ticketFactory","outputs":[{"internalType":"contract ITicketFactory","name":"","type":"address"}],"stateMutability":"view","type":"function"},{"inputs":[{"internalType":"address","name":"newOwner","type":"address"}],"name":"transferOwnership","outputs":[],"stateMutability":"nonpayable","type":"function"},{"inputs":[],"name":"unpause","outputs":[],"stateMutability":"nonpayable","type":"function"},{"stateMutability":"payable","type":"receive"}],"evm":{"bytecode":{"linkReferences":{},"object":"60803461012f57601f610f2e38819003918201601f19168301916001600160401b038311848410176101345780849260209460405283398101031261012f57516001600160a01b03808216919082820361012f573315610116576000543360018060a01b0319821617600055604051913391167f8be0079c531659141344cd1fd0a4f28419497f9722a3daafe3b4186f6b6457e0600080a36001805560025492156100d457506001600160a81b031990911660089190911b610100600160a81b031617600255604051610de3908161014b8239f35b62461bcd60e51b815260206004820152601d60248201527f496e76616c6964205469636b6574466163746f727920616464726573730000006044820152606490fd5b604051631e4fbdf760e01b815260006004820152602490fd5b600080fd5b634e487b7160e01b600052604160045260246000fdfe608060409080825260049081361015610061575b50361561001f57600080fd5b6020606492519162461bcd60e51b8352820152601c60248201527f446972656374207061796d656e7473206e6f74206163636570746564000000006044820152fd5b600090813560e01c908163068f46ce14610c2e575080630847112a14610c125780631554823214610bf65780633847593414610b525780633b85977614610b345780633f4ba83a14610ac95780633fc4a060146107a45780634f7885ee146107105780635c975abb146106ec5780636053b0ef1461043b578063715018a6146103de57806373253387146103375780638456cb59146102dc5780638da5cb5b146102b0578063b41b4bd414610253578063b9c9e0de146101c05763f2fde38b036100135791346101bc5760203660031901126101bc576001600160a01b038235818116939192908490036101b857610157610c56565b83156101a2575050600054826bffffffffffffffffffffffff60a01b821617600055167f8be0079c531659141344cd1fd0a4f28419497f9722a3daafe3b4186f6b6457e0600080a380f35b51631e4fbdf760e01b8152908101849052602490fd5b8480fd5b8280fd5b509190346101bc5760203660031901126101bc579181923581526003602052209061024f60608251936101f285610c82565b80546001600160a01b031680865260018201546020808801829052600284015488880181905260039094015460ff161515949097018490529451908152948501939093526040840192909252606083019190915281906080820190565b0390f35b509190346101bc5760203660031901126101bc573582526003602081815292829020805460018201546002830154929093015493516001600160a01b03909116815293840191909152604083015260ff1615156060820152608090f35b5082346102d857816003193601126102d857905490516001600160a01b039091168152602090f35b5080fd5b5082346102d857816003193601126102d85760207f62e78cea01bee320cd4e420270b5ea74000d11b0c9f74754ebdbfc544b05a2589161031a610c56565b610322610ce8565b600160ff19600254161760025551338152a180f35b5091346101bc5760203660031901126101bc578192606092358152600360205281812090825161036681610c82565b82546001600160a01b0316815260018301546020820152600283015484820181905260039093015460ff1615159401849052836103aa575b60208484519015158152f35b9091925062093a8082018092116103cb57506020925042111590388061039e565b634e487b7160e01b815260118452602490fd5b50346104385780600319360112610438576103f7610c56565b600080546001600160a01b0319811682556001600160a01b03167f8be0079c531659141344cd1fd0a4f28419497f9722a3daafe3b4186f6b6457e08280a380f35b80fd5b5082346102d857806003193601126102d8578235602480359261045c610ce8565b60018060a01b03958660025460081c16928251936331a9108f60e11b8552858386015260209485818481855afa9081156106e25789916106a8575b5089339116036106745760e082918551928380926301260a0b60e51b82528a888301525afa801561066a578891899161060b575b506105d457606e810290808204606e14901517156105c25760649004861161058257505090818660037f22968ec3be3687b180f3544163a034b88d57b48159d9a7e9a1b610fdb2d05f80945161052081610c82565b33815284810188815284820190428252606083019460018652898c52848852868c209351166bffffffffffffffffffffffff60a01b845416178355516001830155516002820155019051151560ff80198354169116179055519384523393a380f35b60649360189293519362461bcd60e51b85528401528201527f50726963652065786365656473206d6178206d61726b757000000000000000006044820152fd5b50634e487b7160e01b87526011825286fd5b5060649360139293519362461bcd60e51b855284015282015272151a58dad95d08185b1c9958591e481d5cd959606a1b6044820152fd5b91505060e0813d8211610662575b8161062660e09383610cb4565b8101031261065e578481015161065660a0610642878501610cd6565b9361064f60808201610cd6565b5001610cd6565b50908a6104cb565b8780fd5b3d9150610619565b84513d8a823e3d90fd5b5060649360109293519362461bcd60e51b85528401528201526f2737ba103a34b1b5b2ba1037bbb732b960811b6044820152fd5b90508581813d83116106db575b6106bf8183610cb4565b810103126106d7575189811681036106d7578a610497565b8880fd5b503d6106b5565b85513d8b823e3d90fd5b5082346102d857816003193601126102d85760209060ff6002541690519015158152f35b509190346101bc5760203660031901126101bc578035916001600160a01b0383168084036101b857610740610c56565b1561076f57505060028054610100600160a81b03191660089290921b610100600160a81b031691909117905580f35b906020606492519162461bcd60e51b8352820152600f60248201526e496e76616c6964206164647265737360881b6044820152fd5b50826020806003193601126101bc57833591600260015414610aba5760026001556107cd610ce8565b828452600382528084209060038201916107ea60ff845416610d06565b600281015462093a808101809111610aa7574211610a725760018101805493843410610a385760018060a01b0380935416926005860286810460051487151715610a255760649004958961083e8883610d4a565b918034116109cd575b5080808093885af1610857610d6d565b5015610992578880808089858254165af1610870610d6d565b501561094f5760025460081c16803b156106d757888460648c83895195869485936323b872dd60e01b85528401523360248401528d60448401525af180156106e25761091e575b507fa8341f104131cae3e9965326a01662a1e0dc3dc60c8d099fefa4578ef8f6f9ae9697985060ff19815416905554908251918252867fd59a36d8310ffb140214be490baf3fe8961f859a17199ec1bf9015c8b7340011863394a451908152a26001805580f35b67ffffffffffffffff819992991161093c57845296975087896108b7565b634e487b7160e01b825260418a52602482fd5b845162461bcd60e51b8152808b01889052601c60248201527f506c6174666f726d20666565207472616e73666572206661696c6564000000006044820152606490fd5b845162461bcd60e51b8152808b01889052601560248201527414d95b1b195c881c185e5b595b9d0819985a5b1959605a1b6044820152606490fd5b81806109da819334610d4a565b335af16109e5610d6d565b50156109f257898c610847565b855162461bcd60e51b8152808c01899052600d60248201526c1499599d5b990819985a5b1959609a1b6044820152606490fd5b634e487b7160e01b8a5260118b5260248afd5b835162461bcd60e51b8152808a018790526014602482015273125b9cdd59999a58da595b9d081c185e5b595b9d60621b6044820152606490fd5b815162461bcd60e51b8152808801859052600f60248201526e131a5cdd1a5b99c8195e1c1a5c9959608a1b6044820152606490fd5b634e487b7160e01b875260118852602487fd5b51633ee5aeb560e01b81528490fd5b509190346101bc57826003193601126101bc57610ae4610c56565b6002549060ff821615610b26575060ff1916600255513381527f5db9ee0a495bf2e6ff9c91a7834c1ba4fdd244a5e8aa4e537bd38aeae4b073aa90602090a180f35b8251638dfc202b60e01b8152fd5b5082346102d857816003193601126102d8576020905162093a808152f35b5091346101bc5760203660031901126101bc5781359182845260036020528184209160018060a01b038354163303610bc65750506003018054610b9760ff8216610d06565b60ff1916905533907fe9fb774dd973cb7cec5d5fec2b11504f51b019e22a09c82a32f4cd4fcbd1c5e88380a380f35b906020606492519162461bcd60e51b8352820152600a6024820152692737ba1039b2b63632b960b11b6044820152fd5b5082346102d857816003193601126102d8576020905160058152f35b5082346102d857816003193601126102d85760209051606e8152f35b9050346102d857816003193601126102d85760025460081c6001600160a01b03168152602090f35b6000546001600160a01b03163303610c6a57565b60405163118cdaa760e01b8152336004820152602490fd5b6080810190811067ffffffffffffffff821117610c9e57604052565b634e487b7160e01b600052604160045260246000fd5b90601f8019910116810190811067ffffffffffffffff821117610c9e57604052565b51908115158203610ce357565b600080fd5b60ff60025416610cf457565b60405163d93c066560e01b8152600490fd5b15610d0d57565b60405162461bcd60e51b81526020600482015260156024820152744c697374696e67206973206e6f742061637469766560581b6044820152606490fd5b91908203918211610d5757565b634e487b7160e01b600052601160045260246000fd5b3d15610da8573d9067ffffffffffffffff8211610c9e5760405191610d9c601f8201601f191660200184610cb4565b82523d6000602084013e565b60609056fea2646970667358221220e8b113e2a14f98f2c983db9732aef2371100e1d3ad826be3b9c646cd08e9ff7e64736f6c63430008140033","opcodes":"PUSH1 0x80 CALLVALUE PUSH2 0x12F JUMPI PUSH1 0x1F PUSH2 0xF2E CODESIZE DUP2 SWAP1 SUB SWAP2 DUP3 ADD PUSH1 0x1F NOT AND DUP4 ADD SWAP2 PUSH1 0x1 PUSH1 0x1 PUSH1 0x40 SHL SUB DUP4 GT DUP5 DUP5 LT OR PUSH2 0x134 JUMPI DUP1 DUP5 SWAP3 PUSH1 0x20 SWAP5 PUSH1 0x40 MSTORE DUP4 CODECOPY DUP2 ADD SUB SLT PUSH2 0x12F JUMPI MLOAD PUSH1 0x1 PUSH1 0x1 PUSH1 0xA0 SHL SUB DUP1 DUP3 AND SWAP2 SWAP1 DUP3 DUP3 SUB PUSH2 0x12F JUMPI CALLER ISZERO PUSH2 0x116 JUMPI PUSH1 0x0 SLOAD CALLER PUSH1 0x1 DUP1 PUSH1 0xA0 SHL SUB NOT DUP3 AND OR PUSH1 0x0 SSTORE PUSH1 0x40 MLOAD SWAP2 CALLER SWAP2 AND PUSH32 0x8BE0079C531659141344CD1FD0A4F28419497F9722A3DAAFE3B4186F6B6457E0 PUSH1 0x0 DUP1 LOG3 PUSH1 0x1 DUP1 SSTORE PUSH1 0x2 SLOAD SWAP3 ISZERO PUSH2 0xD4 JUMPI POP PUSH1 0x1 PUSH1 0x1 PUSH1 0xA8 SHL SUB NOT SWAP1 SWAP2 AND PUSH1 0x8 SWAP2 SWAP1 SWAP2 SHL PUSH2 0x100 PUSH1 0x1 PUSH1 0xA8 SHL SUB AND OR PUSH1 0x2 SSTORE PUSH1 0x40 MLOAD PUSH2 0xDE3 SWAP1 DUP2 PUSH2 0x14B DUP3 CODECOPY RETURN JUMPDEST PUSH3 0x461BCD PUSH1 0xE5 SHL DUP2 MSTORE PUSH1 0x20 PUSH1 0x4 DUP3 ADD MSTORE PUSH1 0x1D PUSH1 0x24 DUP3 ADD MSTORE PUSH32 0x496E76616C6964205469636B6574466163746F72792061646472657373000000 PUSH1 0x44 DUP3 ADD MSTORE PUSH1 0x64 SWAP1 REVERT JUMPDEST PUSH1 0x40 MLOAD PUSH4 0x1E4FBDF7 PUSH1 0xE0 SHL DUP2 MSTORE PUSH1 0x0 PUSH1 0x4 DUP3 ADD MSTORE PUSH1 0x24 SWAP1 REVERT JUMPDEST PUSH1 0x0 DUP1 REVERT JUMPDEST PUSH4 0x4E487B71 PUSH1 0xE0 SHL PUSH1 0x0 MSTORE PUSH1 0x41 PUSH1 0x4 MSTORE PUSH1 0x24 PUSH1 0x0 REVERT INVALID PUSH1 0x80 PUSH1 0x40 SWAP1 DUP1 DUP3 MSTORE PUSH1 0x4 SWAP1 DUP2 CALLDATASIZE LT ISZERO PUSH2 0x61 JUMPI JUMPDEST POP CALLDATASIZE ISZERO PUSH2 0x1F JUMPI PUSH1 0x0 DUP1 REVERT JUMPDEST PUSH1 0x20 PUSH1 0x64 SWAP3 MLOAD SWAP2 PUSH3 0x461BCD PUSH1 0xE5 SHL DUP4 MSTORE DUP3 ADD MSTORE PUSH1 0x1C PUSH1 0x24 DUP3 ADD MSTORE PUSH32 0x446972656374207061796D656E7473206E6F7420616363657074656400000000 PUSH1 0x44 DUP3 ADD MSTORE REVERT JUMPDEST PUSH1 0x0 SWAP1 DUP2 CALLDATALOAD PUSH1 0xE0 SHR SWAP1 DUP2 PUSH4 0x68F46CE EQ PUSH2 0xC2E JUMPI POP DUP1 PUSH4 0x847112A EQ PUSH2 0xC12 JUMPI DUP1 PUSH4 0x15548232 EQ PUSH2 0xBF6 JUMPI DUP1 PUSH4 0x38475934 EQ PUSH2 0xB52 JUMPI DUP1 PUSH4 0x3B859776 EQ PUSH2 0xB34 JUMPI DUP1 PUSH4 0x3F4BA83A EQ PUSH2 0xAC9 JUMPI DUP1 PUSH4 0x3FC4A060 EQ PUSH2 0x7A4 JUMPI DUP1 PUSH4 0x4F7885EE EQ PUSH2 0x710 JUMPI DUP1 PUSH4 0x5C975ABB EQ PUSH2 0x6EC JUMPI DUP1 PUSH4 0x6053B0EF EQ PUSH2 0x43B JUMPI DUP1 PUSH4 0x715018A6 EQ PUSH2 0x3DE JUMPI DUP1 PUSH4 0x73253387 EQ PUSH2 0x337 JUMPI DUP1 PUSH4 0x8456CB59 EQ PUSH2 0x2DC JUMPI DUP1 PUSH4 0x8DA5CB5B EQ PUSH2 0x2B0 JUMPI DUP1 PUSH4 0xB41B4BD4 EQ PUSH2 0x253 JUMPI DUP1 PUSH4 0xB9C9E0DE EQ PUSH2 0x1C0 JUMPI PUSH4 0xF2FDE38B SUB PUSH2 0x13 JUMPI SWAP2 CALLVALUE PUSH2 0x1BC JUMPI PUSH1 0x20 CALLDATASIZE PUSH1 0x3 NOT ADD SLT PUSH2 0x1BC JUMPI PUSH1 0x1 PUSH1 0x1 PUSH1 0xA0 SHL SUB DUP3 CALLDATALOAD DUP2 DUP2 AND SWAP4 SWAP2 SWAP3 SWAP1 DUP5 SWAP1 SUB PUSH2 0x1B8 JUMPI PUSH2 0x157 PUSH2 0xC56 JUMP JUMPDEST DUP4 ISZERO PUSH2 0x1A2 JUMPI POP POP PUSH1 0x0 SLOAD DUP3 PUSH12 0xFFFFFFFFFFFFFFFFFFFFFFFF PUSH1 0xA0 SHL DUP3 AND OR PUSH1 0x0 SSTORE AND PUSH32 0x8BE0079C531659141344CD1FD0A4F28419497F9722A3DAAFE3B4186F6B6457E0 PUSH1 0x0 DUP1 LOG3 DUP1 RETURN JUMPDEST MLOAD PUSH4 0x1E4FBDF7 PUSH1 0xE0 SHL DUP2 MSTORE SWAP1 DUP2 ADD DUP5 SWAP1 MSTORE PUSH1 0x24 SWAP1 REVERT JUMPDEST DUP5 DUP1 REVERT JUMPDEST DUP3 DUP1 REVERT JUMPDEST POP SWAP2 SWAP1 CALLVALUE PUSH2 0x1BC JUMPI PUSH1 0x20 CALLDATASIZE PUSH1 0x3 NOT ADD SLT PUSH2 0x1BC JUMPI SWAP2 DUP2 SWAP3 CALLDATALOAD DUP2 MSTORE PUSH1 0x3 PUSH1 0x20 MSTORE KECCAK256 SWAP1 PUSH2 0x24F PUSH1 0x60 DUP3 MLOAD SWAP4 PUSH2 0x1F2 DUP6 PUSH2 0xC82 JUMP JUMPDEST DUP1 SLOAD PUSH1 0x1 PUSH1 0x1 PUSH1 0xA0 SHL SUB AND DUP1 DUP7 MSTORE PUSH1 0x1 DUP3 ADD SLOAD PUSH1 0x20 DUP1 DUP9 ADD DUP3 SWAP1 MSTORE PUSH1 0x2 DUP5 ADD SLOAD DUP9 DUP9 ADD DUP2 SWAP1 MSTORE PUSH1 0x3 SWAP1 SWAP5 ADD SLOAD PUSH1 0xFF AND ISZERO ISZERO SWAP5 SWAP1 SWAP8 ADD DUP5 SWAP1 MSTORE SWAP5 MLOAD SWAP1 DUP2 MSTORE SWAP5 DUP6 ADD SWAP4 SWAP1 SWAP4 MSTORE PUSH1 0x40 DUP5 ADD SWAP3 SWAP1 SWAP3 MSTORE PUSH1 0x60 DUP4 ADD SWAP2 SWAP1 SWAP2 MSTORE DUP2 SWAP1 PUSH1 0x80 DUP3 ADD SWAP1 JUMP JUMPDEST SUB SWAP1 RETURN JUMPDEST POP SWAP2 SWAP1 CALLVALUE PUSH2 0x1BC JUMPI PUSH1 0x20 CALLDATASIZE PUSH1 0x3 NOT ADD SLT PUSH2 0x1BC JUMPI CALLDATALOAD DUP3 MSTORE PUSH1 0x3 PUSH1 0x20 DUP2 DUP2 MSTORE SWAP3 DUP3 SWAP1 KECCAK256 DUP1 SLOAD PUSH1 0x1 DUP3 ADD SLOAD PUSH1 0x2 DUP4 ADD SLOAD SWAP3 SWAP1 SWAP4 ADD SLOAD SWAP4 MLOAD PUSH1 0x1 PUSH1 0x1 PUSH1 0xA0 SHL SUB SWAP1 SWAP2 AND DUP2 MSTORE SWAP4 DUP5 ADD SWAP2 SWAP1 SWAP2 MSTORE PUSH1 0x40 DUP4 ADD MSTORE PUSH1 0xFF AND ISZERO ISZERO PUSH1 0x60 DUP3 ADD MSTORE PUSH1 0x80 SWAP1 RETURN JUMPDEST POP DUP3 CALLVALUE PUSH2 0x2D8 JUMPI DUP2 PUSH1 0x3 NOT CALLDATASIZE ADD SLT PUSH2 0x2D8 JUMPI SWAP1 SLOAD SWAP1 MLOAD PUSH1 0x1 PUSH1 0x1 PUSH1 0xA0 SHL SUB SWAP1 SWAP2 AND DUP2 MSTORE PUSH1 0x20 SWAP1 RETURN JUMPDEST POP DUP1 REVERT JUMPDEST POP DUP3 CALLVALUE PUSH2 0x2D8 JUMPI DUP2 PUSH1 0x3 NOT CALLDATASIZE ADD SLT PUSH2 0x2D8 JUMPI PUSH1 0x20 PUSH32 0x62E78CEA01BEE320CD4E420270B5EA74000D11B0C9F74754EBDBFC544B05A258 SWAP2 PUSH2 0x31A PUSH2 0xC56 JUMP JUMPDEST PUSH2 0x322 PUSH2 0xCE8 JUMP JUMPDEST PUSH1 0x1 PUSH1 0xFF NOT PUSH1 0x2 SLOAD AND OR PUSH1 0x2 SSTORE MLOAD CALLER DUP2 MSTORE LOG1 DUP1 RETURN JUMPDEST POP SWAP2 CALLVALUE PUSH2 0x1BC JUMPI PUSH1 0x20 CALLDATASIZE PUSH1 0x3 NOT ADD SLT PUSH2 0x1BC JUMPI DUP2 SWAP3 PUSH1 0x60 SWAP3 CALLDATALOAD DUP2 MSTORE PUSH1 0x3 PUSH1 0x20 MSTORE DUP2 DUP2 KECCAK256 SWAP1 DUP3 MLOAD PUSH2 0x366 DUP2 PUSH2 0xC82 JUMP JUMPDEST DUP3 SLOAD PUSH1 0x1 PUSH1 0x1 PUSH1 0xA0 SHL SUB AND DUP2 MSTORE PUSH1 0x1 DUP4 ADD SLOAD PUSH1 0x20 DUP3 ADD MSTORE PUSH1 0x2 DUP4 ADD SLOAD DUP5 DUP3 ADD DUP2 SWAP1 MSTORE PUSH1 0x3 SWAP1 SWAP4 ADD SLOAD PUSH1 0xFF AND ISZERO ISZERO SWAP5 ADD DUP5 SWAP1 MSTORE DUP4 PUSH2 0x3AA JUMPI JUMPDEST PUSH1 0x20 DUP5 DUP5 MLOAD SWAP1 ISZERO ISZERO DUP2 MSTORE RETURN JUMPDEST SWAP1 SWAP2 SWAP3 POP PUSH3 0x93A80 DUP3 ADD DUP1 SWAP3 GT PUSH2 0x3CB JUMPI POP PUSH1 0x20 SWAP3 POP TIMESTAMP GT ISZERO SWAP1 CODESIZE DUP1 PUSH2 0x39E JUMP JUMPDEST PUSH4 0x4E487B71 PUSH1 0xE0 SHL DUP2 MSTORE PUSH1 0x11 DUP5 MSTORE PUSH1 0x24 SWAP1 REVERT JUMPDEST POP CALLVALUE PUSH2 0x438 JUMPI DUP1 PUSH1 0x3 NOT CALLDATASIZE ADD SLT PUSH2 0x438 JUMPI PUSH2 0x3F7 PUSH2 0xC56 JUMP JUMPDEST PUSH1 0x0 DUP1 SLOAD PUSH1 0x1 PUSH1 0x1 PUSH1 0xA0 SHL SUB NOT DUP2 AND DUP3 SSTORE PUSH1 0x1 PUSH1 0x1 PUSH1 0xA0 SHL SUB AND PUSH32 0x8BE0079C531659141344CD1FD0A4F28419497F9722A3DAAFE3B4186F6B6457E0 DUP3 DUP1 LOG3 DUP1 RETURN JUMPDEST DUP1 REVERT JUMPDEST POP DUP3 CALLVALUE PUSH2 0x2D8 JUMPI DUP1 PUSH1 0x3 NOT CALLDATASIZE ADD SLT PUSH2 0x2D8 JUMPI DUP3 CALLDATALOAD PUSH1 0x24 DUP1 CALLDATALOAD SWAP3 PUSH2 0x45C PUSH2 0xCE8 JUMP JUMPDEST PUSH1 0x1 DUP1 PUSH1 0xA0 SHL SUB SWAP6 DUP7 PUSH1 0x2 SLOAD PUSH1 0x8 SHR AND SWAP3 DUP3 MLOAD SWAP4 PUSH4 0x31A9108F PUSH1 0xE1 SHL DUP6 MSTORE DUP6 DUP4 DUP7 ADD MSTORE PUSH1 0x20 SWAP5 DUP6 DUP2 DUP5 DUP2 DUP6 GAS STATICCALL SWAP1 DUP2 ISZERO PUSH2 0x6E2 JUMPI DUP10 SWAP2 PUSH2 0x6A8 JUMPI JUMPDEST POP DUP10 CALLER SWAP2 AND SUB PUSH2 0x674 JUMPI PUSH1 0xE0 DUP3 SWAP2 DUP6 MLOAD SWAP3 DUP4 DUP1 SWAP3 PUSH4 0x1260A0B PUSH1 0xE5 SHL DUP3 MSTORE DUP11 DUP9 DUP4 ADD MSTORE GAS STATICCALL DUP1 ISZERO PUSH2 0x66A JUMPI DUP9 SWAP2 DUP10 SWAP2 PUSH2 0x60B JUMPI JUMPDEST POP PUSH2 0x5D4 JUMPI PUSH1 0x6E DUP2 MUL SWAP1 DUP1 DUP3 DIV PUSH1 0x6E EQ SWAP1 ISZERO OR ISZERO PUSH2 0x5C2 JUMPI PUSH1 0x64 SWAP1 DIV DUP7 GT PUSH2 0x582 JUMPI POP POP SWAP1 DUP2 DUP7 PUSH1 0x3 PUSH32 0x22968EC3BE3687B180F3544163A034B88D57B48159D9A7E9A1B610FDB2D05F80 SWAP5 MLOAD PUSH2 0x520 DUP2 PUSH2 0xC82 JUMP JUMPDEST CALLER DUP2 MSTORE DUP5 DUP2 ADD DUP9 DUP2 MSTORE DUP5 DUP3 ADD SWAP1 TIMESTAMP DUP3 MSTORE PUSH1 0x60 DUP4 ADD SWAP5 PUSH1 0x1 DUP7 MSTORE DUP10 DUP13 MSTORE DUP5 DUP9 MSTORE DUP7 DUP13 KECCAK256 SWAP4 MLOAD AND PUSH12 0xFFFFFFFFFFFFFFFFFFFFFFFF PUSH1 0xA0 SHL DUP5 SLOAD AND OR DUP4 SSTORE MLOAD PUSH1 0x1 DUP4 ADD SSTORE MLOAD PUSH1 0x2 DUP3 ADD SSTORE ADD SWAP1 MLOAD ISZERO ISZERO PUSH1 0xFF DUP1 NOT DUP4 SLOAD AND SWAP2 AND OR SWAP1 SSTORE MLOAD SWAP4 DUP5 MSTORE CALLER SWAP4 LOG3 DUP1 RETURN JUMPDEST PUSH1 0x64 SWAP4 PUSH1 0x18 SWAP3 SWAP4 MLOAD SWAP4 PUSH3 0x461BCD PUSH1 0xE5 SHL DUP6 MSTORE DUP5 ADD MSTORE DUP3 ADD MSTORE PUSH32 0x50726963652065786365656473206D6178206D61726B75700000000000000000 PUSH1 0x44 DUP3 ADD MSTORE REVERT JUMPDEST POP PUSH4 0x4E487B71 PUSH1 0xE0 SHL DUP8 MSTORE PUSH1 0x11 DUP3 MSTORE DUP7 REVERT JUMPDEST POP PUSH1 0x64 SWAP4 PUSH1 0x13 SWAP3 SWAP4 MLOAD SWAP4 PUSH3 0x461BCD PUSH1 0xE5 SHL DUP6 MSTORE DUP5 ADD MSTORE DUP3 ADD MSTORE PUSH19 0x151A58DAD95D08185B1C9958591E481D5CD959 PUSH1 0x6A SHL PUSH1 0x44 DUP3 ADD MSTORE REVERT JUMPDEST SWAP2 POP POP PUSH1 0xE0 DUP2 RETURNDATASIZE DUP3 GT PUSH2 0x662 JUMPI JUMPDEST DUP2 PUSH2 0x626 PUSH1 0xE0 SWAP4 DUP4 PUSH2 0xCB4 JUMP JUMPDEST DUP2 ADD SUB SLT PUSH2 0x65E JUMPI DUP5 DUP2 ADD MLOAD PUSH2 0x656 PUSH1 0xA0 PUSH2 0x642 DUP8 DUP6 ADD PUSH2 0xCD6 JUMP JUMPDEST SWAP4 PUSH2 0x64F PUSH1 0x80 DUP3 ADD PUSH2 0xCD6 JUMP JUMPDEST POP ADD PUSH2 0xCD6 JUMP JUMPDEST POP SWAP1 DUP11 PUSH2 0x4CB JUMP JUMPDEST DUP8 DUP1 REVERT JUMPDEST RETURNDATASIZE SWAP2 POP PUSH2 0x619 JUMP JUMPDEST DUP5 MLOAD RETURNDATASIZE DUP11 DUP3 RETURNDATACOPY RETURNDATASIZE SWAP1 REVERT JUMPDEST POP PUSH1 0x64 SWAP4 PUSH1 0x10 SWAP3 SWAP4 MLOAD SWAP4 PUSH3 0x461BCD PUSH1 0xE5 SHL DUP6 MSTORE DUP5 ADD MSTORE DUP3 ADD MSTORE PUSH16 0x2737BA103A34B1B5B2BA1037BBB732B9 PUSH1 0x81 SHL PUSH1 0x44 DUP3 ADD MSTORE REVERT JUMPDEST SWAP1 POP DUP6 DUP2 DUP2 RETURNDATASIZE DUP4 GT PUSH2 0x6DB JUMPI JUMPDEST PUSH2 0x6BF DUP2 DUP4 PUSH2 0xCB4 JUMP JUMPDEST DUP2 ADD SUB SLT PUSH2 0x6D7 JUMPI MLOAD DUP10 DUP2 AND DUP2 SUB PUSH2 0x6D7 JUMPI DUP11 PUSH2 0x497 JUMP JUMPDEST DUP9 DUP1 REVERT JUMPDEST POP RETURNDATASIZE PUSH2 0x6B5 JUMP JUMPDEST DUP6 MLOAD RETURNDATASIZE DUP12 DUP3 RETURNDATACOPY RETURNDATASIZE SWAP1 REVERT JUMPDEST POP DUP3 CALLVALUE PUSH2 0x2D8 JUMPI DUP2 PUSH1 0x3 NOT CALLDATASIZE ADD SLT PUSH2 0x2D8 JUMPI PUSH1 0x20 SWAP1 PUSH1 0xFF PUSH1 0x2 SLOAD AND SWAP1 MLOAD SWAP1 ISZERO ISZERO DUP2 MSTORE RETURN JUMPDEST POP SWAP2 SWAP1 CALLVALUE PUSH2 0x1BC JUMPI PUSH1 0x20 CALLDATASIZE PUSH1 0x3 NOT ADD SLT PUSH2 0x1BC JUMPI DUP1 CALLDATALOAD SWAP2 PUSH1 0x1 PUSH1 0x1 PUSH1 0xA0 SHL SUB DUP4 AND DUP1 DUP5 SUB PUSH2 0x1B8 JUMPI PUSH2 0x740 PUSH2 0xC56 JUMP JUMPDEST ISZERO PUSH2 0x76F JUMPI POP POP PUSH1 0x2 DUP1 SLOAD PUSH2 0x100 PUSH1 0x1 PUSH1 0xA8 SHL SUB NOT AND PUSH1 0x8 SWAP3 SWAP1 SWAP3 SHL PUSH2 0x100 PUSH1 0x1 PUSH1 0xA8 SHL SUB AND SWAP2 SWAP1 SWAP2 OR SWAP1 SSTORE DUP1 RETURN JUMPDEST SWAP1 PUSH1 0x20 PUSH1 0x64 SWAP3 MLOAD SWAP2 PUSH3 0x461BCD PUSH1 0xE5 SHL DUP4 MSTORE DUP3 ADD MSTORE PUSH1 0xF PUSH1 0x24 DUP3 ADD MSTORE PUSH15 0x496E76616C69642061646472657373 PUSH1 0x88 SHL PUSH1 0x44 DUP3 ADD MSTORE REVERT JUMPDEST POP DUP3 PUSH1 0x20 DUP1 PUSH1 0x3 NOT CALLDATASIZE ADD SLT PUSH2 0x1BC JUMPI DUP4 CALLDATALOAD SWAP2 PUSH1 0x2 PUSH1 0x1 SLOAD EQ PUSH2 0xABA JUMPI PUSH1 0x2 PUSH1 0x1 SSTORE PUSH2 0x7CD PUSH2 0xCE8 JUMP JUMPDEST DUP3 DUP5 MSTORE PUSH1 0x3 DUP3 MSTORE DUP1 DUP5 KECCAK256 SWAP1 PUSH1 0x3 DUP3 ADD SWAP2 PUSH2 0x7EA PUSH1 0xFF DUP5 SLOAD AND PUSH2 0xD06 JUMP JUMPDEST PUSH1 0x2 DUP2 ADD SLOAD PUSH3 0x93A80 DUP2 ADD DUP1 SWAP2 GT PUSH2 0xAA7 JUMPI TIMESTAMP GT PUSH2 0xA72 JUMPI PUSH1 0x1 DUP2 ADD DUP1 SLOAD SWAP4 DUP5 CALLVALUE LT PUSH2 0xA38 JUMPI PUSH1 0x1 DUP1 PUSH1 0xA0 SHL SUB DUP1 SWAP4 SLOAD AND SWAP3 PUSH1 0x5 DUP7 MUL DUP7 DUP2 DIV PUSH1 0x5 EQ DUP8 ISZERO OR ISZERO PUSH2 0xA25 JUMPI PUSH1 0x64 SWAP1 DIV SWAP6 DUP10 PUSH2 0x83E DUP9 DUP4 PUSH2 0xD4A JUMP JUMPDEST SWAP2 DUP1 CALLVALUE GT PUSH2 0x9CD JUMPI JUMPDEST POP DUP1 DUP1 DUP1 SWAP4 DUP9 GAS CALL PUSH2 0x857 PUSH2 0xD6D JUMP JUMPDEST POP ISZERO PUSH2 0x992 JUMPI DUP9 DUP1 DUP1 DUP1 DUP10 DUP6 DUP3 SLOAD AND GAS CALL PUSH2 0x870 PUSH2 0xD6D JUMP JUMPDEST POP ISZERO PUSH2 0x94F JUMPI PUSH1 0x2 SLOAD PUSH1 0x8 SHR AND DUP1 EXTCODESIZE ISZERO PUSH2 0x6D7 JUMPI DUP9 DUP5 PUSH1 0x64 DUP13 DUP4 DUP10 MLOAD SWAP6 DUP7 SWAP5 DUP6 SWAP4 PUSH4 0x23B872DD PUSH1 0xE0 SHL DUP6 MSTORE DUP5 ADD MSTORE CALLER PUSH1 0x24 DUP5 ADD MSTORE DUP14 PUSH1 0x44 DUP5 ADD MSTORE GAS CALL DUP1 ISZERO PUSH2 0x6E2 JUMPI PUSH2 0x91E JUMPI JUMPDEST POP PUSH32 0xA8341F104131CAE3E9965326A01662A1E0DC3DC60C8D099FEFA4578EF8F6F9AE SWAP7 SWAP8 SWAP9 POP PUSH1 0xFF NOT DUP2 SLOAD AND SWAP1 SSTORE SLOAD SWAP1 DUP3 MLOAD SWAP2 DUP3 MSTORE DUP7 PUSH32 0xD59A36D8310FFB140214BE490BAF3FE8961F859A17199EC1BF9015C8B7340011 DUP7 CALLER SWAP5 LOG4 MLOAD SWAP1 DUP2 MSTORE LOG2 PUSH1 0x1 DUP1 SSTORE DUP1 RETURN JUMPDEST PUSH8 0xFFFFFFFFFFFFFFFF DUP2 SWAP10 SWAP3 SWAP10 GT PUSH2 0x93C JUMPI DUP5 MSTORE SWAP7 SWAP8 POP DUP8 DUP10 PUSH2 0x8B7 JUMP JUMPDEST PUSH4 0x4E487B71 PUSH1 0xE0 SHL DUP3 MSTORE PUSH1 0x41 DUP11 MSTORE PUSH1 0x24 DUP3 REVERT JUMPDEST DUP5 MLOAD PUSH3 0x461BCD PUSH1 0xE5 SHL DUP2 MSTORE DUP1 DUP12 ADD DUP9 SWAP1 MSTORE PUSH1 0x1C PUSH1 0x24 DUP3 ADD MSTORE PUSH32 0x506C6174666F726D20666565207472616E73666572206661696C656400000000 PUSH1 0x44 DUP3 ADD MSTORE PUSH1 0x64 SWAP1 REVERT JUMPDEST DUP5 MLOAD PUSH3 0x461BCD PUSH1 0xE5 SHL DUP2 MSTORE DUP1 DUP12 ADD DUP9 SWAP1 MSTORE PUSH1 0x15 PUSH1 0x24 DUP3 ADD MSTORE PUSH21 0x14D95B1B195C881C185E5B595B9D0819985A5B1959 PUSH1 0x5A SHL PUSH1 0x44 DUP3 ADD MSTORE PUSH1 0x64 SWAP1 REVERT JUMPDEST DUP2 DUP1 PUSH2 0x9DA DUP2 SWAP4 CALLVALUE PUSH2 0xD4A JUMP JUMPDEST CALLER GAS CALL PUSH2 0x9E5 PUSH2 0xD6D JUMP JUMPDEST POP ISZERO PUSH2 0x9F2 JUMPI DUP10 DUP13 PUSH2 0x847 JUMP JUMPDEST DUP6 MLOAD PUSH3 0x461BCD PUSH1 0xE5 SHL DUP2 MSTORE DUP1 DUP13 ADD DUP10 SWAP1 MSTORE PUSH1 0xD PUSH1 0x24 DUP3 ADD MSTORE PUSH13 0x1499599D5B990819985A5B1959 PUSH1 0x9A SHL PUSH1 0x44 DUP3 ADD MSTORE PUSH1 0x64 SWAP1 REVERT JUMPDEST PUSH4 0x4E487B71 PUSH1 0xE0 SHL DUP11 MSTORE PUSH1 0x11 DUP12 MSTORE PUSH1 0x24 DUP11 REVERT JUMPDEST DUP4 MLOAD PUSH3 0x461BCD PUSH1 0xE5 SHL DUP2 MSTORE DUP1 DUP11 ADD DUP8 SWAP1 MSTORE PUSH1 0x14 PUSH1 0x24 DUP3 ADD MSTORE PUSH20 0x125B9CDD59999A58DA595B9D081C185E5B595B9D PUSH1 0x62 SHL PUSH1 0x44 DUP3 ADD MSTORE PUSH1 0x64 SWAP1 REVERT JUMPDEST DUP2 MLOAD PUSH3 0x461BCD PUSH1 0xE5 SHL DUP2 MSTORE DUP1 DUP9 ADD DUP6 SWAP1 MSTORE PUSH1 0xF PUSH1 0x24 DUP3 ADD MSTORE PUSH15 0x131A5CDD1A5B99C8195E1C1A5C9959 PUSH1 0x8A SHL PUSH1 0x44 DUP3 ADD MSTORE PUSH1 0x64 SWAP1 REVERT JUMPDEST PUSH4 0x4E487B71 PUSH1 0xE0 SHL DUP8 MSTORE PUSH1 0x11 DUP9 MSTORE PUSH1 0x24 DUP8 REVERT JUMPDEST MLOAD PUSH4 0x3EE5AEB5 PUSH1 0xE0 SHL DUP2 MSTORE DUP5 SWAP1 REVERT JUMPDEST POP SWAP2 SWAP1 CALLVALUE PUSH2 0x1BC JUMPI DUP3 PUSH1 0x3 NOT CALLDATASIZE ADD SLT PUSH2 0x1BC JUMPI PUSH2 0xAE4 PUSH2 0xC56 JUMP JUMPDEST PUSH1 0x2 SLOAD SWAP1 PUSH1 0xFF DUP3 AND ISZERO PUSH2 0xB26 JUMPI POP PUSH1 0xFF NOT AND PUSH1 0x2 SSTORE MLOAD CALLER DUP2 MSTORE PUSH32 0x5DB9EE0A495BF2E6FF9C91A7834C1BA4FDD244A5E8AA4E537BD38AEAE4B073AA SWAP1 PUSH1 0x20 SWAP1 LOG1 DUP1 RETURN JUMPDEST DUP3 MLOAD PUSH4 0x8DFC202B PUSH1 0xE0 SHL DUP2 MSTORE REVERT JUMPDEST POP DUP3 CALLVALUE PUSH2 0x2D8 JUMPI DUP2 PUSH1 0x3 NOT CALLDATASIZE ADD SLT PUSH2 0x2D8 JUMPI PUSH1 0x20 SWAP1 MLOAD PUSH3 0x93A80 DUP2 MSTORE RETURN JUMPDEST POP SWAP2 CALLVALUE PUSH2 0x1BC JUMPI PUSH1 0x20 CALLDATASIZE PUSH1 0x3 NOT ADD SLT PUSH2 0x1BC JUMPI DUP2 CALLDATALOAD SWAP2 DUP3 DUP5 MSTORE PUSH1 0x3 PUSH1 0x20 MSTORE DUP2 DUP5 KECCAK256 SWAP2 PUSH1 0x1 DUP1 PUSH1 0xA0 SHL SUB DUP4 SLOAD AND CALLER SUB PUSH2 0xBC6 JUMPI POP POP PUSH1 0x3 ADD DUP1 SLOAD PUSH2 0xB97 PUSH1 0xFF DUP3 AND PUSH2 0xD06 JUMP JUMPDEST PUSH1 0xFF NOT AND SWAP1 SSTORE CALLER SWAP1 PUSH32 0xE9FB774DD973CB7CEC5D5FEC2B11504F51B019E22A09C82A32F4CD4FCBD1C5E8 DUP4 DUP1 LOG3 DUP1 RETURN JUMPDEST SWAP1 PUSH1 0x20 PUSH1 0x64 SWAP3 MLOAD SWAP2 PUSH3 0x461BCD PUSH1 0xE5 SHL DUP4 MSTORE DUP3 ADD MSTORE PUSH1 0xA PUSH1 0x24 DUP3 ADD MSTORE PUSH10 0x2737BA1039B2B63632B9 PUSH1 0xB1 SHL PUSH1 0x44 DUP3 ADD MSTORE REVERT JUMPDEST POP DUP3 CALLVALUE PUSH2 0x2D8 JUMPI DUP2 PUSH1 0x3 NOT CALLDATASIZE ADD SLT PUSH2 0x2D8 JUMPI PUSH1 0x20 SWAP1 MLOAD PUSH1 0x5 DUP2 MSTORE RETURN JUMPDEST POP DUP3 CALLVALUE PUSH2 0x2D8 JUMPI DUP2 PUSH1 0x3 NOT CALLDATASIZE ADD SLT PUSH2 0x2D8 JUMPI PUSH1 0x20 SWAP1 MLOAD PUSH1 0x6E DUP2 MSTORE RETURN JUMPDEST SWAP1 POP CALLVALUE PUSH2 0x2D8 JUMPI DUP2 PUSH1 0x3 NOT CALLDATASIZE ADD SLT PUSH2 0x2D8 JUMPI PUSH1 0x2 SLOAD PUSH1 0x8 SHR PUSH1 0x1 PUSH1 0x1 PUSH1 0xA0 SHL SUB AND DUP2 MSTORE PUSH1 0x20 SWAP1 RETURN JUMPDEST PUSH1 0x0 SLOAD PUSH1 0x1 PUSH1 0x1 PUSH1 0xA0 SHL SUB AND CALLER SUB PUSH2 0xC6A JUMPI JUMP JUMPDEST PUSH1 0x40 MLOAD PUSH4 0x118CDAA7 PUSH1 0xE0 SHL DUP2 MSTORE CALLER PUSH1 0x4 DUP3 ADD MSTORE PUSH1 0x24 SWAP1 REVERT JUMPDEST PUSH1 0x80 DUP2 ADD SWAP1 DUP2 LT PUSH8 0xFFFFFFFFFFFFFFFF DUP3 GT OR PUSH2 0xC9E JUMPI PUSH1 0x40 MSTORE JUMP JUMPDEST PUSH4 0x4E487B71 PUSH1 0xE0 SHL PUSH1 0x0 MSTORE PUSH1 0x41 PUSH1 0x4 MSTORE PUSH1 0x24 PUSH1 0x0 REVERT JUMPDEST SWAP1 PUSH1 0x1F DUP1 NOT SWAP2 ADD AND DUP2 ADD SWAP1 DUP2 LT PUSH8 0xFFFFFFFFFFFFFFFF DUP3 GT OR PUSH2 0xC9E JUMPI PUSH1 0x40 MSTORE JUMP JUMPDEST MLOAD SWAP1 DUP2 ISZERO ISZERO DUP3 SUB PUSH2 0xCE3 JUMPI JUMP JUMPDEST PUSH1 0x0 DUP1 REVERT JUMPDEST PUSH1 0xFF PUSH1 0x2 SLOAD AND PUSH2 0xCF4 JUMPI JUMP JUMPDEST PUSH1 0x40 MLOAD PUSH4 0xD93C0665 PUSH1 0xE0 SHL DUP2 MSTORE PUSH1 0x4 SWAP1 REVERT JUMPDEST ISZERO PUSH2 0xD0D JUMPI JUMP JUMPDEST PUSH1 0x40 MLOAD PUSH3 0x461BCD PUSH1 0xE5 SHL DUP2 MSTORE PUSH1 0x20 PUSH1 0x4 DUP3 ADD MSTORE PUSH1 0x15 PUSH1 0x24 DUP3 ADD MSTORE PUSH21 0x4C697374696E67206973206E6F7420616374697665 PUSH1 0x58 SHL PUSH1 0x44 DUP3 ADD MSTORE PUSH1 0x64 SWAP1 REVERT JUMPDEST SWAP2 SWAP1 DUP3 SUB SWAP2 DUP3 GT PUSH2 0xD57 JUMPI JUMP JUMPDEST PUSH4 0x4E487B71 PUSH1 0xE0 SHL PUSH1 0x0 MSTORE PUSH1 0x11 PUSH1 0x4 MSTORE PUSH1 0x24 PUSH1 0x0 REVERT JUMPDEST RETURNDATASIZE ISZERO PUSH2 0xDA8 JUMPI RETURNDATASIZE SWAP1 PUSH8 0xFFFFFFFFFFFFFFFF DUP3 GT PUSH2 0xC9E JUMPI PUSH1 0x40 MLOAD SWAP2 PUSH2 0xD9C PUSH1 0x1F DUP3 ADD PUSH1 0x1F NOT AND PUSH1 0x20 ADD DUP5 PUSH2 0xCB4 JUMP JUMPDEST DUP3 MSTORE RETURNDATASIZE PUSH1 0x0 PUSH1 0x20 DUP5 ADD RETURNDATACOPY JUMP JUMPDEST PUSH1 0x60 SWAP1 JUMP INVALID LOG2 PUSH5 0x6970667358 0x22 SLT KECCAK256 0xE8 0xB1 SGT 0xE2 LOG1 0x4F SWAP9 CALLCODE 0xC9 DUP4 0xDB SWAP8 ORIGIN 0xAE CALLCODE CALLDATACOPY GT STOP 0xE1 0xD3 0xAD DUP3 PUSH12 0xE3B9C646CD08E9FF7E64736F PUSH13 0x63430008140033000000000000 "},"methodIdentifiers":{"MAX_RESALE_MARKUP()":"0847112a","PLATFORM_FEE_PERCENTAGE()":"15548232","RESALE_TIMEOUT()":"3b859776","cancelResaleListing(uint256)":"38475934","getResaleListing(uint256)":"b9c9e0de","isListingValid(uint256)":"73253387","listTicketForResale(uint256,uint256)":"6053b0ef","owner()":"8da5cb5b","pause()":"8456cb59","paused()":"5c975abb","purchaseResaleTicket(uint256)":"3fc4a060","renounceOwnership()":"715018a6","resaleListings(uint256)":"b41b4bd4","setTicketFactory(address)":"4f7885ee","ticketFactory()":"068f46ce","transferOwnership(address)":"f2fde38b","unpause()":"3f4ba83a"}}}}}