{"contracts/core/RefundEscrow.sol":{"RefundEscrow":{"abi":[{"inputs":[{"internalType":"address","name":"eventManagerAddress","type":"address"}],"stateMutability":"nonpayable","type":"constructor"},{"inputs":[],"name":"EnforcedPause","type":"error"},{"inputs":[],"name":"ExpectedPause","type":"error"},{"inputs":[{"internalType":"address","name":"owner","type":"address"}],"name":"OwnableInvalidOwner","type":"error"},{"inputs":[{"internalType":"address","name":"account","type":"address"}],"name":"OwnableUnauthorizedAccount","type":"error"},{"inputs":[],"name":"ReentrancyGuardReentrantCall","type":"error"},{"anonymous":false,"inputs":[{"indexed":true,"internalType":"uint256","name":"eventId","type":"uint256"},{"indexed":true,"internalType":"uint256","name":"ticketId","type":"uint256"},{"indexed":false,"internalType":"uint256","name":"refundAmount","type":"uint256"}],"name":"EventCancellationRefunded","type":"event"},{"anonymous":false,"inputs":[{"indexed":true,"internalType":"uint256","name":"eventId","type":"uint256"}],"name":"EventCancelled","type":"event"},{"anonymous":false,"inputs":[{"indexed":true,"internalType":"address","name":"previousOwner","type":"address"},{"indexed":true,"internalType":"address","name":"newOwner","type":"address"}],"name":"OwnershipTransferred","type":"event"},{"anonymous":false,"inputs":[{"indexed":false,"internalType":"address","name":"account","type":"address"}],"name":"Paused","type":"event"},{"anonymous":false,"inputs":[{"indexed":true,"internalType":"uint256","name":"eventId","type":"uint256"},{"indexed":true,"internalType":"address","name":"payer","type":"address"},{"indexed":false,"internalType":"uint256","name":"amount","type":"uint256"}],"name":"PaymentDeposited","type":"event"},{"anonymous":false,"inputs":[{"indexed":true,"internalType":"uint256","name":"eventId","type":"uint256"},{"indexed":true,"internalType":"address","name":"payer","type":"address"},{"indexed":false,"internalType":"uint256","name":"amount","type":"uint256"}],"name":"PaymentRefunded","type":"event"},{"anonymous":false,"inputs":[{"indexed":true,"internalType":"uint256","name":"eventId","type":"uint256"},{"indexed":true,"internalType":"address","name":"payee","type":"address"},{"indexed":false,"internalType":"uint256","name":"amount","type":"uint256"}],"name":"PaymentReleased","type":"event"},{"anonymous":false,"inputs":[{"indexed":true,"internalType":"uint256","name":"eventId","type":"uint256"},{"indexed":true,"internalType":"uint256","name":"ticketId","type":"uint256"},{"indexed":false,"internalType":"uint256","name":"refundAmount","type":"uint256"}],"name":"TicketCancelled","type":"event"},{"anonymous":false,"inputs":[{"indexed":false,"internalType":"address","name":"account","type":"address"}],"name":"Unpaused","type":"event"},{"anonymous":false,"inputs":[{"indexed":true,"internalType":"uint256","name":"eventId","type":"uint256"},{"indexed":true,"internalType":"uint256","name":"ticketId","type":"uint256"}],"name":"WaitlistRefundEnabled","type":"event"},{"inputs":[],"name":"CANCELLATION_FEE_PERCENT","outputs":[{"internalType":"uint256","name":"","type":"uint256"}],"stateMutability":"view","type":"function"},{"inputs":[],"name":"REFUND_WINDOW","outputs":[{"internalType":"uint256","name":"","type":"uint256"}],"stateMutability":"view","type":"function"},{"inputs":[{"internalType":"uint256","name":"eventId","type":"uint256"}],"name":"cancelEvent","outputs":[],"stateMutability":"nonpayable","type":"function"},{"inputs":[{"internalType":"uint256","name":"eventId","type":"uint256"},{"internalType":"uint256","name":"ticketId","type":"uint256"}],"name":"cancelTicket","outputs":[],"stateMutability":"nonpayable","type":"function"},{"inputs":[{"internalType":"uint256","name":"eventId","type":"uint256"},{"internalType":"uint256","name":"ticketId","type":"uint256"}],"name":"depositPayment","outputs":[],"stateMutability":"payable","type":"function"},{"inputs":[{"internalType":"uint256","name":"eventId","type":"uint256"},{"internalType":"uint256","name":"ticketId","type":"uint256"}],"name":"enableWaitlistRefund","outputs":[],"stateMutability":"nonpayable","type":"function"},{"inputs":[{"internalType":"uint256","name":"eventId","type":"uint256"},{"internalType":"uint256","name":"ticketId","type":"uint256"}],"name":"getPaymentAmount","outputs":[{"internalType":"uint256","name":"","type":"uint256"}],"stateMutability":"view","type":"function"},{"inputs":[{"internalType":"uint256","name":"eventId","type":"uint256"},{"internalType":"uint256","name":"ticketId","type":"uint256"}],"name":"getPaymentDetails","outputs":[{"internalType":"address","name":"payer","type":"address"},{"internalType":"uint256","name":"amount","type":"uint256"},{"internalType":"enum IRefundEscrow.PaymentStatus","name":"status","type":"uint8"},{"internalType":"bool","name":"waitlistRefundEnabled","type":"bool"},{"internalType":"uint256","name":"refundDeadline","type":"uint256"},{"internalType":"bool","name":"isCancelled","type":"bool"}],"stateMutability":"view","type":"function"},{"inputs":[{"internalType":"uint256","name":"eventId","type":"uint256"},{"internalType":"uint256","name":"ticketId","type":"uint256"}],"name":"getPaymentStatus","outputs":[{"internalType":"enum IRefundEscrow.PaymentStatus","name":"","type":"uint8"}],"stateMutability":"view","type":"function"},{"inputs":[{"internalType":"uint256","name":"eventId","type":"uint256"}],"name":"isEventCancelled","outputs":[{"internalType":"bool","name":"","type":"bool"}],"stateMutability":"view","type":"function"},{"inputs":[],"name":"owner","outputs":[{"internalType":"address","name":"","type":"address"}],"stateMutability":"view","type":"function"},{"inputs":[],"name":"pause","outputs":[],"stateMutability":"nonpayable","type":"function"},{"inputs":[],"name":"paused","outputs":[{"internalType":"bool","name":"","type":"bool"}],"stateMutability":"view","type":"function"},{"inputs":[{"internalType":"uint256","name":"eventId","type":"uint256"},{"internalType":"uint256","name":"ticketId","type":"uint256"}],"name":"processEventCancellationRefund","outputs":[],"stateMutability":"nonpayable","type":"function"},{"inputs":[{"internalType":"uint256","name":"eventId","type":"uint256"},{"internalType":"uint256","name":"ticketId","type":"uint256"}],"name":"refundPayment","outputs":[],"stateMutability":"nonpayable","type":"function"},{"inputs":[{"internalType":"uint256","name":"eventId","type":"uint256"},{"internalType":"uint256","name":"ticketId","type":"uint256"}],"name":"releasePayment","outputs":[],"stateMutability":"nonpayable","type":"function"},{"inputs":[],"name":"renounceOwnership","outputs":[],"stateMutability":"nonpayable","type":"function"},{"inputs":[{"internalType":"address","name":"newOwner","type":"address"}],"name":"transferOwnership","outputs":[],"stateMutability":"nonpayable","type":"function"},{"inputs":[],"name":"unpause","outputs":[],"stateMutability":"nonpayable","type":"function"},{"inputs":[],"name":"withdrawStuckFunds","outputs":[],"stateMutability":"nonpayable","type":"function"}],"evm":{"bytecode":{"linkReferences":{},"object":"60a03461012657601f61117e38819003918201601f19168301916001600160401b0383118484101761012b5780849260209460405283398101031261012657516001600160a01b0380821680830361012657331561010d576000543360018060a01b0319821617600055604051923391167f8be0079c531659141344cd1fd0a4f28419497f9722a3daafe3b4186f6b6457e0600080a36001805560ff1960025416600255156100cb575060805260405161103c908161014282396080518181816105a50152610ad40152f35b62461bcd60e51b815260206004820152601c60248201527f496e76616c6964204576656e744d616e616765722061646472657373000000006044820152606490fd5b604051631e4fbdf760e01b815260006004820152602490fd5b600080fd5b634e487b7160e01b600052604160045260246000fdfe608060408181526004908136101561001657600080fd5b600092833560e01c90816306633e1214610cae57508063110f269714610c825780631153b5f314610c645780632f62582c14610bae5780633f4ba83a14610b445780633f69babd14610ab95780635c975abb14610a9557806366e008f814610a66578063715018a614610a0c57806378c5e06d146109d3578063830ce587146108b45780638456cb59146108595780638da5cb5b1461082d578063925a91011461075d57806395144dc41461067d57806397e99a80146105745780639bdc727c146103a5578063c5b60a4814610333578063ea266fcf146101905763f2fde38b1461010057600080fd5b3461018c57602036600319011261018c576001600160a01b0382358181169391929084900361018857610131610d07565b831561017257505082546001600160a01b0319811683178455167f8be0079c531659141344cd1fd0a4f28419497f9722a3daafe3b4186f6b6457e08380a380f35b51631e4fbdf760e01b8152908101849052602490fd5b8480fd5b8280fd5b503461018c5761019f36610cc9565b9290916101aa610dc5565b6101b2610da7565b82855260036020528085208486526020528085209160018060a01b03906101dd828554163314610de8565b8084019384549460ff86166102fc57906001918260038301549761020389421115610e27565b60ff191617905501549362093a7f1981019081116102e957421161026e575b505081602091610262878080807fb0897fa6b40736fe48b8a1b08df225f049ed49c9de048c3a99a1def267a503ee98335af161025c610e6a565b50610eb5565b51908152a36001805580f35b909260058102818104600514821517156102d65760649004918282039182116102c35750868080938193968254168282156102ba575bf1156102b1573880610222565b513d85823e3d90fd5b506108fc6102a4565b634e487b7160e01b885260119052602487fd5b634e487b7160e01b885260118352602488fd5b634e487b7160e01b885260118252602488fd5b845162461bcd60e51b81526020818501526011602482015270105b1c9958591e4818d85b98d95b1b1959607a1b6044820152606490fd5b503461018c578260031936011261018c5761034c610d07565b8280808060018060a01b0381541647905af1610366610e6a565b5015610370578280f35b906020606492519162461bcd60e51b8352820152600f60248201526e151c985b9cd9995c8819985a5b1959608a1b6044820152fd5b5082906103b136610cc9565b916103ba610dc5565b6103c2610da7565b341561053f5781845260209260038452818520818652845260018060a01b039586838720541661050b5783865280855261040260ff848820541615610d33565b6212750042018042116104f857610417610d71565b9033825286820134815285830190898252606084019a8a8c526080850193845260a08501968b8852898c5260038b52888c20908c528a52878b209451166bffffffffffffffffffffffff60a01b85541617845551600184015560028301905160038110156104e5577f71284872bb4c088a81295dff2513729babbccfeda38a8d824bb1a73bcaab494e9798999a60ff61ff0084549251151560081b1692169061ffff191617179055516003820155019051151560ff8019835416911617905551923484523393a36001805580f35b634e487b7160e01b8a526021855260248afd5b634e487b7160e01b875260118252602487fd5b825162461bcd60e51b8152908101859052600e60248201526d5061796d656e742065786973747360901b6044820152606490fd5b5162461bcd60e51b8152602081860152601060248201526f14185e5b595b9d081c995c5d5a5c995960821b6044820152606490fd5b503461018c5761058336610cc9565b61058e929192610dc5565b610596610da7565b6001600160a01b03906105cc337f0000000000000000000000000000000000000000000000000000000000000000841614610efa565b838652600360205282862090865260205281852093600285019081549060ff8216600381101561066a5792600180936020969361062b7f21d71db5be59bb9fa133895586b7404307dd33fb93b16db09dc6f1d9d7d231b0999715610f46565b61063b60ff828d01541615610f8b565b898c52875261065060ff878d20541615610d33565b60ff19161790558654169501549051908152a36001805580f35b634e487b7160e01b895260218252602489fd5b503461018c5761068c36610cc9565b610697929192610dc5565b61069f610da7565b8285526003602052818520908552602052808420600281019081549460ff861690600382101561074a57506002916106d960019215610f46565b6106ec828060a01b038254163314610fca565b6106fc6003820154421115610e27565b01549460ff19161790556107198480808087335af161025c610e6a565b519182527fe89ec1881a76229445bcd179b8c4b24f9edc7ddd87d07fb3b19c67ae9c6e27cc60203393a36001805580f35b634e487b7160e01b885260219052602487fd5b50823461082a5761076d36610cc9565b9082526003602052828220908252602052818120610789610d71565b9160018060a01b039384835416845260018301549460208501958652600284015460ff8116936003851015610817575091839160ff806108069560c09b97858b015260081c161515958660608a01526003880154978860808b01520154161515968760a08201525116965181519788526020880152860190610ce4565b6060840152608083015260a0820152f35b634e487b7160e01b815260218952602490fd5b80fd5b838234610855578160031936011261085557905490516001600160a01b039091168152602090f35b5080fd5b83823461085557816003193601126108555760207f62e78cea01bee320cd4e420270b5ea74000d11b0c9f74754ebdbfc544b05a25891610897610d07565b61089f610da7565b600160ff19600254161760025551338152a180f35b503461018c576108c336610cc9565b9290916108ce610dc5565b6108d6610da7565b82855260209180835260ff82872054161561099c578386526003835281862085875283528186209061091260018060a01b038354163314610de8565b8082019081549060ff8216610966575060ff1916600190811790915501547faaf6c9d5bc32e5fc43b1512d04c81426a969d259164fcb878aef8ae9a34d227092916102628780808086335af161025c610e6a565b845162461bcd60e51b8152908101869052601060248201526f105b1c9958591e481c99599d5b99195960821b6044820152606490fd5b82606492519162461bcd60e51b83528201526013602482015272115d995b9d081b9bdd0818d85b98d95b1b1959606a1b6044820152fd5b83823461085557610a0a60ff6002836020956109ee36610cc9565b9082526003885282822090825287522001541691518092610ce4565bf35b833461082a578060031936011261082a57610a25610d07565b80546001600160a01b03198116825581906001600160a01b03167f8be0079c531659141344cd1fd0a4f28419497f9722a3daafe3b4186f6b6457e08280a380f35b83823461085557600181602093610a7c36610cc9565b9082526003865282822090825285522001549051908152f35b83823461085557816003193601126108555760209060ff6002541690519015158152f35b503461018c57602036600319011261018c57813591610b02337f00000000000000000000000000000000000000000000000000000000000000006001600160a01b031614610efa565b610b0a610da7565b8284526020528220805460ff191660011790557fdc3cb569b066460f4a22dffa05317bdcce5d3826382ed49a21f13e5fa2063d398280a280f35b50903461018c578260031936011261018c57610b5e610d07565b6002549060ff821615610ba0575060ff1916600255513381527f5db9ee0a495bf2e6ff9c91a7834c1ba4fdd244a5e8aa4e537bd38aeae4b073aa90602090a180f35b8251638dfc202b60e01b8152fd5b503461018c57610bbd36610cc9565b929091610bc8610da7565b82855260036020528085208486526020528420600281019182549160ff83166003811015610c51576101009392610c2292610c0560ff9315610f46565b610c1960018060a01b038254163314610fca565b01541615610f8b565b61ff0019161790557f42a333aa9f5e83ed874e2c82d84df396c2a89c4ad056bc332d38ba044bbe8bba8380a380f35b634e487b7160e01b885260218352602488fd5b83823461085557816003193601126108555760209051621275008152f35b50903461018c57602036600319011261018c57816020938260ff93358252855220541690519015158152f35b84903461085557816003193601126108555780600560209252f35b6040906003190112610cdf576004359060243590565b600080fd5b906003821015610cf15752565b634e487b7160e01b600052602160045260246000fd5b6000546001600160a01b03163303610d1b57565b60405163118cdaa760e01b8152336004820152602490fd5b15610d3a57565b60405162461bcd60e51b815260206004820152600f60248201526e115d995b9d0818d85b98d95b1b1959608a1b6044820152606490fd5b6040519060c0820182811067ffffffffffffffff821117610d9157604052565b634e487b7160e01b600052604160045260246000fd5b60ff60025416610db357565b60405163d93c066560e01b8152600490fd5b600260015414610dd6576002600155565b604051633ee5aeb560e01b8152600490fd5b15610def57565b60405162461bcd60e51b815260206004820152601060248201526f2737ba103a34b1b5b2ba1037bbb732b960811b6044820152606490fd5b15610e2e57565b60405162461bcd60e51b81526020600482015260146024820152731499599d5b99081dda5b991bddc818db1bdcd95960621b6044820152606490fd5b3d15610eb05767ffffffffffffffff903d828111610d915760405192601f8201601f19908116603f0116840190811184821017610d915760405282523d6000602084013e565b606090565b15610ebc57565b60405162461bcd60e51b81526020600482015260166024820152751499599d5b99081d1c985b9cd9995c8819985a5b195960521b6044820152606490fd5b15610f0157565b60405162461bcd60e51b815260206004820152601a60248201527f4f6e6c79204576656e744d616e616765722063616e2063616c6c0000000000006044820152606490fd5b15610f4d57565b60405162461bcd60e51b8152602060048201526016602482015275496e76616c6964207061796d656e742073746174757360501b6044820152606490fd5b15610f9257565b60405162461bcd60e51b815260206004820152601060248201526f151a58dad95d0818d85b98d95b1b195960821b6044820152606490fd5b15610fd157565b60405162461bcd60e51b815260206004820152600d60248201526c2737ba103a3432903830bcb2b960991b6044820152606490fdfea2646970667358221220073be5b66e3770063b50597f28af4ff97544933c290e504216e1941e900c6f9664736f6c63430008140033","opcodes":"PUSH1 0xA0 CALLVALUE PUSH2 0x126 JUMPI PUSH1 0x1F PUSH2 0x117E CODESIZE DUP2 SWAP1 SUB SWAP2 DUP3 ADD PUSH1 0x1F NOT AND DUP4 ADD SWAP2 PUSH1 0x1 PUSH1 0x1 PUSH1 0x40 SHL SUB DUP4 GT DUP5 DUP5 LT OR PUSH2 0x12B JUMPI DUP1 DUP5 SWAP3 PUSH1 0x20 SWAP5 PUSH1 0x40 MSTORE DUP4 CODECOPY DUP2 ADD SUB SLT PUSH2 0x126 JUMPI MLOAD PUSH1 0x1 PUSH1 0x1 PUSH1 0xA0 SHL SUB DUP1 DUP3 AND DUP1 DUP4 SUB PUSH2 0x126 JUMPI CALLER ISZERO PUSH2 0x10D JUMPI PUSH1 0x0 SLOAD CALLER PUSH1 0x1 DUP1 PUSH1 0xA0 SHL SUB NOT DUP3 AND OR PUSH1 0x0 SSTORE PUSH1 0x40 MLOAD SWAP3 CALLER SWAP2 AND PUSH32 0x8BE0079C531659141344CD1FD0A4F28419497F9722A3DAAFE3B4186F6B6457E0 PUSH1 0x0 DUP1 LOG3 PUSH1 0x1 DUP1 SSTORE PUSH1 0xFF NOT PUSH1 0x2 SLOAD AND PUSH1 0x2 SSTORE ISZERO PUSH2 0xCB JUMPI POP PUSH1 0x80 MSTORE PUSH1 0x40 MLOAD PUSH2 0x103C SWAP1 DUP2 PUSH2 0x142 DUP3 CODECOPY PUSH1 0x80 MLOAD DUP2 DUP2 DUP2 PUSH2 0x5A5 ADD MSTORE PUSH2 0xAD4 ADD MSTORE RETURN JUMPDEST PUSH3 0x461BCD PUSH1 0xE5 SHL DUP2 MSTORE PUSH1 0x20 PUSH1 0x4 DUP3 ADD MSTORE PUSH1 0x1C PUSH1 0x24 DUP3 ADD MSTORE PUSH32 0x496E76616C6964204576656E744D616E61676572206164647265737300000000 PUSH1 0x44 DUP3 ADD MSTORE PUSH1 0x64 SWAP1 REVERT JUMPDEST PUSH1 0x40 MLOAD PUSH4 0x1E4FBDF7 PUSH1 0xE0 SHL DUP2 MSTORE PUSH1 0x0 PUSH1 0x4 DUP3 ADD MSTORE PUSH1 0x24 SWAP1 REVERT JUMPDEST PUSH1 0x0 DUP1 REVERT JUMPDEST PUSH4 0x4E487B71 PUSH1 0xE0 SHL PUSH1 0x0 MSTORE PUSH1 0x41 PUSH1 0x4 MSTORE PUSH1 0x24 PUSH1 0x0 REVERT INVALID PUSH1 0x80 PUSH1 0x40 DUP2 DUP2 MSTORE PUSH1 0x4 SWAP1 DUP2 CALLDATASIZE LT ISZERO PUSH2 0x16 JUMPI PUSH1 0x0 DUP1 REVERT JUMPDEST PUSH1 0x0 SWAP3 DUP4 CALLDATALOAD PUSH1 0xE0 SHR SWAP1 DUP2 PUSH4 0x6633E12 EQ PUSH2 0xCAE JUMPI POP DUP1 PUSH4 0x110F2697 EQ PUSH2 0xC82 JUMPI DUP1 PUSH4 0x1153B5F3 EQ PUSH2 0xC64 JUMPI DUP1 PUSH4 0x2F62582C EQ PUSH2 0xBAE JUMPI DUP1 PUSH4 0x3F4BA83A EQ PUSH2 0xB44 JUMPI DUP1 PUSH4 0x3F69BABD EQ PUSH2 0xAB9 JUMPI DUP1 PUSH4 0x5C975ABB EQ PUSH2 0xA95 JUMPI DUP1 PUSH4 0x66E008F8 EQ PUSH2 0xA66 JUMPI DUP1 PUSH4 0x715018A6 EQ PUSH2 0xA0C JUMPI DUP1 PUSH4 0x78C5E06D EQ PUSH2 0x9D3 JUMPI DUP1 PUSH4 0x830CE587 EQ PUSH2 0x8B4 JUMPI DUP1 PUSH4 0x8456CB59 EQ PUSH2 0x859 JUMPI DUP1 PUSH4 0x8DA5CB5B EQ PUSH2 0x82D JUMPI DUP1 PUSH4 0x925A9101 EQ PUSH2 0x75D JUMPI DUP1 PUSH4 0x95144DC4 EQ PUSH2 0x67D JUMPI DUP1 PUSH4 0x97E99A80 EQ PUSH2 0x574 JUMPI DUP1 PUSH4 0x9BDC727C EQ PUSH2 0x3A5 JUMPI DUP1 PUSH4 0xC5B60A48 EQ PUSH2 0x333 JUMPI DUP1 PUSH4 0xEA266FCF EQ PUSH2 0x190 JUMPI PUSH4 0xF2FDE38B EQ PUSH2 0x100 JUMPI PUSH1 0x0 DUP1 REVERT JUMPDEST CALLVALUE PUSH2 0x18C JUMPI PUSH1 0x20 CALLDATASIZE PUSH1 0x3 NOT ADD SLT PUSH2 0x18C JUMPI PUSH1 0x1 PUSH1 0x1 PUSH1 0xA0 SHL SUB DUP3 CALLDATALOAD DUP2 DUP2 AND SWAP4 SWAP2 SWAP3 SWAP1 DUP5 SWAP1 SUB PUSH2 0x188 JUMPI PUSH2 0x131 PUSH2 0xD07 JUMP JUMPDEST DUP4 ISZERO PUSH2 0x172 JUMPI POP POP DUP3 SLOAD PUSH1 0x1 PUSH1 0x1 PUSH1 0xA0 SHL SUB NOT DUP2 AND DUP4 OR DUP5 SSTORE AND PUSH32 0x8BE0079C531659141344CD1FD0A4F28419497F9722A3DAAFE3B4186F6B6457E0 DUP4 DUP1 LOG3 DUP1 RETURN JUMPDEST MLOAD PUSH4 0x1E4FBDF7 PUSH1 0xE0 SHL DUP2 MSTORE SWAP1 DUP2 ADD DUP5 SWAP1 MSTORE PUSH1 0x24 SWAP1 REVERT JUMPDEST DUP5 DUP1 REVERT JUMPDEST DUP3 DUP1 REVERT JUMPDEST POP CALLVALUE PUSH2 0x18C JUMPI PUSH2 0x19F CALLDATASIZE PUSH2 0xCC9 JUMP JUMPDEST SWAP3 SWAP1 SWAP2 PUSH2 0x1AA PUSH2 0xDC5 JUMP JUMPDEST PUSH2 0x1B2 PUSH2 0xDA7 JUMP JUMPDEST DUP3 DUP6 MSTORE PUSH1 0x3 PUSH1 0x20 MSTORE DUP1 DUP6 KECCAK256 DUP5 DUP7 MSTORE PUSH1 0x20 MSTORE DUP1 DUP6 KECCAK256 SWAP2 PUSH1 0x1 DUP1 PUSH1 0xA0 SHL SUB SWAP1 PUSH2 0x1DD DUP3 DUP6 SLOAD AND CALLER EQ PUSH2 0xDE8 JUMP JUMPDEST DUP1 DUP5 ADD SWAP4 DUP5 SLOAD SWAP5 PUSH1 0xFF DUP7 AND PUSH2 0x2FC JUMPI SWAP1 PUSH1 0x1 SWAP2 DUP3 PUSH1 0x3 DUP4 ADD SLOAD SWAP8 PUSH2 0x203 DUP10 TIMESTAMP GT ISZERO PUSH2 0xE27 JUMP JUMPDEST PUSH1 0xFF NOT AND OR SWAP1 SSTORE ADD SLOAD SWAP4 PUSH3 0x93A7F NOT DUP2 ADD SWAP1 DUP2 GT PUSH2 0x2E9 JUMPI TIMESTAMP GT PUSH2 0x26E JUMPI JUMPDEST POP POP DUP2 PUSH1 0x20 SWAP2 PUSH2 0x262 DUP8 DUP1 DUP1 DUP1 PUSH32 0xB0897FA6B40736FE48B8A1B08DF225F049ED49C9DE048C3A99A1DEF267A503EE SWAP9 CALLER GAS CALL PUSH2 0x25C PUSH2 0xE6A JUMP JUMPDEST POP PUSH2 0xEB5 JUMP JUMPDEST MLOAD SWAP1 DUP2 MSTORE LOG3 PUSH1 0x1 DUP1 SSTORE DUP1 RETURN JUMPDEST SWAP1 SWAP3 PUSH1 0x5 DUP2 MUL DUP2 DUP2 DIV PUSH1 0x5 EQ DUP3 ISZERO OR ISZERO PUSH2 0x2D6 JUMPI PUSH1 0x64 SWAP1 DIV SWAP2 DUP3 DUP3 SUB SWAP2 DUP3 GT PUSH2 0x2C3 JUMPI POP DUP7 DUP1 DUP1 SWAP4 DUP2 SWAP4 SWAP7 DUP3 SLOAD AND DUP3 DUP3 ISZERO PUSH2 0x2BA JUMPI JUMPDEST CALL ISZERO PUSH2 0x2B1 JUMPI CODESIZE DUP1 PUSH2 0x222 JUMP JUMPDEST MLOAD RETURNDATASIZE DUP6 DUP3 RETURNDATACOPY RETURNDATASIZE SWAP1 REVERT JUMPDEST POP PUSH2 0x8FC PUSH2 0x2A4 JUMP JUMPDEST PUSH4 0x4E487B71 PUSH1 0xE0 SHL DUP9 MSTORE PUSH1 0x11 SWAP1 MSTORE PUSH1 0x24 DUP8 REVERT JUMPDEST PUSH4 0x4E487B71 PUSH1 0xE0 SHL DUP9 MSTORE PUSH1 0x11 DUP4 MSTORE PUSH1 0x24 DUP9 REVERT JUMPDEST PUSH4 0x4E487B71 PUSH1 0xE0 SHL DUP9 MSTORE PUSH1 0x11 DUP3 MSTORE PUSH1 0x24 DUP9 REVERT JUMPDEST DUP5 MLOAD PUSH3 0x461BCD PUSH1 0xE5 SHL DUP2 MSTORE PUSH1 0x20 DUP2 DUP6 ADD MSTORE PUSH1 0x11 PUSH1 0x24 DUP3 ADD MSTORE PUSH17 0x105B1C9958591E4818D85B98D95B1B1959 PUSH1 0x7A SHL PUSH1 0x44 DUP3 ADD MSTORE PUSH1 0x64 SWAP1 REVERT JUMPDEST POP CALLVALUE PUSH2 0x18C JUMPI DUP3 PUSH1 0x3 NOT CALLDATASIZE ADD SLT PUSH2 0x18C JUMPI PUSH2 0x34C PUSH2 0xD07 JUMP JUMPDEST DUP3 DUP1 DUP1 DUP1 PUSH1 0x1 DUP1 PUSH1 0xA0 SHL SUB DUP2 SLOAD AND SELFBALANCE SWAP1 GAS CALL PUSH2 0x366 PUSH2 0xE6A JUMP JUMPDEST POP ISZERO PUSH2 0x370 JUMPI DUP3 DUP1 RETURN JUMPDEST SWAP1 PUSH1 0x20 PUSH1 0x64 SWAP3 MLOAD SWAP2 PUSH3 0x461BCD PUSH1 0xE5 SHL DUP4 MSTORE DUP3 ADD MSTORE PUSH1 0xF PUSH1 0x24 DUP3 ADD MSTORE PUSH15 0x151C985B9CD9995C8819985A5B1959 PUSH1 0x8A SHL PUSH1 0x44 DUP3 ADD MSTORE REVERT JUMPDEST POP DUP3 SWAP1 PUSH2 0x3B1 CALLDATASIZE PUSH2 0xCC9 JUMP JUMPDEST SWAP2 PUSH2 0x3BA PUSH2 0xDC5 JUMP JUMPDEST PUSH2 0x3C2 PUSH2 0xDA7 JUMP JUMPDEST CALLVALUE ISZERO PUSH2 0x53F JUMPI DUP2 DUP5 MSTORE PUSH1 0x20 SWAP3 PUSH1 0x3 DUP5 MSTORE DUP2 DUP6 KECCAK256 DUP2 DUP7 MSTORE DUP5 MSTORE PUSH1 0x1 DUP1 PUSH1 0xA0 SHL SUB SWAP6 DUP7 DUP4 DUP8 KECCAK256 SLOAD AND PUSH2 0x50B JUMPI DUP4 DUP7 MSTORE DUP1 DUP6 MSTORE PUSH2 0x402 PUSH1 0xFF DUP5 DUP9 KECCAK256 SLOAD AND ISZERO PUSH2 0xD33 JUMP JUMPDEST PUSH3 0x127500 TIMESTAMP ADD DUP1 TIMESTAMP GT PUSH2 0x4F8 JUMPI PUSH2 0x417 PUSH2 0xD71 JUMP JUMPDEST SWAP1 CALLER DUP3 MSTORE DUP7 DUP3 ADD CALLVALUE DUP2 MSTORE DUP6 DUP4 ADD SWAP1 DUP10 DUP3 MSTORE PUSH1 0x60 DUP5 ADD SWAP11 DUP11 DUP13 MSTORE PUSH1 0x80 DUP6 ADD SWAP4 DUP5 MSTORE PUSH1 0xA0 DUP6 ADD SWAP7 DUP12 DUP9 MSTORE DUP10 DUP13 MSTORE PUSH1 0x3 DUP12 MSTORE DUP9 DUP13 KECCAK256 SWAP1 DUP13 MSTORE DUP11 MSTORE DUP8 DUP12 KECCAK256 SWAP5 MLOAD AND PUSH12 0xFFFFFFFFFFFFFFFFFFFFFFFF PUSH1 0xA0 SHL DUP6 SLOAD AND OR DUP5 SSTORE MLOAD PUSH1 0x1 DUP5 ADD SSTORE PUSH1 0x2 DUP4 ADD SWAP1 MLOAD PUSH1 0x3 DUP2 LT ISZERO PUSH2 0x4E5 JUMPI PUSH32 0x71284872BB4C088A81295DFF2513729BABBCCFEDA38A8D824BB1A73BCAAB494E SWAP8 SWAP9 SWAP10 SWAP11 PUSH1 0xFF PUSH2 0xFF00 DUP5 SLOAD SWAP3 MLOAD ISZERO ISZERO PUSH1 0x8 SHL AND SWAP3 AND SWAP1 PUSH2 0xFFFF NOT AND OR OR SWAP1 SSTORE MLOAD PUSH1 0x3 DUP3 ADD SSTORE ADD SWAP1 MLOAD ISZERO ISZERO PUSH1 0xFF DUP1 NOT DUP4 SLOAD AND SWAP2 AND OR SWAP1 SSTORE MLOAD SWAP3 CALLVALUE DUP5 MSTORE CALLER SWAP4 LOG3 PUSH1 0x1 DUP1 SSTORE DUP1 RETURN JUMPDEST PUSH4 0x4E487B71 PUSH1 0xE0 SHL DUP11 MSTORE PUSH1 0x21 DUP6 MSTORE PUSH1 0x24 DUP11 REVERT JUMPDEST PUSH4 0x4E487B71 PUSH1 0xE0 SHL DUP8 MSTORE PUSH1 0x11 DUP3 MSTORE PUSH1 0x24 DUP8 REVERT JUMPDEST DUP3 MLOAD PUSH3 0x461BCD PUSH1 0xE5 SHL DUP2 MSTORE SWAP1 DUP2 ADD DUP6 SWAP1 MSTORE PUSH1 0xE PUSH1 0x24 DUP3 ADD MSTORE PUSH14 0x5061796D656E7420657869737473 PUSH1 0x90 SHL PUSH1 0x44 DUP3 ADD MSTORE PUSH1 0x64 SWAP1 REVERT JUMPDEST MLOAD PUSH3 0x461BCD PUSH1 0xE5 SHL DUP2 MSTORE PUSH1 0x20 DUP2 DUP7 ADD MSTORE PUSH1 0x10 PUSH1 0x24 DUP3 ADD MSTORE PUSH16 0x14185E5B595B9D081C995C5D5A5C9959 PUSH1 0x82 SHL PUSH1 0x44 DUP3 ADD MSTORE PUSH1 0x64 SWAP1 REVERT JUMPDEST POP CALLVALUE PUSH2 0x18C JUMPI PUSH2 0x583 CALLDATASIZE PUSH2 0xCC9 JUMP JUMPDEST PUSH2 0x58E SWAP3 SWAP2 SWAP3 PUSH2 0xDC5 JUMP JUMPDEST PUSH2 0x596 PUSH2 0xDA7 JUMP JUMPDEST PUSH1 0x1 PUSH1 0x1 PUSH1 0xA0 SHL SUB SWAP1 PUSH2 0x5CC CALLER PUSH32 0x0 DUP5 AND EQ PUSH2 0xEFA JUMP JUMPDEST DUP4 DUP7 MSTORE PUSH1 0x3 PUSH1 0x20 MSTORE DUP3 DUP7 KECCAK256 SWAP1 DUP7 MSTORE PUSH1 0x20 MSTORE DUP2 DUP6 KECCAK256 SWAP4 PUSH1 0x2 DUP6 ADD SWAP1 DUP2 SLOAD SWAP1 PUSH1 0xFF DUP3 AND PUSH1 0x3 DUP2 LT ISZERO PUSH2 0x66A JUMPI SWAP3 PUSH1 0x1 DUP1 SWAP4 PUSH1 0x20 SWAP7 SWAP4 PUSH2 0x62B PUSH32 0x21D71DB5BE59BB9FA133895586B7404307DD33FB93B16DB09DC6F1D9D7D231B0 SWAP10 SWAP8 ISZERO PUSH2 0xF46 JUMP JUMPDEST PUSH2 0x63B PUSH1 0xFF DUP3 DUP14 ADD SLOAD AND ISZERO PUSH2 0xF8B JUMP JUMPDEST DUP10 DUP13 MSTORE DUP8 MSTORE PUSH2 0x650 PUSH1 0xFF DUP8 DUP14 KECCAK256 SLOAD AND ISZERO PUSH2 0xD33 JUMP JUMPDEST PUSH1 0xFF NOT AND OR SWAP1 SSTORE DUP7 SLOAD AND SWAP6 ADD SLOAD SWAP1 MLOAD SWAP1 DUP2 MSTORE LOG3 PUSH1 0x1 DUP1 SSTORE DUP1 RETURN JUMPDEST PUSH4 0x4E487B71 PUSH1 0xE0 SHL DUP10 MSTORE PUSH1 0x21 DUP3 MSTORE PUSH1 0x24 DUP10 REVERT JUMPDEST POP CALLVALUE PUSH2 0x18C JUMPI PUSH2 0x68C CALLDATASIZE PUSH2 0xCC9 JUMP JUMPDEST PUSH2 0x697 SWAP3 SWAP2 SWAP3 PUSH2 0xDC5 JUMP JUMPDEST PUSH2 0x69F PUSH2 0xDA7 JUMP JUMPDEST DUP3 DUP6 MSTORE PUSH1 0x3 PUSH1 0x20 MSTORE DUP2 DUP6 KECCAK256 SWAP1 DUP6 MSTORE PUSH1 0x20 MSTORE DUP1 DUP5 KECCAK256 PUSH1 0x2 DUP2 ADD SWAP1 DUP2 SLOAD SWAP5 PUSH1 0xFF DUP7 AND SWAP1 PUSH1 0x3 DUP3 LT ISZERO PUSH2 0x74A JUMPI POP PUSH1 0x2 SWAP2 PUSH2 0x6D9 PUSH1 0x1 SWAP3 ISZERO PUSH2 0xF46 JUMP JUMPDEST PUSH2 0x6EC DUP3 DUP1 PUSH1 0xA0 SHL SUB DUP3 SLOAD AND CALLER EQ PUSH2 0xFCA JUMP JUMPDEST PUSH2 0x6FC PUSH1 0x3 DUP3 ADD SLOAD TIMESTAMP GT ISZERO PUSH2 0xE27 JUMP JUMPDEST ADD SLOAD SWAP5 PUSH1 0xFF NOT AND OR SWAP1 SSTORE PUSH2 0x719 DUP5 DUP1 DUP1 DUP1 DUP8 CALLER GAS CALL PUSH2 0x25C PUSH2 0xE6A JUMP JUMPDEST MLOAD SWAP2 DUP3 MSTORE PUSH32 0xE89EC1881A76229445BCD179B8C4B24F9EDC7DDD87D07FB3B19C67AE9C6E27CC PUSH1 0x20 CALLER SWAP4 LOG3 PUSH1 0x1 DUP1 SSTORE DUP1 RETURN JUMPDEST PUSH4 0x4E487B71 PUSH1 0xE0 SHL DUP9 MSTORE PUSH1 0x21 SWAP1 MSTORE PUSH1 0x24 DUP8 REVERT JUMPDEST POP DUP3 CALLVALUE PUSH2 0x82A JUMPI PUSH2 0x76D CALLDATASIZE PUSH2 0xCC9 JUMP JUMPDEST SWAP1 DUP3 MSTORE PUSH1 0x3 PUSH1 0x20 MSTORE DUP3 DUP3 KECCAK256 SWAP1 DUP3 MSTORE PUSH1 0x20 MSTORE DUP2 DUP2 KECCAK256 PUSH2 0x789 PUSH2 0xD71 JUMP JUMPDEST SWAP2 PUSH1 0x1 DUP1 PUSH1 0xA0 SHL SUB SWAP4 DUP5 DUP4 SLOAD AND DUP5 MSTORE PUSH1 0x1 DUP4 ADD SLOAD SWAP5 PUSH1 0x20 DUP6 ADD SWAP6 DUP7 MSTORE PUSH1 0x2 DUP5 ADD SLOAD PUSH1 0xFF DUP2 AND SWAP4 PUSH1 0x3 DUP6 LT ISZERO PUSH2 0x817 JUMPI POP SWAP2 DUP4 SWAP2 PUSH1 0xFF DUP1 PUSH2 0x806 SWAP6 PUSH1 0xC0 SWAP12 SWAP8 DUP6 DUP12 ADD MSTORE PUSH1 0x8 SHR AND ISZERO ISZERO SWAP6 DUP7 PUSH1 0x60 DUP11 ADD MSTORE PUSH1 0x3 DUP9 ADD SLOAD SWAP8 DUP9 PUSH1 0x80 DUP12 ADD MSTORE ADD SLOAD AND ISZERO ISZERO SWAP7 DUP8 PUSH1 0xA0 DUP3 ADD MSTORE MLOAD AND SWAP7 MLOAD DUP2 MLOAD SWAP8 DUP9 MSTORE PUSH1 0x20 DUP9 ADD MSTORE DUP7 ADD SWAP1 PUSH2 0xCE4 JUMP JUMPDEST PUSH1 0x60 DUP5 ADD MSTORE PUSH1 0x80 DUP4 ADD MSTORE PUSH1 0xA0 DUP3 ADD MSTORE RETURN JUMPDEST PUSH4 0x4E487B71 PUSH1 0xE0 SHL DUP2 MSTORE PUSH1 0x21 DUP10 MSTORE PUSH1 0x24 SWAP1 REVERT JUMPDEST DUP1 REVERT JUMPDEST DUP4 DUP3 CALLVALUE PUSH2 0x855 JUMPI DUP2 PUSH1 0x3 NOT CALLDATASIZE ADD SLT PUSH2 0x855 JUMPI SWAP1 SLOAD SWAP1 MLOAD PUSH1 0x1 PUSH1 0x1 PUSH1 0xA0 SHL SUB SWAP1 SWAP2 AND DUP2 MSTORE PUSH1 0x20 SWAP1 RETURN JUMPDEST POP DUP1 REVERT JUMPDEST DUP4 DUP3 CALLVALUE PUSH2 0x855 JUMPI DUP2 PUSH1 0x3 NOT CALLDATASIZE ADD SLT PUSH2 0x855 JUMPI PUSH1 0x20 PUSH32 0x62E78CEA01BEE320CD4E420270B5EA74000D11B0C9F74754EBDBFC544B05A258 SWAP2 PUSH2 0x897 PUSH2 0xD07 JUMP JUMPDEST PUSH2 0x89F PUSH2 0xDA7 JUMP JUMPDEST PUSH1 0x1 PUSH1 0xFF NOT PUSH1 0x2 SLOAD AND OR PUSH1 0x2 SSTORE MLOAD CALLER DUP2 MSTORE LOG1 DUP1 RETURN JUMPDEST POP CALLVALUE PUSH2 0x18C JUMPI PUSH2 0x8C3 CALLDATASIZE PUSH2 0xCC9 JUMP JUMPDEST SWAP3 SWAP1 SWAP2 PUSH2 0x8CE PUSH2 0xDC5 JUMP JUMPDEST PUSH2 0x8D6 PUSH2 0xDA7 JUMP JUMPDEST DUP3 DUP6 MSTORE PUSH1 0x20 SWAP2 DUP1 DUP4 MSTORE PUSH1 0xFF DUP3 DUP8 KECCAK256 SLOAD AND ISZERO PUSH2 0x99C JUMPI DUP4 DUP7 MSTORE PUSH1 0x3 DUP4 MSTORE DUP2 DUP7 KECCAK256 DUP6 DUP8 MSTORE DUP4 MSTORE DUP2 DUP7 KECCAK256 SWAP1 PUSH2 0x912 PUSH1 0x1 DUP1 PUSH1 0xA0 SHL SUB DUP4 SLOAD AND CALLER EQ PUSH2 0xDE8 JUMP JUMPDEST DUP1 DUP3 ADD SWAP1 DUP2 SLOAD SWAP1 PUSH1 0xFF DUP3 AND PUSH2 0x966 JUMPI POP PUSH1 0xFF NOT AND PUSH1 0x1 SWAP1 DUP2 OR SWAP1 SWAP2 SSTORE ADD SLOAD PUSH32 0xAAF6C9D5BC32E5FC43B1512D04C81426A969D259164FCB878AEF8AE9A34D2270 SWAP3 SWAP2 PUSH2 0x262 DUP8 DUP1 DUP1 DUP1 DUP7 CALLER GAS CALL PUSH2 0x25C PUSH2 0xE6A JUMP JUMPDEST DUP5 MLOAD PUSH3 0x461BCD PUSH1 0xE5 SHL DUP2 MSTORE SWAP1 DUP2 ADD DUP7 SWAP1 MSTORE PUSH1 0x10 PUSH1 0x24 DUP3 ADD MSTORE PUSH16 0x105B1C9958591E481C99599D5B991959 PUSH1 0x82 SHL PUSH1 0x44 DUP3 ADD MSTORE PUSH1 0x64 SWAP1 REVERT JUMPDEST DUP3 PUSH1 0x64 SWAP3 MLOAD SWAP2 PUSH3 0x461BCD PUSH1 0xE5 SHL DUP4 MSTORE DUP3 ADD MSTORE PUSH1 0x13 PUSH1 0x24 DUP3 ADD MSTORE PUSH19 0x115D995B9D081B9BDD0818D85B98D95B1B1959 PUSH1 0x6A SHL PUSH1 0x44 DUP3 ADD MSTORE REVERT JUMPDEST DUP4 DUP3 CALLVALUE PUSH2 0x855 JUMPI PUSH2 0xA0A PUSH1 0xFF PUSH1 0x2 DUP4 PUSH1 0x20 SWAP6 PUSH2 0x9EE CALLDATASIZE PUSH2 0xCC9 JUMP JUMPDEST SWAP1 DUP3 MSTORE PUSH1 0x3 DUP9 MSTORE DUP3 DUP3 KECCAK256 SWAP1 DUP3 MSTORE DUP8 MSTORE KECCAK256 ADD SLOAD AND SWAP2 MLOAD DUP1 SWAP3 PUSH2 0xCE4 JUMP JUMPDEST RETURN JUMPDEST DUP4 CALLVALUE PUSH2 0x82A JUMPI DUP1 PUSH1 0x3 NOT CALLDATASIZE ADD SLT PUSH2 0x82A JUMPI PUSH2 0xA25 PUSH2 0xD07 JUMP JUMPDEST DUP1 SLOAD PUSH1 0x1 PUSH1 0x1 PUSH1 0xA0 SHL SUB NOT DUP2 AND DUP3 SSTORE DUP2 SWAP1 PUSH1 0x1 PUSH1 0x1 PUSH1 0xA0 SHL SUB AND PUSH32 0x8BE0079C531659141344CD1FD0A4F28419497F9722A3DAAFE3B4186F6B6457E0 DUP3 DUP1 LOG3 DUP1 RETURN JUMPDEST DUP4 DUP3 CALLVALUE PUSH2 0x855 JUMPI PUSH1 0x1 DUP2 PUSH1 0x20 SWAP4 PUSH2 0xA7C CALLDATASIZE PUSH2 0xCC9 JUMP JUMPDEST SWAP1 DUP3 MSTORE PUSH1 0x3 DUP7 MSTORE DUP3 DUP3 KECCAK256 SWAP1 DUP3 MSTORE DUP6 MSTORE KECCAK256 ADD SLOAD SWAP1 MLOAD SWAP1 DUP2 MSTORE RETURN JUMPDEST DUP4 DUP3 CALLVALUE PUSH2 0x855 JUMPI DUP2 PUSH1 0x3 NOT CALLDATASIZE ADD SLT PUSH2 0x855 JUMPI PUSH1 0x20 SWAP1 PUSH1 0xFF PUSH1 0x2 SLOAD AND SWAP1 MLOAD SWAP1 ISZERO ISZERO DUP2 MSTORE RETURN JUMPDEST POP CALLVALUE PUSH2 0x18C JUMPI PUSH1 0x20 CALLDATASIZE PUSH1 0x3 NOT ADD SLT PUSH2 0x18C JUMPI DUP2 CALLDATALOAD SWAP2 PUSH2 0xB02 CALLER PUSH32 0x0 PUSH1 0x1 PUSH1 0x1 PUSH1 0xA0 SHL SUB AND EQ PUSH2 0xEFA JUMP JUMPDEST PUSH2 0xB0A PUSH2 0xDA7 JUMP JUMPDEST DUP3 DUP5 MSTORE PUSH1 0x20 MSTORE DUP3 KECCAK256 DUP1 SLOAD PUSH1 0xFF NOT AND PUSH1 0x1 OR SWAP1 SSTORE PUSH32 0xDC3CB569B066460F4A22DFFA05317BDCCE5D3826382ED49A21F13E5FA2063D39 DUP3 DUP1 LOG2 DUP1 RETURN JUMPDEST POP SWAP1 CALLVALUE PUSH2 0x18C JUMPI DUP3 PUSH1 0x3 NOT CALLDATASIZE ADD SLT PUSH2 0x18C JUMPI PUSH2 0xB5E PUSH2 0xD07 JUMP JUMPDEST PUSH1 0x2 SLOAD SWAP1 PUSH1 0xFF DUP3 AND ISZERO PUSH2 0xBA0 JUMPI POP PUSH1 0xFF NOT AND PUSH1 0x2 SSTORE MLOAD CALLER DUP2 MSTORE PUSH32 0x5DB9EE0A495BF2E6FF9C91A7834C1BA4FDD244A5E8AA4E537BD38AEAE4B073AA SWAP1 PUSH1 0x20 SWAP1 LOG1 DUP1 RETURN JUMPDEST DUP3 MLOAD PUSH4 0x8DFC202B PUSH1 0xE0 SHL DUP2 MSTORE REVERT JUMPDEST POP CALLVALUE PUSH2 0x18C JUMPI PUSH2 0xBBD CALLDATASIZE PUSH2 0xCC9 JUMP JUMPDEST SWAP3 SWAP1 SWAP2 PUSH2 0xBC8 PUSH2 0xDA7 JUMP JUMPDEST DUP3 DUP6 MSTORE PUSH1 0x3 PUSH1 0x20 MSTORE DUP1 DUP6 KECCAK256 DUP5 DUP7 MSTORE PUSH1 0x20 MSTORE DUP5 KECCAK256 PUSH1 0x2 DUP2 ADD SWAP2 DUP3 SLOAD SWAP2 PUSH1 0xFF DUP4 AND PUSH1 0x3 DUP2 LT ISZERO PUSH2 0xC51 JUMPI PUSH2 0x100 SWAP4 SWAP3 PUSH2 0xC22 SWAP3 PUSH2 0xC05 PUSH1 0xFF SWAP4 ISZERO PUSH2 0xF46 JUMP JUMPDEST PUSH2 0xC19 PUSH1 0x1 DUP1 PUSH1 0xA0 SHL SUB DUP3 SLOAD AND CALLER EQ PUSH2 0xFCA JUMP JUMPDEST ADD SLOAD AND ISZERO PUSH2 0xF8B JUMP JUMPDEST PUSH2 0xFF00 NOT AND OR SWAP1 SSTORE PUSH32 0x42A333AA9F5E83ED874E2C82D84DF396C2A89C4AD056BC332D38BA044BBE8BBA DUP4 DUP1 LOG3 DUP1 RETURN JUMPDEST PUSH4 0x4E487B71 PUSH1 0xE0 SHL DUP9 MSTORE PUSH1 0x21 DUP4 MSTORE PUSH1 0x24 DUP9 REVERT JUMPDEST DUP4 DUP3 CALLVALUE PUSH2 0x855 JUMPI DUP2 PUSH1 0x3 NOT CALLDATASIZE ADD SLT PUSH2 0x855 JUMPI PUSH1 0x20 SWAP1 MLOAD PUSH3 0x127500 DUP2 MSTORE RETURN JUMPDEST POP SWAP1 CALLVALUE PUSH2 0x18C JUMPI PUSH1 0x20 CALLDATASIZE PUSH1 0x3 NOT ADD SLT PUSH2 0x18C JUMPI DUP2 PUSH1 0x20 SWAP4 DUP3 PUSH1 0xFF SWAP4 CALLDATALOAD DUP3 MSTORE DUP6 MSTORE KECCAK256 SLOAD AND SWAP1 MLOAD SWAP1 ISZERO ISZERO DUP2 MSTORE RETURN JUMPDEST DUP5 SWAP1 CALLVALUE PUSH2 0x855 JUMPI DUP2 PUSH1 0x3 NOT CALLDATASIZE ADD SLT PUSH2 0x855 JUMPI DUP1 PUSH1 0x5 PUSH1 0x20 SWAP3 MSTORE RETURN JUMPDEST PUSH1 0x40 SWAP1 PUSH1 0x3 NOT ADD SLT PUSH2 0xCDF JUMPI PUSH1 0x4 CALLDATALOAD SWAP1 PUSH1 0x24 CALLDATALOAD SWAP1 JUMP JUMPDEST PUSH1 0x0 DUP1 REVERT JUMPDEST SWAP1 PUSH1 0x3 DUP3 LT ISZERO PUSH2 0xCF1 JUMPI MSTORE JUMP JUMPDEST PUSH4 0x4E487B71 PUSH1 0xE0 SHL PUSH1 0x0 MSTORE PUSH1 0x21 PUSH1 0x4 MSTORE PUSH1 0x24 PUSH1 0x0 REVERT JUMPDEST PUSH1 0x0 SLOAD PUSH1 0x1 PUSH1 0x1 PUSH1 0xA0 SHL SUB AND CALLER SUB PUSH2 0xD1B JUMPI JUMP JUMPDEST PUSH1 0x40 MLOAD PUSH4 0x118CDAA7 PUSH1 0xE0 SHL DUP2 MSTORE CALLER PUSH1 0x4 DUP3 ADD MSTORE PUSH1 0x24 SWAP1 REVERT JUMPDEST ISZERO PUSH2 0xD3A JUMPI JUMP JUMPDEST PUSH1 0x40 MLOAD PUSH3 0x461BCD PUSH1 0xE5 SHL DUP2 MSTORE PUSH1 0x20 PUSH1 0x4 DUP3 ADD MSTORE PUSH1 0xF PUSH1 0x24 DUP3 ADD MSTORE PUSH15 0x115D995B9D0818D85B98D95B1B1959 PUSH1 0x8A SHL PUSH1 0x44 DUP3 ADD MSTORE PUSH1 0x64 SWAP1 REVERT JUMPDEST PUSH1 0x40 MLOAD SWAP1 PUSH1 0xC0 DUP3 ADD DUP3 DUP2 LT PUSH8 0xFFFFFFFFFFFFFFFF DUP3 GT OR PUSH2 0xD91 JUMPI PUSH1 0x40 MSTORE JUMP JUMPDEST PUSH4 0x4E487B71 PUSH1 0xE0 SHL PUSH1 0x0 MSTORE PUSH1 0x41 PUSH1 0x4 MSTORE PUSH1 0x24 PUSH1 0x0 REVERT JUMPDEST PUSH1 0xFF PUSH1 0x2 SLOAD AND PUSH2 0xDB3 JUMPI JUMP JUMPDEST PUSH1 0x40 MLOAD PUSH4 0xD93C0665 PUSH1 0xE0 SHL DUP2 MSTORE PUSH1 0x4 SWAP1 REVERT JUMPDEST PUSH1 0x2 PUSH1 0x1 SLOAD EQ PUSH2 0xDD6 JUMPI PUSH1 0x2 PUSH1 0x1 SSTORE JUMP JUMPDEST PUSH1 0x40 MLOAD PUSH4 0x3EE5AEB5 PUSH1 0xE0 SHL DUP2 MSTORE PUSH1 0x4 SWAP1 REVERT JUMPDEST ISZERO PUSH2 0xDEF JUMPI JUMP JUMPDEST PUSH1 0x40 MLOAD PUSH3 0x461BCD PUSH1 0xE5 SHL DUP2 MSTORE PUSH1 0x20 PUSH1 0x4 DUP3 ADD MSTORE PUSH1 0x10 PUSH1 0x24 DUP3 ADD MSTORE PUSH16 0x2737BA103A34B1B5B2BA1037BBB732B9 PUSH1 0x81 SHL PUSH1 0x44 DUP3 ADD MSTORE PUSH1 0x64 SWAP1 REVERT JUMPDEST ISZERO PUSH2 0xE2E JUMPI JUMP JUMPDEST PUSH1 0x40 MLOAD PUSH3 0x461BCD PUSH1 0xE5 SHL DUP2 MSTORE PUSH1 0x20 PUSH1 0x4 DUP3 ADD MSTORE PUSH1 0x14 PUSH1 0x24 DUP3 ADD MSTORE PUSH20 0x1499599D5B99081DDA5B991BDDC818DB1BDCD959 PUSH1 0x62 SHL PUSH1 0x44 DUP3 ADD MSTORE PUSH1 0x64 SWAP1 REVERT JUMPDEST RETURNDATASIZE ISZERO PUSH2 0xEB0 JUMPI PUSH8 0xFFFFFFFFFFFFFFFF SWAP1 RETURNDATASIZE DUP3 DUP2 GT PUSH2 0xD91 JUMPI PUSH1 0x40 MLOAD SWAP3 PUSH1 0x1F DUP3 ADD PUSH1 0x1F NOT SWAP1 DUP2 AND PUSH1 0x3F ADD AND DUP5 ADD SWAP1 DUP2 GT DUP5 DUP3 LT OR PUSH2 0xD91 JUMPI PUSH1 0x40 MSTORE DUP3 MSTORE RETURNDATASIZE PUSH1 0x0 PUSH1 0x20 DUP5 ADD RETURNDATACOPY JUMP JUMPDEST PUSH1 0x60 SWAP1 JUMP JUMPDEST ISZERO PUSH2 0xEBC JUMPI JUMP JUMPDEST PUSH1 0x40 MLOAD PUSH3 0x461BCD PUSH1 0xE5 SHL DUP2 MSTORE PUSH1 0x20 PUSH1 0x4 DUP3 ADD MSTORE PUSH1 0x16 PUSH1 0x24 DUP3 ADD MSTORE PUSH22 0x1499599D5B99081D1C985B9CD9995C8819985A5B1959 PUSH1 0x52 SHL PUSH1 0x44 DUP3 ADD MSTORE PUSH1 0x64 SWAP1 REVERT JUMPDEST ISZERO PUSH2 0xF01 JUMPI JUMP JUMPDEST PUSH1 0x40 MLOAD PUSH3 0x461BCD PUSH1 0xE5 SHL DUP2 MSTORE PUSH1 0x20 PUSH1 0x4 DUP3 ADD MSTORE PUSH1 0x1A PUSH1 0x24 DUP3 ADD MSTORE PUSH32 0x4F6E6C79204576656E744D616E616765722063616E2063616C6C000000000000 PUSH1 0x44 DUP3 ADD MSTORE PUSH1 0x64 SWAP1 REVERT JUMPDEST ISZERO PUSH2 0xF4D JUMPI JUMP JUMPDEST PUSH1 0x40 MLOAD PUSH3 0x461BCD PUSH1 0xE5 SHL DUP2 MSTORE PUSH1 0x20 PUSH1 0x4 DUP3 ADD MSTORE PUSH1 0x16 PUSH1 0x24 DUP3 ADD MSTORE PUSH22 0x496E76616C6964207061796D656E7420737461747573 PUSH1 0x50 SHL PUSH1 0x44 DUP3 ADD MSTORE PUSH1 0x64 SWAP1 REVERT JUMPDEST ISZERO PUSH2 0xF92 JUMPI JUMP JUMPDEST PUSH1 0x40 MLOAD PUSH3 0x461BCD PUSH1 0xE5 SHL DUP2 MSTORE PUSH1 0x20 PUSH1 0x4 DUP3 ADD MSTORE PUSH1 0x10 PUSH1 0x24 DUP3 ADD MSTORE PUSH16 0x151A58DAD95D0818D85B98D95B1B1959 PUSH1 0x82 SHL PUSH1 0x44 DUP3 ADD MSTORE PUSH1 0x64 SWAP1 REVERT JUMPDEST ISZERO PUSH2 0xFD1 JUMPI JUMP JUMPDEST PUSH1 0x40 MLOAD PUSH3 0x461BCD PUSH1 0xE5 SHL DUP2 MSTORE PUSH1 0x20 PUSH1 0x4 DUP3 ADD MSTORE PUSH1 0xD PUSH1 0x24 DUP3 ADD MSTORE PUSH13 0x2737BA103A3432903830BCB2B9 PUSH1 0x99 SHL PUSH1 0x44 DUP3 ADD MSTORE PUSH1 0x64 SWAP1 REVERT INVALID LOG2 PUSH5 0x6970667358 0x22 SLT KECCAK256 SMOD EXTCODESIZE 0xE5 0xB6 PUSH15 0x3770063B50597F28AF4FF97544933C 0x29 0xE POP TIMESTAMP AND 0xE1 SWAP5 0x1E SWAP1 0xC PUSH16 0x9664736F6C6343000814003300000000 "},"methodIdentifiers":{"CANCELLATION_FEE_PERCENT()":"06633e12","REFUND_WINDOW()":"1153b5f3","cancelEvent(uint256)":"3f69babd","cancelTicket(uint256,uint256)":"ea266fcf","depositPayment(uint256,uint256)":"9bdc727c","enableWaitlistRefund(uint256,uint256)":"2f62582c","getPaymentAmount(uint256,uint256)":"66e008f8","getPaymentDetails(uint256,uint256)":"925a9101","getPaymentStatus(uint256,uint256)":"78c5e06d","isEventCancelled(uint256)":"110f2697","owner()":"8da5cb5b","pause()":"8456cb59","paused()":"5c975abb","processEventCancellationRefund(uint256,uint256)":"830ce587","refundPayment(uint256,uint256)":"95144dc4","releasePayment(uint256,uint256)":"97e99a80","renounceOwnership()":"715018a6","transferOwnership(address)":"f2fde38b","unpause()":"3f4ba83a","withdrawStuckFunds()":"c5b60a48"}}}}}