{"contracts/core/TicketFactory.sol":{"TicketFactory":{"abi":[{"inputs":[{"internalType":"address","name":"waitlistManagerAddress","type":"address"}],"stateMutability":"nonpayable","type":"constructor"},{"inputs":[{"internalType":"address","name":"sender","type":"address"},{"internalType":"uint256","name":"tokenId","type":"uint256"},{"internalType":"address","name":"owner","type":"address"}],"name":"ERC721IncorrectOwner","type":"error"},{"inputs":[{"internalType":"address","name":"operator","type":"address"},{"internalType":"uint256","name":"tokenId","type":"uint256"}],"name":"ERC721InsufficientApproval","type":"error"},{"inputs":[{"internalType":"address","name":"approver","type":"address"}],"name":"ERC721InvalidApprover","type":"error"},{"inputs":[{"internalType":"address","name":"operator","type":"address"}],"name":"ERC721InvalidOperator","type":"error"},{"inputs":[{"internalType":"address","name":"owner","type":"address"}],"name":"ERC721InvalidOwner","type":"error"},{"inputs":[{"internalType":"address","name":"receiver","type":"address"}],"name":"ERC721InvalidReceiver","type":"error"},{"inputs":[{"internalType":"address","name":"sender","type":"address"}],"name":"ERC721InvalidSender","type":"error"},{"inputs":[{"internalType":"uint256","name":"tokenId","type":"uint256"}],"name":"ERC721NonexistentToken","type":"error"},{"inputs":[{"internalType":"address","name":"owner","type":"address"}],"name":"OwnableInvalidOwner","type":"error"},{"inputs":[{"internalType":"address","name":"account","type":"address"}],"name":"OwnableUnauthorizedAccount","type":"error"},{"inputs":[],"name":"ReentrancyGuardReentrantCall","type":"error"},{"anonymous":false,"inputs":[{"indexed":true,"internalType":"address","name":"owner","type":"address"},{"indexed":true,"internalType":"address","name":"approved","type":"address"},{"indexed":true,"internalType":"uint256","name":"tokenId","type":"uint256"}],"name":"Approval","type":"event"},{"anonymous":false,"inputs":[{"indexed":true,"internalType":"address","name":"owner","type":"address"},{"indexed":true,"internalType":"address","name":"operator","type":"address"},{"indexed":false,"internalType":"bool","name":"approved","type":"bool"}],"name":"ApprovalForAll","type":"event"},{"anonymous":false,"inputs":[{"indexed":true,"internalType":"uint256","name":"eventId","type":"uint256"},{"indexed":false,"internalType":"uint256","name":"maxSupply","type":"uint256"},{"indexed":false,"internalType":"uint256","name":"price","type":"uint256"}],"name":"EventCreated","type":"event"},{"anonymous":false,"inputs":[{"indexed":true,"internalType":"address","name":"previousOwner","type":"address"},{"indexed":true,"internalType":"address","name":"newOwner","type":"address"}],"name":"OwnershipTransferred","type":"event"},{"anonymous":false,"inputs":[{"indexed":true,"internalType":"uint256","name":"tokenId","type":"uint256"},{"indexed":false,"internalType":"uint256","name":"price","type":"uint256"}],"name":"TicketListedForResale","type":"event"},{"anonymous":false,"inputs":[{"indexed":true,"internalType":"uint256","name":"tokenId","type":"uint256"},{"indexed":true,"internalType":"uint256","name":"eventId","type":"uint256"},{"indexed":false,"internalType":"uint256","name":"price","type":"uint256"}],"name":"TicketMinted","type":"event"},{"anonymous":false,"inputs":[{"indexed":true,"internalType":"uint256","name":"tokenId","type":"uint256"},{"indexed":true,"internalType":"address","name":"buyer","type":"address"},{"indexed":false,"internalType":"uint256","name":"price","type":"uint256"}],"name":"TicketPurchased","type":"event"},{"anonymous":false,"inputs":[{"indexed":true,"internalType":"uint256","name":"tokenId","type":"uint256"},{"indexed":true,"internalType":"address","name":"buyer","type":"address"},{"indexed":false,"internalType":"uint256","name":"price","type":"uint256"}],"name":"TicketResold","type":"event"},{"anonymous":false,"inputs":[{"indexed":true,"internalType":"uint256","name":"tokenId","type":"uint256"}],"name":"TicketUsed","type":"event"},{"anonymous":false,"inputs":[{"indexed":true,"internalType":"address","name":"from","type":"address"},{"indexed":true,"internalType":"address","name":"to","type":"address"},{"indexed":true,"internalType":"uint256","name":"tokenId","type":"uint256"}],"name":"Transfer","type":"event"},{"anonymous":false,"inputs":[{"indexed":true,"internalType":"uint256","name":"tokenId","type":"uint256"},{"indexed":true,"internalType":"uint256","name":"eventId","type":"uint256"},{"indexed":true,"internalType":"address","name":"user","type":"address"}],"name":"WaitlistTicketIssued","type":"event"},{"inputs":[],"name":"MAX_RESALE_MARKUP","outputs":[{"internalType":"uint256","name":"","type":"uint256"}],"stateMutability":"view","type":"function"},{"inputs":[],"name":"PLATFORM_FEE_PERCENTAGE","outputs":[{"internalType":"uint256","name":"","type":"uint256"}],"stateMutability":"view","type":"function"},{"inputs":[{"internalType":"address","name":"to","type":"address"},{"internalType":"uint256","name":"tokenId","type":"uint256"}],"name":"approve","outputs":[],"stateMutability":"nonpayable","type":"function"},{"inputs":[{"internalType":"address","name":"owner","type":"address"}],"name":"balanceOf","outputs":[{"internalType":"uint256","name":"","type":"uint256"}],"stateMutability":"view","type":"function"},{"inputs":[{"internalType":"uint256","name":"eventId","type":"uint256"},{"internalType":"uint256","name":"maxSupply","type":"uint256"},{"internalType":"uint256","name":"price","type":"uint256"}],"name":"createEvent","outputs":[],"stateMutability":"nonpayable","type":"function"},{"inputs":[{"internalType":"uint256","name":"","type":"uint256"}],"name":"events","outputs":[{"internalType":"uint256","name":"maxSupply","type":"uint256"},{"internalType":"uint256","name":"currentSupply","type":"uint256"},{"internalType":"uint256","name":"price","type":"uint256"},{"internalType":"bool","name":"isActive","type":"bool"}],"stateMutability":"view","type":"function"},{"inputs":[{"internalType":"uint256","name":"tokenId","type":"uint256"}],"name":"getApproved","outputs":[{"internalType":"address","name":"","type":"address"}],"stateMutability":"view","type":"function"},{"inputs":[{"internalType":"uint256","name":"tokenId","type":"uint256"}],"name":"getTicketDetails","outputs":[{"internalType":"uint256","name":"eventId","type":"uint256"},{"internalType":"uint256","name":"price","type":"uint256"},{"internalType":"bool","name":"used","type":"bool"},{"internalType":"uint256","name":"seatNumber","type":"uint256"},{"internalType":"bool","name":"isWaitlisted","type":"bool"},{"internalType":"bool","name":"isResale","type":"bool"},{"internalType":"uint256","name":"resalePrice","type":"uint256"}],"stateMutability":"view","type":"function"},{"inputs":[{"internalType":"uint256","name":"eventId","type":"uint256"}],"name":"getWaitlistCount","outputs":[{"internalType":"uint256","name":"","type":"uint256"}],"stateMutability":"view","type":"function"},{"inputs":[{"internalType":"address","name":"owner","type":"address"},{"internalType":"address","name":"operator","type":"address"}],"name":"isApprovedForAll","outputs":[{"internalType":"bool","name":"","type":"bool"}],"stateMutability":"view","type":"function"},{"inputs":[{"internalType":"address","name":"to","type":"address"},{"internalType":"uint256","name":"eventId","type":"uint256"},{"internalType":"uint256","name":"seatNumber","type":"uint256"}],"name":"issueTicket","outputs":[{"internalType":"uint256","name":"","type":"uint256"}],"stateMutability":"nonpayable","type":"function"},{"inputs":[{"internalType":"uint256","name":"tokenId","type":"uint256"},{"internalType":"uint256","name":"resalePrice","type":"uint256"}],"name":"listForResale","outputs":[],"stateMutability":"nonpayable","type":"function"},{"inputs":[],"name":"name","outputs":[{"internalType":"string","name":"","type":"string"}],"stateMutability":"view","type":"function"},{"inputs":[],"name":"owner","outputs":[{"internalType":"address","name":"","type":"address"}],"stateMutability":"view","type":"function"},{"inputs":[{"internalType":"uint256","name":"tokenId","type":"uint256"}],"name":"ownerOf","outputs":[{"internalType":"address","name":"","type":"address"}],"stateMutability":"view","type":"function"},{"inputs":[{"internalType":"uint256","name":"tokenId","type":"uint256"}],"name":"purchaseResaleTicket","outputs":[],"stateMutability":"payable","type":"function"},{"inputs":[{"internalType":"uint256","name":"eventId","type":"uint256"},{"internalType":"uint256","name":"seatNumber","type":"uint256"}],"name":"purchaseTicket","outputs":[{"internalType":"uint256","name":"","type":"uint256"}],"stateMutability":"payable","type":"function"},{"inputs":[],"name":"renounceOwnership","outputs":[],"stateMutability":"nonpayable","type":"function"},{"inputs":[{"internalType":"address","name":"from","type":"address"},{"internalType":"address","name":"to","type":"address"},{"internalType":"uint256","name":"tokenId","type":"uint256"}],"name":"safeTransferFrom","outputs":[],"stateMutability":"nonpayable","type":"function"},{"inputs":[{"internalType":"address","name":"from","type":"address"},{"internalType":"address","name":"to","type":"address"},{"internalType":"uint256","name":"tokenId","type":"uint256"},{"internalType":"bytes","name":"data","type":"bytes"}],"name":"safeTransferFrom","outputs":[],"stateMutability":"nonpayable","type":"function"},{"inputs":[{"internalType":"address","name":"operator","type":"address"},{"internalType":"bool","name":"approved","type":"bool"}],"name":"setApprovalForAll","outputs":[],"stateMutability":"nonpayable","type":"function"},{"inputs":[{"internalType":"address","name":"newWaitlistManager","type":"address"}],"name":"setWaitlistManager","outputs":[],"stateMutability":"nonpayable","type":"function"},{"inputs":[{"internalType":"bytes4","name":"interfaceId","type":"bytes4"}],"name":"supportsInterface","outputs":[{"internalType":"bool","name":"","type":"bool"}],"stateMutability":"view","type":"function"},{"inputs":[],"name":"symbol","outputs":[{"internalType":"string","name":"","type":"string"}],"stateMutability":"view","type":"function"},{"inputs":[{"internalType":"uint256","name":"","type":"uint256"}],"name":"tickets","outputs":[{"internalType":"uint256","name":"eventId","type":"uint256"},{"internalType":"uint256","name":"price","type":"uint256"},{"internalType":"bool","name":"used","type":"bool"},{"internalType":"uint256","name":"seatNumber","type":"uint256"},{"internalType":"bool","name":"isWaitlisted","type":"bool"},{"internalType":"bool","name":"isResale","type":"bool"},{"internalType":"uint256","name":"resalePrice","type":"uint256"}],"stateMutability":"view","type":"function"},{"inputs":[{"internalType":"uint256","name":"tokenId","type":"uint256"}],"name":"tokenURI","outputs":[{"internalType":"string","name":"","type":"string"}],"stateMutability":"view","type":"function"},{"inputs":[{"internalType":"address","name":"from","type":"address"},{"internalType":"address","name":"to","type":"address"},{"internalType":"uint256","name":"tokenId","type":"uint256"}],"name":"transferFrom","outputs":[],"stateMutability":"nonpayable","type":"function"},{"inputs":[{"internalType":"address","name":"newOwner","type":"address"}],"name":"transferOwnership","outputs":[],"stateMutability":"nonpayable","type":"function"},{"inputs":[{"internalType":"uint256","name":"tokenId","type":"uint256"}],"name":"useTicket","outputs":[],"stateMutability":"nonpayable","type":"function"},{"inputs":[],"name":"waitlistManager","outputs":[{"internalType":"contract IWaitlistManager","name":"","type":"address"}],"stateMutability":"view","type":"function"}],"evm":{"bytecode":{"linkReferences":{},"object":"6080346200040857601f90601f19906001600160401b0390620021ed3881900385810185168301848111848210176200040d578392829160405283396020928391810103126200040857516001600160a01b03808216959093909186900362000408576200006c62000423565b90600c82526b115d995b9d08151a58dad95d60a21b848301526200008f62000423565b92600493848152631510d2d560e21b86820152835197838911620003f3576000988954956001968781811c91168015620003e8575b8a821014620003d55790818684931162000382575b50899086831160011462000321578c9262000315575b5050600019600383901b1c191690861b1789555b8151938411620003025784548581811c91168015620002f7575b88821014620002e45790818486959493116200028d575b50879284116001146200022c5750889262000220575b5050600019600383901b1c191690821b1781555b3315620002085760065460018060a01b03199533878316176006557f8be0079c531659141344cd1fd0a4f28419497f9722a3daafe3b4186f6b6457e0604051963393169180a36007558415620001c9575050506009541617600955604051611da99081620004448239f35b62461bcd60e51b8352820181905260248201527f496e76616c696420776169746c697374206d616e616765722061646472657373604482015260649150fd5b604051631e4fbdf760e01b8152808301869052602490fd5b0151905038806200014a565b858a52878a20869590939291168a5b898282106200027657505084116200025c575b505050811b0181556200015e565b015160001960f88460031b161c191690553880806200024e565b83850151865588979095019493840193016200023b565b9091929350858a52878a208480870160051c8201928a8810620002da575b9187968992969594930160051c01915b828110620002cb57505062000134565b8c8155879650889101620002bb565b92508192620002ab565b634e487b7160e01b8a526022875260248afd5b90607f16906200011d565b634e487b7160e01b895260418652602489fd5b015190503880620000ef565b908c91858a95168380528c8420935b8d8282106200036b575050841162000351575b505050811b01895562000103565b015160001960f88460031b161c1916905538808062000343565b8385015186558c9790950194938401930162000330565b9091508b8052898c208680850160051c8201928c8610620003cb575b918a91869594930160051c01915b828110620003bc575050620000d9565b8e81558594508a9101620003ac565b925081926200039e565b634e487b7160e01b8c526022895260248cfd5b90607f1690620000c4565b604186634e487b7160e01b6000525260246000fd5b600080fd5b634e487b7160e01b600052604160045260246000fd5b60408051919082016001600160401b038111838210176200040d5760405256fe60806040908082526004918236101561001757600080fd5b600091823560e01c90816301ffc9a7146115b45750806306fdde03146114e9578063081812fc146114ad5780630847112a14611492578063095ea7b3146113b55780630b79143014611366578063155482321461134b5780631f7d863c1461121557806323b872dd146111fd57806324c141601461113e578063266064481461104a5780633fc4a06014610e4957806342842e0e14610e2157806350b4471214610da85780635f0290e314610d235780636352211e14610cf257806370a0823114610c9d578063715018a614610c40578063753a35cb14610c1857806384a9504714610b7e5780638da5cb5b14610b5657806395d89b4114610a3d578063a22cb46514610991578063b88d4fde14610907578063bdbbb0cb146106c2578063c87b56dd14610671578063e250243a146103e5578063e985e9c514610398578063f2fde38b146103045763f6143d851461016f57600080fd5b3461030057606036600319011261030057823590602435604435610191611768565b8385526020600a815260ff60038588200154166102c75782156102945781156102625783516080810181811067ffffffffffffffff82111761024f577f06168e40fac2576e22d73ab2e9efa79b4e7530dd3dd411ab7d8862d04be798a2969798509061024391865284815260038382018a81528783018681526060840191600183528b8d52600a8752898d209451855551600185015551600284015551151591019060ff801983541691151516179055565b8351928352820152a280f35b634e487b7160e01b885260418952602488fd5b8660649185519162461bcd60e51b8352820152600d60248201526c496e76616c696420707269636560981b6044820152fd5b8660649185519162461bcd60e51b8352820152600e60248201526d496e76616c696420737570706c7960901b6044820152fd5b8660649185519162461bcd60e51b835282015260146024820152734576656e7420616c72656164792065786973747360601b6044820152fd5b5080fd5b5082346103945760203660031901126103945761031f611660565b90610328611768565b6001600160a01b0391821692831561037e575050600654826bffffffffffffffffffffffff60a01b821617600655167f8be0079c531659141344cd1fd0a4f28419497f9722a3daafe3b4186f6b6457e08380a380f35b51631e4fbdf760e01b8152908101849052602490fd5b8280fd5b503461030057806003193601126103005760ff816020936103b7611660565b6103bf61167b565b6001600160a01b0391821683526005875283832091168252855220549151911615158152f35b5034610300576060366003190112610300576103ff611660565b926024359061040c611768565b818452602094600a86528385209461042a60ff600388015416611b87565b600186019261043c8454885411611bc6565b84600261044a600854611c03565b98896008556104598a87611c40565b019485549060018060a01b0380928c82600954169860648d5180958193633964fdaf60e01b9a8b84528c8401528c6024840152169b8c60448301525afa91821561066757928b60058f97948f90610561908f8b8e829e9c9960649c8295610642575b5090610528918951998a956104cf876116dc565b865284860191825280860192808452600b60608801966044358852608089019915158a5260c060a08a0199848b52019b838d528352522099518a555160018a0155511515600289019060ff801983541691151516179055565b51600387015561054a8b870192511515839060ff801983541691151516179055565b51815461ff00191690151560081b61ff0016179055565b5191015561056f8154611c03565b9055600954168a51958694859384528301528660248301528760448301525afa90811561063857928588848197947f98e3b865be443d525120139ac6a4ad7bf406891236bb145ad9ec6ba80333a5b5978d979161060b575b506105de575b50505050548551908152a351908152f35b807fbd1c7de52de5d7a65a85c1849ae6e2e0fe5569288a9fc6e56a0c4fa17e3faace91a4388585826105cd565b61062b9150873d8911610631575b610623818361172a565b810190611c28565b386105c7565b503d610619565b86513d84823e3d90fd5b6105289291955061065f90843d861161063157610623818361172a565b9490916104bb565b8b513d89823e3d90fd5b5034610300576020366003190112610300576106906106be9335611b1c565b5081815161069d8161170e565b528051916106aa8361170e565b825251918291602083526020830190611620565b0390f35b5082906106ce36611691565b936106d7611d16565b818152602094600a86528382206106f460ff600383015416611b87565b600260018201916107088354825411611bc6565b0191825461071881341015611c7a565b6005810290808204600514811517156108f4579061075d868080806064610740829834611cbd565b960460018060a01b03600654165af1610757611b57565b50611cca565b8061089c575b50508760085461077290611c03565b60088190559788956107848733611c40565b855491895194610793866116dc565b8986528486019384528a86018381526060870191825260808701948486528c60a089019580875260c08a0198818a528d8252600b9052209751885551600188015551151560028701906107f1919060ff801983541691151516179055565b51600386015584019151151561081390839060ff801983541691151516179055565b51815461ff00191690151560081b61ff0016179055519060050155805461083990611c03565b9055548582855183815233927fdbaaf4c87ce30816c961a81d110622a3227ede77953d4383d514ff88ab2e0fd391a38584519182527f98e3b865be443d525120139ac6a4ad7bf406891236bb145ad9ec6ba80333a5b591a3600160075551908152f35b81808092335af16108ab611b57565b50156108b8578389610763565b855162461bcd60e51b815280880189905260166024820152751499599d5b99081d1c985b9cd9995c8819985a5b195960521b6044820152606490fd5b634e487b7160e01b865260118952602486fd5b5082903461039457608036600319011261039457610923611660565b61092b61167b565b846064359467ffffffffffffffff86116103005736602387011215610300578501359461096361095a8761174c565b9551958661172a565b8585523660248783010111610300578561098e9660246020930183880137850101526044359161193d565b80f35b508290346103945780600319360112610394576109ac611660565b9060243580151592838203610a39576001600160a01b0316938415610a2257506109f59033865260056020528286208587526020528286209060ff801983541691151516179055565b519081527f17307eab39ab6107e8899845ad3d59bd9653f200f220920489ca2b5937696c3160203392a380f35b8251630b61174360e31b8152908101859052602490fd5b8580fd5b509034610b535780600319360112610b53578151918160019283549384811c91818616958615610b49575b6020968785108114610b36578899509688969785829a529182600014610b0f575050600114610ab4575b5050506106be9291610aa591038561172a565b51928284938452830190611620565b91908693508083527fb10e2d527612073b26eecdfd717e6a320cf44b4afac2b0732d9fcbe2b7fa0cf65b828410610af75750505082010181610aa56106be610a92565b8054848a018601528895508794909301928101610ade565b60ff19168782015293151560051b86019093019350849250610aa591506106be9050610a92565b634e487b7160e01b835260228a52602483fd5b92607f1692610a68565b80fd5b503461030057816003193601126103005760065490516001600160a01b039091168152602090f35b50346103005760209283600319360112610394576009548251631a15991160e11b8152823592810192909252602482018490528490829060449082906001600160a01b03165afa928315610c0d578093610bdb575b505051908152f35b909192508382813d8311610c06575b610bf4818361172a565b81010312610b53575051903880610bd3565b503d610bea565b8251903d90823e3d90fd5b503461030057816003193601126103005760095490516001600160a01b039091168152602090f35b8234610b535780600319360112610b5357610c59611768565b600680546001600160a01b0319811690915581906001600160a01b03167f8be0079c531659141344cd1fd0a4f28419497f9722a3daafe3b4186f6b6457e08280a380f35b509034610b53576020366003190112610b53576001600160a01b03610cc0611660565b16928315610cdd5750806020938392526003845220549051908152f35b91516322718ad960e21b815291820152602490fd5b509034610b53576020366003190112610b535750610d1260209235611b1c565b90516001600160a01b039091168152f35b50823461039457602036600319011261039457610d3e611660565b610d46611768565b6001600160a01b0316918215610d735750506bffffffffffffffffffffffff60a01b600954161760095580f35b906020606492519162461bcd60e51b8352820152600f60248201526e496e76616c6964206164647265737360881b6044820152fd5b509034610b53576020366003190112610b535782358152600b60209081529082902080546001820154600283015460038401549684015460059094015495519283529382015260ff9283161515604082015260608101949094528181161515608085015260081c16151560a083015260c082015260e090f35b50346103005761098e90610e34366116a7565b91925192610e418461170e565b85845261193d565b508290602036600319011261039457813590610e63611d16565b818452600b6020528084208381019060ff825460081c16156110165780610e9360ff600260059401541615611d39565b0190610ea28254341015611c7a565b610eab84611b1c565b60053402348104600514341517156110035760649004610ecb8134611cbd565b610ee98980808060018060a01b039687600654165af1610757611b57565b8880808085871694855af1610efc611b57565b5015610fc7573315610fb057610f128733611a60565b91821680610f31578651637e27328960e01b8152808a01899052602490fd5b97929394959703610f7c5750505061ff001981541690555491519182527fc40e38d52641f445f65e6b37a0df098ef6a34a66ff5d6c176b0f1209f6a0792c60203393a3600160075580f35b86516364283d7b60e01b81526001600160a01b03938416928101928352602083018790529216604082015281906060010390fd5b8551633250574960e11b81528089018a9052602490fd5b855162461bcd60e51b81526020818a0152601660248201527514d95b1b195c881d1c985b9cd9995c8819985a5b195960521b6044820152606490fd5b634e487b7160e01b885260118752602488fd5b825162461bcd60e51b8152602081870152600e60248201526d4e6f7420666f7220726573616c6560901b6044820152606490fd5b508290346103945760203660031901126103945781359161106a83611b1c565b336001600160a01b039091160361110957828452600b60205260ff60028386200154166110d15750818352600b6020528220600201805460ff191660011790557f1f5d53e38fbc5a40092861e993062e74fb6dc7acef58356c7b55aa1afd8b35018280a280f35b6020606492519162461bcd60e51b83528201526013602482015272151a58dad95d08185b1c9958591e481d5cd959606a1b6044820152fd5b6020606492519162461bcd60e51b8352820152601060248201526f2737ba103a34b1b5b2ba1037bbb732b960811b6044820152fd5b50919034610b53576020366003190112610b535760c0836106be9284358152600b60205220845161116e816116dc565b81549485825260018301549687602084015260ff600285015416151590818185015260038501549283606086015285015493600560ff80871615159687608085015260081c161515968760a084015201549687910152519788978893909796959260c0959260e08601998652602086015215156040850152606084015215156080830152151560a08201520152565b8234610b535761098e61120f366116a7565b91611794565b508290346103945761122636611691565b91909261123284611b1c565b336001600160a01b039091160361131d57838552600b60205261125e60ff600284882001541615611d39565b838552600b60205260018286200154606e810290808204606e149015171561130a576064900483116112d757916020918160057f2d8cbebfd87cb19b7bed949f9c8d5a80d939133966ef331ac575d69160ea046595878952600b865283892090810161010061ff0019825416179055015551908152a280f35b6020606492519162461bcd60e51b8352820152600e60248201526d0a0e4d2c6ca40e8dede40d0d2ced60931b6044820152fd5b634e487b7160e01b865260118252602486fd5b6020606492519162461bcd60e51b835282015260096024820152682737ba1037bbb732b960b91b6044820152fd5b50346103005781600319360112610300576020905160058152f35b508234610394576020366003190112610394576080928291358152600a602052209081549160018101549160ff6003600284015493015416928151948552602085015283015215156060820152f35b508290346103945780600319360112610394576113d0611660565b916024356113dd81611b1c565b3315158061147f575b80611456575b611440576001600160a01b039485169482918691167f8c5be1e5ebec7d5bd14f71427d1e84f3dd0314c0f7b2291e5b200ac8c7c3b9258880a48452602052822080546001600160a01b031916909117905580f35b835163a9fbf51f60e01b81523381850152602490fd5b506001600160a01b03811686526005602090815284872033885290528386205460ff16156113ec565b506001600160a01b0381163314156113e6565b503461030057816003193601126103005760209051606e8152f35b508234610394576020366003190112610394579182602093356114cf81611b1c565b50825283528190205490516001600160a01b039091168152f35b509034610b535780600319360112610b535781519181825492600184811c918186169586156115aa575b6020968785108114610b36578899509688969785829a529182600014610b0f57505060011461154f575050506106be9291610aa591038561172a565b91908693508280527f290decd9548b62a8d60345a988386fc84ba6bc95484008f6362f93160ef3e5635b8284106115925750505082010181610aa56106be610a92565b8054848a018601528895508794909301928101611579565b92607f1692611513565b83908534610394576020366003190112610394573563ffffffff60e01b811680910361039457602092506380ac58cd60e01b811490811561160f575b81156115fe575b5015158152f35b6301ffc9a760e01b149050836115f7565b635b5e139f60e01b811491506115f0565b919082519283825260005b84811061164c575050826000602080949584010152601f8019910116010190565b60208183018101518483018201520161162b565b600435906001600160a01b038216820361167657565b600080fd5b602435906001600160a01b038216820361167657565b6040906003190112611676576004359060243590565b6060906003190112611676576001600160a01b0390600435828116810361167657916024359081168103611676579060443590565b60e0810190811067ffffffffffffffff8211176116f857604052565b634e487b7160e01b600052604160045260246000fd5b6020810190811067ffffffffffffffff8211176116f857604052565b90601f8019910116810190811067ffffffffffffffff8211176116f857604052565b67ffffffffffffffff81116116f857601f01601f191660200190565b6006546001600160a01b0316330361177c57565b60405163118cdaa760e01b8152336004820152602490fd5b906001600160a01b0390811680156119245760009184835284602092600284526040938385872054169586913315158061188e575b509060027fddf252ad1be2c89b69c2b068fc378daa952ba7f163c4a11628f55a4df523b3ef928461185b575b85835260038152888320805460010190558683525286812080546001600160a01b0319168517905580a48316820361182d5750505050565b516364283d7b60e01b81526001600160a01b0392831660048201526024810193909352166044820152606490fd5b600087815260046020526040902080546001600160a01b03191690558483526003815288832080546000190190556117f5565b919394509150806118e3575b156118aa578792918691386117c9565b8488876118c7576024915190637e27328960e01b82526004820152fd5b604491519063177e802f60e01b82523360048301526024820152fd5b503386148015611908575b8061189a575087825260048152338486842054161461189a565b5085825260058152848220338352815260ff85832054166118ee565b604051633250574960e11b815260006004820152602490fd5b919061194a828285611794565b803b611957575b50505050565b61199960018060a01b0380921694604051938493630a85bd0160e11b968786523360048701521660248501526044840152608060648401526084830190611620565b03906020816000938185885af190829082611a18575b50506119e757826119be611b57565b80519190826119e057604051633250574960e11b815260048101839052602490fd5b9050602001fd5b6001600160e01b03191603611a00575038808080611951565b60249060405190633250574960e11b82526004820152fd5b909192506020813d8211611a58575b81611a346020938361172a565b810103126103005751906001600160e01b031982168203610b5357509038806119af565b3d9150611a27565b6000828152600260205260408120546001600160a01b03908116939284917fddf252ad1be2c89b69c2b068fc378daa952ba7f163c4a11628f55a4df523b3ef9183611ae7575b169283611acf575b84815260026020526040812080546001600160a01b0319168517905580a490565b83815260036020526040812060018154019055611aae565b600086815260046020526040902080546001600160a01b03191690558385526003602052604085208054600019019055611aa6565b6000818152600260205260409020546001600160a01b0316908115611b3f575090565b60249060405190637e27328960e01b82526004820152fd5b3d15611b82573d90611b688261174c565b91611b76604051938461172a565b82523d6000602084013e565b606090565b15611b8e57565b60405162461bcd60e51b815260206004820152601060248201526f4576656e74206e6f742061637469766560801b6044820152606490fd5b15611bcd57565b60405162461bcd60e51b815260206004820152600e60248201526d115d995b9d081cdbdb19081bdd5d60921b6044820152606490fd5b6000198114611c125760010190565b634e487b7160e01b600052601160045260246000fd5b90816020910312611676575180151581036116765790565b6001600160a01b03918183161561192457611c5a91611a60565b16611c6157565b6040516339e3563760e11b815260006004820152602490fd5b15611c8157565b60405162461bcd60e51b8152602060048201526014602482015273125b9cdd59999a58da595b9d081c185e5b595b9d60621b6044820152606490fd5b91908203918211611c1257565b15611cd157565b60405162461bcd60e51b815260206004820152601c60248201527f506c6174666f726d20666565207472616e73666572206661696c6564000000006044820152606490fd5b600260075414611d27576002600755565b604051633ee5aeb560e01b8152600490fd5b15611d4057565b60405162461bcd60e51b815260206004820152600b60248201526a151a58dad95d081d5cd95960aa1b6044820152606490fdfea2646970667358221220a791b73c5b3adb8e90af9078c7f97d61da567d6fedee2aefe8f8fd557a06ed9064736f6c63430008140033","opcodes":"PUSH1 0x80 CALLVALUE PUSH3 0x408 JUMPI PUSH1 0x1F SWAP1 PUSH1 0x1F NOT SWAP1 PUSH1 0x1 PUSH1 0x1 PUSH1 0x40 SHL SUB SWAP1 PUSH3 0x21ED CODESIZE DUP2 SWAP1 SUB DUP6 DUP2 ADD DUP6 AND DUP4 ADD DUP5 DUP2 GT DUP5 DUP3 LT OR PUSH3 0x40D JUMPI DUP4 SWAP3 DUP3 SWAP2 PUSH1 0x40 MSTORE DUP4 CODECOPY PUSH1 0x20 SWAP3 DUP4 SWAP2 DUP2 ADD SUB SLT PUSH3 0x408 JUMPI MLOAD PUSH1 0x1 PUSH1 0x1 PUSH1 0xA0 SHL SUB DUP1 DUP3 AND SWAP6 SWAP1 SWAP4 SWAP1 SWAP2 DUP7 SWAP1 SUB PUSH3 0x408 JUMPI PUSH3 0x6C PUSH3 0x423 JUMP JUMPDEST SWAP1 PUSH1 0xC DUP3 MSTORE PUSH12 0x115D995B9D08151A58DAD95D PUSH1 0xA2 SHL DUP5 DUP4 ADD MSTORE PUSH3 0x8F PUSH3 0x423 JUMP JUMPDEST SWAP3 PUSH1 0x4 SWAP4 DUP5 DUP2 MSTORE PUSH4 0x1510D2D5 PUSH1 0xE2 SHL DUP7 DUP3 ADD MSTORE DUP4 MLOAD SWAP8 DUP4 DUP10 GT PUSH3 0x3F3 JUMPI PUSH1 0x0 SWAP9 DUP10 SLOAD SWAP6 PUSH1 0x1 SWAP7 DUP8 DUP2 DUP2 SHR SWAP2 AND DUP1 ISZERO PUSH3 0x3E8 JUMPI JUMPDEST DUP11 DUP3 LT EQ PUSH3 0x3D5 JUMPI SWAP1 DUP2 DUP7 DUP5 SWAP4 GT PUSH3 0x382 JUMPI JUMPDEST POP DUP10 SWAP1 DUP7 DUP4 GT PUSH1 0x1 EQ PUSH3 0x321 JUMPI DUP13 SWAP3 PUSH3 0x315 JUMPI JUMPDEST POP POP PUSH1 0x0 NOT PUSH1 0x3 DUP4 SWAP1 SHL SHR NOT AND SWAP1 DUP7 SHL OR DUP10 SSTORE JUMPDEST DUP2 MLOAD SWAP4 DUP5 GT PUSH3 0x302 JUMPI DUP5 SLOAD DUP6 DUP2 DUP2 SHR SWAP2 AND DUP1 ISZERO PUSH3 0x2F7 JUMPI JUMPDEST DUP9 DUP3 LT EQ PUSH3 0x2E4 JUMPI SWAP1 DUP2 DUP5 DUP7 SWAP6 SWAP5 SWAP4 GT PUSH3 0x28D JUMPI JUMPDEST POP DUP8 SWAP3 DUP5 GT PUSH1 0x1 EQ PUSH3 0x22C JUMPI POP DUP9 SWAP3 PUSH3 0x220 JUMPI JUMPDEST POP POP PUSH1 0x0 NOT PUSH1 0x3 DUP4 SWAP1 SHL SHR NOT AND SWAP1 DUP3 SHL OR DUP2 SSTORE JUMPDEST CALLER ISZERO PUSH3 0x208 JUMPI PUSH1 0x6 SLOAD PUSH1 0x1 DUP1 PUSH1 0xA0 SHL SUB NOT SWAP6 CALLER DUP8 DUP4 AND OR PUSH1 0x6 SSTORE PUSH32 0x8BE0079C531659141344CD1FD0A4F28419497F9722A3DAAFE3B4186F6B6457E0 PUSH1 0x40 MLOAD SWAP7 CALLER SWAP4 AND SWAP2 DUP1 LOG3 PUSH1 0x7 SSTORE DUP5 ISZERO PUSH3 0x1C9 JUMPI POP POP POP PUSH1 0x9 SLOAD AND OR PUSH1 0x9 SSTORE PUSH1 0x40 MLOAD PUSH2 0x1DA9 SWAP1 DUP2 PUSH3 0x444 DUP3 CODECOPY RETURN JUMPDEST PUSH3 0x461BCD PUSH1 0xE5 SHL DUP4 MSTORE DUP3 ADD DUP2 SWAP1 MSTORE PUSH1 0x24 DUP3 ADD MSTORE PUSH32 0x496E76616C696420776169746C697374206D616E616765722061646472657373 PUSH1 0x44 DUP3 ADD MSTORE PUSH1 0x64 SWAP2 POP REVERT JUMPDEST PUSH1 0x40 MLOAD PUSH4 0x1E4FBDF7 PUSH1 0xE0 SHL DUP2 MSTORE DUP1 DUP4 ADD DUP7 SWAP1 MSTORE PUSH1 0x24 SWAP1 REVERT JUMPDEST ADD MLOAD SWAP1 POP CODESIZE DUP1 PUSH3 0x14A JUMP JUMPDEST DUP6 DUP11 MSTORE DUP8 DUP11 KECCAK256 DUP7 SWAP6 SWAP1 SWAP4 SWAP3 SWAP2 AND DUP11 JUMPDEST DUP10 DUP3 DUP3 LT PUSH3 0x276 JUMPI POP POP DUP5 GT PUSH3 0x25C JUMPI JUMPDEST POP POP POP DUP2 SHL ADD DUP2 SSTORE PUSH3 0x15E JUMP JUMPDEST ADD MLOAD PUSH1 0x0 NOT PUSH1 0xF8 DUP5 PUSH1 0x3 SHL AND SHR NOT AND SWAP1 SSTORE CODESIZE DUP1 DUP1 PUSH3 0x24E JUMP JUMPDEST DUP4 DUP6 ADD MLOAD DUP7 SSTORE DUP9 SWAP8 SWAP1 SWAP6 ADD SWAP5 SWAP4 DUP5 ADD SWAP4 ADD PUSH3 0x23B JUMP JUMPDEST SWAP1 SWAP2 SWAP3 SWAP4 POP DUP6 DUP11 MSTORE DUP8 DUP11 KECCAK256 DUP5 DUP1 DUP8 ADD PUSH1 0x5 SHR DUP3 ADD SWAP3 DUP11 DUP9 LT PUSH3 0x2DA JUMPI JUMPDEST SWAP2 DUP8 SWAP7 DUP10 SWAP3 SWAP7 SWAP6 SWAP5 SWAP4 ADD PUSH1 0x5 SHR ADD SWAP2 JUMPDEST DUP3 DUP2 LT PUSH3 0x2CB JUMPI POP POP PUSH3 0x134 JUMP JUMPDEST DUP13 DUP2 SSTORE DUP8 SWAP7 POP DUP9 SWAP2 ADD PUSH3 0x2BB JUMP JUMPDEST SWAP3 POP DUP2 SWAP3 PUSH3 0x2AB JUMP JUMPDEST PUSH4 0x4E487B71 PUSH1 0xE0 SHL DUP11 MSTORE PUSH1 0x22 DUP8 MSTORE PUSH1 0x24 DUP11 REVERT JUMPDEST SWAP1 PUSH1 0x7F AND SWAP1 PUSH3 0x11D JUMP JUMPDEST PUSH4 0x4E487B71 PUSH1 0xE0 SHL DUP10 MSTORE PUSH1 0x41 DUP7 MSTORE PUSH1 0x24 DUP10 REVERT JUMPDEST ADD MLOAD SWAP1 POP CODESIZE DUP1 PUSH3 0xEF JUMP JUMPDEST SWAP1 DUP13 SWAP2 DUP6 DUP11 SWAP6 AND DUP4 DUP1 MSTORE DUP13 DUP5 KECCAK256 SWAP4 JUMPDEST DUP14 DUP3 DUP3 LT PUSH3 0x36B JUMPI POP POP DUP5 GT PUSH3 0x351 JUMPI JUMPDEST POP POP POP DUP2 SHL ADD DUP10 SSTORE PUSH3 0x103 JUMP JUMPDEST ADD MLOAD PUSH1 0x0 NOT PUSH1 0xF8 DUP5 PUSH1 0x3 SHL AND SHR NOT AND SWAP1 SSTORE CODESIZE DUP1 DUP1 PUSH3 0x343 JUMP JUMPDEST DUP4 DUP6 ADD MLOAD DUP7 SSTORE DUP13 SWAP8 SWAP1 SWAP6 ADD SWAP5 SWAP4 DUP5 ADD SWAP4 ADD PUSH3 0x330 JUMP JUMPDEST SWAP1 SWAP2 POP DUP12 DUP1 MSTORE DUP10 DUP13 KECCAK256 DUP7 DUP1 DUP6 ADD PUSH1 0x5 SHR DUP3 ADD SWAP3 DUP13 DUP7 LT PUSH3 0x3CB JUMPI JUMPDEST SWAP2 DUP11 SWAP2 DUP7 SWAP6 SWAP5 SWAP4 ADD PUSH1 0x5 SHR ADD SWAP2 JUMPDEST DUP3 DUP2 LT PUSH3 0x3BC JUMPI POP POP PUSH3 0xD9 JUMP JUMPDEST DUP15 DUP2 SSTORE DUP6 SWAP5 POP DUP11 SWAP2 ADD PUSH3 0x3AC JUMP JUMPDEST SWAP3 POP DUP2 SWAP3 PUSH3 0x39E JUMP JUMPDEST PUSH4 0x4E487B71 PUSH1 0xE0 SHL DUP13 MSTORE PUSH1 0x22 DUP10 MSTORE PUSH1 0x24 DUP13 REVERT JUMPDEST SWAP1 PUSH1 0x7F AND SWAP1 PUSH3 0xC4 JUMP JUMPDEST PUSH1 0x41 DUP7 PUSH4 0x4E487B71 PUSH1 0xE0 SHL PUSH1 0x0 MSTORE MSTORE PUSH1 0x24 PUSH1 0x0 REVERT JUMPDEST PUSH1 0x0 DUP1 REVERT JUMPDEST PUSH4 0x4E487B71 PUSH1 0xE0 SHL PUSH1 0x0 MSTORE PUSH1 0x41 PUSH1 0x4 MSTORE PUSH1 0x24 PUSH1 0x0 REVERT JUMPDEST PUSH1 0x40 DUP1 MLOAD SWAP2 SWAP1 DUP3 ADD PUSH1 0x1 PUSH1 0x1 PUSH1 0x40 SHL SUB DUP2 GT DUP4 DUP3 LT OR PUSH3 0x40D JUMPI PUSH1 0x40 MSTORE JUMP INVALID PUSH1 0x80 PUSH1 0x40 SWAP1 DUP1 DUP3 MSTORE PUSH1 0x4 SWAP2 DUP3 CALLDATASIZE LT ISZERO PUSH2 0x17 JUMPI PUSH1 0x0 DUP1 REVERT JUMPDEST PUSH1 0x0 SWAP2 DUP3 CALLDATALOAD PUSH1 0xE0 SHR SWAP1 DUP2 PUSH4 0x1FFC9A7 EQ PUSH2 0x15B4 JUMPI POP DUP1 PUSH4 0x6FDDE03 EQ PUSH2 0x14E9 JUMPI DUP1 PUSH4 0x81812FC EQ PUSH2 0x14AD JUMPI DUP1 PUSH4 0x847112A EQ PUSH2 0x1492 JUMPI DUP1 PUSH4 0x95EA7B3 EQ PUSH2 0x13B5 JUMPI DUP1 PUSH4 0xB791430 EQ PUSH2 0x1366 JUMPI DUP1 PUSH4 0x15548232 EQ PUSH2 0x134B JUMPI DUP1 PUSH4 0x1F7D863C EQ PUSH2 0x1215 JUMPI DUP1 PUSH4 0x23B872DD EQ PUSH2 0x11FD JUMPI DUP1 PUSH4 0x24C14160 EQ PUSH2 0x113E JUMPI DUP1 PUSH4 0x26606448 EQ PUSH2 0x104A JUMPI DUP1 PUSH4 0x3FC4A060 EQ PUSH2 0xE49 JUMPI DUP1 PUSH4 0x42842E0E EQ PUSH2 0xE21 JUMPI DUP1 PUSH4 0x50B44712 EQ PUSH2 0xDA8 JUMPI DUP1 PUSH4 0x5F0290E3 EQ PUSH2 0xD23 JUMPI DUP1 PUSH4 0x6352211E EQ PUSH2 0xCF2 JUMPI DUP1 PUSH4 0x70A08231 EQ PUSH2 0xC9D JUMPI DUP1 PUSH4 0x715018A6 EQ PUSH2 0xC40 JUMPI DUP1 PUSH4 0x753A35CB EQ PUSH2 0xC18 JUMPI DUP1 PUSH4 0x84A95047 EQ PUSH2 0xB7E JUMPI DUP1 PUSH4 0x8DA5CB5B EQ PUSH2 0xB56 JUMPI DUP1 PUSH4 0x95D89B41 EQ PUSH2 0xA3D JUMPI DUP1 PUSH4 0xA22CB465 EQ PUSH2 0x991 JUMPI DUP1 PUSH4 0xB88D4FDE EQ PUSH2 0x907 JUMPI DUP1 PUSH4 0xBDBBB0CB EQ PUSH2 0x6C2 JUMPI DUP1 PUSH4 0xC87B56DD EQ PUSH2 0x671 JUMPI DUP1 PUSH4 0xE250243A EQ PUSH2 0x3E5 JUMPI DUP1 PUSH4 0xE985E9C5 EQ PUSH2 0x398 JUMPI DUP1 PUSH4 0xF2FDE38B EQ PUSH2 0x304 JUMPI PUSH4 0xF6143D85 EQ PUSH2 0x16F JUMPI PUSH1 0x0 DUP1 REVERT JUMPDEST CALLVALUE PUSH2 0x300 JUMPI PUSH1 0x60 CALLDATASIZE PUSH1 0x3 NOT ADD SLT PUSH2 0x300 JUMPI DUP3 CALLDATALOAD SWAP1 PUSH1 0x24 CALLDATALOAD PUSH1 0x44 CALLDATALOAD PUSH2 0x191 PUSH2 0x1768 JUMP JUMPDEST DUP4 DUP6 MSTORE PUSH1 0x20 PUSH1 0xA DUP2 MSTORE PUSH1 0xFF PUSH1 0x3 DUP6 DUP9 KECCAK256 ADD SLOAD AND PUSH2 0x2C7 JUMPI DUP3 ISZERO PUSH2 0x294 JUMPI DUP2 ISZERO PUSH2 0x262 JUMPI DUP4 MLOAD PUSH1 0x80 DUP2 ADD DUP2 DUP2 LT PUSH8 0xFFFFFFFFFFFFFFFF DUP3 GT OR PUSH2 0x24F JUMPI PUSH32 0x6168E40FAC2576E22D73AB2E9EFA79B4E7530DD3DD411AB7D8862D04BE798A2 SWAP7 SWAP8 SWAP9 POP SWAP1 PUSH2 0x243 SWAP2 DUP7 MSTORE DUP5 DUP2 MSTORE PUSH1 0x3 DUP4 DUP3 ADD DUP11 DUP2 MSTORE DUP8 DUP4 ADD DUP7 DUP2 MSTORE PUSH1 0x60 DUP5 ADD SWAP2 PUSH1 0x1 DUP4 MSTORE DUP12 DUP14 MSTORE PUSH1 0xA DUP8 MSTORE DUP10 DUP14 KECCAK256 SWAP5 MLOAD DUP6 SSTORE MLOAD PUSH1 0x1 DUP6 ADD SSTORE MLOAD PUSH1 0x2 DUP5 ADD SSTORE MLOAD ISZERO ISZERO SWAP2 ADD SWAP1 PUSH1 0xFF DUP1 NOT DUP4 SLOAD AND SWAP2 ISZERO ISZERO AND OR SWAP1 SSTORE JUMP JUMPDEST DUP4 MLOAD SWAP3 DUP4 MSTORE DUP3 ADD MSTORE LOG2 DUP1 RETURN JUMPDEST PUSH4 0x4E487B71 PUSH1 0xE0 SHL DUP9 MSTORE PUSH1 0x41 DUP10 MSTORE PUSH1 0x24 DUP9 REVERT JUMPDEST DUP7 PUSH1 0x64 SWAP2 DUP6 MLOAD SWAP2 PUSH3 0x461BCD PUSH1 0xE5 SHL DUP4 MSTORE DUP3 ADD MSTORE PUSH1 0xD PUSH1 0x24 DUP3 ADD MSTORE PUSH13 0x496E76616C6964207072696365 PUSH1 0x98 SHL PUSH1 0x44 DUP3 ADD MSTORE REVERT JUMPDEST DUP7 PUSH1 0x64 SWAP2 DUP6 MLOAD SWAP2 PUSH3 0x461BCD PUSH1 0xE5 SHL DUP4 MSTORE DUP3 ADD MSTORE PUSH1 0xE PUSH1 0x24 DUP3 ADD MSTORE PUSH14 0x496E76616C696420737570706C79 PUSH1 0x90 SHL PUSH1 0x44 DUP3 ADD MSTORE REVERT JUMPDEST DUP7 PUSH1 0x64 SWAP2 DUP6 MLOAD SWAP2 PUSH3 0x461BCD PUSH1 0xE5 SHL DUP4 MSTORE DUP3 ADD MSTORE PUSH1 0x14 PUSH1 0x24 DUP3 ADD MSTORE PUSH20 0x4576656E7420616C726561647920657869737473 PUSH1 0x60 SHL PUSH1 0x44 DUP3 ADD MSTORE REVERT JUMPDEST POP DUP1 REVERT JUMPDEST POP DUP3 CALLVALUE PUSH2 0x394 JUMPI PUSH1 0x20 CALLDATASIZE PUSH1 0x3 NOT ADD SLT PUSH2 0x394 JUMPI PUSH2 0x31F PUSH2 0x1660 JUMP JUMPDEST SWAP1 PUSH2 0x328 PUSH2 0x1768 JUMP JUMPDEST PUSH1 0x1 PUSH1 0x1 PUSH1 0xA0 SHL SUB SWAP2 DUP3 AND SWAP3 DUP4 ISZERO PUSH2 0x37E JUMPI POP POP PUSH1 0x6 SLOAD DUP3 PUSH12 0xFFFFFFFFFFFFFFFFFFFFFFFF PUSH1 0xA0 SHL DUP3 AND OR PUSH1 0x6 SSTORE AND PUSH32 0x8BE0079C531659141344CD1FD0A4F28419497F9722A3DAAFE3B4186F6B6457E0 DUP4 DUP1 LOG3 DUP1 RETURN JUMPDEST MLOAD PUSH4 0x1E4FBDF7 PUSH1 0xE0 SHL DUP2 MSTORE SWAP1 DUP2 ADD DUP5 SWAP1 MSTORE PUSH1 0x24 SWAP1 REVERT JUMPDEST DUP3 DUP1 REVERT JUMPDEST POP CALLVALUE PUSH2 0x300 JUMPI DUP1 PUSH1 0x3 NOT CALLDATASIZE ADD SLT PUSH2 0x300 JUMPI PUSH1 0xFF DUP2 PUSH1 0x20 SWAP4 PUSH2 0x3B7 PUSH2 0x1660 JUMP JUMPDEST PUSH2 0x3BF PUSH2 0x167B JUMP JUMPDEST PUSH1 0x1 PUSH1 0x1 PUSH1 0xA0 SHL SUB SWAP2 DUP3 AND DUP4 MSTORE PUSH1 0x5 DUP8 MSTORE DUP4 DUP4 KECCAK256 SWAP2 AND DUP3 MSTORE DUP6 MSTORE KECCAK256 SLOAD SWAP2 MLOAD SWAP2 AND ISZERO ISZERO DUP2 MSTORE RETURN JUMPDEST POP CALLVALUE PUSH2 0x300 JUMPI PUSH1 0x60 CALLDATASIZE PUSH1 0x3 NOT ADD SLT PUSH2 0x300 JUMPI PUSH2 0x3FF PUSH2 0x1660 JUMP JUMPDEST SWAP3 PUSH1 0x24 CALLDATALOAD SWAP1 PUSH2 0x40C PUSH2 0x1768 JUMP JUMPDEST DUP2 DUP5 MSTORE PUSH1 0x20 SWAP5 PUSH1 0xA DUP7 MSTORE DUP4 DUP6 KECCAK256 SWAP5 PUSH2 0x42A PUSH1 0xFF PUSH1 0x3 DUP9 ADD SLOAD AND PUSH2 0x1B87 JUMP JUMPDEST PUSH1 0x1 DUP7 ADD SWAP3 PUSH2 0x43C DUP5 SLOAD DUP9 SLOAD GT PUSH2 0x1BC6 JUMP JUMPDEST DUP5 PUSH1 0x2 PUSH2 0x44A PUSH1 0x8 SLOAD PUSH2 0x1C03 JUMP JUMPDEST SWAP9 DUP10 PUSH1 0x8 SSTORE PUSH2 0x459 DUP11 DUP8 PUSH2 0x1C40 JUMP JUMPDEST ADD SWAP5 DUP6 SLOAD SWAP1 PUSH1 0x1 DUP1 PUSH1 0xA0 SHL SUB DUP1 SWAP3 DUP13 DUP3 PUSH1 0x9 SLOAD AND SWAP9 PUSH1 0x64 DUP14 MLOAD DUP1 SWAP6 DUP2 SWAP4 PUSH4 0x3964FDAF PUSH1 0xE0 SHL SWAP11 DUP12 DUP5 MSTORE DUP13 DUP5 ADD MSTORE DUP13 PUSH1 0x24 DUP5 ADD MSTORE AND SWAP12 DUP13 PUSH1 0x44 DUP4 ADD MSTORE GAS STATICCALL SWAP2 DUP3 ISZERO PUSH2 0x667 JUMPI SWAP3 DUP12 PUSH1 0x5 DUP16 SWAP8 SWAP5 DUP16 SWAP1 PUSH2 0x561 SWAP1 DUP16 DUP12 DUP15 DUP3 SWAP15 SWAP13 SWAP10 PUSH1 0x64 SWAP13 DUP3 SWAP6 PUSH2 0x642 JUMPI JUMPDEST POP SWAP1 PUSH2 0x528 SWAP2 DUP10 MLOAD SWAP10 DUP11 SWAP6 PUSH2 0x4CF DUP8 PUSH2 0x16DC JUMP JUMPDEST DUP7 MSTORE DUP5 DUP7 ADD SWAP2 DUP3 MSTORE DUP1 DUP7 ADD SWAP3 DUP1 DUP5 MSTORE PUSH1 0xB PUSH1 0x60 DUP9 ADD SWAP7 PUSH1 0x44 CALLDATALOAD DUP9 MSTORE PUSH1 0x80 DUP10 ADD SWAP10 ISZERO ISZERO DUP11 MSTORE PUSH1 0xC0 PUSH1 0xA0 DUP11 ADD SWAP10 DUP5 DUP12 MSTORE ADD SWAP12 DUP4 DUP14 MSTORE DUP4 MSTORE MSTORE KECCAK256 SWAP10 MLOAD DUP11 SSTORE MLOAD PUSH1 0x1 DUP11 ADD SSTORE MLOAD ISZERO ISZERO PUSH1 0x2 DUP10 ADD SWAP1 PUSH1 0xFF DUP1 NOT DUP4 SLOAD AND SWAP2 ISZERO ISZERO AND OR SWAP1 SSTORE JUMP JUMPDEST MLOAD PUSH1 0x3 DUP8 ADD SSTORE PUSH2 0x54A DUP12 DUP8 ADD SWAP3 MLOAD ISZERO ISZERO DUP4 SWAP1 PUSH1 0xFF DUP1 NOT DUP4 SLOAD AND SWAP2 ISZERO ISZERO AND OR SWAP1 SSTORE JUMP JUMPDEST MLOAD DUP2 SLOAD PUSH2 0xFF00 NOT AND SWAP1 ISZERO ISZERO PUSH1 0x8 SHL PUSH2 0xFF00 AND OR SWAP1 SSTORE JUMP JUMPDEST MLOAD SWAP2 ADD SSTORE PUSH2 0x56F DUP2 SLOAD PUSH2 0x1C03 JUMP JUMPDEST SWAP1 SSTORE PUSH1 0x9 SLOAD AND DUP11 MLOAD SWAP6 DUP7 SWAP5 DUP6 SWAP4 DUP5 MSTORE DUP4 ADD MSTORE DUP7 PUSH1 0x24 DUP4 ADD MSTORE DUP8 PUSH1 0x44 DUP4 ADD MSTORE GAS STATICCALL SWAP1 DUP2 ISZERO PUSH2 0x638 JUMPI SWAP3 DUP6 DUP9 DUP5 DUP2 SWAP8 SWAP5 PUSH32 0x98E3B865BE443D525120139AC6A4AD7BF406891236BB145AD9EC6BA80333A5B5 SWAP8 DUP14 SWAP8 SWAP2 PUSH2 0x60B JUMPI JUMPDEST POP PUSH2 0x5DE JUMPI JUMPDEST POP POP POP POP SLOAD DUP6 MLOAD SWAP1 DUP2 MSTORE LOG3 MLOAD SWAP1 DUP2 MSTORE RETURN JUMPDEST DUP1 PUSH32 0xBD1C7DE52DE5D7A65A85C1849AE6E2E0FE5569288A9FC6E56A0C4FA17E3FAACE SWAP2 LOG4 CODESIZE DUP6 DUP6 DUP3 PUSH2 0x5CD JUMP JUMPDEST PUSH2 0x62B SWAP2 POP DUP8 RETURNDATASIZE DUP10 GT PUSH2 0x631 JUMPI JUMPDEST PUSH2 0x623 DUP2 DUP4 PUSH2 0x172A JUMP JUMPDEST DUP2 ADD SWAP1 PUSH2 0x1C28 JUMP JUMPDEST CODESIZE PUSH2 0x5C7 JUMP JUMPDEST POP RETURNDATASIZE PUSH2 0x619 JUMP JUMPDEST DUP7 MLOAD RETURNDATASIZE DUP5 DUP3 RETURNDATACOPY RETURNDATASIZE SWAP1 REVERT JUMPDEST PUSH2 0x528 SWAP3 SWAP2 SWAP6 POP PUSH2 0x65F SWAP1 DUP5 RETURNDATASIZE DUP7 GT PUSH2 0x631 JUMPI PUSH2 0x623 DUP2 DUP4 PUSH2 0x172A JUMP JUMPDEST SWAP5 SWAP1 SWAP2 PUSH2 0x4BB JUMP JUMPDEST DUP12 MLOAD RETURNDATASIZE DUP10 DUP3 RETURNDATACOPY RETURNDATASIZE SWAP1 REVERT JUMPDEST POP CALLVALUE PUSH2 0x300 JUMPI PUSH1 0x20 CALLDATASIZE PUSH1 0x3 NOT ADD SLT PUSH2 0x300 JUMPI PUSH2 0x690 PUSH2 0x6BE SWAP4 CALLDATALOAD PUSH2 0x1B1C JUMP JUMPDEST POP DUP2 DUP2 MLOAD PUSH2 0x69D DUP2 PUSH2 0x170E JUMP JUMPDEST MSTORE DUP1 MLOAD SWAP2 PUSH2 0x6AA DUP4 PUSH2 0x170E JUMP JUMPDEST DUP3 MSTORE MLOAD SWAP2 DUP3 SWAP2 PUSH1 0x20 DUP4 MSTORE PUSH1 0x20 DUP4 ADD SWAP1 PUSH2 0x1620 JUMP JUMPDEST SUB SWAP1 RETURN JUMPDEST POP DUP3 SWAP1 PUSH2 0x6CE CALLDATASIZE PUSH2 0x1691 JUMP JUMPDEST SWAP4 PUSH2 0x6D7 PUSH2 0x1D16 JUMP JUMPDEST DUP2 DUP2 MSTORE PUSH1 0x20 SWAP5 PUSH1 0xA DUP7 MSTORE DUP4 DUP3 KECCAK256 PUSH2 0x6F4 PUSH1 0xFF PUSH1 0x3 DUP4 ADD SLOAD AND PUSH2 0x1B87 JUMP JUMPDEST PUSH1 0x2 PUSH1 0x1 DUP3 ADD SWAP2 PUSH2 0x708 DUP4 SLOAD DUP3 SLOAD GT PUSH2 0x1BC6 JUMP JUMPDEST ADD SWAP2 DUP3 SLOAD PUSH2 0x718 DUP2 CALLVALUE LT ISZERO PUSH2 0x1C7A JUMP JUMPDEST PUSH1 0x5 DUP2 MUL SWAP1 DUP1 DUP3 DIV PUSH1 0x5 EQ DUP2 ISZERO OR ISZERO PUSH2 0x8F4 JUMPI SWAP1 PUSH2 0x75D DUP7 DUP1 DUP1 DUP1 PUSH1 0x64 PUSH2 0x740 DUP3 SWAP9 CALLVALUE PUSH2 0x1CBD JUMP JUMPDEST SWAP7 DIV PUSH1 0x1 DUP1 PUSH1 0xA0 SHL SUB PUSH1 0x6 SLOAD AND GAS CALL PUSH2 0x757 PUSH2 0x1B57 JUMP JUMPDEST POP PUSH2 0x1CCA JUMP JUMPDEST DUP1 PUSH2 0x89C JUMPI JUMPDEST POP POP DUP8 PUSH1 0x8 SLOAD PUSH2 0x772 SWAP1 PUSH2 0x1C03 JUMP JUMPDEST PUSH1 0x8 DUP2 SWAP1 SSTORE SWAP8 DUP9 SWAP6 PUSH2 0x784 DUP8 CALLER PUSH2 0x1C40 JUMP JUMPDEST DUP6 SLOAD SWAP2 DUP10 MLOAD SWAP5 PUSH2 0x793 DUP7 PUSH2 0x16DC JUMP JUMPDEST DUP10 DUP7 MSTORE DUP5 DUP7 ADD SWAP4 DUP5 MSTORE DUP11 DUP7 ADD DUP4 DUP2 MSTORE PUSH1 0x60 DUP8 ADD SWAP2 DUP3 MSTORE PUSH1 0x80 DUP8 ADD SWAP5 DUP5 DUP7 MSTORE DUP13 PUSH1 0xA0 DUP10 ADD SWAP6 DUP1 DUP8 MSTORE PUSH1 0xC0 DUP11 ADD SWAP9 DUP2 DUP11 MSTORE DUP14 DUP3 MSTORE PUSH1 0xB SWAP1 MSTORE KECCAK256 SWAP8 MLOAD DUP9 SSTORE MLOAD PUSH1 0x1 DUP9 ADD SSTORE MLOAD ISZERO ISZERO PUSH1 0x2 DUP8 ADD SWAP1 PUSH2 0x7F1 SWAP2 SWAP1 PUSH1 0xFF DUP1 NOT DUP4 SLOAD AND SWAP2 ISZERO ISZERO AND OR SWAP1 SSTORE JUMP JUMPDEST MLOAD PUSH1 0x3 DUP7 ADD SSTORE DUP5 ADD SWAP2 MLOAD ISZERO ISZERO PUSH2 0x813 SWAP1 DUP4 SWAP1 PUSH1 0xFF DUP1 NOT DUP4 SLOAD AND SWAP2 ISZERO ISZERO AND OR SWAP1 SSTORE JUMP JUMPDEST MLOAD DUP2 SLOAD PUSH2 0xFF00 NOT AND SWAP1 ISZERO ISZERO PUSH1 0x8 SHL PUSH2 0xFF00 AND OR SWAP1 SSTORE MLOAD SWAP1 PUSH1 0x5 ADD SSTORE DUP1 SLOAD PUSH2 0x839 SWAP1 PUSH2 0x1C03 JUMP JUMPDEST SWAP1 SSTORE SLOAD DUP6 DUP3 DUP6 MLOAD DUP4 DUP2 MSTORE CALLER SWAP3 PUSH32 0xDBAAF4C87CE30816C961A81D110622A3227EDE77953D4383D514FF88AB2E0FD3 SWAP2 LOG3 DUP6 DUP5 MLOAD SWAP2 DUP3 MSTORE PUSH32 0x98E3B865BE443D525120139AC6A4AD7BF406891236BB145AD9EC6BA80333A5B5 SWAP2 LOG3 PUSH1 0x1 PUSH1 0x7 SSTORE MLOAD SWAP1 DUP2 MSTORE RETURN JUMPDEST DUP2 DUP1 DUP1 SWAP3 CALLER GAS CALL PUSH2 0x8AB PUSH2 0x1B57 JUMP JUMPDEST POP ISZERO PUSH2 0x8B8 JUMPI DUP4 DUP10 PUSH2 0x763 JUMP JUMPDEST DUP6 MLOAD PUSH3 0x461BCD PUSH1 0xE5 SHL DUP2 MSTORE DUP1 DUP9 ADD DUP10 SWAP1 MSTORE PUSH1 0x16 PUSH1 0x24 DUP3 ADD MSTORE PUSH22 0x1499599D5B99081D1C985B9CD9995C8819985A5B1959 PUSH1 0x52 SHL PUSH1 0x44 DUP3 ADD MSTORE PUSH1 0x64 SWAP1 REVERT JUMPDEST PUSH4 0x4E487B71 PUSH1 0xE0 SHL DUP7 MSTORE PUSH1 0x11 DUP10 MSTORE PUSH1 0x24 DUP7 REVERT JUMPDEST POP DUP3 SWAP1 CALLVALUE PUSH2 0x394 JUMPI PUSH1 0x80 CALLDATASIZE PUSH1 0x3 NOT ADD SLT PUSH2 0x394 JUMPI PUSH2 0x923 PUSH2 0x1660 JUMP JUMPDEST PUSH2 0x92B PUSH2 0x167B JUMP JUMPDEST DUP5 PUSH1 0x64 CALLDATALOAD SWAP5 PUSH8 0xFFFFFFFFFFFFFFFF DUP7 GT PUSH2 0x300 JUMPI CALLDATASIZE PUSH1 0x23 DUP8 ADD SLT ISZERO PUSH2 0x300 JUMPI DUP6 ADD CALLDATALOAD SWAP5 PUSH2 0x963 PUSH2 0x95A DUP8 PUSH2 0x174C JUMP JUMPDEST SWAP6 MLOAD SWAP6 DUP7 PUSH2 0x172A JUMP JUMPDEST DUP6 DUP6 MSTORE CALLDATASIZE PUSH1 0x24 DUP8 DUP4 ADD ADD GT PUSH2 0x300 JUMPI DUP6 PUSH2 0x98E SWAP7 PUSH1 0x24 PUSH1 0x20 SWAP4 ADD DUP4 DUP9 ADD CALLDATACOPY DUP6 ADD ADD MSTORE PUSH1 0x44 CALLDATALOAD SWAP2 PUSH2 0x193D JUMP JUMPDEST DUP1 RETURN JUMPDEST POP DUP3 SWAP1 CALLVALUE PUSH2 0x394 JUMPI DUP1 PUSH1 0x3 NOT CALLDATASIZE ADD SLT PUSH2 0x394 JUMPI PUSH2 0x9AC PUSH2 0x1660 JUMP JUMPDEST SWAP1 PUSH1 0x24 CALLDATALOAD DUP1 ISZERO ISZERO SWAP3 DUP4 DUP3 SUB PUSH2 0xA39 JUMPI PUSH1 0x1 PUSH1 0x1 PUSH1 0xA0 SHL SUB AND SWAP4 DUP5 ISZERO PUSH2 0xA22 JUMPI POP PUSH2 0x9F5 SWAP1 CALLER DUP7 MSTORE PUSH1 0x5 PUSH1 0x20 MSTORE DUP3 DUP7 KECCAK256 DUP6 DUP8 MSTORE PUSH1 0x20 MSTORE DUP3 DUP7 KECCAK256 SWAP1 PUSH1 0xFF DUP1 NOT DUP4 SLOAD AND SWAP2 ISZERO ISZERO AND OR SWAP1 SSTORE JUMP JUMPDEST MLOAD SWAP1 DUP2 MSTORE PUSH32 0x17307EAB39AB6107E8899845AD3D59BD9653F200F220920489CA2B5937696C31 PUSH1 0x20 CALLER SWAP3 LOG3 DUP1 RETURN JUMPDEST DUP3 MLOAD PUSH4 0xB611743 PUSH1 0xE3 SHL DUP2 MSTORE SWAP1 DUP2 ADD DUP6 SWAP1 MSTORE PUSH1 0x24 SWAP1 REVERT JUMPDEST DUP6 DUP1 REVERT JUMPDEST POP SWAP1 CALLVALUE PUSH2 0xB53 JUMPI DUP1 PUSH1 0x3 NOT CALLDATASIZE ADD SLT PUSH2 0xB53 JUMPI DUP2 MLOAD SWAP2 DUP2 PUSH1 0x1 SWAP3 DUP4 SLOAD SWAP4 DUP5 DUP2 SHR SWAP2 DUP2 DUP7 AND SWAP6 DUP7 ISZERO PUSH2 0xB49 JUMPI JUMPDEST PUSH1 0x20 SWAP7 DUP8 DUP6 LT DUP2 EQ PUSH2 0xB36 JUMPI DUP9 SWAP10 POP SWAP7 DUP9 SWAP7 SWAP8 DUP6 DUP3 SWAP11 MSTORE SWAP2 DUP3 PUSH1 0x0 EQ PUSH2 0xB0F JUMPI POP POP PUSH1 0x1 EQ PUSH2 0xAB4 JUMPI JUMPDEST POP POP POP PUSH2 0x6BE SWAP3 SWAP2 PUSH2 0xAA5 SWAP2 SUB DUP6 PUSH2 0x172A JUMP JUMPDEST MLOAD SWAP3 DUP3 DUP5 SWAP4 DUP5 MSTORE DUP4 ADD SWAP1 PUSH2 0x1620 JUMP JUMPDEST SWAP2 SWAP1 DUP7 SWAP4 POP DUP1 DUP4 MSTORE PUSH32 0xB10E2D527612073B26EECDFD717E6A320CF44B4AFAC2B0732D9FCBE2B7FA0CF6 JUMPDEST DUP3 DUP5 LT PUSH2 0xAF7 JUMPI POP POP POP DUP3 ADD ADD DUP2 PUSH2 0xAA5 PUSH2 0x6BE PUSH2 0xA92 JUMP JUMPDEST DUP1 SLOAD DUP5 DUP11 ADD DUP7 ADD MSTORE DUP9 SWAP6 POP DUP8 SWAP5 SWAP1 SWAP4 ADD SWAP3 DUP2 ADD PUSH2 0xADE JUMP JUMPDEST PUSH1 0xFF NOT AND DUP8 DUP3 ADD MSTORE SWAP4 ISZERO ISZERO PUSH1 0x5 SHL DUP7 ADD SWAP1 SWAP4 ADD SWAP4 POP DUP5 SWAP3 POP PUSH2 0xAA5 SWAP2 POP PUSH2 0x6BE SWAP1 POP PUSH2 0xA92 JUMP JUMPDEST PUSH4 0x4E487B71 PUSH1 0xE0 SHL DUP4 MSTORE PUSH1 0x22 DUP11 MSTORE PUSH1 0x24 DUP4 REVERT JUMPDEST SWAP3 PUSH1 0x7F AND SWAP3 PUSH2 0xA68 JUMP JUMPDEST DUP1 REVERT JUMPDEST POP CALLVALUE PUSH2 0x300 JUMPI DUP2 PUSH1 0x3 NOT CALLDATASIZE ADD SLT PUSH2 0x300 JUMPI PUSH1 0x6 SLOAD SWAP1 MLOAD PUSH1 0x1 PUSH1 0x1 PUSH1 0xA0 SHL SUB SWAP1 SWAP2 AND DUP2 MSTORE PUSH1 0x20 SWAP1 RETURN JUMPDEST POP CALLVALUE PUSH2 0x300 JUMPI PUSH1 0x20 SWAP3 DUP4 PUSH1 0x3 NOT CALLDATASIZE ADD SLT PUSH2 0x394 JUMPI PUSH1 0x9 SLOAD DUP3 MLOAD PUSH4 0x1A159911 PUSH1 0xE1 SHL DUP2 MSTORE DUP3 CALLDATALOAD SWAP3 DUP2 ADD SWAP3 SWAP1 SWAP3 MSTORE PUSH1 0x24 DUP3 ADD DUP5 SWAP1 MSTORE DUP5 SWAP1 DUP3 SWAP1 PUSH1 0x44 SWAP1 DUP3 SWAP1 PUSH1 0x1 PUSH1 0x1 PUSH1 0xA0 SHL SUB AND GAS STATICCALL SWAP3 DUP4 ISZERO PUSH2 0xC0D JUMPI DUP1 SWAP4 PUSH2 0xBDB JUMPI JUMPDEST POP POP MLOAD SWAP1 DUP2 MSTORE RETURN JUMPDEST SWAP1 SWAP2 SWAP3 POP DUP4 DUP3 DUP2 RETURNDATASIZE DUP4 GT PUSH2 0xC06 JUMPI JUMPDEST PUSH2 0xBF4 DUP2 DUP4 PUSH2 0x172A JUMP JUMPDEST DUP2 ADD SUB SLT PUSH2 0xB53 JUMPI POP MLOAD SWAP1 CODESIZE DUP1 PUSH2 0xBD3 JUMP JUMPDEST POP RETURNDATASIZE PUSH2 0xBEA JUMP JUMPDEST DUP3 MLOAD SWAP1 RETURNDATASIZE SWAP1 DUP3 RETURNDATACOPY RETURNDATASIZE SWAP1 REVERT JUMPDEST POP CALLVALUE PUSH2 0x300 JUMPI DUP2 PUSH1 0x3 NOT CALLDATASIZE ADD SLT PUSH2 0x300 JUMPI PUSH1 0x9 SLOAD SWAP1 MLOAD PUSH1 0x1 PUSH1 0x1 PUSH1 0xA0 SHL SUB SWAP1 SWAP2 AND DUP2 MSTORE PUSH1 0x20 SWAP1 RETURN JUMPDEST DUP3 CALLVALUE PUSH2 0xB53 JUMPI DUP1 PUSH1 0x3 NOT CALLDATASIZE ADD SLT PUSH2 0xB53 JUMPI PUSH2 0xC59 PUSH2 0x1768 JUMP JUMPDEST PUSH1 0x6 DUP1 SLOAD PUSH1 0x1 PUSH1 0x1 PUSH1 0xA0 SHL SUB NOT DUP2 AND SWAP1 SWAP2 SSTORE DUP2 SWAP1 PUSH1 0x1 PUSH1 0x1 PUSH1 0xA0 SHL SUB AND PUSH32 0x8BE0079C531659141344CD1FD0A4F28419497F9722A3DAAFE3B4186F6B6457E0 DUP3 DUP1 LOG3 DUP1 RETURN JUMPDEST POP SWAP1 CALLVALUE PUSH2 0xB53 JUMPI PUSH1 0x20 CALLDATASIZE PUSH1 0x3 NOT ADD SLT PUSH2 0xB53 JUMPI PUSH1 0x1 PUSH1 0x1 PUSH1 0xA0 SHL SUB PUSH2 0xCC0 PUSH2 0x1660 JUMP JUMPDEST AND SWAP3 DUP4 ISZERO PUSH2 0xCDD JUMPI POP DUP1 PUSH1 0x20 SWAP4 DUP4 SWAP3 MSTORE PUSH1 0x3 DUP5 MSTORE KECCAK256 SLOAD SWAP1 MLOAD SWAP1 DUP2 MSTORE RETURN JUMPDEST SWAP2 MLOAD PUSH4 0x22718AD9 PUSH1 0xE2 SHL DUP2 MSTORE SWAP2 DUP3 ADD MSTORE PUSH1 0x24 SWAP1 REVERT JUMPDEST POP SWAP1 CALLVALUE PUSH2 0xB53 JUMPI PUSH1 0x20 CALLDATASIZE PUSH1 0x3 NOT ADD SLT PUSH2 0xB53 JUMPI POP PUSH2 0xD12 PUSH1 0x20 SWAP3 CALLDATALOAD PUSH2 0x1B1C JUMP JUMPDEST SWAP1 MLOAD PUSH1 0x1 PUSH1 0x1 PUSH1 0xA0 SHL SUB SWAP1 SWAP2 AND DUP2 MSTORE RETURN JUMPDEST POP DUP3 CALLVALUE PUSH2 0x394 JUMPI PUSH1 0x20 CALLDATASIZE PUSH1 0x3 NOT ADD SLT PUSH2 0x394 JUMPI PUSH2 0xD3E PUSH2 0x1660 JUMP JUMPDEST PUSH2 0xD46 PUSH2 0x1768 JUMP JUMPDEST PUSH1 0x1 PUSH1 0x1 PUSH1 0xA0 SHL SUB AND SWAP2 DUP3 ISZERO PUSH2 0xD73 JUMPI POP POP PUSH12 0xFFFFFFFFFFFFFFFFFFFFFFFF PUSH1 0xA0 SHL PUSH1 0x9 SLOAD AND OR PUSH1 0x9 SSTORE DUP1 RETURN JUMPDEST SWAP1 PUSH1 0x20 PUSH1 0x64 SWAP3 MLOAD SWAP2 PUSH3 0x461BCD PUSH1 0xE5 SHL DUP4 MSTORE DUP3 ADD MSTORE PUSH1 0xF PUSH1 0x24 DUP3 ADD MSTORE PUSH15 0x496E76616C69642061646472657373 PUSH1 0x88 SHL PUSH1 0x44 DUP3 ADD MSTORE REVERT JUMPDEST POP SWAP1 CALLVALUE PUSH2 0xB53 JUMPI PUSH1 0x20 CALLDATASIZE PUSH1 0x3 NOT ADD SLT PUSH2 0xB53 JUMPI DUP3 CALLDATALOAD DUP2 MSTORE PUSH1 0xB PUSH1 0x20 SWAP1 DUP2 MSTORE SWAP1 DUP3 SWAP1 KECCAK256 DUP1 SLOAD PUSH1 0x1 DUP3 ADD SLOAD PUSH1 0x2 DUP4 ADD SLOAD PUSH1 0x3 DUP5 ADD SLOAD SWAP7 DUP5 ADD SLOAD PUSH1 0x5 SWAP1 SWAP5 ADD SLOAD SWAP6 MLOAD SWAP3 DUP4 MSTORE SWAP4 DUP3 ADD MSTORE PUSH1 0xFF SWAP3 DUP4 AND ISZERO ISZERO PUSH1 0x40 DUP3 ADD MSTORE PUSH1 0x60 DUP2 ADD SWAP5 SWAP1 SWAP5 MSTORE DUP2 DUP2 AND ISZERO ISZERO PUSH1 0x80 DUP6 ADD MSTORE PUSH1 0x8 SHR AND ISZERO ISZERO PUSH1 0xA0 DUP4 ADD MSTORE PUSH1 0xC0 DUP3 ADD MSTORE PUSH1 0xE0 SWAP1 RETURN JUMPDEST POP CALLVALUE PUSH2 0x300 JUMPI PUSH2 0x98E SWAP1 PUSH2 0xE34 CALLDATASIZE PUSH2 0x16A7 JUMP JUMPDEST SWAP2 SWAP3 MLOAD SWAP3 PUSH2 0xE41 DUP5 PUSH2 0x170E JUMP JUMPDEST DUP6 DUP5 MSTORE PUSH2 0x193D JUMP JUMPDEST POP DUP3 SWAP1 PUSH1 0x20 CALLDATASIZE PUSH1 0x3 NOT ADD SLT PUSH2 0x394 JUMPI DUP2 CALLDATALOAD SWAP1 PUSH2 0xE63 PUSH2 0x1D16 JUMP JUMPDEST DUP2 DUP5 MSTORE PUSH1 0xB PUSH1 0x20 MSTORE DUP1 DUP5 KECCAK256 DUP4 DUP2 ADD SWAP1 PUSH1 0xFF DUP3 SLOAD PUSH1 0x8 SHR AND ISZERO PUSH2 0x1016 JUMPI DUP1 PUSH2 0xE93 PUSH1 0xFF PUSH1 0x2 PUSH1 0x5 SWAP5 ADD SLOAD AND ISZERO PUSH2 0x1D39 JUMP JUMPDEST ADD SWAP1 PUSH2 0xEA2 DUP3 SLOAD CALLVALUE LT ISZERO PUSH2 0x1C7A JUMP JUMPDEST PUSH2 0xEAB DUP5 PUSH2 0x1B1C JUMP JUMPDEST PUSH1 0x5 CALLVALUE MUL CALLVALUE DUP2 DIV PUSH1 0x5 EQ CALLVALUE ISZERO OR ISZERO PUSH2 0x1003 JUMPI PUSH1 0x64 SWAP1 DIV PUSH2 0xECB DUP2 CALLVALUE PUSH2 0x1CBD JUMP JUMPDEST PUSH2 0xEE9 DUP10 DUP1 DUP1 DUP1 PUSH1 0x1 DUP1 PUSH1 0xA0 SHL SUB SWAP7 DUP8 PUSH1 0x6 SLOAD AND GAS CALL PUSH2 0x757 PUSH2 0x1B57 JUMP JUMPDEST DUP9 DUP1 DUP1 DUP1 DUP6 DUP8 AND SWAP5 DUP6 GAS CALL PUSH2 0xEFC PUSH2 0x1B57 JUMP JUMPDEST POP ISZERO PUSH2 0xFC7 JUMPI CALLER ISZERO PUSH2 0xFB0 JUMPI PUSH2 0xF12 DUP8 CALLER PUSH2 0x1A60 JUMP JUMPDEST SWAP2 DUP3 AND DUP1 PUSH2 0xF31 JUMPI DUP7 MLOAD PUSH4 0x7E273289 PUSH1 0xE0 SHL DUP2 MSTORE DUP1 DUP11 ADD DUP10 SWAP1 MSTORE PUSH1 0x24 SWAP1 REVERT JUMPDEST SWAP8 SWAP3 SWAP4 SWAP5 SWAP6 SWAP8 SUB PUSH2 0xF7C JUMPI POP POP POP PUSH2 0xFF00 NOT DUP2 SLOAD AND SWAP1 SSTORE SLOAD SWAP2 MLOAD SWAP2 DUP3 MSTORE PUSH32 0xC40E38D52641F445F65E6B37A0DF098EF6A34A66FF5D6C176B0F1209F6A0792C PUSH1 0x20 CALLER SWAP4 LOG3 PUSH1 0x1 PUSH1 0x7 SSTORE DUP1 RETURN JUMPDEST DUP7 MLOAD PUSH4 0x64283D7B PUSH1 0xE0 SHL DUP2 MSTORE PUSH1 0x1 PUSH1 0x1 PUSH1 0xA0 SHL SUB SWAP4 DUP5 AND SWAP3 DUP2 ADD SWAP3 DUP4 MSTORE PUSH1 0x20 DUP4 ADD DUP8 SWAP1 MSTORE SWAP3 AND PUSH1 0x40 DUP3 ADD MSTORE DUP2 SWAP1 PUSH1 0x60 ADD SUB SWAP1 REVERT JUMPDEST DUP6 MLOAD PUSH4 0x32505749 PUSH1 0xE1 SHL DUP2 MSTORE DUP1 DUP10 ADD DUP11 SWAP1 MSTORE PUSH1 0x24 SWAP1 REVERT JUMPDEST DUP6 MLOAD PUSH3 0x461BCD PUSH1 0xE5 SHL DUP2 MSTORE PUSH1 0x20 DUP2 DUP11 ADD MSTORE PUSH1 0x16 PUSH1 0x24 DUP3 ADD MSTORE PUSH22 0x14D95B1B195C881D1C985B9CD9995C8819985A5B1959 PUSH1 0x52 SHL PUSH1 0x44 DUP3 ADD MSTORE PUSH1 0x64 SWAP1 REVERT JUMPDEST PUSH4 0x4E487B71 PUSH1 0xE0 SHL DUP9 MSTORE PUSH1 0x11 DUP8 MSTORE PUSH1 0x24 DUP9 REVERT JUMPDEST DUP3 MLOAD PUSH3 0x461BCD PUSH1 0xE5 SHL DUP2 MSTORE PUSH1 0x20 DUP2 DUP8 ADD MSTORE PUSH1 0xE PUSH1 0x24 DUP3 ADD MSTORE PUSH14 0x4E6F7420666F7220726573616C65 PUSH1 0x90 SHL PUSH1 0x44 DUP3 ADD MSTORE PUSH1 0x64 SWAP1 REVERT JUMPDEST POP DUP3 SWAP1 CALLVALUE PUSH2 0x394 JUMPI PUSH1 0x20 CALLDATASIZE PUSH1 0x3 NOT ADD SLT PUSH2 0x394 JUMPI DUP2 CALLDATALOAD SWAP2 PUSH2 0x106A DUP4 PUSH2 0x1B1C JUMP JUMPDEST CALLER PUSH1 0x1 PUSH1 0x1 PUSH1 0xA0 SHL SUB SWAP1 SWAP2 AND SUB PUSH2 0x1109 JUMPI DUP3 DUP5 MSTORE PUSH1 0xB PUSH1 0x20 MSTORE PUSH1 0xFF PUSH1 0x2 DUP4 DUP7 KECCAK256 ADD SLOAD AND PUSH2 0x10D1 JUMPI POP DUP2 DUP4 MSTORE PUSH1 0xB PUSH1 0x20 MSTORE DUP3 KECCAK256 PUSH1 0x2 ADD DUP1 SLOAD PUSH1 0xFF NOT AND PUSH1 0x1 OR SWAP1 SSTORE PUSH32 0x1F5D53E38FBC5A40092861E993062E74FB6DC7ACEF58356C7B55AA1AFD8B3501 DUP3 DUP1 LOG2 DUP1 RETURN JUMPDEST PUSH1 0x20 PUSH1 0x64 SWAP3 MLOAD SWAP2 PUSH3 0x461BCD PUSH1 0xE5 SHL DUP4 MSTORE DUP3 ADD MSTORE PUSH1 0x13 PUSH1 0x24 DUP3 ADD MSTORE PUSH19 0x151A58DAD95D08185B1C9958591E481D5CD959 PUSH1 0x6A SHL PUSH1 0x44 DUP3 ADD MSTORE REVERT JUMPDEST PUSH1 0x20 PUSH1 0x64 SWAP3 MLOAD SWAP2 PUSH3 0x461BCD PUSH1 0xE5 SHL DUP4 MSTORE DUP3 ADD MSTORE PUSH1 0x10 PUSH1 0x24 DUP3 ADD MSTORE PUSH16 0x2737BA103A34B1B5B2BA1037BBB732B9 PUSH1 0x81 SHL PUSH1 0x44 DUP3 ADD MSTORE REVERT JUMPDEST POP SWAP2 SWAP1 CALLVALUE PUSH2 0xB53 JUMPI PUSH1 0x20 CALLDATASIZE PUSH1 0x3 NOT ADD SLT PUSH2 0xB53 JUMPI PUSH1 0xC0 DUP4 PUSH2 0x6BE SWAP3 DUP5 CALLDATALOAD DUP2 MSTORE PUSH1 0xB PUSH1 0x20 MSTORE KECCAK256 DUP5 MLOAD PUSH2 0x116E DUP2 PUSH2 0x16DC JUMP JUMPDEST DUP2 SLOAD SWAP5 DUP6 DUP3 MSTORE PUSH1 0x1 DUP4 ADD SLOAD SWAP7 DUP8 PUSH1 0x20 DUP5 ADD MSTORE PUSH1 0xFF PUSH1 0x2 DUP6 ADD SLOAD AND ISZERO ISZERO SWAP1 DUP2 DUP2 DUP6 ADD MSTORE PUSH1 0x3 DUP6 ADD SLOAD SWAP3 DUP4 PUSH1 0x60 DUP7 ADD MSTORE DUP6 ADD SLOAD SWAP4 PUSH1 0x5 PUSH1 0xFF DUP1 DUP8 AND ISZERO ISZERO SWAP7 DUP8 PUSH1 0x80 DUP6 ADD MSTORE PUSH1 0x8 SHR AND ISZERO ISZERO SWAP7 DUP8 PUSH1 0xA0 DUP5 ADD MSTORE ADD SLOAD SWAP7 DUP8 SWAP2 ADD MSTORE MLOAD SWAP8 DUP9 SWAP8 DUP9 SWAP4 SWAP1 SWAP8 SWAP7 SWAP6 SWAP3 PUSH1 0xC0 SWAP6 SWAP3 PUSH1 0xE0 DUP7 ADD SWAP10 DUP7 MSTORE PUSH1 0x20 DUP7 ADD MSTORE ISZERO ISZERO PUSH1 0x40 DUP6 ADD MSTORE PUSH1 0x60 DUP5 ADD MSTORE ISZERO ISZERO PUSH1 0x80 DUP4 ADD MSTORE ISZERO ISZERO PUSH1 0xA0 DUP3 ADD MSTORE ADD MSTORE JUMP JUMPDEST DUP3 CALLVALUE PUSH2 0xB53 JUMPI PUSH2 0x98E PUSH2 0x120F CALLDATASIZE PUSH2 0x16A7 JUMP JUMPDEST SWAP2 PUSH2 0x1794 JUMP JUMPDEST POP DUP3 SWAP1 CALLVALUE PUSH2 0x394 JUMPI PUSH2 0x1226 CALLDATASIZE PUSH2 0x1691 JUMP JUMPDEST SWAP2 SWAP1 SWAP3 PUSH2 0x1232 DUP5 PUSH2 0x1B1C JUMP JUMPDEST CALLER PUSH1 0x1 PUSH1 0x1 PUSH1 0xA0 SHL SUB SWAP1 SWAP2 AND SUB PUSH2 0x131D JUMPI DUP4 DUP6 MSTORE PUSH1 0xB PUSH1 0x20 MSTORE PUSH2 0x125E PUSH1 0xFF PUSH1 0x2 DUP5 DUP9 KECCAK256 ADD SLOAD AND ISZERO PUSH2 0x1D39 JUMP JUMPDEST DUP4 DUP6 MSTORE PUSH1 0xB PUSH1 0x20 MSTORE PUSH1 0x1 DUP3 DUP7 KECCAK256 ADD SLOAD PUSH1 0x6E DUP2 MUL SWAP1 DUP1 DUP3 DIV PUSH1 0x6E EQ SWAP1 ISZERO OR ISZERO PUSH2 0x130A JUMPI PUSH1 0x64 SWAP1 DIV DUP4 GT PUSH2 0x12D7 JUMPI SWAP2 PUSH1 0x20 SWAP2 DUP2 PUSH1 0x5 PUSH32 0x2D8CBEBFD87CB19B7BED949F9C8D5A80D939133966EF331AC575D69160EA0465 SWAP6 DUP8 DUP10 MSTORE PUSH1 0xB DUP7 MSTORE DUP4 DUP10 KECCAK256 SWAP1 DUP2 ADD PUSH2 0x100 PUSH2 0xFF00 NOT DUP3 SLOAD AND OR SWAP1 SSTORE ADD SSTORE MLOAD SWAP1 DUP2 MSTORE LOG2 DUP1 RETURN JUMPDEST PUSH1 0x20 PUSH1 0x64 SWAP3 MLOAD SWAP2 PUSH3 0x461BCD PUSH1 0xE5 SHL DUP4 MSTORE DUP3 ADD MSTORE PUSH1 0xE PUSH1 0x24 DUP3 ADD MSTORE PUSH14 0xA0E4D2C6CA40E8DEDE40D0D2CED PUSH1 0x93 SHL PUSH1 0x44 DUP3 ADD MSTORE REVERT JUMPDEST PUSH4 0x4E487B71 PUSH1 0xE0 SHL DUP7 MSTORE PUSH1 0x11 DUP3 MSTORE PUSH1 0x24 DUP7 REVERT JUMPDEST PUSH1 0x20 PUSH1 0x64 SWAP3 MLOAD SWAP2 PUSH3 0x461BCD PUSH1 0xE5 SHL DUP4 MSTORE DUP3 ADD MSTORE PUSH1 0x9 PUSH1 0x24 DUP3 ADD MSTORE PUSH9 0x2737BA1037BBB732B9 PUSH1 0xB9 SHL PUSH1 0x44 DUP3 ADD MSTORE REVERT JUMPDEST POP CALLVALUE PUSH2 0x300 JUMPI DUP2 PUSH1 0x3 NOT CALLDATASIZE ADD SLT PUSH2 0x300 JUMPI PUSH1 0x20 SWAP1 MLOAD PUSH1 0x5 DUP2 MSTORE RETURN JUMPDEST POP DUP3 CALLVALUE PUSH2 0x394 JUMPI PUSH1 0x20 CALLDATASIZE PUSH1 0x3 NOT ADD SLT PUSH2 0x394 JUMPI PUSH1 0x80 SWAP3 DUP3 SWAP2 CALLDATALOAD DUP2 MSTORE PUSH1 0xA PUSH1 0x20 MSTORE KECCAK256 SWAP1 DUP2 SLOAD SWAP2 PUSH1 0x1 DUP2 ADD SLOAD SWAP2 PUSH1 0xFF PUSH1 0x3 PUSH1 0x2 DUP5 ADD SLOAD SWAP4 ADD SLOAD AND SWAP3 DUP2 MLOAD SWAP5 DUP6 MSTORE PUSH1 0x20 DUP6 ADD MSTORE DUP4 ADD MSTORE ISZERO ISZERO PUSH1 0x60 DUP3 ADD MSTORE RETURN JUMPDEST POP DUP3 SWAP1 CALLVALUE PUSH2 0x394 JUMPI DUP1 PUSH1 0x3 NOT CALLDATASIZE ADD SLT PUSH2 0x394 JUMPI PUSH2 0x13D0 PUSH2 0x1660 JUMP JUMPDEST SWAP2 PUSH1 0x24 CALLDATALOAD PUSH2 0x13DD DUP2 PUSH2 0x1B1C JUMP JUMPDEST CALLER ISZERO ISZERO DUP1 PUSH2 0x147F JUMPI JUMPDEST DUP1 PUSH2 0x1456 JUMPI JUMPDEST PUSH2 0x1440 JUMPI PUSH1 0x1 PUSH1 0x1 PUSH1 0xA0 SHL SUB SWAP5 DUP6 AND SWAP5 DUP3 SWAP2 DUP7 SWAP2 AND PUSH32 0x8C5BE1E5EBEC7D5BD14F71427D1E84F3DD0314C0F7B2291E5B200AC8C7C3B925 DUP9 DUP1 LOG4 DUP5 MSTORE PUSH1 0x20 MSTORE DUP3 KECCAK256 DUP1 SLOAD PUSH1 0x1 PUSH1 0x1 PUSH1 0xA0 SHL SUB NOT AND SWAP1 SWAP2 OR SWAP1 SSTORE DUP1 RETURN JUMPDEST DUP4 MLOAD PUSH4 0xA9FBF51F PUSH1 0xE0 SHL DUP2 MSTORE CALLER DUP2 DUP6 ADD MSTORE PUSH1 0x24 SWAP1 REVERT JUMPDEST POP PUSH1 0x1 PUSH1 0x1 PUSH1 0xA0 SHL SUB DUP2 AND DUP7 MSTORE PUSH1 0x5 PUSH1 0x20 SWAP1 DUP2 MSTORE DUP5 DUP8 KECCAK256 CALLER DUP9 MSTORE SWAP1 MSTORE DUP4 DUP7 KECCAK256 SLOAD PUSH1 0xFF AND ISZERO PUSH2 0x13EC JUMP JUMPDEST POP PUSH1 0x1 PUSH1 0x1 PUSH1 0xA0 SHL SUB DUP2 AND CALLER EQ ISZERO PUSH2 0x13E6 JUMP JUMPDEST POP CALLVALUE PUSH2 0x300 JUMPI DUP2 PUSH1 0x3 NOT CALLDATASIZE ADD SLT PUSH2 0x300 JUMPI PUSH1 0x20 SWAP1 MLOAD PUSH1 0x6E DUP2 MSTORE RETURN JUMPDEST POP DUP3 CALLVALUE PUSH2 0x394 JUMPI PUSH1 0x20 CALLDATASIZE PUSH1 0x3 NOT ADD SLT PUSH2 0x394 JUMPI SWAP2 DUP3 PUSH1 0x20 SWAP4 CALLDATALOAD PUSH2 0x14CF DUP2 PUSH2 0x1B1C JUMP JUMPDEST POP DUP3 MSTORE DUP4 MSTORE DUP2 SWAP1 KECCAK256 SLOAD SWAP1 MLOAD PUSH1 0x1 PUSH1 0x1 PUSH1 0xA0 SHL SUB SWAP1 SWAP2 AND DUP2 MSTORE RETURN JUMPDEST POP SWAP1 CALLVALUE PUSH2 0xB53 JUMPI DUP1 PUSH1 0x3 NOT CALLDATASIZE ADD SLT PUSH2 0xB53 JUMPI DUP2 MLOAD SWAP2 DUP2 DUP3 SLOAD SWAP3 PUSH1 0x1 DUP5 DUP2 SHR SWAP2 DUP2 DUP7 AND SWAP6 DUP7 ISZERO PUSH2 0x15AA JUMPI JUMPDEST PUSH1 0x20 SWAP7 DUP8 DUP6 LT DUP2 EQ PUSH2 0xB36 JUMPI DUP9 SWAP10 POP SWAP7 DUP9 SWAP7 SWAP8 DUP6 DUP3 SWAP11 MSTORE SWAP2 DUP3 PUSH1 0x0 EQ PUSH2 0xB0F JUMPI POP POP PUSH1 0x1 EQ PUSH2 0x154F JUMPI POP POP POP PUSH2 0x6BE SWAP3 SWAP2 PUSH2 0xAA5 SWAP2 SUB DUP6 PUSH2 0x172A JUMP JUMPDEST SWAP2 SWAP1 DUP7 SWAP4 POP DUP3 DUP1 MSTORE PUSH32 0x290DECD9548B62A8D60345A988386FC84BA6BC95484008F6362F93160EF3E563 JUMPDEST DUP3 DUP5 LT PUSH2 0x1592 JUMPI POP POP POP DUP3 ADD ADD DUP2 PUSH2 0xAA5 PUSH2 0x6BE PUSH2 0xA92 JUMP JUMPDEST DUP1 SLOAD DUP5 DUP11 ADD DUP7 ADD MSTORE DUP9 SWAP6 POP DUP8 SWAP5 SWAP1 SWAP4 ADD SWAP3 DUP2 ADD PUSH2 0x1579 JUMP JUMPDEST SWAP3 PUSH1 0x7F AND SWAP3 PUSH2 0x1513 JUMP JUMPDEST DUP4 SWAP1 DUP6 CALLVALUE PUSH2 0x394 JUMPI PUSH1 0x20 CALLDATASIZE PUSH1 0x3 NOT ADD SLT PUSH2 0x394 JUMPI CALLDATALOAD PUSH4 0xFFFFFFFF PUSH1 0xE0 SHL DUP2 AND DUP1 SWAP2 SUB PUSH2 0x394 JUMPI PUSH1 0x20 SWAP3 POP PUSH4 0x80AC58CD PUSH1 0xE0 SHL DUP2 EQ SWAP1 DUP2 ISZERO PUSH2 0x160F JUMPI JUMPDEST DUP2 ISZERO PUSH2 0x15FE JUMPI JUMPDEST POP ISZERO ISZERO DUP2 MSTORE RETURN JUMPDEST PUSH4 0x1FFC9A7 PUSH1 0xE0 SHL EQ SWAP1 POP DUP4 PUSH2 0x15F7 JUMP JUMPDEST PUSH4 0x5B5E139F PUSH1 0xE0 SHL DUP2 EQ SWAP2 POP PUSH2 0x15F0 JUMP JUMPDEST SWAP2 SWAP1 DUP3 MLOAD SWAP3 DUP4 DUP3 MSTORE PUSH1 0x0 JUMPDEST DUP5 DUP2 LT PUSH2 0x164C JUMPI POP POP DUP3 PUSH1 0x0 PUSH1 0x20 DUP1 SWAP5 SWAP6 DUP5 ADD ADD MSTORE PUSH1 0x1F DUP1 NOT SWAP2 ADD AND ADD ADD SWAP1 JUMP JUMPDEST PUSH1 0x20 DUP2 DUP4 ADD DUP2 ADD MLOAD DUP5 DUP4 ADD DUP3 ADD MSTORE ADD PUSH2 0x162B JUMP JUMPDEST PUSH1 0x4 CALLDATALOAD SWAP1 PUSH1 0x1 PUSH1 0x1 PUSH1 0xA0 SHL SUB DUP3 AND DUP3 SUB PUSH2 0x1676 JUMPI JUMP JUMPDEST PUSH1 0x0 DUP1 REVERT JUMPDEST PUSH1 0x24 CALLDATALOAD SWAP1 PUSH1 0x1 PUSH1 0x1 PUSH1 0xA0 SHL SUB DUP3 AND DUP3 SUB PUSH2 0x1676 JUMPI JUMP JUMPDEST PUSH1 0x40 SWAP1 PUSH1 0x3 NOT ADD SLT PUSH2 0x1676 JUMPI PUSH1 0x4 CALLDATALOAD SWAP1 PUSH1 0x24 CALLDATALOAD SWAP1 JUMP JUMPDEST PUSH1 0x60 SWAP1 PUSH1 0x3 NOT ADD SLT PUSH2 0x1676 JUMPI PUSH1 0x1 PUSH1 0x1 PUSH1 0xA0 SHL SUB SWAP1 PUSH1 0x4 CALLDATALOAD DUP3 DUP2 AND DUP2 SUB PUSH2 0x1676 JUMPI SWAP2 PUSH1 0x24 CALLDATALOAD SWAP1 DUP2 AND DUP2 SUB PUSH2 0x1676 JUMPI SWAP1 PUSH1 0x44 CALLDATALOAD SWAP1 JUMP JUMPDEST PUSH1 0xE0 DUP2 ADD SWAP1 DUP2 LT PUSH8 0xFFFFFFFFFFFFFFFF DUP3 GT OR PUSH2 0x16F8 JUMPI PUSH1 0x40 MSTORE JUMP JUMPDEST PUSH4 0x4E487B71 PUSH1 0xE0 SHL PUSH1 0x0 MSTORE PUSH1 0x41 PUSH1 0x4 MSTORE PUSH1 0x24 PUSH1 0x0 REVERT JUMPDEST PUSH1 0x20 DUP2 ADD SWAP1 DUP2 LT PUSH8 0xFFFFFFFFFFFFFFFF DUP3 GT OR PUSH2 0x16F8 JUMPI PUSH1 0x40 MSTORE JUMP JUMPDEST SWAP1 PUSH1 0x1F DUP1 NOT SWAP2 ADD AND DUP2 ADD SWAP1 DUP2 LT PUSH8 0xFFFFFFFFFFFFFFFF DUP3 GT OR PUSH2 0x16F8 JUMPI PUSH1 0x40 MSTORE JUMP JUMPDEST PUSH8 0xFFFFFFFFFFFFFFFF DUP2 GT PUSH2 0x16F8 JUMPI PUSH1 0x1F ADD PUSH1 0x1F NOT AND PUSH1 0x20 ADD SWAP1 JUMP JUMPDEST PUSH1 0x6 SLOAD PUSH1 0x1 PUSH1 0x1 PUSH1 0xA0 SHL SUB AND CALLER SUB PUSH2 0x177C JUMPI JUMP JUMPDEST PUSH1 0x40 MLOAD PUSH4 0x118CDAA7 PUSH1 0xE0 SHL DUP2 MSTORE CALLER PUSH1 0x4 DUP3 ADD MSTORE PUSH1 0x24 SWAP1 REVERT JUMPDEST SWAP1 PUSH1 0x1 PUSH1 0x1 PUSH1 0xA0 SHL SUB SWAP1 DUP2 AND DUP1 ISZERO PUSH2 0x1924 JUMPI PUSH1 0x0 SWAP2 DUP5 DUP4 MSTORE DUP5 PUSH1 0x20 SWAP3 PUSH1 0x2 DUP5 MSTORE PUSH1 0x40 SWAP4 DUP4 DUP6 DUP8 KECCAK256 SLOAD AND SWAP6 DUP7 SWAP2 CALLER ISZERO ISZERO DUP1 PUSH2 0x188E JUMPI JUMPDEST POP SWAP1 PUSH1 0x2 PUSH32 0xDDF252AD1BE2C89B69C2B068FC378DAA952BA7F163C4A11628F55A4DF523B3EF SWAP3 DUP5 PUSH2 0x185B JUMPI JUMPDEST DUP6 DUP4 MSTORE PUSH1 0x3 DUP2 MSTORE DUP9 DUP4 KECCAK256 DUP1 SLOAD PUSH1 0x1 ADD SWAP1 SSTORE DUP7 DUP4 MSTORE MSTORE DUP7 DUP2 KECCAK256 DUP1 SLOAD PUSH1 0x1 PUSH1 0x1 PUSH1 0xA0 SHL SUB NOT AND DUP6 OR SWAP1 SSTORE DUP1 LOG4 DUP4 AND DUP3 SUB PUSH2 0x182D JUMPI POP POP POP POP JUMP JUMPDEST MLOAD PUSH4 0x64283D7B PUSH1 0xE0 SHL DUP2 MSTORE PUSH1 0x1 PUSH1 0x1 PUSH1 0xA0 SHL SUB SWAP3 DUP4 AND PUSH1 0x4 DUP3 ADD MSTORE PUSH1 0x24 DUP2 ADD SWAP4 SWAP1 SWAP4 MSTORE AND PUSH1 0x44 DUP3 ADD MSTORE PUSH1 0x64 SWAP1 REVERT JUMPDEST PUSH1 0x0 DUP8 DUP2 MSTORE PUSH1 0x4 PUSH1 0x20 MSTORE PUSH1 0x40 SWAP1 KECCAK256 DUP1 SLOAD PUSH1 0x1 PUSH1 0x1 PUSH1 0xA0 SHL SUB NOT AND SWAP1 SSTORE DUP5 DUP4 MSTORE PUSH1 0x3 DUP2 MSTORE DUP9 DUP4 KECCAK256 DUP1 SLOAD PUSH1 0x0 NOT ADD SWAP1 SSTORE PUSH2 0x17F5 JUMP JUMPDEST SWAP2 SWAP4 SWAP5 POP SWAP2 POP DUP1 PUSH2 0x18E3 JUMPI JUMPDEST ISZERO PUSH2 0x18AA JUMPI DUP8 SWAP3 SWAP2 DUP7 SWAP2 CODESIZE PUSH2 0x17C9 JUMP JUMPDEST DUP5 DUP9 DUP8 PUSH2 0x18C7 JUMPI PUSH1 0x24 SWAP2 MLOAD SWAP1 PUSH4 0x7E273289 PUSH1 0xE0 SHL DUP3 MSTORE PUSH1 0x4 DUP3 ADD MSTORE REVERT JUMPDEST PUSH1 0x44 SWAP2 MLOAD SWAP1 PUSH4 0x177E802F PUSH1 0xE0 SHL DUP3 MSTORE CALLER PUSH1 0x4 DUP4 ADD MSTORE PUSH1 0x24 DUP3 ADD MSTORE REVERT JUMPDEST POP CALLER DUP7 EQ DUP1 ISZERO PUSH2 0x1908 JUMPI JUMPDEST DUP1 PUSH2 0x189A JUMPI POP DUP8 DUP3 MSTORE PUSH1 0x4 DUP2 MSTORE CALLER DUP5 DUP7 DUP5 KECCAK256 SLOAD AND EQ PUSH2 0x189A JUMP JUMPDEST POP DUP6 DUP3 MSTORE PUSH1 0x5 DUP2 MSTORE DUP5 DUP3 KECCAK256 CALLER DUP4 MSTORE DUP2 MSTORE PUSH1 0xFF DUP6 DUP4 KECCAK256 SLOAD AND PUSH2 0x18EE JUMP JUMPDEST PUSH1 0x40 MLOAD PUSH4 0x32505749 PUSH1 0xE1 SHL DUP2 MSTORE PUSH1 0x0 PUSH1 0x4 DUP3 ADD MSTORE PUSH1 0x24 SWAP1 REVERT JUMPDEST SWAP2 SWAP1 PUSH2 0x194A DUP3 DUP3 DUP6 PUSH2 0x1794 JUMP JUMPDEST DUP1 EXTCODESIZE PUSH2 0x1957 JUMPI JUMPDEST POP POP POP POP JUMP JUMPDEST PUSH2 0x1999 PUSH1 0x1 DUP1 PUSH1 0xA0 SHL SUB DUP1 SWAP3 AND SWAP5 PUSH1 0x40 MLOAD SWAP4 DUP5 SWAP4 PUSH4 0xA85BD01 PUSH1 0xE1 SHL SWAP7 DUP8 DUP7 MSTORE CALLER PUSH1 0x4 DUP8 ADD MSTORE AND PUSH1 0x24 DUP6 ADD MSTORE PUSH1 0x44 DUP5 ADD MSTORE PUSH1 0x80 PUSH1 0x64 DUP5 ADD MSTORE PUSH1 0x84 DUP4 ADD SWAP1 PUSH2 0x1620 JUMP JUMPDEST SUB SWAP1 PUSH1 0x20 DUP2 PUSH1 0x0 SWAP4 DUP2 DUP6 DUP9 GAS CALL SWAP1 DUP3 SWAP1 DUP3 PUSH2 0x1A18 JUMPI JUMPDEST POP POP PUSH2 0x19E7 JUMPI DUP3 PUSH2 0x19BE PUSH2 0x1B57 JUMP JUMPDEST DUP1 MLOAD SWAP2 SWAP1 DUP3 PUSH2 0x19E0 JUMPI PUSH1 0x40 MLOAD PUSH4 0x32505749 PUSH1 0xE1 SHL DUP2 MSTORE PUSH1 0x4 DUP2 ADD DUP4 SWAP1 MSTORE PUSH1 0x24 SWAP1 REVERT JUMPDEST SWAP1 POP PUSH1 0x20 ADD REVERT JUMPDEST PUSH1 0x1 PUSH1 0x1 PUSH1 0xE0 SHL SUB NOT AND SUB PUSH2 0x1A00 JUMPI POP CODESIZE DUP1 DUP1 DUP1 PUSH2 0x1951 JUMP JUMPDEST PUSH1 0x24 SWAP1 PUSH1 0x40 MLOAD SWAP1 PUSH4 0x32505749 PUSH1 0xE1 SHL DUP3 MSTORE PUSH1 0x4 DUP3 ADD MSTORE REVERT JUMPDEST SWAP1 SWAP2 SWAP3 POP PUSH1 0x20 DUP2 RETURNDATASIZE DUP3 GT PUSH2 0x1A58 JUMPI JUMPDEST DUP2 PUSH2 0x1A34 PUSH1 0x20 SWAP4 DUP4 PUSH2 0x172A JUMP JUMPDEST DUP2 ADD SUB SLT PUSH2 0x300 JUMPI MLOAD SWAP1 PUSH1 0x1 PUSH1 0x1 PUSH1 0xE0 SHL SUB NOT DUP3 AND DUP3 SUB PUSH2 0xB53 JUMPI POP SWAP1 CODESIZE DUP1 PUSH2 0x19AF JUMP JUMPDEST RETURNDATASIZE SWAP2 POP PUSH2 0x1A27 JUMP JUMPDEST PUSH1 0x0 DUP3 DUP2 MSTORE PUSH1 0x2 PUSH1 0x20 MSTORE PUSH1 0x40 DUP2 KECCAK256 SLOAD PUSH1 0x1 PUSH1 0x1 PUSH1 0xA0 SHL SUB SWAP1 DUP2 AND SWAP4 SWAP3 DUP5 SWAP2 PUSH32 0xDDF252AD1BE2C89B69C2B068FC378DAA952BA7F163C4A11628F55A4DF523B3EF SWAP2 DUP4 PUSH2 0x1AE7 JUMPI JUMPDEST AND SWAP3 DUP4 PUSH2 0x1ACF JUMPI JUMPDEST DUP5 DUP2 MSTORE PUSH1 0x2 PUSH1 0x20 MSTORE PUSH1 0x40 DUP2 KECCAK256 DUP1 SLOAD PUSH1 0x1 PUSH1 0x1 PUSH1 0xA0 SHL SUB NOT AND DUP6 OR SWAP1 SSTORE DUP1 LOG4 SWAP1 JUMP JUMPDEST DUP4 DUP2 MSTORE PUSH1 0x3 PUSH1 0x20 MSTORE PUSH1 0x40 DUP2 KECCAK256 PUSH1 0x1 DUP2 SLOAD ADD SWAP1 SSTORE PUSH2 0x1AAE JUMP JUMPDEST PUSH1 0x0 DUP7 DUP2 MSTORE PUSH1 0x4 PUSH1 0x20 MSTORE PUSH1 0x40 SWAP1 KECCAK256 DUP1 SLOAD PUSH1 0x1 PUSH1 0x1 PUSH1 0xA0 SHL SUB NOT AND SWAP1 SSTORE DUP4 DUP6 MSTORE PUSH1 0x3 PUSH1 0x20 MSTORE PUSH1 0x40 DUP6 KECCAK256 DUP1 SLOAD PUSH1 0x0 NOT ADD SWAP1 SSTORE PUSH2 0x1AA6 JUMP JUMPDEST PUSH1 0x0 DUP2 DUP2 MSTORE PUSH1 0x2 PUSH1 0x20 MSTORE PUSH1 0x40 SWAP1 KECCAK256 SLOAD PUSH1 0x1 PUSH1 0x1 PUSH1 0xA0 SHL SUB AND SWAP1 DUP2 ISZERO PUSH2 0x1B3F JUMPI POP SWAP1 JUMP JUMPDEST PUSH1 0x24 SWAP1 PUSH1 0x40 MLOAD SWAP1 PUSH4 0x7E273289 PUSH1 0xE0 SHL DUP3 MSTORE PUSH1 0x4 DUP3 ADD MSTORE REVERT JUMPDEST RETURNDATASIZE ISZERO PUSH2 0x1B82 JUMPI RETURNDATASIZE SWAP1 PUSH2 0x1B68 DUP3 PUSH2 0x174C JUMP JUMPDEST SWAP2 PUSH2 0x1B76 PUSH1 0x40 MLOAD SWAP4 DUP5 PUSH2 0x172A JUMP JUMPDEST DUP3 MSTORE RETURNDATASIZE PUSH1 0x0 PUSH1 0x20 DUP5 ADD RETURNDATACOPY JUMP JUMPDEST PUSH1 0x60 SWAP1 JUMP JUMPDEST ISZERO PUSH2 0x1B8E JUMPI JUMP JUMPDEST PUSH1 0x40 MLOAD PUSH3 0x461BCD PUSH1 0xE5 SHL DUP2 MSTORE PUSH1 0x20 PUSH1 0x4 DUP3 ADD MSTORE PUSH1 0x10 PUSH1 0x24 DUP3 ADD MSTORE PUSH16 0x4576656E74206E6F7420616374697665 PUSH1 0x80 SHL PUSH1 0x44 DUP3 ADD MSTORE PUSH1 0x64 SWAP1 REVERT JUMPDEST ISZERO PUSH2 0x1BCD JUMPI JUMP JUMPDEST PUSH1 0x40 MLOAD PUSH3 0x461BCD PUSH1 0xE5 SHL DUP2 MSTORE PUSH1 0x20 PUSH1 0x4 DUP3 ADD MSTORE PUSH1 0xE PUSH1 0x24 DUP3 ADD MSTORE PUSH14 0x115D995B9D081CDBDB19081BDD5D PUSH1 0x92 SHL PUSH1 0x44 DUP3 ADD MSTORE PUSH1 0x64 SWAP1 REVERT JUMPDEST PUSH1 0x0 NOT DUP2 EQ PUSH2 0x1C12 JUMPI PUSH1 0x1 ADD SWAP1 JUMP JUMPDEST PUSH4 0x4E487B71 PUSH1 0xE0 SHL PUSH1 0x0 MSTORE PUSH1 0x11 PUSH1 0x4 MSTORE PUSH1 0x24 PUSH1 0x0 REVERT JUMPDEST SWAP1 DUP2 PUSH1 0x20 SWAP2 SUB SLT PUSH2 0x1676 JUMPI MLOAD DUP1 ISZERO ISZERO DUP2 SUB PUSH2 0x1676 JUMPI SWAP1 JUMP JUMPDEST PUSH1 0x1 PUSH1 0x1 PUSH1 0xA0 SHL SUB SWAP2 DUP2 DUP4 AND ISZERO PUSH2 0x1924 JUMPI PUSH2 0x1C5A SWAP2 PUSH2 0x1A60 JUMP JUMPDEST AND PUSH2 0x1C61 JUMPI JUMP JUMPDEST PUSH1 0x40 MLOAD PUSH4 0x39E35637 PUSH1 0xE1 SHL DUP2 MSTORE PUSH1 0x0 PUSH1 0x4 DUP3 ADD MSTORE PUSH1 0x24 SWAP1 REVERT JUMPDEST ISZERO PUSH2 0x1C81 JUMPI JUMP JUMPDEST PUSH1 0x40 MLOAD PUSH3 0x461BCD PUSH1 0xE5 SHL DUP2 MSTORE PUSH1 0x20 PUSH1 0x4 DUP3 ADD MSTORE PUSH1 0x14 PUSH1 0x24 DUP3 ADD MSTORE PUSH20 0x125B9CDD59999A58DA595B9D081C185E5B595B9D PUSH1 0x62 SHL PUSH1 0x44 DUP3 ADD MSTORE PUSH1 0x64 SWAP1 REVERT JUMPDEST SWAP2 SWAP1 DUP3 SUB SWAP2 DUP3 GT PUSH2 0x1C12 JUMPI JUMP JUMPDEST ISZERO PUSH2 0x1CD1 JUMPI JUMP JUMPDEST PUSH1 0x40 MLOAD PUSH3 0x461BCD PUSH1 0xE5 SHL DUP2 MSTORE PUSH1 0x20 PUSH1 0x4 DUP3 ADD MSTORE PUSH1 0x1C PUSH1 0x24 DUP3 ADD MSTORE PUSH32 0x506C6174666F726D20666565207472616E73666572206661696C656400000000 PUSH1 0x44 DUP3 ADD MSTORE PUSH1 0x64 SWAP1 REVERT JUMPDEST PUSH1 0x2 PUSH1 0x7 SLOAD EQ PUSH2 0x1D27 JUMPI PUSH1 0x2 PUSH1 0x7 SSTORE JUMP JUMPDEST PUSH1 0x40 MLOAD PUSH4 0x3EE5AEB5 PUSH1 0xE0 SHL DUP2 MSTORE PUSH1 0x4 SWAP1 REVERT JUMPDEST ISZERO PUSH2 0x1D40 JUMPI JUMP JUMPDEST PUSH1 0x40 MLOAD PUSH3 0x461BCD PUSH1 0xE5 SHL DUP2 MSTORE PUSH1 0x20 PUSH1 0x4 DUP3 ADD MSTORE PUSH1 0xB PUSH1 0x24 DUP3 ADD MSTORE PUSH11 0x151A58DAD95D081D5CD959 PUSH1 0xAA SHL PUSH1 0x44 DUP3 ADD MSTORE PUSH1 0x64 SWAP1 REVERT INVALID LOG2 PUSH5 0x6970667358 0x22 SLT KECCAK256 0xA7 SWAP2 0xB7 EXTCODECOPY JUMPDEST GASPRICE 0xDB DUP15 SWAP1 0xAF SWAP1 PUSH25 0xC7F97D61DA567D6FEDEE2AEFE8F8FD557A06ED9064736F6C63 NUMBER STOP ADDMOD EQ STOP CALLER "},"methodIdentifiers":{"MAX_RESALE_MARKUP()":"0847112a","PLATFORM_FEE_PERCENTAGE()":"15548232","approve(address,uint256)":"095ea7b3","balanceOf(address)":"70a08231","createEvent(uint256,uint256,uint256)":"f6143d85","events(uint256)":"0b791430","getApproved(uint256)":"081812fc","getTicketDetails(uint256)":"24c14160","getWaitlistCount(uint256)":"84a95047","isApprovedForAll(address,address)":"e985e9c5","issueTicket(address,uint256,uint256)":"e250243a","listForResale(uint256,uint256)":"1f7d863c","name()":"06fdde03","owner()":"8da5cb5b","ownerOf(uint256)":"6352211e","purchaseResaleTicket(uint256)":"3fc4a060","purchaseTicket(uint256,uint256)":"bdbbb0cb","renounceOwnership()":"715018a6","safeTransferFrom(address,address,uint256)":"42842e0e","safeTransferFrom(address,address,uint256,bytes)":"b88d4fde","setApprovalForAll(address,bool)":"a22cb465","setWaitlistManager(address)":"5f0290e3","supportsInterface(bytes4)":"01ffc9a7","symbol()":"95d89b41","tickets(uint256)":"50b44712","tokenURI(uint256)":"c87b56dd","transferFrom(address,address,uint256)":"23b872dd","transferOwnership(address)":"f2fde38b","useTicket(uint256)":"26606448","waitlistManager()":"753a35cb"}}}}}