{"contracts/core/ConditionalFundsEscrow.sol":{"ConditionalFundsEscrow":{"abi":[{"inputs":[{"internalType":"address","name":"eventManagerAddress","type":"address"}],"stateMutability":"nonpayable","type":"constructor"},{"inputs":[],"name":"EnforcedPause","type":"error"},{"inputs":[],"name":"ExpectedPause","type":"error"},{"inputs":[{"internalType":"address","name":"owner","type":"address"}],"name":"OwnableInvalidOwner","type":"error"},{"inputs":[{"internalType":"address","name":"account","type":"address"}],"name":"OwnableUnauthorizedAccount","type":"error"},{"inputs":[],"name":"ReentrancyGuardReentrantCall","type":"error"},{"anonymous":false,"inputs":[{"indexed":true,"internalType":"address","name":"previousOwner","type":"address"},{"indexed":true,"internalType":"address","name":"newOwner","type":"address"}],"name":"OwnershipTransferred","type":"event"},{"anonymous":false,"inputs":[{"indexed":false,"internalType":"address","name":"account","type":"address"}],"name":"Paused","type":"event"},{"anonymous":false,"inputs":[{"indexed":true,"internalType":"uint256","name":"eventId","type":"uint256"},{"indexed":true,"internalType":"address","name":"payer","type":"address"},{"indexed":false,"internalType":"uint256","name":"amount","type":"uint256"}],"name":"PaymentDeposited","type":"event"},{"anonymous":false,"inputs":[{"indexed":true,"internalType":"uint256","name":"eventId","type":"uint256"},{"indexed":true,"internalType":"address","name":"payer","type":"address"},{"indexed":false,"internalType":"uint256","name":"amount","type":"uint256"}],"name":"PaymentRefunded","type":"event"},{"anonymous":false,"inputs":[{"indexed":true,"internalType":"uint256","name":"eventId","type":"uint256"},{"indexed":true,"internalType":"address","name":"payer","type":"address"},{"indexed":false,"internalType":"uint256","name":"amount","type":"uint256"}],"name":"PaymentReleased","type":"event"},{"anonymous":false,"inputs":[{"indexed":false,"internalType":"address","name":"account","type":"address"}],"name":"Unpaused","type":"event"},{"anonymous":false,"inputs":[{"indexed":true,"internalType":"uint256","name":"eventId","type":"uint256"},{"indexed":true,"internalType":"uint256","name":"ticketId","type":"uint256"}],"name":"WaitlistRefundEnabled","type":"event"},{"inputs":[{"internalType":"uint256","name":"eventId","type":"uint256"},{"internalType":"uint256","name":"ticketId","type":"uint256"}],"name":"depositPayment","outputs":[],"stateMutability":"payable","type":"function"},{"inputs":[{"internalType":"uint256","name":"eventId","type":"uint256"},{"internalType":"uint256","name":"ticketId","type":"uint256"}],"name":"enableWaitlistRefund","outputs":[],"stateMutability":"nonpayable","type":"function"},{"inputs":[{"internalType":"uint256","name":"eventId","type":"uint256"},{"internalType":"uint256","name":"ticketId","type":"uint256"}],"name":"getPaymentAmount","outputs":[{"internalType":"uint256","name":"","type":"uint256"}],"stateMutability":"view","type":"function"},{"inputs":[{"internalType":"uint256","name":"eventId","type":"uint256"},{"internalType":"uint256","name":"ticketId","type":"uint256"}],"name":"getPaymentStatus","outputs":[{"internalType":"enum IConditionalFundsEscrow.PaymentStatus","name":"","type":"uint8"}],"stateMutability":"view","type":"function"},{"inputs":[],"name":"owner","outputs":[{"internalType":"address","name":"","type":"address"}],"stateMutability":"view","type":"function"},{"inputs":[],"name":"pause","outputs":[],"stateMutability":"nonpayable","type":"function"},{"inputs":[],"name":"paused","outputs":[{"internalType":"bool","name":"","type":"bool"}],"stateMutability":"view","type":"function"},{"inputs":[{"internalType":"uint256","name":"eventId","type":"uint256"},{"internalType":"uint256","name":"ticketId","type":"uint256"}],"name":"refundPayment","outputs":[],"stateMutability":"nonpayable","type":"function"},{"inputs":[{"internalType":"uint256","name":"eventId","type":"uint256"},{"internalType":"uint256","name":"ticketId","type":"uint256"}],"name":"releasePayment","outputs":[],"stateMutability":"nonpayable","type":"function"},{"inputs":[],"name":"renounceOwnership","outputs":[],"stateMutability":"nonpayable","type":"function"},{"inputs":[{"internalType":"address","name":"newOwner","type":"address"}],"name":"transferOwnership","outputs":[],"stateMutability":"nonpayable","type":"function"},{"inputs":[],"name":"unpause","outputs":[],"stateMutability":"nonpayable","type":"function"},{"inputs":[],"name":"withdrawStuckFunds","outputs":[],"stateMutability":"nonpayable","type":"function"}],"evm":{"bytecode":{"linkReferences":{},"object":"60a03461011f57601f610ca138819003918201601f19168301916001600160401b038311848410176101245780849260209460405283398101031261011f57516001600160a01b0380821680830361011f573315610106576000543360018060a01b0319821617600055604051923391167f8be0079c531659141344cd1fd0a4f28419497f9722a3daafe3b4186f6b6457e0600080a36001805560ff1960025416600255156100c45750608052604051610b66908161013b82396080518161037b0152f35b62461bcd60e51b815260206004820152601c60248201527f496e76616c6964204576656e744d616e616765722061646472657373000000006044820152606490fd5b604051631e4fbdf760e01b815260006004820152602490fd5b600080fd5b634e487b7160e01b600052604160045260246000fdfe60406080815260048036101561001457600080fd5b600091823560e01c80632f62582c146109055780633f4ba83a1461089b5780635c975abb1461087757806366e008f814610848578063715018a6146107eb57806378c5e06d146107985780638456cb591461073d5780638da5cb5b1461071557806395144dc41461060857806397e99a801461034e5780639bdc727c146101b1578063c5b60a481461013f5763f2fde38b146100af57600080fd5b3461013b57602036600319011261013b576001600160a01b03823581811693919290849003610137576100e06109ca565b831561012157505082546001600160a01b0319811683178455167f8be0079c531659141344cd1fd0a4f28419497f9722a3daafe3b4186f6b6457e08380a380f35b51631e4fbdf760e01b8152908101849052602490fd5b8480fd5b8280fd5b503461013b578260031936011261013b576101586109ca565b8280808060018060a01b0381541647905af1610172610ab4565b501561017c578280f35b906020606492519162461bcd60e51b8352820152600f60248201526e151c985b9cd9995c8819985a5b1959608a1b6044820152fd5b5082906101bd366109af565b916101c6610a4c565b6101ce610a2e565b3415610319578184526003602090815281852084865281528185205490936001600160a01b039182166102e55782516080810181811067ffffffffffffffff8211176102d2579060029185523381528681013481528582019489865260608301948a8652888b5260038a52878b20908b528952868a209251166bffffffffffffffffffffffff60a01b8354161782555160018201550191519060038210156102bf5790829160ff61ff007f71284872bb4c088a81295dff2513729babbccfeda38a8d824bb1a73bcaab494e9695549251151560081b1692169061ffff19161717905551923484523393a36001805580f35b634e487b7160e01b875260218852602487fd5b634e487b7160e01b885260418952602488fd5b825162461bcd60e51b8152808801869052600e60248201526d5061796d656e742065786973747360901b6044820152606490fd5b5162461bcd60e51b8152602081860152601060248201526f14185e5b595b9d081c995c5d5a5c995960821b6044820152606490fd5b508290346106045761035f366109af565b9091610369610a4c565b610371610a2e565b6001600160a01b037f0000000000000000000000000000000000000000000000000000000000000000811695338790036105c1578486526020936003855283872090875284528286209060028201805460ff811660038110156105ae576103d89015610a6f565b8551631b11429360e31b815283810189905287816024818e5afa9081156105a4578a9161056a575b501561051b5760ff1916600117905583516329260ad160e11b815281810187905296978590889060249082905afa9687156105115788976104d5575b5087808080600186019a878c5491165af1610455610ab4565b50156104925750907f21d71db5be59bb9fa133895586b7404307dd33fb93b16db09dc6f1d9d7d231b0939291541694549051908152a36001805580f35b835162461bcd60e51b8152908101859052601760248201527f52656c65617365207472616e73666572206661696c65640000000000000000006044820152606490fd5b9096508481813d831161050a575b6104ed81836109f6565b810103126105065751828116810361050657958861043c565b8780fd5b503d6104e3565b84513d8a823e3d90fd5b855162461bcd60e51b81528084018890526024808201527f4576656e7420636f6e646974696f6e73206e6f74206d657420666f722072656c6044820152636561736560e01b6064820152608490fd5b90508781813d831161059d575b61058181836109f6565b8101031261059957518015158103610599578b610400565b8980fd5b503d610577565b87513d8c823e3d90fd5b634e487b7160e01b8a526021845260248afd5b606490602084519162461bcd60e51b8352820152601a60248201527f4f6e6c79204576656e744d616e616765722063616e2063616c6c0000000000006044820152fd5b5080fd5b503461013b57610617366109af565b610622929192610a4c565b61062a610a2e565b8285526003602052818520908552602052808420926002840180549460ff861660038110156107025760029161066260019215610a6f565b610675828060a01b038254163314610af4565b01549560ff19161790558480808087335af161068f610ab4565b50156106c75750519182527fe89ec1881a76229445bcd179b8c4b24f9edc7ddd87d07fb3b19c67ae9c6e27cc60203393a36001805580f35b6020606492519162461bcd60e51b835282015260166024820152751499599d5b99081d1c985b9cd9995c8819985a5b195960521b6044820152fd5b634e487b7160e01b885260218452602488fd5b838234610604578160031936011261060457905490516001600160a01b039091168152602090f35b83823461060457816003193601126106045760207f62e78cea01bee320cd4e420270b5ea74000d11b0c9f74754ebdbfc544b05a2589161077b6109ca565b610783610a2e565b600160ff19600254161760025551338152a180f35b50829034610604576107a9366109af565b908352600360205281832090835260205260ff600282842001541690519160038210156107d857602083838152f35b634e487b7160e01b815260218452602490fd5b83346108455780600319360112610845576108046109ca565b80546001600160a01b03198116825581906001600160a01b03167f8be0079c531659141344cd1fd0a4f28419497f9722a3daafe3b4186f6b6457e08280a380f35b80fd5b8382346106045760018160209361085e366109af565b9082526003865282822090825285522001549051908152f35b83823461060457816003193601126106045760209060ff6002541690519015158152f35b50903461013b578260031936011261013b576108b56109ca565b6002549060ff8216156108f7575060ff1916600255513381527f5db9ee0a495bf2e6ff9c91a7834c1ba4fdd244a5e8aa4e537bd38aeae4b073aa90602090a180f35b8251638dfc202b60e01b8152fd5b503461013b57610914366109af565b92909161091f610a2e565b8285526003602052808520848652602052842090600282019182549160ff831690600382101561099c5750610100929161095c61096d9215610a6f565b546001600160a01b03163314610af4565b61ff0019161790557f42a333aa9f5e83ed874e2c82d84df396c2a89c4ad056bc332d38ba044bbe8bba8380a380f35b634e487b7160e01b885260219052602487fd5b60409060031901126109c5576004359060243590565b600080fd5b6000546001600160a01b031633036109de57565b60405163118cdaa760e01b8152336004820152602490fd5b90601f8019910116810190811067ffffffffffffffff821117610a1857604052565b634e487b7160e01b600052604160045260246000fd5b60ff60025416610a3a57565b60405163d93c066560e01b8152600490fd5b600260015414610a5d576002600155565b604051633ee5aeb560e01b8152600490fd5b15610a7657565b60405162461bcd60e51b8152602060048201526016602482015275496e76616c6964207061796d656e742073746174757360501b6044820152606490fd5b3d15610aef573d9067ffffffffffffffff8211610a185760405191610ae3601f8201601f1916602001846109f6565b82523d6000602084013e565b606090565b15610afb57565b60405162461bcd60e51b815260206004820152600d60248201526c2737ba103a3432903830bcb2b960991b6044820152606490fdfea2646970667358221220a1c5fded22c46ecc202829def394996f86024a996ae7f5e4344b3a4383de523464736f6c63430008140033","opcodes":"PUSH1 0xA0 CALLVALUE PUSH2 0x11F JUMPI PUSH1 0x1F PUSH2 0xCA1 CODESIZE DUP2 SWAP1 SUB SWAP2 DUP3 ADD PUSH1 0x1F NOT AND DUP4 ADD SWAP2 PUSH1 0x1 PUSH1 0x1 PUSH1 0x40 SHL SUB DUP4 GT DUP5 DUP5 LT OR PUSH2 0x124 JUMPI DUP1 DUP5 SWAP3 PUSH1 0x20 SWAP5 PUSH1 0x40 MSTORE DUP4 CODECOPY DUP2 ADD SUB SLT PUSH2 0x11F JUMPI MLOAD PUSH1 0x1 PUSH1 0x1 PUSH1 0xA0 SHL SUB DUP1 DUP3 AND DUP1 DUP4 SUB PUSH2 0x11F JUMPI CALLER ISZERO PUSH2 0x106 JUMPI PUSH1 0x0 SLOAD CALLER PUSH1 0x1 DUP1 PUSH1 0xA0 SHL SUB NOT DUP3 AND OR PUSH1 0x0 SSTORE PUSH1 0x40 MLOAD SWAP3 CALLER SWAP2 AND PUSH32 0x8BE0079C531659141344CD1FD0A4F28419497F9722A3DAAFE3B4186F6B6457E0 PUSH1 0x0 DUP1 LOG3 PUSH1 0x1 DUP1 SSTORE PUSH1 0xFF NOT PUSH1 0x2 SLOAD AND PUSH1 0x2 SSTORE ISZERO PUSH2 0xC4 JUMPI POP PUSH1 0x80 MSTORE PUSH1 0x40 MLOAD PUSH2 0xB66 SWAP1 DUP2 PUSH2 0x13B DUP3 CODECOPY PUSH1 0x80 MLOAD DUP2 PUSH2 0x37B ADD MSTORE RETURN JUMPDEST PUSH3 0x461BCD PUSH1 0xE5 SHL DUP2 MSTORE PUSH1 0x20 PUSH1 0x4 DUP3 ADD MSTORE PUSH1 0x1C PUSH1 0x24 DUP3 ADD MSTORE PUSH32 0x496E76616C6964204576656E744D616E61676572206164647265737300000000 PUSH1 0x44 DUP3 ADD MSTORE PUSH1 0x64 SWAP1 REVERT JUMPDEST PUSH1 0x40 MLOAD PUSH4 0x1E4FBDF7 PUSH1 0xE0 SHL DUP2 MSTORE PUSH1 0x0 PUSH1 0x4 DUP3 ADD MSTORE PUSH1 0x24 SWAP1 REVERT JUMPDEST PUSH1 0x0 DUP1 REVERT JUMPDEST PUSH4 0x4E487B71 PUSH1 0xE0 SHL PUSH1 0x0 MSTORE PUSH1 0x41 PUSH1 0x4 MSTORE PUSH1 0x24 PUSH1 0x0 REVERT INVALID PUSH1 0x40 PUSH1 0x80 DUP2 MSTORE PUSH1 0x4 DUP1 CALLDATASIZE LT ISZERO PUSH2 0x14 JUMPI PUSH1 0x0 DUP1 REVERT JUMPDEST PUSH1 0x0 SWAP2 DUP3 CALLDATALOAD PUSH1 0xE0 SHR DUP1 PUSH4 0x2F62582C EQ PUSH2 0x905 JUMPI DUP1 PUSH4 0x3F4BA83A EQ PUSH2 0x89B JUMPI DUP1 PUSH4 0x5C975ABB EQ PUSH2 0x877 JUMPI DUP1 PUSH4 0x66E008F8 EQ PUSH2 0x848 JUMPI DUP1 PUSH4 0x715018A6 EQ PUSH2 0x7EB JUMPI DUP1 PUSH4 0x78C5E06D EQ PUSH2 0x798 JUMPI DUP1 PUSH4 0x8456CB59 EQ PUSH2 0x73D JUMPI DUP1 PUSH4 0x8DA5CB5B EQ PUSH2 0x715 JUMPI DUP1 PUSH4 0x95144DC4 EQ PUSH2 0x608 JUMPI DUP1 PUSH4 0x97E99A80 EQ PUSH2 0x34E JUMPI DUP1 PUSH4 0x9BDC727C EQ PUSH2 0x1B1 JUMPI DUP1 PUSH4 0xC5B60A48 EQ PUSH2 0x13F JUMPI PUSH4 0xF2FDE38B EQ PUSH2 0xAF JUMPI PUSH1 0x0 DUP1 REVERT JUMPDEST CALLVALUE PUSH2 0x13B JUMPI PUSH1 0x20 CALLDATASIZE PUSH1 0x3 NOT ADD SLT PUSH2 0x13B JUMPI PUSH1 0x1 PUSH1 0x1 PUSH1 0xA0 SHL SUB DUP3 CALLDATALOAD DUP2 DUP2 AND SWAP4 SWAP2 SWAP3 SWAP1 DUP5 SWAP1 SUB PUSH2 0x137 JUMPI PUSH2 0xE0 PUSH2 0x9CA JUMP JUMPDEST DUP4 ISZERO PUSH2 0x121 JUMPI POP POP DUP3 SLOAD PUSH1 0x1 PUSH1 0x1 PUSH1 0xA0 SHL SUB NOT DUP2 AND DUP4 OR DUP5 SSTORE AND PUSH32 0x8BE0079C531659141344CD1FD0A4F28419497F9722A3DAAFE3B4186F6B6457E0 DUP4 DUP1 LOG3 DUP1 RETURN JUMPDEST MLOAD PUSH4 0x1E4FBDF7 PUSH1 0xE0 SHL DUP2 MSTORE SWAP1 DUP2 ADD DUP5 SWAP1 MSTORE PUSH1 0x24 SWAP1 REVERT JUMPDEST DUP5 DUP1 REVERT JUMPDEST DUP3 DUP1 REVERT JUMPDEST POP CALLVALUE PUSH2 0x13B JUMPI DUP3 PUSH1 0x3 NOT CALLDATASIZE ADD SLT PUSH2 0x13B JUMPI PUSH2 0x158 PUSH2 0x9CA JUMP JUMPDEST DUP3 DUP1 DUP1 DUP1 PUSH1 0x1 DUP1 PUSH1 0xA0 SHL SUB DUP2 SLOAD AND SELFBALANCE SWAP1 GAS CALL PUSH2 0x172 PUSH2 0xAB4 JUMP JUMPDEST POP ISZERO PUSH2 0x17C JUMPI DUP3 DUP1 RETURN JUMPDEST SWAP1 PUSH1 0x20 PUSH1 0x64 SWAP3 MLOAD SWAP2 PUSH3 0x461BCD PUSH1 0xE5 SHL DUP4 MSTORE DUP3 ADD MSTORE PUSH1 0xF PUSH1 0x24 DUP3 ADD MSTORE PUSH15 0x151C985B9CD9995C8819985A5B1959 PUSH1 0x8A SHL PUSH1 0x44 DUP3 ADD MSTORE REVERT JUMPDEST POP DUP3 SWAP1 PUSH2 0x1BD CALLDATASIZE PUSH2 0x9AF JUMP JUMPDEST SWAP2 PUSH2 0x1C6 PUSH2 0xA4C JUMP JUMPDEST PUSH2 0x1CE PUSH2 0xA2E JUMP JUMPDEST CALLVALUE ISZERO PUSH2 0x319 JUMPI DUP2 DUP5 MSTORE PUSH1 0x3 PUSH1 0x20 SWAP1 DUP2 MSTORE DUP2 DUP6 KECCAK256 DUP5 DUP7 MSTORE DUP2 MSTORE DUP2 DUP6 KECCAK256 SLOAD SWAP1 SWAP4 PUSH1 0x1 PUSH1 0x1 PUSH1 0xA0 SHL SUB SWAP2 DUP3 AND PUSH2 0x2E5 JUMPI DUP3 MLOAD PUSH1 0x80 DUP2 ADD DUP2 DUP2 LT PUSH8 0xFFFFFFFFFFFFFFFF DUP3 GT OR PUSH2 0x2D2 JUMPI SWAP1 PUSH1 0x2 SWAP2 DUP6 MSTORE CALLER DUP2 MSTORE DUP7 DUP2 ADD CALLVALUE DUP2 MSTORE DUP6 DUP3 ADD SWAP5 DUP10 DUP7 MSTORE PUSH1 0x60 DUP4 ADD SWAP5 DUP11 DUP7 MSTORE DUP9 DUP12 MSTORE PUSH1 0x3 DUP11 MSTORE DUP8 DUP12 KECCAK256 SWAP1 DUP12 MSTORE DUP10 MSTORE DUP7 DUP11 KECCAK256 SWAP3 MLOAD AND PUSH12 0xFFFFFFFFFFFFFFFFFFFFFFFF PUSH1 0xA0 SHL DUP4 SLOAD AND OR DUP3 SSTORE MLOAD PUSH1 0x1 DUP3 ADD SSTORE ADD SWAP2 MLOAD SWAP1 PUSH1 0x3 DUP3 LT ISZERO PUSH2 0x2BF JUMPI SWAP1 DUP3 SWAP2 PUSH1 0xFF PUSH2 0xFF00 PUSH32 0x71284872BB4C088A81295DFF2513729BABBCCFEDA38A8D824BB1A73BCAAB494E SWAP7 SWAP6 SLOAD SWAP3 MLOAD ISZERO ISZERO PUSH1 0x8 SHL AND SWAP3 AND SWAP1 PUSH2 0xFFFF NOT AND OR OR SWAP1 SSTORE MLOAD SWAP3 CALLVALUE DUP5 MSTORE CALLER SWAP4 LOG3 PUSH1 0x1 DUP1 SSTORE DUP1 RETURN JUMPDEST PUSH4 0x4E487B71 PUSH1 0xE0 SHL DUP8 MSTORE PUSH1 0x21 DUP9 MSTORE PUSH1 0x24 DUP8 REVERT JUMPDEST PUSH4 0x4E487B71 PUSH1 0xE0 SHL DUP9 MSTORE PUSH1 0x41 DUP10 MSTORE PUSH1 0x24 DUP9 REVERT JUMPDEST DUP3 MLOAD PUSH3 0x461BCD PUSH1 0xE5 SHL DUP2 MSTORE DUP1 DUP9 ADD DUP7 SWAP1 MSTORE PUSH1 0xE PUSH1 0x24 DUP3 ADD MSTORE PUSH14 0x5061796D656E7420657869737473 PUSH1 0x90 SHL PUSH1 0x44 DUP3 ADD MSTORE PUSH1 0x64 SWAP1 REVERT JUMPDEST MLOAD PUSH3 0x461BCD PUSH1 0xE5 SHL DUP2 MSTORE PUSH1 0x20 DUP2 DUP7 ADD MSTORE PUSH1 0x10 PUSH1 0x24 DUP3 ADD MSTORE PUSH16 0x14185E5B595B9D081C995C5D5A5C9959 PUSH1 0x82 SHL PUSH1 0x44 DUP3 ADD MSTORE PUSH1 0x64 SWAP1 REVERT JUMPDEST POP DUP3 SWAP1 CALLVALUE PUSH2 0x604 JUMPI PUSH2 0x35F CALLDATASIZE PUSH2 0x9AF JUMP JUMPDEST SWAP1 SWAP2 PUSH2 0x369 PUSH2 0xA4C JUMP JUMPDEST PUSH2 0x371 PUSH2 0xA2E JUMP JUMPDEST PUSH1 0x1 PUSH1 0x1 PUSH1 0xA0 SHL SUB PUSH32 0x0 DUP2 AND SWAP6 CALLER DUP8 SWAP1 SUB PUSH2 0x5C1 JUMPI DUP5 DUP7 MSTORE PUSH1 0x20 SWAP4 PUSH1 0x3 DUP6 MSTORE DUP4 DUP8 KECCAK256 SWAP1 DUP8 MSTORE DUP5 MSTORE DUP3 DUP7 KECCAK256 SWAP1 PUSH1 0x2 DUP3 ADD DUP1 SLOAD PUSH1 0xFF DUP2 AND PUSH1 0x3 DUP2 LT ISZERO PUSH2 0x5AE JUMPI PUSH2 0x3D8 SWAP1 ISZERO PUSH2 0xA6F JUMP JUMPDEST DUP6 MLOAD PUSH4 0x1B114293 PUSH1 0xE3 SHL DUP2 MSTORE DUP4 DUP2 ADD DUP10 SWAP1 MSTORE DUP8 DUP2 PUSH1 0x24 DUP2 DUP15 GAS STATICCALL SWAP1 DUP2 ISZERO PUSH2 0x5A4 JUMPI DUP11 SWAP2 PUSH2 0x56A JUMPI JUMPDEST POP ISZERO PUSH2 0x51B JUMPI PUSH1 0xFF NOT AND PUSH1 0x1 OR SWAP1 SSTORE DUP4 MLOAD PUSH4 0x29260AD1 PUSH1 0xE1 SHL DUP2 MSTORE DUP2 DUP2 ADD DUP8 SWAP1 MSTORE SWAP7 SWAP8 DUP6 SWAP1 DUP9 SWAP1 PUSH1 0x24 SWAP1 DUP3 SWAP1 GAS STATICCALL SWAP7 DUP8 ISZERO PUSH2 0x511 JUMPI DUP9 SWAP8 PUSH2 0x4D5 JUMPI JUMPDEST POP DUP8 DUP1 DUP1 DUP1 PUSH1 0x1 DUP7 ADD SWAP11 DUP8 DUP13 SLOAD SWAP2 AND GAS CALL PUSH2 0x455 PUSH2 0xAB4 JUMP JUMPDEST POP ISZERO PUSH2 0x492 JUMPI POP SWAP1 PUSH32 0x21D71DB5BE59BB9FA133895586B7404307DD33FB93B16DB09DC6F1D9D7D231B0 SWAP4 SWAP3 SWAP2 SLOAD AND SWAP5 SLOAD SWAP1 MLOAD SWAP1 DUP2 MSTORE LOG3 PUSH1 0x1 DUP1 SSTORE DUP1 RETURN JUMPDEST DUP4 MLOAD PUSH3 0x461BCD PUSH1 0xE5 SHL DUP2 MSTORE SWAP1 DUP2 ADD DUP6 SWAP1 MSTORE PUSH1 0x17 PUSH1 0x24 DUP3 ADD MSTORE PUSH32 0x52656C65617365207472616E73666572206661696C6564000000000000000000 PUSH1 0x44 DUP3 ADD MSTORE PUSH1 0x64 SWAP1 REVERT JUMPDEST SWAP1 SWAP7 POP DUP5 DUP2 DUP2 RETURNDATASIZE DUP4 GT PUSH2 0x50A JUMPI JUMPDEST PUSH2 0x4ED DUP2 DUP4 PUSH2 0x9F6 JUMP JUMPDEST DUP2 ADD SUB SLT PUSH2 0x506 JUMPI MLOAD DUP3 DUP2 AND DUP2 SUB PUSH2 0x506 JUMPI SWAP6 DUP9 PUSH2 0x43C JUMP JUMPDEST DUP8 DUP1 REVERT JUMPDEST POP RETURNDATASIZE PUSH2 0x4E3 JUMP JUMPDEST DUP5 MLOAD RETURNDATASIZE DUP11 DUP3 RETURNDATACOPY RETURNDATASIZE SWAP1 REVERT JUMPDEST DUP6 MLOAD PUSH3 0x461BCD PUSH1 0xE5 SHL DUP2 MSTORE DUP1 DUP5 ADD DUP9 SWAP1 MSTORE PUSH1 0x24 DUP1 DUP3 ADD MSTORE PUSH32 0x4576656E7420636F6E646974696F6E73206E6F74206D657420666F722072656C PUSH1 0x44 DUP3 ADD MSTORE PUSH4 0x65617365 PUSH1 0xE0 SHL PUSH1 0x64 DUP3 ADD MSTORE PUSH1 0x84 SWAP1 REVERT JUMPDEST SWAP1 POP DUP8 DUP2 DUP2 RETURNDATASIZE DUP4 GT PUSH2 0x59D JUMPI JUMPDEST PUSH2 0x581 DUP2 DUP4 PUSH2 0x9F6 JUMP JUMPDEST DUP2 ADD SUB SLT PUSH2 0x599 JUMPI MLOAD DUP1 ISZERO ISZERO DUP2 SUB PUSH2 0x599 JUMPI DUP12 PUSH2 0x400 JUMP JUMPDEST DUP10 DUP1 REVERT JUMPDEST POP RETURNDATASIZE PUSH2 0x577 JUMP JUMPDEST DUP8 MLOAD RETURNDATASIZE DUP13 DUP3 RETURNDATACOPY RETURNDATASIZE SWAP1 REVERT JUMPDEST PUSH4 0x4E487B71 PUSH1 0xE0 SHL DUP11 MSTORE PUSH1 0x21 DUP5 MSTORE PUSH1 0x24 DUP11 REVERT JUMPDEST PUSH1 0x64 SWAP1 PUSH1 0x20 DUP5 MLOAD SWAP2 PUSH3 0x461BCD PUSH1 0xE5 SHL DUP4 MSTORE DUP3 ADD MSTORE PUSH1 0x1A PUSH1 0x24 DUP3 ADD MSTORE PUSH32 0x4F6E6C79204576656E744D616E616765722063616E2063616C6C000000000000 PUSH1 0x44 DUP3 ADD MSTORE REVERT JUMPDEST POP DUP1 REVERT JUMPDEST POP CALLVALUE PUSH2 0x13B JUMPI PUSH2 0x617 CALLDATASIZE PUSH2 0x9AF JUMP JUMPDEST PUSH2 0x622 SWAP3 SWAP2 SWAP3 PUSH2 0xA4C JUMP JUMPDEST PUSH2 0x62A PUSH2 0xA2E JUMP JUMPDEST DUP3 DUP6 MSTORE PUSH1 0x3 PUSH1 0x20 MSTORE DUP2 DUP6 KECCAK256 SWAP1 DUP6 MSTORE PUSH1 0x20 MSTORE DUP1 DUP5 KECCAK256 SWAP3 PUSH1 0x2 DUP5 ADD DUP1 SLOAD SWAP5 PUSH1 0xFF DUP7 AND PUSH1 0x3 DUP2 LT ISZERO PUSH2 0x702 JUMPI PUSH1 0x2 SWAP2 PUSH2 0x662 PUSH1 0x1 SWAP3 ISZERO PUSH2 0xA6F JUMP JUMPDEST PUSH2 0x675 DUP3 DUP1 PUSH1 0xA0 SHL SUB DUP3 SLOAD AND CALLER EQ PUSH2 0xAF4 JUMP JUMPDEST ADD SLOAD SWAP6 PUSH1 0xFF NOT AND OR SWAP1 SSTORE DUP5 DUP1 DUP1 DUP1 DUP8 CALLER GAS CALL PUSH2 0x68F PUSH2 0xAB4 JUMP JUMPDEST POP ISZERO PUSH2 0x6C7 JUMPI POP MLOAD SWAP2 DUP3 MSTORE PUSH32 0xE89EC1881A76229445BCD179B8C4B24F9EDC7DDD87D07FB3B19C67AE9C6E27CC PUSH1 0x20 CALLER SWAP4 LOG3 PUSH1 0x1 DUP1 SSTORE DUP1 RETURN JUMPDEST PUSH1 0x20 PUSH1 0x64 SWAP3 MLOAD SWAP2 PUSH3 0x461BCD PUSH1 0xE5 SHL DUP4 MSTORE DUP3 ADD MSTORE PUSH1 0x16 PUSH1 0x24 DUP3 ADD MSTORE PUSH22 0x1499599D5B99081D1C985B9CD9995C8819985A5B1959 PUSH1 0x52 SHL PUSH1 0x44 DUP3 ADD MSTORE REVERT JUMPDEST PUSH4 0x4E487B71 PUSH1 0xE0 SHL DUP9 MSTORE PUSH1 0x21 DUP5 MSTORE PUSH1 0x24 DUP9 REVERT JUMPDEST DUP4 DUP3 CALLVALUE PUSH2 0x604 JUMPI DUP2 PUSH1 0x3 NOT CALLDATASIZE ADD SLT PUSH2 0x604 JUMPI SWAP1 SLOAD SWAP1 MLOAD PUSH1 0x1 PUSH1 0x1 PUSH1 0xA0 SHL SUB SWAP1 SWAP2 AND DUP2 MSTORE PUSH1 0x20 SWAP1 RETURN JUMPDEST DUP4 DUP3 CALLVALUE PUSH2 0x604 JUMPI DUP2 PUSH1 0x3 NOT CALLDATASIZE ADD SLT PUSH2 0x604 JUMPI PUSH1 0x20 PUSH32 0x62E78CEA01BEE320CD4E420270B5EA74000D11B0C9F74754EBDBFC544B05A258 SWAP2 PUSH2 0x77B PUSH2 0x9CA JUMP JUMPDEST PUSH2 0x783 PUSH2 0xA2E JUMP JUMPDEST PUSH1 0x1 PUSH1 0xFF NOT PUSH1 0x2 SLOAD AND OR PUSH1 0x2 SSTORE MLOAD CALLER DUP2 MSTORE LOG1 DUP1 RETURN JUMPDEST POP DUP3 SWAP1 CALLVALUE PUSH2 0x604 JUMPI PUSH2 0x7A9 CALLDATASIZE PUSH2 0x9AF JUMP JUMPDEST SWAP1 DUP4 MSTORE PUSH1 0x3 PUSH1 0x20 MSTORE DUP2 DUP4 KECCAK256 SWAP1 DUP4 MSTORE PUSH1 0x20 MSTORE PUSH1 0xFF PUSH1 0x2 DUP3 DUP5 KECCAK256 ADD SLOAD AND SWAP1 MLOAD SWAP2 PUSH1 0x3 DUP3 LT ISZERO PUSH2 0x7D8 JUMPI PUSH1 0x20 DUP4 DUP4 DUP2 MSTORE RETURN JUMPDEST PUSH4 0x4E487B71 PUSH1 0xE0 SHL DUP2 MSTORE PUSH1 0x21 DUP5 MSTORE PUSH1 0x24 SWAP1 REVERT JUMPDEST DUP4 CALLVALUE PUSH2 0x845 JUMPI DUP1 PUSH1 0x3 NOT CALLDATASIZE ADD SLT PUSH2 0x845 JUMPI PUSH2 0x804 PUSH2 0x9CA JUMP JUMPDEST DUP1 SLOAD PUSH1 0x1 PUSH1 0x1 PUSH1 0xA0 SHL SUB NOT DUP2 AND DUP3 SSTORE DUP2 SWAP1 PUSH1 0x1 PUSH1 0x1 PUSH1 0xA0 SHL SUB AND PUSH32 0x8BE0079C531659141344CD1FD0A4F28419497F9722A3DAAFE3B4186F6B6457E0 DUP3 DUP1 LOG3 DUP1 RETURN JUMPDEST DUP1 REVERT JUMPDEST DUP4 DUP3 CALLVALUE PUSH2 0x604 JUMPI PUSH1 0x1 DUP2 PUSH1 0x20 SWAP4 PUSH2 0x85E CALLDATASIZE PUSH2 0x9AF JUMP JUMPDEST SWAP1 DUP3 MSTORE PUSH1 0x3 DUP7 MSTORE DUP3 DUP3 KECCAK256 SWAP1 DUP3 MSTORE DUP6 MSTORE KECCAK256 ADD SLOAD SWAP1 MLOAD SWAP1 DUP2 MSTORE RETURN JUMPDEST DUP4 DUP3 CALLVALUE PUSH2 0x604 JUMPI DUP2 PUSH1 0x3 NOT CALLDATASIZE ADD SLT PUSH2 0x604 JUMPI PUSH1 0x20 SWAP1 PUSH1 0xFF PUSH1 0x2 SLOAD AND SWAP1 MLOAD SWAP1 ISZERO ISZERO DUP2 MSTORE RETURN JUMPDEST POP SWAP1 CALLVALUE PUSH2 0x13B JUMPI DUP3 PUSH1 0x3 NOT CALLDATASIZE ADD SLT PUSH2 0x13B JUMPI PUSH2 0x8B5 PUSH2 0x9CA JUMP JUMPDEST PUSH1 0x2 SLOAD SWAP1 PUSH1 0xFF DUP3 AND ISZERO PUSH2 0x8F7 JUMPI POP PUSH1 0xFF NOT AND PUSH1 0x2 SSTORE MLOAD CALLER DUP2 MSTORE PUSH32 0x5DB9EE0A495BF2E6FF9C91A7834C1BA4FDD244A5E8AA4E537BD38AEAE4B073AA SWAP1 PUSH1 0x20 SWAP1 LOG1 DUP1 RETURN JUMPDEST DUP3 MLOAD PUSH4 0x8DFC202B PUSH1 0xE0 SHL DUP2 MSTORE REVERT JUMPDEST POP CALLVALUE PUSH2 0x13B JUMPI PUSH2 0x914 CALLDATASIZE PUSH2 0x9AF JUMP JUMPDEST SWAP3 SWAP1 SWAP2 PUSH2 0x91F PUSH2 0xA2E JUMP JUMPDEST DUP3 DUP6 MSTORE PUSH1 0x3 PUSH1 0x20 MSTORE DUP1 DUP6 KECCAK256 DUP5 DUP7 MSTORE PUSH1 0x20 MSTORE DUP5 KECCAK256 SWAP1 PUSH1 0x2 DUP3 ADD SWAP2 DUP3 SLOAD SWAP2 PUSH1 0xFF DUP4 AND SWAP1 PUSH1 0x3 DUP3 LT ISZERO PUSH2 0x99C JUMPI POP PUSH2 0x100 SWAP3 SWAP2 PUSH2 0x95C PUSH2 0x96D SWAP3 ISZERO PUSH2 0xA6F JUMP JUMPDEST SLOAD PUSH1 0x1 PUSH1 0x1 PUSH1 0xA0 SHL SUB AND CALLER EQ PUSH2 0xAF4 JUMP JUMPDEST PUSH2 0xFF00 NOT AND OR SWAP1 SSTORE PUSH32 0x42A333AA9F5E83ED874E2C82D84DF396C2A89C4AD056BC332D38BA044BBE8BBA DUP4 DUP1 LOG3 DUP1 RETURN JUMPDEST PUSH4 0x4E487B71 PUSH1 0xE0 SHL DUP9 MSTORE PUSH1 0x21 SWAP1 MSTORE PUSH1 0x24 DUP8 REVERT JUMPDEST PUSH1 0x40 SWAP1 PUSH1 0x3 NOT ADD SLT PUSH2 0x9C5 JUMPI PUSH1 0x4 CALLDATALOAD SWAP1 PUSH1 0x24 CALLDATALOAD SWAP1 JUMP JUMPDEST PUSH1 0x0 DUP1 REVERT JUMPDEST PUSH1 0x0 SLOAD PUSH1 0x1 PUSH1 0x1 PUSH1 0xA0 SHL SUB AND CALLER SUB PUSH2 0x9DE JUMPI JUMP JUMPDEST PUSH1 0x40 MLOAD PUSH4 0x118CDAA7 PUSH1 0xE0 SHL DUP2 MSTORE CALLER PUSH1 0x4 DUP3 ADD MSTORE PUSH1 0x24 SWAP1 REVERT JUMPDEST SWAP1 PUSH1 0x1F DUP1 NOT SWAP2 ADD AND DUP2 ADD SWAP1 DUP2 LT PUSH8 0xFFFFFFFFFFFFFFFF DUP3 GT OR PUSH2 0xA18 JUMPI PUSH1 0x40 MSTORE JUMP JUMPDEST PUSH4 0x4E487B71 PUSH1 0xE0 SHL PUSH1 0x0 MSTORE PUSH1 0x41 PUSH1 0x4 MSTORE PUSH1 0x24 PUSH1 0x0 REVERT JUMPDEST PUSH1 0xFF PUSH1 0x2 SLOAD AND PUSH2 0xA3A JUMPI JUMP JUMPDEST PUSH1 0x40 MLOAD PUSH4 0xD93C0665 PUSH1 0xE0 SHL DUP2 MSTORE PUSH1 0x4 SWAP1 REVERT JUMPDEST PUSH1 0x2 PUSH1 0x1 SLOAD EQ PUSH2 0xA5D JUMPI PUSH1 0x2 PUSH1 0x1 SSTORE JUMP JUMPDEST PUSH1 0x40 MLOAD PUSH4 0x3EE5AEB5 PUSH1 0xE0 SHL DUP2 MSTORE PUSH1 0x4 SWAP1 REVERT JUMPDEST ISZERO PUSH2 0xA76 JUMPI JUMP JUMPDEST PUSH1 0x40 MLOAD PUSH3 0x461BCD PUSH1 0xE5 SHL DUP2 MSTORE PUSH1 0x20 PUSH1 0x4 DUP3 ADD MSTORE PUSH1 0x16 PUSH1 0x24 DUP3 ADD MSTORE PUSH22 0x496E76616C6964207061796D656E7420737461747573 PUSH1 0x50 SHL PUSH1 0x44 DUP3 ADD MSTORE PUSH1 0x64 SWAP1 REVERT JUMPDEST RETURNDATASIZE ISZERO PUSH2 0xAEF JUMPI RETURNDATASIZE SWAP1 PUSH8 0xFFFFFFFFFFFFFFFF DUP3 GT PUSH2 0xA18 JUMPI PUSH1 0x40 MLOAD SWAP2 PUSH2 0xAE3 PUSH1 0x1F DUP3 ADD PUSH1 0x1F NOT AND PUSH1 0x20 ADD DUP5 PUSH2 0x9F6 JUMP JUMPDEST DUP3 MSTORE RETURNDATASIZE PUSH1 0x0 PUSH1 0x20 DUP5 ADD RETURNDATACOPY JUMP JUMPDEST PUSH1 0x60 SWAP1 JUMP JUMPDEST ISZERO PUSH2 0xAFB JUMPI JUMP JUMPDEST PUSH1 0x40 MLOAD PUSH3 0x461BCD PUSH1 0xE5 SHL DUP2 MSTORE PUSH1 0x20 PUSH1 0x4 DUP3 ADD MSTORE PUSH1 0xD PUSH1 0x24 DUP3 ADD MSTORE PUSH13 0x2737BA103A3432903830BCB2B9 PUSH1 0x99 SHL PUSH1 0x44 DUP3 ADD MSTORE PUSH1 0x64 SWAP1 REVERT INVALID LOG2 PUSH5 0x6970667358 0x22 SLT KECCAK256 LOG1 0xC5 REVERT 0xED 0x22 0xC4 PUSH15 0xCC202829DEF394996F86024A996AE7 CREATE2 0xE4 CALLVALUE 0x4B GASPRICE NUMBER DUP4 0xDE MSTORE CALLVALUE PUSH5 0x736F6C6343 STOP ADDMOD EQ STOP CALLER "},"methodIdentifiers":{"depositPayment(uint256,uint256)":"9bdc727c","enableWaitlistRefund(uint256,uint256)":"2f62582c","getPaymentAmount(uint256,uint256)":"66e008f8","getPaymentStatus(uint256,uint256)":"78c5e06d","owner()":"8da5cb5b","pause()":"8456cb59","paused()":"5c975abb","refundPayment(uint256,uint256)":"95144dc4","releasePayment(uint256,uint256)":"97e99a80","renounceOwnership()":"715018a6","transferOwnership(address)":"f2fde38b","unpause()":"3f4ba83a","withdrawStuckFunds()":"c5b60a48"}}}}}