{"contracts/core/WaitlistManager.sol":{"WaitlistManager":{"abi":[{"inputs":[],"stateMutability":"nonpayable","type":"constructor"},{"inputs":[],"name":"EnforcedPause","type":"error"},{"inputs":[],"name":"ExpectedPause","type":"error"},{"inputs":[{"internalType":"address","name":"owner","type":"address"}],"name":"OwnableInvalidOwner","type":"error"},{"inputs":[{"internalType":"address","name":"account","type":"address"}],"name":"OwnableUnauthorizedAccount","type":"error"},{"inputs":[],"name":"ReentrancyGuardReentrantCall","type":"error"},{"anonymous":false,"inputs":[{"indexed":true,"internalType":"uint256","name":"eventId","type":"uint256"},{"indexed":true,"internalType":"uint256","name":"zoneId","type":"uint256"},{"indexed":false,"internalType":"address","name":"user","type":"address"}],"name":"JoinedWaitlist","type":"event"},{"anonymous":false,"inputs":[{"indexed":true,"internalType":"uint256","name":"eventId","type":"uint256"},{"indexed":true,"internalType":"uint256","name":"zoneId","type":"uint256"},{"indexed":false,"internalType":"address","name":"user","type":"address"}],"name":"LeftWaitlist","type":"event"},{"anonymous":false,"inputs":[{"indexed":true,"internalType":"address","name":"previousOwner","type":"address"},{"indexed":true,"internalType":"address","name":"newOwner","type":"address"}],"name":"OwnershipTransferred","type":"event"},{"anonymous":false,"inputs":[{"indexed":false,"internalType":"address","name":"account","type":"address"}],"name":"Paused","type":"event"},{"anonymous":false,"inputs":[{"indexed":false,"internalType":"address","name":"account","type":"address"}],"name":"Unpaused","type":"event"},{"anonymous":false,"inputs":[{"indexed":true,"internalType":"uint256","name":"eventId","type":"uint256"},{"indexed":true,"internalType":"uint256","name":"zoneId","type":"uint256"},{"indexed":false,"internalType":"address","name":"user","type":"address"}],"name":"WaitlistOfferExpired","type":"event"},{"anonymous":false,"inputs":[{"indexed":true,"internalType":"uint256","name":"eventId","type":"uint256"},{"indexed":true,"internalType":"uint256","name":"zoneId","type":"uint256"},{"indexed":false,"internalType":"address","name":"user","type":"address"}],"name":"WaitlistPurchaseCompleted","type":"event"},{"anonymous":false,"inputs":[{"indexed":true,"internalType":"uint256","name":"eventId","type":"uint256"},{"indexed":true,"internalType":"uint256","name":"zoneId","type":"uint256"},{"indexed":false,"internalType":"address","name":"user","type":"address"}],"name":"WaitlistPurchaseOffered","type":"event"},{"inputs":[],"name":"OFFER_DURATION","outputs":[{"internalType":"uint256","name":"","type":"uint256"}],"stateMutability":"view","type":"function"},{"inputs":[{"internalType":"uint256","name":"eventId","type":"uint256"},{"internalType":"uint256","name":"zoneId","type":"uint256"},{"internalType":"address","name":"user","type":"address"}],"name":"clearWaitlistEntry","outputs":[],"stateMutability":"nonpayable","type":"function"},{"inputs":[{"internalType":"uint256","name":"eventId","type":"uint256"},{"internalType":"uint256","name":"zoneId","type":"uint256"}],"name":"completeWaitlistPurchase","outputs":[],"stateMutability":"nonpayable","type":"function"},{"inputs":[{"internalType":"uint256","name":"eventId","type":"uint256"},{"internalType":"uint256","name":"zoneId","type":"uint256"},{"internalType":"address","name":"user","type":"address"}],"name":"expireOffer","outputs":[],"stateMutability":"nonpayable","type":"function"},{"inputs":[{"internalType":"uint256","name":"eventId","type":"uint256"},{"internalType":"uint256","name":"zoneId","type":"uint256"}],"name":"getNextWaitingUser","outputs":[{"internalType":"address","name":"","type":"address"}],"stateMutability":"view","type":"function"},{"inputs":[{"internalType":"uint256","name":"eventId","type":"uint256"},{"internalType":"uint256","name":"zoneId","type":"uint256"}],"name":"getWaitlistLength","outputs":[{"internalType":"uint256","name":"","type":"uint256"}],"stateMutability":"view","type":"function"},{"inputs":[{"internalType":"uint256","name":"eventId","type":"uint256"},{"internalType":"uint256","name":"zoneId","type":"uint256"},{"internalType":"address","name":"user","type":"address"}],"name":"getWaitlistPosition","outputs":[{"internalType":"uint256","name":"","type":"uint256"}],"stateMutability":"view","type":"function"},{"inputs":[{"internalType":"uint256","name":"eventId","type":"uint256"},{"internalType":"uint256","name":"zoneId","type":"uint256"},{"internalType":"address","name":"user","type":"address"}],"name":"hasActiveOffer","outputs":[{"internalType":"bool","name":"","type":"bool"}],"stateMutability":"view","type":"function"},{"inputs":[{"internalType":"uint256","name":"eventId","type":"uint256"},{"internalType":"uint256","name":"zoneId","type":"uint256"},{"internalType":"address","name":"user","type":"address"}],"name":"isUserWaiting","outputs":[{"internalType":"bool","name":"","type":"bool"}],"stateMutability":"view","type":"function"},{"inputs":[{"internalType":"uint256","name":"eventId","type":"uint256"},{"internalType":"uint256","name":"zoneId","type":"uint256"}],"name":"joinWaitlist","outputs":[],"stateMutability":"nonpayable","type":"function"},{"inputs":[{"internalType":"uint256","name":"eventId","type":"uint256"},{"internalType":"uint256","name":"zoneId","type":"uint256"}],"name":"leaveWaitlist","outputs":[],"stateMutability":"nonpayable","type":"function"},{"inputs":[{"internalType":"uint256","name":"eventId","type":"uint256"},{"internalType":"uint256","name":"zoneId","type":"uint256"},{"internalType":"address","name":"user","type":"address"}],"name":"offerTicketToWaitlisted","outputs":[],"stateMutability":"nonpayable","type":"function"},{"inputs":[],"name":"owner","outputs":[{"internalType":"address","name":"","type":"address"}],"stateMutability":"view","type":"function"},{"inputs":[],"name":"pause","outputs":[],"stateMutability":"nonpayable","type":"function"},{"inputs":[],"name":"paused","outputs":[{"internalType":"bool","name":"","type":"bool"}],"stateMutability":"view","type":"function"},{"inputs":[],"name":"renounceOwnership","outputs":[],"stateMutability":"nonpayable","type":"function"},{"inputs":[{"internalType":"address","name":"newOwner","type":"address"}],"name":"transferOwnership","outputs":[],"stateMutability":"nonpayable","type":"function"},{"inputs":[],"name":"unpause","outputs":[],"stateMutability":"nonpayable","type":"function"}],"evm":{"bytecode":{"linkReferences":{},"object":"608080604052346100885733156100725760008054336001600160a01b03198216811783556040519290916001600160a01b0316907f8be0079c531659141344cd1fd0a4f28419497f9722a3daafe3b4186f6b6457e09080a36001805560ff1960025416600255610df4908161008e8239f35b631e4fbdf760e01b815260006004820152602490fd5b600080fdfe60406080815260048036101561001457600080fd5b600091823560e01c806326f7d7ab146109ef578063342b32221461097a5780633727b4471461086c5780633964fdaf146108265780633f4ba83a146107bc5780635c975abb146107985780636605afd9146106f3578063715018a61461069657806375459c11146106785780637af359ab146105d257806381fde3b0146104d85780638456cb591461047d5780638da5cb5b14610455578063ad3c4bea14610428578063b07cd48714610372578063b2c460f41461034d578063d18a5083146101765763f2fde38b146100e657600080fd5b34610172576020366003190112610172576001600160a01b0382358181169391929084900361016e57610117610b2d565b831561015857505082546001600160a01b0319811683178455167f8be0079c531659141344cd1fd0a4f28419497f9722a3daafe3b4186f6b6457e08380a380f35b51631e4fbdf760e01b8152908101849052602490fd5b8480fd5b8280fd5b508290346103495761018736610ae8565b90600192600284541461033a57600284556101a0610bc1565b818552602090600382528086208487528252808620600281019033885281845260ff8389205416610301576101d3610b59565b338152848101428152848201898152606083018b815260808401928c84528554680100000000000000008110156102ec57808d6102139201885587610b8f565b9590956102da579060039493929160018060a01b039051166bffffffffffffffffffffffff60a01b875416178655518c86015560028501915115159060ff61ff0084549251151560081b1692169061ffff1916171790555191015580549060001982019182116102c75790877f1b05357d371fc0514ffdda84ffa13b09409626dc280ef8e115cccb122e9c280195949392338b520184528289205582528087208660ff1982541617905551338152a3805580f35b634e487b7160e01b895260118a52602489fd5b634e487b7160e01b8e528d8f5260248efd5b5050634e487b7160e01b8c5260418d5260248cfd5b825162461bcd60e51b8152808a018590526013602482015272105b1c9958591e481a5b881dd85a5d1b1a5cdd606a1b6044820152606490fd5b51633ee5aeb560e01b81528590fd5b5080fd5b8382346103495760209061036961036336610b03565b91610d4b565b90519015158152f35b8382346103495761038236610b03565b61038d939193610b2d565b82855260209060038252828620858752825282862092600284019160018060a01b03169182885280845260ff82892054166103c6578780f35b60026103fd8660017fbaf0e44559d75d5f16083d7080809f9219d24470c13696b78f7a5345e758be8598018752848b205490610b8f565b50019060ff1991828154169055838952845281882090815416905551908152a3818080808080808780f35b8382346103495760209061044461043e36610ae8565b90610ccb565b90516001600160a01b039091168152f35b838234610349578160031936011261034957905490516001600160a01b039091168152602090f35b83823461034957816003193601126103495760207f62e78cea01bee320cd4e420270b5ea74000d11b0c9f74754ebdbfc544b05a258916104bb610b2d565b6104c3610bc1565b600160ff19600254161760025551338152a180f35b5034610172576104e736610b03565b909391926104f3610bc1565b8386526020926003845281872086885284526105408288209360018060a01b03169384895260028101865261052d60ff858b205416610bdf565b8489526001810186528389205490610b8f565b506002810190600382549161055a60ff8460081c16610c1d565b0192835442111561059b575061ff0019169055869055519081527fff71f12e5cf1906301f43d16584823504c506a9b4309a1d39ac6eb40ced1c6a99190a380f35b845162461bcd60e51b8152908101879052601160248201527013d999995c881b9bdd08195e1c1a5c9959607a1b6044820152606490fd5b838234610349577fbaf0e44559d75d5f16083d7080809f9219d24470c13696b78f7a5345e758be859061060436610ae8565b92909161060f610bc1565b828552602090600382528086208587528252808620600261065581830192338a5283865261064260ff868c205416610bdf565b338a52600181018652848a205490610b8f565b50019060ff1991828154169055338852835281872090815416905551338152a380f35b83823461034957816003193601126103495760209051620151808152f35b83346106f057806003193601126106f0576106af610b2d565b80546001600160a01b03198116825581906001600160a01b03167f8be0079c531659141344cd1fd0a4f28419497f9722a3daafe3b4186f6b6457e08280a380f35b80fd5b8382346103495761070336610b03565b9291845260036020528184209084526020528083209160018060a01b031691828452600280820160205260ff9161073e838588205416610bdf565b600194865284810160205283862054955b868110610760576020868651908152f35b838361076c8385610b8f565b50015416610783575b61077e90610c5b565b61074f565b9461079061077e91610c5b565b959050610775565b83823461034957816003193601126103495760209060ff6002541690519015158152f35b5090346101725782600319360112610172576107d6610b2d565b6002549060ff821615610818575060ff1916600255513381527f5db9ee0a495bf2e6ff9c91a7834c1ba4fdd244a5e8aa4e537bd38aeae4b073aa90602090a180f35b8251638dfc202b60e01b8152fd5b8382346103495760ff8160209361083c36610b03565b9183526003875283832090835286528282206001600160a01b039091168252600201855220549151911615158152f35b508290346103495761087d36610b03565b610888939193610bc1565b8285526020916003835280862085875283526108d58187209260018060a01b0316928388526002810185526108c260ff848a205416610bdf565b8388526001810185528288205490610b8f565b5060028101805460ff8160081c16610943576101009061ff001916179055620151804201908142116109305760030155519081527f5e7d9f3701cb4dec6d83d2299ee59d449557f633f60c6a34486dcb59a907cf0a9190a380f35b634e487b7160e01b885260118952602488fd5b835162461bcd60e51b8152808b01879052601160248201527020b63932b0b23c903430b99037b33332b960791b6044820152606490fd5b5082346106f05761098a36610ae8565b908252600360205282822090825260205281812091818354905b8181106109b5576020848451908152f35b60ff60026109c38388610b8f565b500154166109da575b6109d590610c5b565b6109a4565b926109e76109d591610c5b565b9390506109cc565b5082903461034957610a0036610ae8565b91610a09610bc1565b818452602090600382528085208486528252808520610a4e6002820191338852828552610a3b60ff858a205416610bdf565b3388526001810185528388205490610b8f565b509060028201976003895493610a6960ff8660081c16610c1d565b01544211610ab557507f9a5b37deeb3286740d007e8020660109442179cbf50f003042216dc06ae784b29495969760ff198093169055338852835281872090815416905551338152a380f35b835162461bcd60e51b8152908101859052600d60248201526c13d999995c88195e1c1a5c9959609a1b6044820152606490fd5b6040906003190112610afe576004359060243590565b600080fd5b6060906003190112610afe5760043590602435906044356001600160a01b0381168103610afe5790565b6000546001600160a01b03163303610b4157565b60405163118cdaa760e01b8152336004820152602490fd5b6040519060a0820182811067ffffffffffffffff821117610b7957604052565b634e487b7160e01b600052604160045260246000fd5b8054821015610bab5760005260206000209060021b0190600090565b634e487b7160e01b600052603260045260246000fd5b60ff60025416610bcd57565b60405163d93c066560e01b8152600490fd5b15610be657565b60405162461bcd60e51b815260206004820152600f60248201526e139bdd081a5b881dd85a5d1b1a5cdd608a1b6044820152606490fd5b15610c2457565b60405162461bcd60e51b815260206004820152600f60248201526e27379030b1ba34bb329037b33332b960891b6044820152606490fd5b6000198114610c6a5760010190565b634e487b7160e01b600052601160045260246000fd5b906003610c8b610b59565b83546001600160a01b0316815260018401546020820152600284015460ff8181161515604084015260089190911c16151560608201529201546080830152565b90600091825260036020526040908183209083526020528082209082918054925b838110610cfa575050505090565b610d0d610d078284610b8f565b50610c80565b83810151151580610d3f575b610d2c5750610d2790610c5b565b610cec565b516001600160a01b031695945050505050565b50606081015115610d19565b91906000928352600360205260408320908352602052604082209060018060a01b031682526002810160205260ff60408320541615610dba57806040610d9d936001610d079401602052205490610b8f565b606081015115159081610dae575090565b60809150015142111590565b509056fea2646970667358221220dfe317e86c9a43a80fa7156e2a315fda53b90573db8345dac702da68741f0a9e64736f6c63430008140033","opcodes":"PUSH1 0x80 DUP1 PUSH1 0x40 MSTORE CALLVALUE PUSH2 0x88 JUMPI CALLER ISZERO PUSH2 0x72 JUMPI PUSH1 0x0 DUP1 SLOAD CALLER PUSH1 0x1 PUSH1 0x1 PUSH1 0xA0 SHL SUB NOT DUP3 AND DUP2 OR DUP4 SSTORE PUSH1 0x40 MLOAD SWAP3 SWAP1 SWAP2 PUSH1 0x1 PUSH1 0x1 PUSH1 0xA0 SHL SUB AND SWAP1 PUSH32 0x8BE0079C531659141344CD1FD0A4F28419497F9722A3DAAFE3B4186F6B6457E0 SWAP1 DUP1 LOG3 PUSH1 0x1 DUP1 SSTORE PUSH1 0xFF NOT PUSH1 0x2 SLOAD AND PUSH1 0x2 SSTORE PUSH2 0xDF4 SWAP1 DUP2 PUSH2 0x8E DUP3 CODECOPY RETURN JUMPDEST PUSH4 0x1E4FBDF7 PUSH1 0xE0 SHL DUP2 MSTORE PUSH1 0x0 PUSH1 0x4 DUP3 ADD MSTORE PUSH1 0x24 SWAP1 REVERT JUMPDEST PUSH1 0x0 DUP1 REVERT INVALID PUSH1 0x40 PUSH1 0x80 DUP2 MSTORE PUSH1 0x4 DUP1 CALLDATASIZE LT ISZERO PUSH2 0x14 JUMPI PUSH1 0x0 DUP1 REVERT JUMPDEST PUSH1 0x0 SWAP2 DUP3 CALLDATALOAD PUSH1 0xE0 SHR DUP1 PUSH4 0x26F7D7AB EQ PUSH2 0x9EF JUMPI DUP1 PUSH4 0x342B3222 EQ PUSH2 0x97A JUMPI DUP1 PUSH4 0x3727B447 EQ PUSH2 0x86C JUMPI DUP1 PUSH4 0x3964FDAF EQ PUSH2 0x826 JUMPI DUP1 PUSH4 0x3F4BA83A EQ PUSH2 0x7BC JUMPI DUP1 PUSH4 0x5C975ABB EQ PUSH2 0x798 JUMPI DUP1 PUSH4 0x6605AFD9 EQ PUSH2 0x6F3 JUMPI DUP1 PUSH4 0x715018A6 EQ PUSH2 0x696 JUMPI DUP1 PUSH4 0x75459C11 EQ PUSH2 0x678 JUMPI DUP1 PUSH4 0x7AF359AB EQ PUSH2 0x5D2 JUMPI DUP1 PUSH4 0x81FDE3B0 EQ PUSH2 0x4D8 JUMPI DUP1 PUSH4 0x8456CB59 EQ PUSH2 0x47D JUMPI DUP1 PUSH4 0x8DA5CB5B EQ PUSH2 0x455 JUMPI DUP1 PUSH4 0xAD3C4BEA EQ PUSH2 0x428 JUMPI DUP1 PUSH4 0xB07CD487 EQ PUSH2 0x372 JUMPI DUP1 PUSH4 0xB2C460F4 EQ PUSH2 0x34D JUMPI DUP1 PUSH4 0xD18A5083 EQ PUSH2 0x176 JUMPI PUSH4 0xF2FDE38B EQ PUSH2 0xE6 JUMPI PUSH1 0x0 DUP1 REVERT JUMPDEST CALLVALUE PUSH2 0x172 JUMPI PUSH1 0x20 CALLDATASIZE PUSH1 0x3 NOT ADD SLT PUSH2 0x172 JUMPI PUSH1 0x1 PUSH1 0x1 PUSH1 0xA0 SHL SUB DUP3 CALLDATALOAD DUP2 DUP2 AND SWAP4 SWAP2 SWAP3 SWAP1 DUP5 SWAP1 SUB PUSH2 0x16E JUMPI PUSH2 0x117 PUSH2 0xB2D JUMP JUMPDEST DUP4 ISZERO PUSH2 0x158 JUMPI POP POP DUP3 SLOAD PUSH1 0x1 PUSH1 0x1 PUSH1 0xA0 SHL SUB NOT DUP2 AND DUP4 OR DUP5 SSTORE AND PUSH32 0x8BE0079C531659141344CD1FD0A4F28419497F9722A3DAAFE3B4186F6B6457E0 DUP4 DUP1 LOG3 DUP1 RETURN JUMPDEST MLOAD PUSH4 0x1E4FBDF7 PUSH1 0xE0 SHL DUP2 MSTORE SWAP1 DUP2 ADD DUP5 SWAP1 MSTORE PUSH1 0x24 SWAP1 REVERT JUMPDEST DUP5 DUP1 REVERT JUMPDEST DUP3 DUP1 REVERT JUMPDEST POP DUP3 SWAP1 CALLVALUE PUSH2 0x349 JUMPI PUSH2 0x187 CALLDATASIZE PUSH2 0xAE8 JUMP JUMPDEST SWAP1 PUSH1 0x1 SWAP3 PUSH1 0x2 DUP5 SLOAD EQ PUSH2 0x33A JUMPI PUSH1 0x2 DUP5 SSTORE PUSH2 0x1A0 PUSH2 0xBC1 JUMP JUMPDEST DUP2 DUP6 MSTORE PUSH1 0x20 SWAP1 PUSH1 0x3 DUP3 MSTORE DUP1 DUP7 KECCAK256 DUP5 DUP8 MSTORE DUP3 MSTORE DUP1 DUP7 KECCAK256 PUSH1 0x2 DUP2 ADD SWAP1 CALLER DUP9 MSTORE DUP2 DUP5 MSTORE PUSH1 0xFF DUP4 DUP10 KECCAK256 SLOAD AND PUSH2 0x301 JUMPI PUSH2 0x1D3 PUSH2 0xB59 JUMP JUMPDEST CALLER DUP2 MSTORE DUP5 DUP2 ADD TIMESTAMP DUP2 MSTORE DUP5 DUP3 ADD DUP10 DUP2 MSTORE PUSH1 0x60 DUP4 ADD DUP12 DUP2 MSTORE PUSH1 0x80 DUP5 ADD SWAP3 DUP13 DUP5 MSTORE DUP6 SLOAD PUSH9 0x10000000000000000 DUP2 LT ISZERO PUSH2 0x2EC JUMPI DUP1 DUP14 PUSH2 0x213 SWAP3 ADD DUP9 SSTORE DUP8 PUSH2 0xB8F JUMP JUMPDEST SWAP6 SWAP1 SWAP6 PUSH2 0x2DA JUMPI SWAP1 PUSH1 0x3 SWAP5 SWAP4 SWAP3 SWAP2 PUSH1 0x1 DUP1 PUSH1 0xA0 SHL SUB SWAP1 MLOAD AND PUSH12 0xFFFFFFFFFFFFFFFFFFFFFFFF PUSH1 0xA0 SHL DUP8 SLOAD AND OR DUP7 SSTORE MLOAD DUP13 DUP7 ADD SSTORE PUSH1 0x2 DUP6 ADD SWAP2 MLOAD ISZERO ISZERO SWAP1 PUSH1 0xFF PUSH2 0xFF00 DUP5 SLOAD SWAP3 MLOAD ISZERO ISZERO PUSH1 0x8 SHL AND SWAP3 AND SWAP1 PUSH2 0xFFFF NOT AND OR OR SWAP1 SSTORE MLOAD SWAP2 ADD SSTORE DUP1 SLOAD SWAP1 PUSH1 0x0 NOT DUP3 ADD SWAP2 DUP3 GT PUSH2 0x2C7 JUMPI SWAP1 DUP8 PUSH32 0x1B05357D371FC0514FFDDA84FFA13B09409626DC280EF8E115CCCB122E9C2801 SWAP6 SWAP5 SWAP4 SWAP3 CALLER DUP12 MSTORE ADD DUP5 MSTORE DUP3 DUP10 KECCAK256 SSTORE DUP3 MSTORE DUP1 DUP8 KECCAK256 DUP7 PUSH1 0xFF NOT DUP3 SLOAD AND OR SWAP1 SSTORE MLOAD CALLER DUP2 MSTORE LOG3 DUP1 SSTORE DUP1 RETURN JUMPDEST PUSH4 0x4E487B71 PUSH1 0xE0 SHL DUP10 MSTORE PUSH1 0x11 DUP11 MSTORE PUSH1 0x24 DUP10 REVERT JUMPDEST PUSH4 0x4E487B71 PUSH1 0xE0 SHL DUP15 MSTORE DUP14 DUP16 MSTORE PUSH1 0x24 DUP15 REVERT JUMPDEST POP POP PUSH4 0x4E487B71 PUSH1 0xE0 SHL DUP13 MSTORE PUSH1 0x41 DUP14 MSTORE PUSH1 0x24 DUP13 REVERT JUMPDEST DUP3 MLOAD PUSH3 0x461BCD PUSH1 0xE5 SHL DUP2 MSTORE DUP1 DUP11 ADD DUP6 SWAP1 MSTORE PUSH1 0x13 PUSH1 0x24 DUP3 ADD MSTORE PUSH19 0x105B1C9958591E481A5B881DD85A5D1B1A5CDD PUSH1 0x6A SHL PUSH1 0x44 DUP3 ADD MSTORE PUSH1 0x64 SWAP1 REVERT JUMPDEST MLOAD PUSH4 0x3EE5AEB5 PUSH1 0xE0 SHL DUP2 MSTORE DUP6 SWAP1 REVERT JUMPDEST POP DUP1 REVERT JUMPDEST DUP4 DUP3 CALLVALUE PUSH2 0x349 JUMPI PUSH1 0x20 SWAP1 PUSH2 0x369 PUSH2 0x363 CALLDATASIZE PUSH2 0xB03 JUMP JUMPDEST SWAP2 PUSH2 0xD4B JUMP JUMPDEST SWAP1 MLOAD SWAP1 ISZERO ISZERO DUP2 MSTORE RETURN JUMPDEST DUP4 DUP3 CALLVALUE PUSH2 0x349 JUMPI PUSH2 0x382 CALLDATASIZE PUSH2 0xB03 JUMP JUMPDEST PUSH2 0x38D SWAP4 SWAP2 SWAP4 PUSH2 0xB2D JUMP JUMPDEST DUP3 DUP6 MSTORE PUSH1 0x20 SWAP1 PUSH1 0x3 DUP3 MSTORE DUP3 DUP7 KECCAK256 DUP6 DUP8 MSTORE DUP3 MSTORE DUP3 DUP7 KECCAK256 SWAP3 PUSH1 0x2 DUP5 ADD SWAP2 PUSH1 0x1 DUP1 PUSH1 0xA0 SHL SUB AND SWAP2 DUP3 DUP9 MSTORE DUP1 DUP5 MSTORE PUSH1 0xFF DUP3 DUP10 KECCAK256 SLOAD AND PUSH2 0x3C6 JUMPI DUP8 DUP1 RETURN JUMPDEST PUSH1 0x2 PUSH2 0x3FD DUP7 PUSH1 0x1 PUSH32 0xBAF0E44559D75D5F16083D7080809F9219D24470C13696B78F7A5345E758BE85 SWAP9 ADD DUP8 MSTORE DUP5 DUP12 KECCAK256 SLOAD SWAP1 PUSH2 0xB8F JUMP JUMPDEST POP ADD SWAP1 PUSH1 0xFF NOT SWAP2 DUP3 DUP2 SLOAD AND SWAP1 SSTORE DUP4 DUP10 MSTORE DUP5 MSTORE DUP2 DUP9 KECCAK256 SWAP1 DUP2 SLOAD AND SWAP1 SSTORE MLOAD SWAP1 DUP2 MSTORE LOG3 DUP2 DUP1 DUP1 DUP1 DUP1 DUP1 DUP1 DUP8 DUP1 RETURN JUMPDEST DUP4 DUP3 CALLVALUE PUSH2 0x349 JUMPI PUSH1 0x20 SWAP1 PUSH2 0x444 PUSH2 0x43E CALLDATASIZE PUSH2 0xAE8 JUMP JUMPDEST SWAP1 PUSH2 0xCCB JUMP JUMPDEST SWAP1 MLOAD PUSH1 0x1 PUSH1 0x1 PUSH1 0xA0 SHL SUB SWAP1 SWAP2 AND DUP2 MSTORE RETURN JUMPDEST DUP4 DUP3 CALLVALUE PUSH2 0x349 JUMPI DUP2 PUSH1 0x3 NOT CALLDATASIZE ADD SLT PUSH2 0x349 JUMPI SWAP1 SLOAD SWAP1 MLOAD PUSH1 0x1 PUSH1 0x1 PUSH1 0xA0 SHL SUB SWAP1 SWAP2 AND DUP2 MSTORE PUSH1 0x20 SWAP1 RETURN JUMPDEST DUP4 DUP3 CALLVALUE PUSH2 0x349 JUMPI DUP2 PUSH1 0x3 NOT CALLDATASIZE ADD SLT PUSH2 0x349 JUMPI PUSH1 0x20 PUSH32 0x62E78CEA01BEE320CD4E420270B5EA74000D11B0C9F74754EBDBFC544B05A258 SWAP2 PUSH2 0x4BB PUSH2 0xB2D JUMP JUMPDEST PUSH2 0x4C3 PUSH2 0xBC1 JUMP JUMPDEST PUSH1 0x1 PUSH1 0xFF NOT PUSH1 0x2 SLOAD AND OR PUSH1 0x2 SSTORE MLOAD CALLER DUP2 MSTORE LOG1 DUP1 RETURN JUMPDEST POP CALLVALUE PUSH2 0x172 JUMPI PUSH2 0x4E7 CALLDATASIZE PUSH2 0xB03 JUMP JUMPDEST SWAP1 SWAP4 SWAP2 SWAP3 PUSH2 0x4F3 PUSH2 0xBC1 JUMP JUMPDEST DUP4 DUP7 MSTORE PUSH1 0x20 SWAP3 PUSH1 0x3 DUP5 MSTORE DUP2 DUP8 KECCAK256 DUP7 DUP9 MSTORE DUP5 MSTORE PUSH2 0x540 DUP3 DUP9 KECCAK256 SWAP4 PUSH1 0x1 DUP1 PUSH1 0xA0 SHL SUB AND SWAP4 DUP5 DUP10 MSTORE PUSH1 0x2 DUP2 ADD DUP7 MSTORE PUSH2 0x52D PUSH1 0xFF DUP6 DUP12 KECCAK256 SLOAD AND PUSH2 0xBDF JUMP JUMPDEST DUP5 DUP10 MSTORE PUSH1 0x1 DUP2 ADD DUP7 MSTORE DUP4 DUP10 KECCAK256 SLOAD SWAP1 PUSH2 0xB8F JUMP JUMPDEST POP PUSH1 0x2 DUP2 ADD SWAP1 PUSH1 0x3 DUP3 SLOAD SWAP2 PUSH2 0x55A PUSH1 0xFF DUP5 PUSH1 0x8 SHR AND PUSH2 0xC1D JUMP JUMPDEST ADD SWAP3 DUP4 SLOAD TIMESTAMP GT ISZERO PUSH2 0x59B JUMPI POP PUSH2 0xFF00 NOT AND SWAP1 SSTORE DUP7 SWAP1 SSTORE MLOAD SWAP1 DUP2 MSTORE PUSH32 0xFF71F12E5CF1906301F43D16584823504C506A9B4309A1D39AC6EB40CED1C6A9 SWAP2 SWAP1 LOG3 DUP1 RETURN JUMPDEST DUP5 MLOAD PUSH3 0x461BCD PUSH1 0xE5 SHL DUP2 MSTORE SWAP1 DUP2 ADD DUP8 SWAP1 MSTORE PUSH1 0x11 PUSH1 0x24 DUP3 ADD MSTORE PUSH17 0x13D999995C881B9BDD08195E1C1A5C9959 PUSH1 0x7A SHL PUSH1 0x44 DUP3 ADD MSTORE PUSH1 0x64 SWAP1 REVERT JUMPDEST DUP4 DUP3 CALLVALUE PUSH2 0x349 JUMPI PUSH32 0xBAF0E44559D75D5F16083D7080809F9219D24470C13696B78F7A5345E758BE85 SWAP1 PUSH2 0x604 CALLDATASIZE PUSH2 0xAE8 JUMP JUMPDEST SWAP3 SWAP1 SWAP2 PUSH2 0x60F PUSH2 0xBC1 JUMP JUMPDEST DUP3 DUP6 MSTORE PUSH1 0x20 SWAP1 PUSH1 0x3 DUP3 MSTORE DUP1 DUP7 KECCAK256 DUP6 DUP8 MSTORE DUP3 MSTORE DUP1 DUP7 KECCAK256 PUSH1 0x2 PUSH2 0x655 DUP2 DUP4 ADD SWAP3 CALLER DUP11 MSTORE DUP4 DUP7 MSTORE PUSH2 0x642 PUSH1 0xFF DUP7 DUP13 KECCAK256 SLOAD AND PUSH2 0xBDF JUMP JUMPDEST CALLER DUP11 MSTORE PUSH1 0x1 DUP2 ADD DUP7 MSTORE DUP5 DUP11 KECCAK256 SLOAD SWAP1 PUSH2 0xB8F JUMP JUMPDEST POP ADD SWAP1 PUSH1 0xFF NOT SWAP2 DUP3 DUP2 SLOAD AND SWAP1 SSTORE CALLER DUP9 MSTORE DUP4 MSTORE DUP2 DUP8 KECCAK256 SWAP1 DUP2 SLOAD AND SWAP1 SSTORE MLOAD CALLER DUP2 MSTORE LOG3 DUP1 RETURN JUMPDEST DUP4 DUP3 CALLVALUE PUSH2 0x349 JUMPI DUP2 PUSH1 0x3 NOT CALLDATASIZE ADD SLT PUSH2 0x349 JUMPI PUSH1 0x20 SWAP1 MLOAD PUSH3 0x15180 DUP2 MSTORE RETURN JUMPDEST DUP4 CALLVALUE PUSH2 0x6F0 JUMPI DUP1 PUSH1 0x3 NOT CALLDATASIZE ADD SLT PUSH2 0x6F0 JUMPI PUSH2 0x6AF PUSH2 0xB2D JUMP JUMPDEST DUP1 SLOAD PUSH1 0x1 PUSH1 0x1 PUSH1 0xA0 SHL SUB NOT DUP2 AND DUP3 SSTORE DUP2 SWAP1 PUSH1 0x1 PUSH1 0x1 PUSH1 0xA0 SHL SUB AND PUSH32 0x8BE0079C531659141344CD1FD0A4F28419497F9722A3DAAFE3B4186F6B6457E0 DUP3 DUP1 LOG3 DUP1 RETURN JUMPDEST DUP1 REVERT JUMPDEST DUP4 DUP3 CALLVALUE PUSH2 0x349 JUMPI PUSH2 0x703 CALLDATASIZE PUSH2 0xB03 JUMP JUMPDEST SWAP3 SWAP2 DUP5 MSTORE PUSH1 0x3 PUSH1 0x20 MSTORE DUP2 DUP5 KECCAK256 SWAP1 DUP5 MSTORE PUSH1 0x20 MSTORE DUP1 DUP4 KECCAK256 SWAP2 PUSH1 0x1 DUP1 PUSH1 0xA0 SHL SUB AND SWAP2 DUP3 DUP5 MSTORE PUSH1 0x2 DUP1 DUP3 ADD PUSH1 0x20 MSTORE PUSH1 0xFF SWAP2 PUSH2 0x73E DUP4 DUP6 DUP9 KECCAK256 SLOAD AND PUSH2 0xBDF JUMP JUMPDEST PUSH1 0x1 SWAP5 DUP7 MSTORE DUP5 DUP2 ADD PUSH1 0x20 MSTORE DUP4 DUP7 KECCAK256 SLOAD SWAP6 JUMPDEST DUP7 DUP2 LT PUSH2 0x760 JUMPI PUSH1 0x20 DUP7 DUP7 MLOAD SWAP1 DUP2 MSTORE RETURN JUMPDEST DUP4 DUP4 PUSH2 0x76C DUP4 DUP6 PUSH2 0xB8F JUMP JUMPDEST POP ADD SLOAD AND PUSH2 0x783 JUMPI JUMPDEST PUSH2 0x77E SWAP1 PUSH2 0xC5B JUMP JUMPDEST PUSH2 0x74F JUMP JUMPDEST SWAP5 PUSH2 0x790 PUSH2 0x77E SWAP2 PUSH2 0xC5B JUMP JUMPDEST SWAP6 SWAP1 POP PUSH2 0x775 JUMP JUMPDEST DUP4 DUP3 CALLVALUE PUSH2 0x349 JUMPI DUP2 PUSH1 0x3 NOT CALLDATASIZE ADD SLT PUSH2 0x349 JUMPI PUSH1 0x20 SWAP1 PUSH1 0xFF PUSH1 0x2 SLOAD AND SWAP1 MLOAD SWAP1 ISZERO ISZERO DUP2 MSTORE RETURN JUMPDEST POP SWAP1 CALLVALUE PUSH2 0x172 JUMPI DUP3 PUSH1 0x3 NOT CALLDATASIZE ADD SLT PUSH2 0x172 JUMPI PUSH2 0x7D6 PUSH2 0xB2D JUMP JUMPDEST PUSH1 0x2 SLOAD SWAP1 PUSH1 0xFF DUP3 AND ISZERO PUSH2 0x818 JUMPI POP PUSH1 0xFF NOT AND PUSH1 0x2 SSTORE MLOAD CALLER DUP2 MSTORE PUSH32 0x5DB9EE0A495BF2E6FF9C91A7834C1BA4FDD244A5E8AA4E537BD38AEAE4B073AA SWAP1 PUSH1 0x20 SWAP1 LOG1 DUP1 RETURN JUMPDEST DUP3 MLOAD PUSH4 0x8DFC202B PUSH1 0xE0 SHL DUP2 MSTORE REVERT JUMPDEST DUP4 DUP3 CALLVALUE PUSH2 0x349 JUMPI PUSH1 0xFF DUP2 PUSH1 0x20 SWAP4 PUSH2 0x83C CALLDATASIZE PUSH2 0xB03 JUMP JUMPDEST SWAP2 DUP4 MSTORE PUSH1 0x3 DUP8 MSTORE DUP4 DUP4 KECCAK256 SWAP1 DUP4 MSTORE DUP7 MSTORE DUP3 DUP3 KECCAK256 PUSH1 0x1 PUSH1 0x1 PUSH1 0xA0 SHL SUB SWAP1 SWAP2 AND DUP3 MSTORE PUSH1 0x2 ADD DUP6 MSTORE KECCAK256 SLOAD SWAP2 MLOAD SWAP2 AND ISZERO ISZERO DUP2 MSTORE RETURN JUMPDEST POP DUP3 SWAP1 CALLVALUE PUSH2 0x349 JUMPI PUSH2 0x87D CALLDATASIZE PUSH2 0xB03 JUMP JUMPDEST PUSH2 0x888 SWAP4 SWAP2 SWAP4 PUSH2 0xBC1 JUMP JUMPDEST DUP3 DUP6 MSTORE PUSH1 0x20 SWAP2 PUSH1 0x3 DUP4 MSTORE DUP1 DUP7 KECCAK256 DUP6 DUP8 MSTORE DUP4 MSTORE PUSH2 0x8D5 DUP2 DUP8 KECCAK256 SWAP3 PUSH1 0x1 DUP1 PUSH1 0xA0 SHL SUB AND SWAP3 DUP4 DUP9 MSTORE PUSH1 0x2 DUP2 ADD DUP6 MSTORE PUSH2 0x8C2 PUSH1 0xFF DUP5 DUP11 KECCAK256 SLOAD AND PUSH2 0xBDF JUMP JUMPDEST DUP4 DUP9 MSTORE PUSH1 0x1 DUP2 ADD DUP6 MSTORE DUP3 DUP9 KECCAK256 SLOAD SWAP1 PUSH2 0xB8F JUMP JUMPDEST POP PUSH1 0x2 DUP2 ADD DUP1 SLOAD PUSH1 0xFF DUP2 PUSH1 0x8 SHR AND PUSH2 0x943 JUMPI PUSH2 0x100 SWAP1 PUSH2 0xFF00 NOT AND OR SWAP1 SSTORE PUSH3 0x15180 TIMESTAMP ADD SWAP1 DUP2 TIMESTAMP GT PUSH2 0x930 JUMPI PUSH1 0x3 ADD SSTORE MLOAD SWAP1 DUP2 MSTORE PUSH32 0x5E7D9F3701CB4DEC6D83D2299EE59D449557F633F60C6A34486DCB59A907CF0A SWAP2 SWAP1 LOG3 DUP1 RETURN JUMPDEST PUSH4 0x4E487B71 PUSH1 0xE0 SHL DUP9 MSTORE PUSH1 0x11 DUP10 MSTORE PUSH1 0x24 DUP9 REVERT JUMPDEST DUP4 MLOAD PUSH3 0x461BCD PUSH1 0xE5 SHL DUP2 MSTORE DUP1 DUP12 ADD DUP8 SWAP1 MSTORE PUSH1 0x11 PUSH1 0x24 DUP3 ADD MSTORE PUSH17 0x20B63932B0B23C903430B99037B33332B9 PUSH1 0x79 SHL PUSH1 0x44 DUP3 ADD MSTORE PUSH1 0x64 SWAP1 REVERT JUMPDEST POP DUP3 CALLVALUE PUSH2 0x6F0 JUMPI PUSH2 0x98A CALLDATASIZE PUSH2 0xAE8 JUMP JUMPDEST SWAP1 DUP3 MSTORE PUSH1 0x3 PUSH1 0x20 MSTORE DUP3 DUP3 KECCAK256 SWAP1 DUP3 MSTORE PUSH1 0x20 MSTORE DUP2 DUP2 KECCAK256 SWAP2 DUP2 DUP4 SLOAD SWAP1 JUMPDEST DUP2 DUP2 LT PUSH2 0x9B5 JUMPI PUSH1 0x20 DUP5 DUP5 MLOAD SWAP1 DUP2 MSTORE RETURN JUMPDEST PUSH1 0xFF PUSH1 0x2 PUSH2 0x9C3 DUP4 DUP9 PUSH2 0xB8F JUMP JUMPDEST POP ADD SLOAD AND PUSH2 0x9DA JUMPI JUMPDEST PUSH2 0x9D5 SWAP1 PUSH2 0xC5B JUMP JUMPDEST PUSH2 0x9A4 JUMP JUMPDEST SWAP3 PUSH2 0x9E7 PUSH2 0x9D5 SWAP2 PUSH2 0xC5B JUMP JUMPDEST SWAP4 SWAP1 POP PUSH2 0x9CC JUMP JUMPDEST POP DUP3 SWAP1 CALLVALUE PUSH2 0x349 JUMPI PUSH2 0xA00 CALLDATASIZE PUSH2 0xAE8 JUMP JUMPDEST SWAP2 PUSH2 0xA09 PUSH2 0xBC1 JUMP JUMPDEST DUP2 DUP5 MSTORE PUSH1 0x20 SWAP1 PUSH1 0x3 DUP3 MSTORE DUP1 DUP6 KECCAK256 DUP5 DUP7 MSTORE DUP3 MSTORE DUP1 DUP6 KECCAK256 PUSH2 0xA4E PUSH1 0x2 DUP3 ADD SWAP2 CALLER DUP9 MSTORE DUP3 DUP6 MSTORE PUSH2 0xA3B PUSH1 0xFF DUP6 DUP11 KECCAK256 SLOAD AND PUSH2 0xBDF JUMP JUMPDEST CALLER DUP9 MSTORE PUSH1 0x1 DUP2 ADD DUP6 MSTORE DUP4 DUP9 KECCAK256 SLOAD SWAP1 PUSH2 0xB8F JUMP JUMPDEST POP SWAP1 PUSH1 0x2 DUP3 ADD SWAP8 PUSH1 0x3 DUP10 SLOAD SWAP4 PUSH2 0xA69 PUSH1 0xFF DUP7 PUSH1 0x8 SHR AND PUSH2 0xC1D JUMP JUMPDEST ADD SLOAD TIMESTAMP GT PUSH2 0xAB5 JUMPI POP PUSH32 0x9A5B37DEEB3286740D007E8020660109442179CBF50F003042216DC06AE784B2 SWAP5 SWAP6 SWAP7 SWAP8 PUSH1 0xFF NOT DUP1 SWAP4 AND SWAP1 SSTORE CALLER DUP9 MSTORE DUP4 MSTORE DUP2 DUP8 KECCAK256 SWAP1 DUP2 SLOAD AND SWAP1 SSTORE MLOAD CALLER DUP2 MSTORE LOG3 DUP1 RETURN JUMPDEST DUP4 MLOAD PUSH3 0x461BCD PUSH1 0xE5 SHL DUP2 MSTORE SWAP1 DUP2 ADD DUP6 SWAP1 MSTORE PUSH1 0xD PUSH1 0x24 DUP3 ADD MSTORE PUSH13 0x13D999995C88195E1C1A5C9959 PUSH1 0x9A SHL PUSH1 0x44 DUP3 ADD MSTORE PUSH1 0x64 SWAP1 REVERT JUMPDEST PUSH1 0x40 SWAP1 PUSH1 0x3 NOT ADD SLT PUSH2 0xAFE JUMPI PUSH1 0x4 CALLDATALOAD SWAP1 PUSH1 0x24 CALLDATALOAD SWAP1 JUMP JUMPDEST PUSH1 0x0 DUP1 REVERT JUMPDEST PUSH1 0x60 SWAP1 PUSH1 0x3 NOT ADD SLT PUSH2 0xAFE JUMPI PUSH1 0x4 CALLDATALOAD SWAP1 PUSH1 0x24 CALLDATALOAD SWAP1 PUSH1 0x44 CALLDATALOAD PUSH1 0x1 PUSH1 0x1 PUSH1 0xA0 SHL SUB DUP2 AND DUP2 SUB PUSH2 0xAFE JUMPI SWAP1 JUMP JUMPDEST PUSH1 0x0 SLOAD PUSH1 0x1 PUSH1 0x1 PUSH1 0xA0 SHL SUB AND CALLER SUB PUSH2 0xB41 JUMPI JUMP JUMPDEST PUSH1 0x40 MLOAD PUSH4 0x118CDAA7 PUSH1 0xE0 SHL DUP2 MSTORE CALLER PUSH1 0x4 DUP3 ADD MSTORE PUSH1 0x24 SWAP1 REVERT JUMPDEST PUSH1 0x40 MLOAD SWAP1 PUSH1 0xA0 DUP3 ADD DUP3 DUP2 LT PUSH8 0xFFFFFFFFFFFFFFFF DUP3 GT OR PUSH2 0xB79 JUMPI PUSH1 0x40 MSTORE JUMP JUMPDEST PUSH4 0x4E487B71 PUSH1 0xE0 SHL PUSH1 0x0 MSTORE PUSH1 0x41 PUSH1 0x4 MSTORE PUSH1 0x24 PUSH1 0x0 REVERT JUMPDEST DUP1 SLOAD DUP3 LT ISZERO PUSH2 0xBAB JUMPI PUSH1 0x0 MSTORE PUSH1 0x20 PUSH1 0x0 KECCAK256 SWAP1 PUSH1 0x2 SHL ADD SWAP1 PUSH1 0x0 SWAP1 JUMP JUMPDEST PUSH4 0x4E487B71 PUSH1 0xE0 SHL PUSH1 0x0 MSTORE PUSH1 0x32 PUSH1 0x4 MSTORE PUSH1 0x24 PUSH1 0x0 REVERT JUMPDEST PUSH1 0xFF PUSH1 0x2 SLOAD AND PUSH2 0xBCD JUMPI JUMP JUMPDEST PUSH1 0x40 MLOAD PUSH4 0xD93C0665 PUSH1 0xE0 SHL DUP2 MSTORE PUSH1 0x4 SWAP1 REVERT JUMPDEST ISZERO PUSH2 0xBE6 JUMPI JUMP JUMPDEST PUSH1 0x40 MLOAD PUSH3 0x461BCD PUSH1 0xE5 SHL DUP2 MSTORE PUSH1 0x20 PUSH1 0x4 DUP3 ADD MSTORE PUSH1 0xF PUSH1 0x24 DUP3 ADD MSTORE PUSH15 0x139BDD081A5B881DD85A5D1B1A5CDD PUSH1 0x8A SHL PUSH1 0x44 DUP3 ADD MSTORE PUSH1 0x64 SWAP1 REVERT JUMPDEST ISZERO PUSH2 0xC24 JUMPI JUMP JUMPDEST PUSH1 0x40 MLOAD PUSH3 0x461BCD PUSH1 0xE5 SHL DUP2 MSTORE PUSH1 0x20 PUSH1 0x4 DUP3 ADD MSTORE PUSH1 0xF PUSH1 0x24 DUP3 ADD MSTORE PUSH15 0x27379030B1BA34BB329037B33332B9 PUSH1 0x89 SHL PUSH1 0x44 DUP3 ADD MSTORE PUSH1 0x64 SWAP1 REVERT JUMPDEST PUSH1 0x0 NOT DUP2 EQ PUSH2 0xC6A JUMPI PUSH1 0x1 ADD SWAP1 JUMP JUMPDEST PUSH4 0x4E487B71 PUSH1 0xE0 SHL PUSH1 0x0 MSTORE PUSH1 0x11 PUSH1 0x4 MSTORE PUSH1 0x24 PUSH1 0x0 REVERT JUMPDEST SWAP1 PUSH1 0x3 PUSH2 0xC8B PUSH2 0xB59 JUMP JUMPDEST DUP4 SLOAD PUSH1 0x1 PUSH1 0x1 PUSH1 0xA0 SHL SUB AND DUP2 MSTORE PUSH1 0x1 DUP5 ADD SLOAD PUSH1 0x20 DUP3 ADD MSTORE PUSH1 0x2 DUP5 ADD SLOAD PUSH1 0xFF DUP2 DUP2 AND ISZERO ISZERO PUSH1 0x40 DUP5 ADD MSTORE PUSH1 0x8 SWAP2 SWAP1 SWAP2 SHR AND ISZERO ISZERO PUSH1 0x60 DUP3 ADD MSTORE SWAP3 ADD SLOAD PUSH1 0x80 DUP4 ADD MSTORE JUMP JUMPDEST SWAP1 PUSH1 0x0 SWAP2 DUP3 MSTORE PUSH1 0x3 PUSH1 0x20 MSTORE PUSH1 0x40 SWAP1 DUP2 DUP4 KECCAK256 SWAP1 DUP4 MSTORE PUSH1 0x20 MSTORE DUP1 DUP3 KECCAK256 SWAP1 DUP3 SWAP2 DUP1 SLOAD SWAP3 JUMPDEST DUP4 DUP2 LT PUSH2 0xCFA JUMPI POP POP POP POP SWAP1 JUMP JUMPDEST PUSH2 0xD0D PUSH2 0xD07 DUP3 DUP5 PUSH2 0xB8F JUMP JUMPDEST POP PUSH2 0xC80 JUMP JUMPDEST DUP4 DUP2 ADD MLOAD ISZERO ISZERO DUP1 PUSH2 0xD3F JUMPI JUMPDEST PUSH2 0xD2C JUMPI POP PUSH2 0xD27 SWAP1 PUSH2 0xC5B JUMP JUMPDEST PUSH2 0xCEC JUMP JUMPDEST MLOAD PUSH1 0x1 PUSH1 0x1 PUSH1 0xA0 SHL SUB AND SWAP6 SWAP5 POP POP POP POP POP JUMP JUMPDEST POP PUSH1 0x60 DUP2 ADD MLOAD ISZERO PUSH2 0xD19 JUMP JUMPDEST SWAP2 SWAP1 PUSH1 0x0 SWAP3 DUP4 MSTORE PUSH1 0x3 PUSH1 0x20 MSTORE PUSH1 0x40 DUP4 KECCAK256 SWAP1 DUP4 MSTORE PUSH1 0x20 MSTORE PUSH1 0x40 DUP3 KECCAK256 SWAP1 PUSH1 0x1 DUP1 PUSH1 0xA0 SHL SUB AND DUP3 MSTORE PUSH1 0x2 DUP2 ADD PUSH1 0x20 MSTORE PUSH1 0xFF PUSH1 0x40 DUP4 KECCAK256 SLOAD AND ISZERO PUSH2 0xDBA JUMPI DUP1 PUSH1 0x40 PUSH2 0xD9D SWAP4 PUSH1 0x1 PUSH2 0xD07 SWAP5 ADD PUSH1 0x20 MSTORE KECCAK256 SLOAD SWAP1 PUSH2 0xB8F JUMP JUMPDEST PUSH1 0x60 DUP2 ADD MLOAD ISZERO ISZERO SWAP1 DUP2 PUSH2 0xDAE JUMPI POP SWAP1 JUMP JUMPDEST PUSH1 0x80 SWAP2 POP ADD MLOAD TIMESTAMP GT ISZERO SWAP1 JUMP JUMPDEST POP SWAP1 JUMP INVALID LOG2 PUSH5 0x6970667358 0x22 SLT KECCAK256 0xDF 0xE3 OR 0xE8 PUSH13 0x9A43A80FA7156E2A315FDA53B9 SDIV PUSH20 0xDB8345DAC702DA68741F0A9E64736F6C63430008 EQ STOP CALLER "},"methodIdentifiers":{"OFFER_DURATION()":"75459c11","clearWaitlistEntry(uint256,uint256,address)":"b07cd487","completeWaitlistPurchase(uint256,uint256)":"26f7d7ab","expireOffer(uint256,uint256,address)":"81fde3b0","getNextWaitingUser(uint256,uint256)":"ad3c4bea","getWaitlistLength(uint256,uint256)":"342b3222","getWaitlistPosition(uint256,uint256,address)":"6605afd9","hasActiveOffer(uint256,uint256,address)":"b2c460f4","isUserWaiting(uint256,uint256,address)":"3964fdaf","joinWaitlist(uint256,uint256)":"d18a5083","leaveWaitlist(uint256,uint256)":"7af359ab","offerTicketToWaitlisted(uint256,uint256,address)":"3727b447","owner()":"8da5cb5b","pause()":"8456cb59","paused()":"5c975abb","renounceOwnership()":"715018a6","transferOwnership(address)":"f2fde38b","unpause()":"3f4ba83a"}}}}}