{"contracts/core/EventManager.sol":{"EventManager":{"abi":[{"inputs":[{"internalType":"address","name":"refundEscrowAddress","type":"address"}],"stateMutability":"nonpayable","type":"constructor"},{"inputs":[],"name":"EnforcedPause","type":"error"},{"inputs":[],"name":"ExpectedPause","type":"error"},{"inputs":[{"internalType":"address","name":"owner","type":"address"}],"name":"OwnableInvalidOwner","type":"error"},{"inputs":[{"internalType":"address","name":"account","type":"address"}],"name":"OwnableUnauthorizedAccount","type":"error"},{"inputs":[],"name":"ReentrancyGuardReentrantCall","type":"error"},{"anonymous":false,"inputs":[{"indexed":true,"internalType":"uint256","name":"eventId","type":"uint256"}],"name":"EventCancelled","type":"event"},{"anonymous":false,"inputs":[{"indexed":true,"internalType":"uint256","name":"eventId","type":"uint256"},{"indexed":false,"internalType":"string","name":"name","type":"string"},{"indexed":false,"internalType":"uint256","name":"date","type":"uint256"},{"indexed":false,"internalType":"address","name":"organizer","type":"address"}],"name":"EventCreated","type":"event"},{"anonymous":false,"inputs":[{"indexed":true,"internalType":"address","name":"previousOwner","type":"address"},{"indexed":true,"internalType":"address","name":"newOwner","type":"address"}],"name":"OwnershipTransferred","type":"event"},{"anonymous":false,"inputs":[{"indexed":false,"internalType":"address","name":"account","type":"address"}],"name":"Paused","type":"event"},{"anonymous":false,"inputs":[{"indexed":true,"internalType":"address","name":"newEscrow","type":"address"}],"name":"RefundEscrowUpdated","type":"event"},{"anonymous":false,"inputs":[{"indexed":true,"internalType":"uint256","name":"eventId","type":"uint256"},{"indexed":true,"internalType":"address","name":"organizer","type":"address"},{"indexed":false,"internalType":"uint256","name":"amount","type":"uint256"}],"name":"RevenueWithdrawn","type":"event"},{"anonymous":false,"inputs":[{"indexed":true,"internalType":"uint256","name":"eventId","type":"uint256"},{"indexed":true,"internalType":"uint256","name":"ticketId","type":"uint256"},{"indexed":false,"internalType":"address","name":"buyer","type":"address"}],"name":"TicketPurchased","type":"event"},{"anonymous":false,"inputs":[{"indexed":false,"internalType":"address","name":"account","type":"address"}],"name":"Unpaused","type":"event"},{"inputs":[],"name":"CANCELLATION_WINDOW","outputs":[{"internalType":"uint256","name":"","type":"uint256"}],"stateMutability":"view","type":"function"},{"inputs":[],"name":"MIN_EVENT_DELAY","outputs":[{"internalType":"uint256","name":"","type":"uint256"}],"stateMutability":"view","type":"function"},{"inputs":[],"name":"PLATFORM_FEE_PERCENTAGE","outputs":[{"internalType":"uint256","name":"","type":"uint256"}],"stateMutability":"view","type":"function"},{"inputs":[{"internalType":"uint256","name":"eventId","type":"uint256"}],"name":"cancelEvent","outputs":[],"stateMutability":"nonpayable","type":"function"},{"inputs":[{"internalType":"string","name":"name","type":"string"},{"internalType":"uint256","name":"date","type":"uint256"},{"internalType":"uint256","name":"basePrice","type":"uint256"},{"internalType":"uint256[]","name":"zoneCapacities","type":"uint256[]"},{"internalType":"uint256[]","name":"zonePrices","type":"uint256[]"}],"name":"createEvent","outputs":[{"internalType":"uint256","name":"","type":"uint256"}],"stateMutability":"nonpayable","type":"function"},{"inputs":[{"internalType":"uint256","name":"eventId","type":"uint256"}],"name":"getEvent","outputs":[{"components":[{"internalType":"string","name":"name","type":"string"},{"internalType":"uint256","name":"date","type":"uint256"},{"internalType":"uint256","name":"basePrice","type":"uint256"},{"internalType":"address","name":"organizer","type":"address"},{"internalType":"bool","name":"cancelled","type":"bool"},{"internalType":"uint256[]","name":"zoneCapacities","type":"uint256[]"},{"internalType":"uint256[]","name":"zonePrices","type":"uint256[]"}],"internalType":"struct IEventManager.Event","name":"","type":"tuple"}],"stateMutability":"view","type":"function"},{"inputs":[{"internalType":"uint256","name":"eventId","type":"uint256"}],"name":"getEventRevenue","outputs":[{"internalType":"uint256","name":"","type":"uint256"}],"stateMutability":"view","type":"function"},{"inputs":[{"internalType":"uint256","name":"eventId","type":"uint256"}],"name":"getOrganizer","outputs":[{"internalType":"address","name":"","type":"address"}],"stateMutability":"view","type":"function"},{"inputs":[{"internalType":"uint256","name":"eventId","type":"uint256"},{"internalType":"uint256","name":"zoneId","type":"uint256"}],"name":"getZone","outputs":[{"components":[{"internalType":"uint256","name":"capacity","type":"uint256"},{"internalType":"uint256","name":"price","type":"uint256"},{"internalType":"uint256","name":"availableSeats","type":"uint256"}],"internalType":"struct IEventManager.Zone","name":"","type":"tuple"}],"stateMutability":"view","type":"function"},{"inputs":[{"internalType":"uint256","name":"eventId","type":"uint256"}],"name":"hasEventConcluded","outputs":[{"internalType":"bool","name":"","type":"bool"}],"stateMutability":"view","type":"function"},{"inputs":[{"internalType":"uint256","name":"eventId","type":"uint256"},{"internalType":"address","name":"user","type":"address"}],"name":"hasTicket","outputs":[{"internalType":"bool","name":"","type":"bool"}],"stateMutability":"view","type":"function"},{"inputs":[],"name":"owner","outputs":[{"internalType":"address","name":"","type":"address"}],"stateMutability":"view","type":"function"},{"inputs":[],"name":"pause","outputs":[],"stateMutability":"nonpayable","type":"function"},{"inputs":[],"name":"paused","outputs":[{"internalType":"bool","name":"","type":"bool"}],"stateMutability":"view","type":"function"},{"inputs":[{"internalType":"uint256","name":"eventId","type":"uint256"},{"internalType":"uint256","name":"zoneId","type":"uint256"}],"name":"purchaseTicket","outputs":[],"stateMutability":"payable","type":"function"},{"inputs":[],"name":"refundEscrow","outputs":[{"internalType":"contract IRefundEscrow","name":"","type":"address"}],"stateMutability":"view","type":"function"},{"inputs":[],"name":"renounceOwnership","outputs":[],"stateMutability":"nonpayable","type":"function"},{"inputs":[{"internalType":"address","name":"newEscrow","type":"address"}],"name":"setRefundEscrow","outputs":[],"stateMutability":"nonpayable","type":"function"},{"inputs":[{"internalType":"address","name":"newOwner","type":"address"}],"name":"transferOwnership","outputs":[],"stateMutability":"nonpayable","type":"function"},{"inputs":[],"name":"unpause","outputs":[],"stateMutability":"nonpayable","type":"function"},{"inputs":[{"internalType":"uint256","name":"eventId","type":"uint256"}],"name":"withdrawEventRevenue","outputs":[],"stateMutability":"nonpayable","type":"function"},{"stateMutability":"payable","type":"receive"}],"evm":{"bytecode":{"linkReferences":{},"object":"60803461012057601f6117a838819003918201601f19168301916001600160401b038311848410176101255780849260209460405283398101031261012057516001600160a01b0380821691829003610120573315610107576000549060018060a01b0319913383821617600055604051913391167f8be0079c531659141344cd1fd0a4f28419497f9722a3daafe3b4186f6b6457e0600080a36001805560ff196002541660025582156100c55750600554161760055560405161166c908161013c8239f35b62461bcd60e51b815260206004820152601660248201527f496e76616c696420657363726f772061646472657373000000000000000000006044820152606490fd5b604051631e4fbdf760e01b815260006004820152602490fd5b600080fd5b634e487b7160e01b600052604160045260246000fdfe608080604052600436101561001d575b50361561001b57600080fd5b005b600090813560e01c90816315548232146112ef575080633f4ba83a146112845780633f69babd146110ee578063455b848f1461104657806346eff86714610fca5780634843d2b114610f735780634be9194414610f4a5780634cbd6fc614610f20578063524c15a214610eea5780635c975abb14610ec75780636816aa7d14610ea95780636d1884e014610ced578063715018a614610c935780638456cb5914610c385780638da5cb5b14610c1157806392a57fca14610bf3578063b6d9e86814610a70578063bdbbb0cb14610719578063d88a1498146106ea578063efdf49d71461019f5763f2fde38b0361000f573461019c57602036600319011261019c5761012661130a565b61012e6114b1565b6001600160a01b0390811690811561018357600054826bffffffffffffffffffffffff60a01b821617600055167f8be0079c531659141344cd1fd0a4f28419497f9722a3daafe3b4186f6b6457e0600080a380f35b604051631e4fbdf760e01b815260048101849052602490fd5b80fd5b503461019c5760a036600319011261019c5760043567ffffffffffffffff81116106e257366023820112156106e257818160040135916101de8361142e565b926101ec604051948561140c565b80845236602482840101116106e65780602460209301838601378301015260643567ffffffffffffffff81116106e65761022a90369060040161144a565b9160843567ffffffffffffffff81116106e25761024b90369060040161144a565b90610254611567565b6201518042018042116106ce57602435111561069a57835182510361065d5761027e6003546114dd565b8060035560405161028e816113f0565b848152602435602082015260443560408201523360608201528260808201528560a08201528360c082015281835260066020526040832090805180519067ffffffffffffffff821161059f5781906102e685546114ec565b601f8111610622575b50602090601f83116001146105be5787926105b3575b50508160011b916000199060031b1c19161782555b60208101516001830155604081015160028301556003820160018060a01b0360608301511681549060ff60a01b6080850151151560a01b16916affffffffffffffffffffff60a81b161717905560a081015180519067ffffffffffffffff821161059f57600160401b821161059f576020906004850154836004870155808410610582575b500160048401865260208620865b83811061056e575050505060c001519081519167ffffffffffffffff831161055a57600160401b831161055a57602060059182840154858486015580861061053e575b50019101845260208420845b83811061052a5750505050815b85518110156104d55760443561041f828661153d565b51106104985780610433610493928861153d565b516002610440838861153d565b5161044b848b61153d565b51906040519361045a856113d4565b845260208401908152604084019182528688526007602052604088208589526020526040882093518455516001840155519101556114dd565b610409565b60405162461bcd60e51b81526020600482015260156024820152745a6f6e652070726963652062656c6f77206261736560581b6044820152606490fd5b602082807f9c2f02f9bc3109d6ef9e6ddb6bd47137ccc8e9deabc67b747c58342a70d9e2c861051289604051918291606083526060830190611336565b602435878301523360408301520390a2604051908152f35b6001906020845194019381840155016103fc565b8484018852828820610554918101908701611526565b386103f0565b634e487b7160e01b85526041600452602485fd5b6001906020845194019381840155016103ad565b600486018852828820610599918101908501611526565b3861039f565b634e487b7160e01b86526041600452602486fd5b015190503880610305565b858852602088209250601f198416885b81811061060a57509084600195949392106105f1575b505050811b01825561031a565b015160001960f88460031b161c191690553880806105e4565b929360206001819287860151815501950193016105ce565b61064d9086895260208920601f850160051c81019160208610610653575b601f0160051c0190611526565b386102ef565b9091508190610640565b60405162461bcd60e51b8152602060048201526015602482015274082e4e4c2f240d8cadccee8d040dad2e6dac2e8c6d605b1b6044820152606490fd5b60405162461bcd60e51b815260206004820152600c60248201526b496e76616c6964206461746560a01b6044820152606490fd5b634e487b7160e01b82526011600452602482fd5b5080fd5b8280fd5b503461019c57602036600319011261019c57600160406020926004358152600684522001544211604051908152f35b5061072336611320565b9061072c6115c2565b610734611567565b808352602091600683526040842060ff600382015460a01c16610a395760010154421015610a0557818452600883526040842033600052835260ff604060002054166109cb578184526007835260408420908452825260408320916002830192835415610996576001018054341061095a576107b16004546114dd565b9384600455805480156109465760001901905582855260088252604085203360005282526040600020600160ff198254161790556005340234810460051434151715610932576064610804910434611585565b8386526009835260408620805491820180921161091c57558481548034116108c2575b50600554915490916001600160a01b0316803b156106e65782906044604051809481936326f71c9f60e21b83528960048401528a60248401525af180156108b75761089f575b50507f94c5953e15f54d38b82a662bdd5739fc91af3a23d3ef7e67269dfaeee71a813c90604051338152a36001805580f35b6108a8906113aa565b6108b357833861086d565b8380fd5b6040513d84823e3d90fd5b81806108cf819334611585565b335af16108da611592565b50156108e7578438610827565b60405162461bcd60e51b815260048101839052600d60248201526c1499599d5b990819985a5b1959609a1b6044820152606490fd5b634e487b7160e01b600052601160045260246000fd5b634e487b7160e01b86526011600452602486fd5b634e487b7160e01b87526011600452602487fd5b60405162461bcd60e51b8152600481018390526014602482015273125b9cdd59999a58da595b9d081c185e5b595b9d60621b6044820152606490fd5b60405162461bcd60e51b815260048101839052600d60248201526c169bdb99481cdbdb19081bdd5d609a1b6044820152606490fd5b60405162461bcd60e51b8152600481018490526012602482015271105b1c9958591e481a185cc81d1a58dad95d60721b6044820152606490fd5b60405162461bcd60e51b815260048101849052600c60248201526b115d995b9d081c185cdcd95960a21b6044820152606490fd5b60405162461bcd60e51b815260048101859052600f60248201526e115d995b9d0818d85b98d95b1b1959608a1b6044820152606490fd5b503461019c576020806003193601126106e257600435610a8e6115c2565b808352600682526040832060038101546001600160a01b03163303610bbe5760010154421115610b8757808352600982526040832054918215610b5657818452600981528360408120558380808086335af1610ae8611592565b5015610b20577f841fbab03327efe47fb7d133055c9aa87df38ff76b5919d1c190e0067c5e34b3906040519384523393a36001805580f35b6064906040519062461bcd60e51b82526004820152600f60248201526e151c985b9cd9995c8819985a5b1959608a1b6044820152fd5b6064906040519062461bcd60e51b82526004820152600a6024820152694e6f20726576656e756560b01b6044820152fd5b60405162461bcd60e51b815260048101839052600f60248201526e115d995b9d081b9bdd08195b991959608a1b6044820152606490fd5b60405162461bcd60e51b815260048101849052600d60248201526c2737ba1037b933b0b734bd32b960991b6044820152606490fd5b503461019c578060031936011261019c576020604051621275008152f35b503461019c578060031936011261019c57546040516001600160a01b039091168152602090f35b503461019c578060031936011261019c57610c516114b1565b610c59611567565b600160ff1960025416176002557f62e78cea01bee320cd4e420270b5ea74000d11b0c9f74754ebdbfc544b05a2586020604051338152a180f35b503461019c578060031936011261019c57610cac6114b1565b600080546001600160a01b0319811682556001600160a01b03167f8be0079c531659141344cd1fd0a4f28419497f9722a3daafe3b4186f6b6457e08280a380f35b503461019c576020908160031936011261019c5760c0604051610d0f816113f0565b6060918183809352848682015284604082015284838201528460808201528260a082015201526004358252600683526040822060405192610d4f846113f0565b60405181835492610d5f846114ec565b908184526001948581169081600014610e8d5750600114610e5d575b60e089610e598a8a610e488b8b8b610d95818d038261140c565b8552810154928685019384526002820154604086019081526003830154918087019060018060a01b0392838516835260ff60808a019560a01c1615158552610e18610df56005610de760048a016115e5565b9860a08d01998a52016115e5565b9960c081019a8b526040519d8d8f9e928f938452519201526101008d0190611336565b975160408c015251908a01525116608088015251151560a08701525191601f1992838783030160c0880152611376565b9151908483030160e0850152611376565b0390f35b91508482528782205b818310610e7a575050810186018282610d7b565b80548484018a0152918801918401610e66565b60ff1916858b01525050151560051b8201870190508282610d7b565b503461019c578060031936011261019c576020604051620151808152f35b503461019c578060031936011261019c57602060ff600254166040519015158152f35b503461019c57602036600319011261019c576020906004358152600682526003604060018060a01b039220015416604051908152f35b503461019c57602036600319011261019c5760406020916004358152600983522054604051908152f35b503461019c578060031936011261019c576005546040516001600160a01b039091168152602090f35b503461019c57604036600319011261019c576024356001600160a01b0381169190829003610fc557604090600435815260086020522090600052602052602060ff604060002054166040519015158152f35b600080fd5b503461019c576040606091610fde36611320565b9082848051610fec816113d4565b82815282602082015201528252600760205282822090825260205220604051611014816113d4565b815491828252604060026001830154926020850193845201549201918252604051928352516020830152516040820152f35b503461019c57602036600319011261019c5761106061130a565b6110686114b1565b6001600160a01b031680156110b057600580546001600160a01b031916821790557fea7e8fdf33d9a7d6d7dd09ddc69d89b8eb6f262d7eb9ae76a2470e3c4cfbc0c08280a280f35b60405162461bcd60e51b8152602060048201526016602482015275496e76616c696420657363726f77206164647265737360501b6044820152606490fd5b503461019c57602036600319011261019c5760043561110b611567565b8082526006602052604082206003810180546001600160a01b0393909290919084841633148015611278575b156112445760ff8460a01c1661120b576001015442116111cd5760ff60a01b19909216600160a01b1790915560405191839190817fdc3cb569b066460f4a22dffa05317bdcce5d3826382ed49a21f13e5fa2063d398480a26005541690813b156106e65783838193602493633f69babd60e01b845260048401525af180156108b7576111c1575080f35b6111ca906113aa565b80f35b60405162461bcd60e51b8152602060048201526016602482015275115d995b9d08185b1c9958591e481bd8d8dd5c9c995960521b6044820152606490fd5b60405162461bcd60e51b8152602060048201526011602482015270105b1c9958591e4818d85b98d95b1b1959607a1b6044820152606490fd5b60405162461bcd60e51b815260206004820152600c60248201526b155b985d5d1a1bdc9a5e995960a21b6044820152606490fd5b50848654163314611137565b503461019c578060031936011261019c5761129d6114b1565b60025460ff8116156112dd5760ff19166002557f5db9ee0a495bf2e6ff9c91a7834c1ba4fdd244a5e8aa4e537bd38aeae4b073aa6020604051338152a180f35b604051638dfc202b60e01b8152600490fd5b9050346106e257816003193601126106e25780600560209252f35b600435906001600160a01b0382168203610fc557565b6040906003190112610fc5576004359060243590565b919082519283825260005b848110611362575050826000602080949584010152601f8019910116010190565b602081830181015184830182015201611341565b90815180825260208080930193019160005b828110611396575050505090565b835185529381019392810192600101611388565b67ffffffffffffffff81116113be57604052565b634e487b7160e01b600052604160045260246000fd5b6060810190811067ffffffffffffffff8211176113be57604052565b60e0810190811067ffffffffffffffff8211176113be57604052565b90601f8019910116810190811067ffffffffffffffff8211176113be57604052565b67ffffffffffffffff81116113be57601f01601f191660200190565b9080601f83011215610fc55781359067ffffffffffffffff82116113be578160051b6040519360209361147f8584018761140c565b85528380860192820101928311610fc5578301905b8282106114a2575050505090565b81358152908301908301611494565b6000546001600160a01b031633036114c557565b60405163118cdaa760e01b8152336004820152602490fd5b600019811461091c5760010190565b90600182811c9216801561151c575b602083101461150657565b634e487b7160e01b600052602260045260246000fd5b91607f16916114fb565b818110611531575050565b60008155600101611526565b80518210156115515760209160051b010190565b634e487b7160e01b600052603260045260246000fd5b60ff6002541661157357565b60405163d93c066560e01b8152600490fd5b9190820391821161091c57565b3d156115bd573d906115a38261142e565b916115b1604051938461140c565b82523d6000602084013e565b606090565b6002600154146115d3576002600155565b604051633ee5aeb560e01b8152600490fd5b9060405191828154918282526020928383019160005283600020936000905b82821061161c5750505061161a9250038361140c565b565b85548452600195860195889550938101939091019061160456fea26469706673582212207d41de100ec8dc989ae72b39ecbfc0ee740e4dd98f4f26f3943ee6fe62b9dc6264736f6c63430008140033","opcodes":"PUSH1 0x80 CALLVALUE PUSH2 0x120 JUMPI PUSH1 0x1F PUSH2 0x17A8 CODESIZE DUP2 SWAP1 SUB SWAP2 DUP3 ADD PUSH1 0x1F NOT AND DUP4 ADD SWAP2 PUSH1 0x1 PUSH1 0x1 PUSH1 0x40 SHL SUB DUP4 GT DUP5 DUP5 LT OR PUSH2 0x125 JUMPI DUP1 DUP5 SWAP3 PUSH1 0x20 SWAP5 PUSH1 0x40 MSTORE DUP4 CODECOPY DUP2 ADD SUB SLT PUSH2 0x120 JUMPI MLOAD PUSH1 0x1 PUSH1 0x1 PUSH1 0xA0 SHL SUB DUP1 DUP3 AND SWAP2 DUP3 SWAP1 SUB PUSH2 0x120 JUMPI CALLER ISZERO PUSH2 0x107 JUMPI PUSH1 0x0 SLOAD SWAP1 PUSH1 0x1 DUP1 PUSH1 0xA0 SHL SUB NOT SWAP2 CALLER DUP4 DUP3 AND OR PUSH1 0x0 SSTORE PUSH1 0x40 MLOAD SWAP2 CALLER SWAP2 AND PUSH32 0x8BE0079C531659141344CD1FD0A4F28419497F9722A3DAAFE3B4186F6B6457E0 PUSH1 0x0 DUP1 LOG3 PUSH1 0x1 DUP1 SSTORE PUSH1 0xFF NOT PUSH1 0x2 SLOAD AND PUSH1 0x2 SSTORE DUP3 ISZERO PUSH2 0xC5 JUMPI POP PUSH1 0x5 SLOAD AND OR PUSH1 0x5 SSTORE PUSH1 0x40 MLOAD PUSH2 0x166C SWAP1 DUP2 PUSH2 0x13C DUP3 CODECOPY RETURN JUMPDEST PUSH3 0x461BCD PUSH1 0xE5 SHL DUP2 MSTORE PUSH1 0x20 PUSH1 0x4 DUP3 ADD MSTORE PUSH1 0x16 PUSH1 0x24 DUP3 ADD MSTORE PUSH32 0x496E76616C696420657363726F77206164647265737300000000000000000000 PUSH1 0x44 DUP3 ADD MSTORE PUSH1 0x64 SWAP1 REVERT JUMPDEST PUSH1 0x40 MLOAD PUSH4 0x1E4FBDF7 PUSH1 0xE0 SHL DUP2 MSTORE PUSH1 0x0 PUSH1 0x4 DUP3 ADD MSTORE PUSH1 0x24 SWAP1 REVERT JUMPDEST PUSH1 0x0 DUP1 REVERT JUMPDEST PUSH4 0x4E487B71 PUSH1 0xE0 SHL PUSH1 0x0 MSTORE PUSH1 0x41 PUSH1 0x4 MSTORE PUSH1 0x24 PUSH1 0x0 REVERT INVALID PUSH1 0x80 DUP1 PUSH1 0x40 MSTORE PUSH1 0x4 CALLDATASIZE LT ISZERO PUSH2 0x1D JUMPI JUMPDEST POP CALLDATASIZE ISZERO PUSH2 0x1B JUMPI PUSH1 0x0 DUP1 REVERT JUMPDEST STOP JUMPDEST PUSH1 0x0 SWAP1 DUP2 CALLDATALOAD PUSH1 0xE0 SHR SWAP1 DUP2 PUSH4 0x15548232 EQ PUSH2 0x12EF JUMPI POP DUP1 PUSH4 0x3F4BA83A EQ PUSH2 0x1284 JUMPI DUP1 PUSH4 0x3F69BABD EQ PUSH2 0x10EE JUMPI DUP1 PUSH4 0x455B848F EQ PUSH2 0x1046 JUMPI DUP1 PUSH4 0x46EFF867 EQ PUSH2 0xFCA JUMPI DUP1 PUSH4 0x4843D2B1 EQ PUSH2 0xF73 JUMPI DUP1 PUSH4 0x4BE91944 EQ PUSH2 0xF4A JUMPI DUP1 PUSH4 0x4CBD6FC6 EQ PUSH2 0xF20 JUMPI DUP1 PUSH4 0x524C15A2 EQ PUSH2 0xEEA JUMPI DUP1 PUSH4 0x5C975ABB EQ PUSH2 0xEC7 JUMPI DUP1 PUSH4 0x6816AA7D EQ PUSH2 0xEA9 JUMPI DUP1 PUSH4 0x6D1884E0 EQ PUSH2 0xCED JUMPI DUP1 PUSH4 0x715018A6 EQ PUSH2 0xC93 JUMPI DUP1 PUSH4 0x8456CB59 EQ PUSH2 0xC38 JUMPI DUP1 PUSH4 0x8DA5CB5B EQ PUSH2 0xC11 JUMPI DUP1 PUSH4 0x92A57FCA EQ PUSH2 0xBF3 JUMPI DUP1 PUSH4 0xB6D9E868 EQ PUSH2 0xA70 JUMPI DUP1 PUSH4 0xBDBBB0CB EQ PUSH2 0x719 JUMPI DUP1 PUSH4 0xD88A1498 EQ PUSH2 0x6EA JUMPI DUP1 PUSH4 0xEFDF49D7 EQ PUSH2 0x19F JUMPI PUSH4 0xF2FDE38B SUB PUSH2 0xF JUMPI CALLVALUE PUSH2 0x19C JUMPI PUSH1 0x20 CALLDATASIZE PUSH1 0x3 NOT ADD SLT PUSH2 0x19C JUMPI PUSH2 0x126 PUSH2 0x130A JUMP JUMPDEST PUSH2 0x12E PUSH2 0x14B1 JUMP JUMPDEST PUSH1 0x1 PUSH1 0x1 PUSH1 0xA0 SHL SUB SWAP1 DUP2 AND SWAP1 DUP2 ISZERO PUSH2 0x183 JUMPI PUSH1 0x0 SLOAD DUP3 PUSH12 0xFFFFFFFFFFFFFFFFFFFFFFFF PUSH1 0xA0 SHL DUP3 AND OR PUSH1 0x0 SSTORE AND PUSH32 0x8BE0079C531659141344CD1FD0A4F28419497F9722A3DAAFE3B4186F6B6457E0 PUSH1 0x0 DUP1 LOG3 DUP1 RETURN JUMPDEST PUSH1 0x40 MLOAD PUSH4 0x1E4FBDF7 PUSH1 0xE0 SHL DUP2 MSTORE PUSH1 0x4 DUP2 ADD DUP5 SWAP1 MSTORE PUSH1 0x24 SWAP1 REVERT JUMPDEST DUP1 REVERT JUMPDEST POP CALLVALUE PUSH2 0x19C JUMPI PUSH1 0xA0 CALLDATASIZE PUSH1 0x3 NOT ADD SLT PUSH2 0x19C JUMPI PUSH1 0x4 CALLDATALOAD PUSH8 0xFFFFFFFFFFFFFFFF DUP2 GT PUSH2 0x6E2 JUMPI CALLDATASIZE PUSH1 0x23 DUP3 ADD SLT ISZERO PUSH2 0x6E2 JUMPI DUP2 DUP2 PUSH1 0x4 ADD CALLDATALOAD SWAP2 PUSH2 0x1DE DUP4 PUSH2 0x142E JUMP JUMPDEST SWAP3 PUSH2 0x1EC PUSH1 0x40 MLOAD SWAP5 DUP6 PUSH2 0x140C JUMP JUMPDEST DUP1 DUP5 MSTORE CALLDATASIZE PUSH1 0x24 DUP3 DUP5 ADD ADD GT PUSH2 0x6E6 JUMPI DUP1 PUSH1 0x24 PUSH1 0x20 SWAP4 ADD DUP4 DUP7 ADD CALLDATACOPY DUP4 ADD ADD MSTORE PUSH1 0x64 CALLDATALOAD PUSH8 0xFFFFFFFFFFFFFFFF DUP2 GT PUSH2 0x6E6 JUMPI PUSH2 0x22A SWAP1 CALLDATASIZE SWAP1 PUSH1 0x4 ADD PUSH2 0x144A JUMP JUMPDEST SWAP2 PUSH1 0x84 CALLDATALOAD PUSH8 0xFFFFFFFFFFFFFFFF DUP2 GT PUSH2 0x6E2 JUMPI PUSH2 0x24B SWAP1 CALLDATASIZE SWAP1 PUSH1 0x4 ADD PUSH2 0x144A JUMP JUMPDEST SWAP1 PUSH2 0x254 PUSH2 0x1567 JUMP JUMPDEST PUSH3 0x15180 TIMESTAMP ADD DUP1 TIMESTAMP GT PUSH2 0x6CE JUMPI PUSH1 0x24 CALLDATALOAD GT ISZERO PUSH2 0x69A JUMPI DUP4 MLOAD DUP3 MLOAD SUB PUSH2 0x65D JUMPI PUSH2 0x27E PUSH1 0x3 SLOAD PUSH2 0x14DD JUMP JUMPDEST DUP1 PUSH1 0x3 SSTORE PUSH1 0x40 MLOAD PUSH2 0x28E DUP2 PUSH2 0x13F0 JUMP JUMPDEST DUP5 DUP2 MSTORE PUSH1 0x24 CALLDATALOAD PUSH1 0x20 DUP3 ADD MSTORE PUSH1 0x44 CALLDATALOAD PUSH1 0x40 DUP3 ADD MSTORE CALLER PUSH1 0x60 DUP3 ADD MSTORE DUP3 PUSH1 0x80 DUP3 ADD MSTORE DUP6 PUSH1 0xA0 DUP3 ADD MSTORE DUP4 PUSH1 0xC0 DUP3 ADD MSTORE DUP2 DUP4 MSTORE PUSH1 0x6 PUSH1 0x20 MSTORE PUSH1 0x40 DUP4 KECCAK256 SWAP1 DUP1 MLOAD DUP1 MLOAD SWAP1 PUSH8 0xFFFFFFFFFFFFFFFF DUP3 GT PUSH2 0x59F JUMPI DUP2 SWAP1 PUSH2 0x2E6 DUP6 SLOAD PUSH2 0x14EC JUMP JUMPDEST PUSH1 0x1F DUP2 GT PUSH2 0x622 JUMPI JUMPDEST POP PUSH1 0x20 SWAP1 PUSH1 0x1F DUP4 GT PUSH1 0x1 EQ PUSH2 0x5BE JUMPI DUP8 SWAP3 PUSH2 0x5B3 JUMPI JUMPDEST POP POP DUP2 PUSH1 0x1 SHL SWAP2 PUSH1 0x0 NOT SWAP1 PUSH1 0x3 SHL SHR NOT AND OR DUP3 SSTORE JUMPDEST PUSH1 0x20 DUP2 ADD MLOAD PUSH1 0x1 DUP4 ADD SSTORE PUSH1 0x40 DUP2 ADD MLOAD PUSH1 0x2 DUP4 ADD SSTORE PUSH1 0x3 DUP3 ADD PUSH1 0x1 DUP1 PUSH1 0xA0 SHL SUB PUSH1 0x60 DUP4 ADD MLOAD AND DUP2 SLOAD SWAP1 PUSH1 0xFF PUSH1 0xA0 SHL PUSH1 0x80 DUP6 ADD MLOAD ISZERO ISZERO PUSH1 0xA0 SHL AND SWAP2 PUSH11 0xFFFFFFFFFFFFFFFFFFFFFF PUSH1 0xA8 SHL AND OR OR SWAP1 SSTORE PUSH1 0xA0 DUP2 ADD MLOAD DUP1 MLOAD SWAP1 PUSH8 0xFFFFFFFFFFFFFFFF DUP3 GT PUSH2 0x59F JUMPI PUSH1 0x1 PUSH1 0x40 SHL DUP3 GT PUSH2 0x59F JUMPI PUSH1 0x20 SWAP1 PUSH1 0x4 DUP6 ADD SLOAD DUP4 PUSH1 0x4 DUP8 ADD SSTORE DUP1 DUP5 LT PUSH2 0x582 JUMPI JUMPDEST POP ADD PUSH1 0x4 DUP5 ADD DUP7 MSTORE PUSH1 0x20 DUP7 KECCAK256 DUP7 JUMPDEST DUP4 DUP2 LT PUSH2 0x56E JUMPI POP POP POP POP PUSH1 0xC0 ADD MLOAD SWAP1 DUP2 MLOAD SWAP2 PUSH8 0xFFFFFFFFFFFFFFFF DUP4 GT PUSH2 0x55A JUMPI PUSH1 0x1 PUSH1 0x40 SHL DUP4 GT PUSH2 0x55A JUMPI PUSH1 0x20 PUSH1 0x5 SWAP2 DUP3 DUP5 ADD SLOAD DUP6 DUP5 DUP7 ADD SSTORE DUP1 DUP7 LT PUSH2 0x53E JUMPI JUMPDEST POP ADD SWAP2 ADD DUP5 MSTORE PUSH1 0x20 DUP5 KECCAK256 DUP5 JUMPDEST DUP4 DUP2 LT PUSH2 0x52A JUMPI POP POP POP POP DUP2 JUMPDEST DUP6 MLOAD DUP2 LT ISZERO PUSH2 0x4D5 JUMPI PUSH1 0x44 CALLDATALOAD PUSH2 0x41F DUP3 DUP7 PUSH2 0x153D JUMP JUMPDEST MLOAD LT PUSH2 0x498 JUMPI DUP1 PUSH2 0x433 PUSH2 0x493 SWAP3 DUP9 PUSH2 0x153D JUMP JUMPDEST MLOAD PUSH1 0x2 PUSH2 0x440 DUP4 DUP9 PUSH2 0x153D JUMP JUMPDEST MLOAD PUSH2 0x44B DUP5 DUP12 PUSH2 0x153D JUMP JUMPDEST MLOAD SWAP1 PUSH1 0x40 MLOAD SWAP4 PUSH2 0x45A DUP6 PUSH2 0x13D4 JUMP JUMPDEST DUP5 MSTORE PUSH1 0x20 DUP5 ADD SWAP1 DUP2 MSTORE PUSH1 0x40 DUP5 ADD SWAP2 DUP3 MSTORE DUP7 DUP9 MSTORE PUSH1 0x7 PUSH1 0x20 MSTORE PUSH1 0x40 DUP9 KECCAK256 DUP6 DUP10 MSTORE PUSH1 0x20 MSTORE PUSH1 0x40 DUP9 KECCAK256 SWAP4 MLOAD DUP5 SSTORE MLOAD PUSH1 0x1 DUP5 ADD SSTORE MLOAD SWAP2 ADD SSTORE PUSH2 0x14DD JUMP JUMPDEST PUSH2 0x409 JUMP JUMPDEST PUSH1 0x40 MLOAD PUSH3 0x461BCD PUSH1 0xE5 SHL DUP2 MSTORE PUSH1 0x20 PUSH1 0x4 DUP3 ADD MSTORE PUSH1 0x15 PUSH1 0x24 DUP3 ADD MSTORE PUSH21 0x5A6F6E652070726963652062656C6F772062617365 PUSH1 0x58 SHL PUSH1 0x44 DUP3 ADD MSTORE PUSH1 0x64 SWAP1 REVERT JUMPDEST PUSH1 0x20 DUP3 DUP1 PUSH32 0x9C2F02F9BC3109D6EF9E6DDB6BD47137CCC8E9DEABC67B747C58342A70D9E2C8 PUSH2 0x512 DUP10 PUSH1 0x40 MLOAD SWAP2 DUP3 SWAP2 PUSH1 0x60 DUP4 MSTORE PUSH1 0x60 DUP4 ADD SWAP1 PUSH2 0x1336 JUMP JUMPDEST PUSH1 0x24 CALLDATALOAD DUP8 DUP4 ADD MSTORE CALLER PUSH1 0x40 DUP4 ADD MSTORE SUB SWAP1 LOG2 PUSH1 0x40 MLOAD SWAP1 DUP2 MSTORE RETURN JUMPDEST PUSH1 0x1 SWAP1 PUSH1 0x20 DUP5 MLOAD SWAP5 ADD SWAP4 DUP2 DUP5 ADD SSTORE ADD PUSH2 0x3FC JUMP JUMPDEST DUP5 DUP5 ADD DUP9 MSTORE DUP3 DUP9 KECCAK256 PUSH2 0x554 SWAP2 DUP2 ADD SWAP1 DUP8 ADD PUSH2 0x1526 JUMP JUMPDEST CODESIZE PUSH2 0x3F0 JUMP JUMPDEST PUSH4 0x4E487B71 PUSH1 0xE0 SHL DUP6 MSTORE PUSH1 0x41 PUSH1 0x4 MSTORE PUSH1 0x24 DUP6 REVERT JUMPDEST PUSH1 0x1 SWAP1 PUSH1 0x20 DUP5 MLOAD SWAP5 ADD SWAP4 DUP2 DUP5 ADD SSTORE ADD PUSH2 0x3AD JUMP JUMPDEST PUSH1 0x4 DUP7 ADD DUP9 MSTORE DUP3 DUP9 KECCAK256 PUSH2 0x599 SWAP2 DUP2 ADD SWAP1 DUP6 ADD PUSH2 0x1526 JUMP JUMPDEST CODESIZE PUSH2 0x39F JUMP JUMPDEST PUSH4 0x4E487B71 PUSH1 0xE0 SHL DUP7 MSTORE PUSH1 0x41 PUSH1 0x4 MSTORE PUSH1 0x24 DUP7 REVERT JUMPDEST ADD MLOAD SWAP1 POP CODESIZE DUP1 PUSH2 0x305 JUMP JUMPDEST DUP6 DUP9 MSTORE PUSH1 0x20 DUP9 KECCAK256 SWAP3 POP PUSH1 0x1F NOT DUP5 AND DUP9 JUMPDEST DUP2 DUP2 LT PUSH2 0x60A JUMPI POP SWAP1 DUP5 PUSH1 0x1 SWAP6 SWAP5 SWAP4 SWAP3 LT PUSH2 0x5F1 JUMPI JUMPDEST POP POP POP DUP2 SHL ADD DUP3 SSTORE PUSH2 0x31A JUMP JUMPDEST ADD MLOAD PUSH1 0x0 NOT PUSH1 0xF8 DUP5 PUSH1 0x3 SHL AND SHR NOT AND SWAP1 SSTORE CODESIZE DUP1 DUP1 PUSH2 0x5E4 JUMP JUMPDEST SWAP3 SWAP4 PUSH1 0x20 PUSH1 0x1 DUP2 SWAP3 DUP8 DUP7 ADD MLOAD DUP2 SSTORE ADD SWAP6 ADD SWAP4 ADD PUSH2 0x5CE JUMP JUMPDEST PUSH2 0x64D SWAP1 DUP7 DUP10 MSTORE PUSH1 0x20 DUP10 KECCAK256 PUSH1 0x1F DUP6 ADD PUSH1 0x5 SHR DUP2 ADD SWAP2 PUSH1 0x20 DUP7 LT PUSH2 0x653 JUMPI JUMPDEST PUSH1 0x1F ADD PUSH1 0x5 SHR ADD SWAP1 PUSH2 0x1526 JUMP JUMPDEST CODESIZE PUSH2 0x2EF JUMP JUMPDEST SWAP1 SWAP2 POP DUP2 SWAP1 PUSH2 0x640 JUMP JUMPDEST PUSH1 0x40 MLOAD PUSH3 0x461BCD PUSH1 0xE5 SHL DUP2 MSTORE PUSH1 0x20 PUSH1 0x4 DUP3 ADD MSTORE PUSH1 0x15 PUSH1 0x24 DUP3 ADD MSTORE PUSH21 0x82E4E4C2F240D8CADCCEE8D040DAD2E6DAC2E8C6D PUSH1 0x5B SHL PUSH1 0x44 DUP3 ADD MSTORE PUSH1 0x64 SWAP1 REVERT JUMPDEST PUSH1 0x40 MLOAD PUSH3 0x461BCD PUSH1 0xE5 SHL DUP2 MSTORE PUSH1 0x20 PUSH1 0x4 DUP3 ADD MSTORE PUSH1 0xC PUSH1 0x24 DUP3 ADD MSTORE PUSH12 0x496E76616C69642064617465 PUSH1 0xA0 SHL PUSH1 0x44 DUP3 ADD MSTORE PUSH1 0x64 SWAP1 REVERT JUMPDEST PUSH4 0x4E487B71 PUSH1 0xE0 SHL DUP3 MSTORE PUSH1 0x11 PUSH1 0x4 MSTORE PUSH1 0x24 DUP3 REVERT JUMPDEST POP DUP1 REVERT JUMPDEST DUP3 DUP1 REVERT JUMPDEST POP CALLVALUE PUSH2 0x19C JUMPI PUSH1 0x20 CALLDATASIZE PUSH1 0x3 NOT ADD SLT PUSH2 0x19C JUMPI PUSH1 0x1 PUSH1 0x40 PUSH1 0x20 SWAP3 PUSH1 0x4 CALLDATALOAD DUP2 MSTORE PUSH1 0x6 DUP5 MSTORE KECCAK256 ADD SLOAD TIMESTAMP GT PUSH1 0x40 MLOAD SWAP1 DUP2 MSTORE RETURN JUMPDEST POP PUSH2 0x723 CALLDATASIZE PUSH2 0x1320 JUMP JUMPDEST SWAP1 PUSH2 0x72C PUSH2 0x15C2 JUMP JUMPDEST PUSH2 0x734 PUSH2 0x1567 JUMP JUMPDEST DUP1 DUP4 MSTORE PUSH1 0x20 SWAP2 PUSH1 0x6 DUP4 MSTORE PUSH1 0x40 DUP5 KECCAK256 PUSH1 0xFF PUSH1 0x3 DUP3 ADD SLOAD PUSH1 0xA0 SHR AND PUSH2 0xA39 JUMPI PUSH1 0x1 ADD SLOAD TIMESTAMP LT ISZERO PUSH2 0xA05 JUMPI DUP2 DUP5 MSTORE PUSH1 0x8 DUP4 MSTORE PUSH1 0x40 DUP5 KECCAK256 CALLER PUSH1 0x0 MSTORE DUP4 MSTORE PUSH1 0xFF PUSH1 0x40 PUSH1 0x0 KECCAK256 SLOAD AND PUSH2 0x9CB JUMPI DUP2 DUP5 MSTORE PUSH1 0x7 DUP4 MSTORE PUSH1 0x40 DUP5 KECCAK256 SWAP1 DUP5 MSTORE DUP3 MSTORE PUSH1 0x40 DUP4 KECCAK256 SWAP2 PUSH1 0x2 DUP4 ADD SWAP3 DUP4 SLOAD ISZERO PUSH2 0x996 JUMPI PUSH1 0x1 ADD DUP1 SLOAD CALLVALUE LT PUSH2 0x95A JUMPI PUSH2 0x7B1 PUSH1 0x4 SLOAD PUSH2 0x14DD JUMP JUMPDEST SWAP4 DUP5 PUSH1 0x4 SSTORE DUP1 SLOAD DUP1 ISZERO PUSH2 0x946 JUMPI PUSH1 0x0 NOT ADD SWAP1 SSTORE DUP3 DUP6 MSTORE PUSH1 0x8 DUP3 MSTORE PUSH1 0x40 DUP6 KECCAK256 CALLER PUSH1 0x0 MSTORE DUP3 MSTORE PUSH1 0x40 PUSH1 0x0 KECCAK256 PUSH1 0x1 PUSH1 0xFF NOT DUP3 SLOAD AND OR SWAP1 SSTORE PUSH1 0x5 CALLVALUE MUL CALLVALUE DUP2 DIV PUSH1 0x5 EQ CALLVALUE ISZERO OR ISZERO PUSH2 0x932 JUMPI PUSH1 0x64 PUSH2 0x804 SWAP2 DIV CALLVALUE PUSH2 0x1585 JUMP JUMPDEST DUP4 DUP7 MSTORE PUSH1 0x9 DUP4 MSTORE PUSH1 0x40 DUP7 KECCAK256 DUP1 SLOAD SWAP2 DUP3 ADD DUP1 SWAP3 GT PUSH2 0x91C JUMPI SSTORE DUP5 DUP2 SLOAD DUP1 CALLVALUE GT PUSH2 0x8C2 JUMPI JUMPDEST POP PUSH1 0x5 SLOAD SWAP2 SLOAD SWAP1 SWAP2 PUSH1 0x1 PUSH1 0x1 PUSH1 0xA0 SHL SUB AND DUP1 EXTCODESIZE ISZERO PUSH2 0x6E6 JUMPI DUP3 SWAP1 PUSH1 0x44 PUSH1 0x40 MLOAD DUP1 SWAP5 DUP2 SWAP4 PUSH4 0x26F71C9F PUSH1 0xE2 SHL DUP4 MSTORE DUP10 PUSH1 0x4 DUP5 ADD MSTORE DUP11 PUSH1 0x24 DUP5 ADD MSTORE GAS CALL DUP1 ISZERO PUSH2 0x8B7 JUMPI PUSH2 0x89F JUMPI JUMPDEST POP POP PUSH32 0x94C5953E15F54D38B82A662BDD5739FC91AF3A23D3EF7E67269DFAEEE71A813C SWAP1 PUSH1 0x40 MLOAD CALLER DUP2 MSTORE LOG3 PUSH1 0x1 DUP1 SSTORE DUP1 RETURN JUMPDEST PUSH2 0x8A8 SWAP1 PUSH2 0x13AA JUMP JUMPDEST PUSH2 0x8B3 JUMPI DUP4 CODESIZE PUSH2 0x86D JUMP JUMPDEST DUP4 DUP1 REVERT JUMPDEST PUSH1 0x40 MLOAD RETURNDATASIZE DUP5 DUP3 RETURNDATACOPY RETURNDATASIZE SWAP1 REVERT JUMPDEST DUP2 DUP1 PUSH2 0x8CF DUP2 SWAP4 CALLVALUE PUSH2 0x1585 JUMP JUMPDEST CALLER GAS CALL PUSH2 0x8DA PUSH2 0x1592 JUMP JUMPDEST POP ISZERO PUSH2 0x8E7 JUMPI DUP5 CODESIZE PUSH2 0x827 JUMP JUMPDEST PUSH1 0x40 MLOAD PUSH3 0x461BCD PUSH1 0xE5 SHL DUP2 MSTORE PUSH1 0x4 DUP2 ADD DUP4 SWAP1 MSTORE PUSH1 0xD PUSH1 0x24 DUP3 ADD MSTORE PUSH13 0x1499599D5B990819985A5B1959 PUSH1 0x9A SHL PUSH1 0x44 DUP3 ADD MSTORE PUSH1 0x64 SWAP1 REVERT JUMPDEST PUSH4 0x4E487B71 PUSH1 0xE0 SHL PUSH1 0x0 MSTORE PUSH1 0x11 PUSH1 0x4 MSTORE PUSH1 0x24 PUSH1 0x0 REVERT JUMPDEST PUSH4 0x4E487B71 PUSH1 0xE0 SHL DUP7 MSTORE PUSH1 0x11 PUSH1 0x4 MSTORE PUSH1 0x24 DUP7 REVERT JUMPDEST PUSH4 0x4E487B71 PUSH1 0xE0 SHL DUP8 MSTORE PUSH1 0x11 PUSH1 0x4 MSTORE PUSH1 0x24 DUP8 REVERT JUMPDEST PUSH1 0x40 MLOAD PUSH3 0x461BCD PUSH1 0xE5 SHL DUP2 MSTORE PUSH1 0x4 DUP2 ADD DUP4 SWAP1 MSTORE PUSH1 0x14 PUSH1 0x24 DUP3 ADD MSTORE PUSH20 0x125B9CDD59999A58DA595B9D081C185E5B595B9D PUSH1 0x62 SHL PUSH1 0x44 DUP3 ADD MSTORE PUSH1 0x64 SWAP1 REVERT JUMPDEST PUSH1 0x40 MLOAD PUSH3 0x461BCD PUSH1 0xE5 SHL DUP2 MSTORE PUSH1 0x4 DUP2 ADD DUP4 SWAP1 MSTORE PUSH1 0xD PUSH1 0x24 DUP3 ADD MSTORE PUSH13 0x169BDB99481CDBDB19081BDD5D PUSH1 0x9A SHL PUSH1 0x44 DUP3 ADD MSTORE PUSH1 0x64 SWAP1 REVERT JUMPDEST PUSH1 0x40 MLOAD PUSH3 0x461BCD PUSH1 0xE5 SHL DUP2 MSTORE PUSH1 0x4 DUP2 ADD DUP5 SWAP1 MSTORE PUSH1 0x12 PUSH1 0x24 DUP3 ADD MSTORE PUSH18 0x105B1C9958591E481A185CC81D1A58DAD95D PUSH1 0x72 SHL PUSH1 0x44 DUP3 ADD MSTORE PUSH1 0x64 SWAP1 REVERT JUMPDEST PUSH1 0x40 MLOAD PUSH3 0x461BCD PUSH1 0xE5 SHL DUP2 MSTORE PUSH1 0x4 DUP2 ADD DUP5 SWAP1 MSTORE PUSH1 0xC PUSH1 0x24 DUP3 ADD MSTORE PUSH12 0x115D995B9D081C185CDCD959 PUSH1 0xA2 SHL PUSH1 0x44 DUP3 ADD MSTORE PUSH1 0x64 SWAP1 REVERT JUMPDEST PUSH1 0x40 MLOAD PUSH3 0x461BCD PUSH1 0xE5 SHL DUP2 MSTORE PUSH1 0x4 DUP2 ADD DUP6 SWAP1 MSTORE PUSH1 0xF PUSH1 0x24 DUP3 ADD MSTORE PUSH15 0x115D995B9D0818D85B98D95B1B1959 PUSH1 0x8A SHL PUSH1 0x44 DUP3 ADD MSTORE PUSH1 0x64 SWAP1 REVERT JUMPDEST POP CALLVALUE PUSH2 0x19C JUMPI PUSH1 0x20 DUP1 PUSH1 0x3 NOT CALLDATASIZE ADD SLT PUSH2 0x6E2 JUMPI PUSH1 0x4 CALLDATALOAD PUSH2 0xA8E PUSH2 0x15C2 JUMP JUMPDEST DUP1 DUP4 MSTORE PUSH1 0x6 DUP3 MSTORE PUSH1 0x40 DUP4 KECCAK256 PUSH1 0x3 DUP2 ADD SLOAD PUSH1 0x1 PUSH1 0x1 PUSH1 0xA0 SHL SUB AND CALLER SUB PUSH2 0xBBE JUMPI PUSH1 0x1 ADD SLOAD TIMESTAMP GT ISZERO PUSH2 0xB87 JUMPI DUP1 DUP4 MSTORE PUSH1 0x9 DUP3 MSTORE PUSH1 0x40 DUP4 KECCAK256 SLOAD SWAP2 DUP3 ISZERO PUSH2 0xB56 JUMPI DUP2 DUP5 MSTORE PUSH1 0x9 DUP2 MSTORE DUP4 PUSH1 0x40 DUP2 KECCAK256 SSTORE DUP4 DUP1 DUP1 DUP1 DUP7 CALLER GAS CALL PUSH2 0xAE8 PUSH2 0x1592 JUMP JUMPDEST POP ISZERO PUSH2 0xB20 JUMPI PUSH32 0x841FBAB03327EFE47FB7D133055C9AA87DF38FF76B5919D1C190E0067C5E34B3 SWAP1 PUSH1 0x40 MLOAD SWAP4 DUP5 MSTORE CALLER SWAP4 LOG3 PUSH1 0x1 DUP1 SSTORE DUP1 RETURN JUMPDEST PUSH1 0x64 SWAP1 PUSH1 0x40 MLOAD SWAP1 PUSH3 0x461BCD PUSH1 0xE5 SHL DUP3 MSTORE PUSH1 0x4 DUP3 ADD MSTORE PUSH1 0xF PUSH1 0x24 DUP3 ADD MSTORE PUSH15 0x151C985B9CD9995C8819985A5B1959 PUSH1 0x8A SHL PUSH1 0x44 DUP3 ADD MSTORE REVERT JUMPDEST PUSH1 0x64 SWAP1 PUSH1 0x40 MLOAD SWAP1 PUSH3 0x461BCD PUSH1 0xE5 SHL DUP3 MSTORE PUSH1 0x4 DUP3 ADD MSTORE PUSH1 0xA PUSH1 0x24 DUP3 ADD MSTORE PUSH10 0x4E6F20726576656E7565 PUSH1 0xB0 SHL PUSH1 0x44 DUP3 ADD MSTORE REVERT JUMPDEST PUSH1 0x40 MLOAD PUSH3 0x461BCD PUSH1 0xE5 SHL DUP2 MSTORE PUSH1 0x4 DUP2 ADD DUP4 SWAP1 MSTORE PUSH1 0xF PUSH1 0x24 DUP3 ADD MSTORE PUSH15 0x115D995B9D081B9BDD08195B991959 PUSH1 0x8A SHL PUSH1 0x44 DUP3 ADD MSTORE PUSH1 0x64 SWAP1 REVERT JUMPDEST PUSH1 0x40 MLOAD PUSH3 0x461BCD PUSH1 0xE5 SHL DUP2 MSTORE PUSH1 0x4 DUP2 ADD DUP5 SWAP1 MSTORE PUSH1 0xD PUSH1 0x24 DUP3 ADD MSTORE PUSH13 0x2737BA1037B933B0B734BD32B9 PUSH1 0x99 SHL PUSH1 0x44 DUP3 ADD MSTORE PUSH1 0x64 SWAP1 REVERT JUMPDEST POP CALLVALUE PUSH2 0x19C JUMPI DUP1 PUSH1 0x3 NOT CALLDATASIZE ADD SLT PUSH2 0x19C JUMPI PUSH1 0x20 PUSH1 0x40 MLOAD PUSH3 0x127500 DUP2 MSTORE RETURN JUMPDEST POP CALLVALUE PUSH2 0x19C JUMPI DUP1 PUSH1 0x3 NOT CALLDATASIZE ADD SLT PUSH2 0x19C JUMPI SLOAD PUSH1 0x40 MLOAD PUSH1 0x1 PUSH1 0x1 PUSH1 0xA0 SHL SUB SWAP1 SWAP2 AND DUP2 MSTORE PUSH1 0x20 SWAP1 RETURN JUMPDEST POP CALLVALUE PUSH2 0x19C JUMPI DUP1 PUSH1 0x3 NOT CALLDATASIZE ADD SLT PUSH2 0x19C JUMPI PUSH2 0xC51 PUSH2 0x14B1 JUMP JUMPDEST PUSH2 0xC59 PUSH2 0x1567 JUMP JUMPDEST PUSH1 0x1 PUSH1 0xFF NOT PUSH1 0x2 SLOAD AND OR PUSH1 0x2 SSTORE PUSH32 0x62E78CEA01BEE320CD4E420270B5EA74000D11B0C9F74754EBDBFC544B05A258 PUSH1 0x20 PUSH1 0x40 MLOAD CALLER DUP2 MSTORE LOG1 DUP1 RETURN JUMPDEST POP CALLVALUE PUSH2 0x19C JUMPI DUP1 PUSH1 0x3 NOT CALLDATASIZE ADD SLT PUSH2 0x19C JUMPI PUSH2 0xCAC PUSH2 0x14B1 JUMP JUMPDEST PUSH1 0x0 DUP1 SLOAD PUSH1 0x1 PUSH1 0x1 PUSH1 0xA0 SHL SUB NOT DUP2 AND DUP3 SSTORE PUSH1 0x1 PUSH1 0x1 PUSH1 0xA0 SHL SUB AND PUSH32 0x8BE0079C531659141344CD1FD0A4F28419497F9722A3DAAFE3B4186F6B6457E0 DUP3 DUP1 LOG3 DUP1 RETURN JUMPDEST POP CALLVALUE PUSH2 0x19C JUMPI PUSH1 0x20 SWAP1 DUP2 PUSH1 0x3 NOT CALLDATASIZE ADD SLT PUSH2 0x19C JUMPI PUSH1 0xC0 PUSH1 0x40 MLOAD PUSH2 0xD0F DUP2 PUSH2 0x13F0 JUMP JUMPDEST PUSH1 0x60 SWAP2 DUP2 DUP4 DUP1 SWAP4 MSTORE DUP5 DUP7 DUP3 ADD MSTORE DUP5 PUSH1 0x40 DUP3 ADD MSTORE DUP5 DUP4 DUP3 ADD MSTORE DUP5 PUSH1 0x80 DUP3 ADD MSTORE DUP3 PUSH1 0xA0 DUP3 ADD MSTORE ADD MSTORE PUSH1 0x4 CALLDATALOAD DUP3 MSTORE PUSH1 0x6 DUP4 MSTORE PUSH1 0x40 DUP3 KECCAK256 PUSH1 0x40 MLOAD SWAP3 PUSH2 0xD4F DUP5 PUSH2 0x13F0 JUMP JUMPDEST PUSH1 0x40 MLOAD DUP2 DUP4 SLOAD SWAP3 PUSH2 0xD5F DUP5 PUSH2 0x14EC JUMP JUMPDEST SWAP1 DUP2 DUP5 MSTORE PUSH1 0x1 SWAP5 DUP6 DUP2 AND SWAP1 DUP2 PUSH1 0x0 EQ PUSH2 0xE8D JUMPI POP PUSH1 0x1 EQ PUSH2 0xE5D JUMPI JUMPDEST PUSH1 0xE0 DUP10 PUSH2 0xE59 DUP11 DUP11 PUSH2 0xE48 DUP12 DUP12 DUP12 PUSH2 0xD95 DUP2 DUP14 SUB DUP3 PUSH2 0x140C JUMP JUMPDEST DUP6 MSTORE DUP2 ADD SLOAD SWAP3 DUP7 DUP6 ADD SWAP4 DUP5 MSTORE PUSH1 0x2 DUP3 ADD SLOAD PUSH1 0x40 DUP7 ADD SWAP1 DUP2 MSTORE PUSH1 0x3 DUP4 ADD SLOAD SWAP2 DUP1 DUP8 ADD SWAP1 PUSH1 0x1 DUP1 PUSH1 0xA0 SHL SUB SWAP3 DUP4 DUP6 AND DUP4 MSTORE PUSH1 0xFF PUSH1 0x80 DUP11 ADD SWAP6 PUSH1 0xA0 SHR AND ISZERO ISZERO DUP6 MSTORE PUSH2 0xE18 PUSH2 0xDF5 PUSH1 0x5 PUSH2 0xDE7 PUSH1 0x4 DUP11 ADD PUSH2 0x15E5 JUMP JUMPDEST SWAP9 PUSH1 0xA0 DUP14 ADD SWAP10 DUP11 MSTORE ADD PUSH2 0x15E5 JUMP JUMPDEST SWAP10 PUSH1 0xC0 DUP2 ADD SWAP11 DUP12 MSTORE PUSH1 0x40 MLOAD SWAP14 DUP14 DUP16 SWAP15 SWAP3 DUP16 SWAP4 DUP5 MSTORE MLOAD SWAP3 ADD MSTORE PUSH2 0x100 DUP14 ADD SWAP1 PUSH2 0x1336 JUMP JUMPDEST SWAP8 MLOAD PUSH1 0x40 DUP13 ADD MSTORE MLOAD SWAP1 DUP11 ADD MSTORE MLOAD AND PUSH1 0x80 DUP9 ADD MSTORE MLOAD ISZERO ISZERO PUSH1 0xA0 DUP8 ADD MSTORE MLOAD SWAP2 PUSH1 0x1F NOT SWAP3 DUP4 DUP8 DUP4 SUB ADD PUSH1 0xC0 DUP9 ADD MSTORE PUSH2 0x1376 JUMP JUMPDEST SWAP2 MLOAD SWAP1 DUP5 DUP4 SUB ADD PUSH1 0xE0 DUP6 ADD MSTORE PUSH2 0x1376 JUMP JUMPDEST SUB SWAP1 RETURN JUMPDEST SWAP2 POP DUP5 DUP3 MSTORE DUP8 DUP3 KECCAK256 JUMPDEST DUP2 DUP4 LT PUSH2 0xE7A JUMPI POP POP DUP2 ADD DUP7 ADD DUP3 DUP3 PUSH2 0xD7B JUMP JUMPDEST DUP1 SLOAD DUP5 DUP5 ADD DUP11 ADD MSTORE SWAP2 DUP9 ADD SWAP2 DUP5 ADD PUSH2 0xE66 JUMP JUMPDEST PUSH1 0xFF NOT AND DUP6 DUP12 ADD MSTORE POP POP ISZERO ISZERO PUSH1 0x5 SHL DUP3 ADD DUP8 ADD SWAP1 POP DUP3 DUP3 PUSH2 0xD7B JUMP JUMPDEST POP CALLVALUE PUSH2 0x19C JUMPI DUP1 PUSH1 0x3 NOT CALLDATASIZE ADD SLT PUSH2 0x19C JUMPI PUSH1 0x20 PUSH1 0x40 MLOAD PUSH3 0x15180 DUP2 MSTORE RETURN JUMPDEST POP CALLVALUE PUSH2 0x19C JUMPI DUP1 PUSH1 0x3 NOT CALLDATASIZE ADD SLT PUSH2 0x19C JUMPI PUSH1 0x20 PUSH1 0xFF PUSH1 0x2 SLOAD AND PUSH1 0x40 MLOAD SWAP1 ISZERO ISZERO DUP2 MSTORE RETURN JUMPDEST POP CALLVALUE PUSH2 0x19C JUMPI PUSH1 0x20 CALLDATASIZE PUSH1 0x3 NOT ADD SLT PUSH2 0x19C JUMPI PUSH1 0x20 SWAP1 PUSH1 0x4 CALLDATALOAD DUP2 MSTORE PUSH1 0x6 DUP3 MSTORE PUSH1 0x3 PUSH1 0x40 PUSH1 0x1 DUP1 PUSH1 0xA0 SHL SUB SWAP3 KECCAK256 ADD SLOAD AND PUSH1 0x40 MLOAD SWAP1 DUP2 MSTORE RETURN JUMPDEST POP CALLVALUE PUSH2 0x19C JUMPI PUSH1 0x20 CALLDATASIZE PUSH1 0x3 NOT ADD SLT PUSH2 0x19C JUMPI PUSH1 0x40 PUSH1 0x20 SWAP2 PUSH1 0x4 CALLDATALOAD DUP2 MSTORE PUSH1 0x9 DUP4 MSTORE KECCAK256 SLOAD PUSH1 0x40 MLOAD SWAP1 DUP2 MSTORE RETURN JUMPDEST POP CALLVALUE PUSH2 0x19C JUMPI DUP1 PUSH1 0x3 NOT CALLDATASIZE ADD SLT PUSH2 0x19C JUMPI PUSH1 0x5 SLOAD PUSH1 0x40 MLOAD PUSH1 0x1 PUSH1 0x1 PUSH1 0xA0 SHL SUB SWAP1 SWAP2 AND DUP2 MSTORE PUSH1 0x20 SWAP1 RETURN JUMPDEST POP CALLVALUE PUSH2 0x19C JUMPI PUSH1 0x40 CALLDATASIZE PUSH1 0x3 NOT ADD SLT PUSH2 0x19C JUMPI PUSH1 0x24 CALLDATALOAD PUSH1 0x1 PUSH1 0x1 PUSH1 0xA0 SHL SUB DUP2 AND SWAP2 SWAP1 DUP3 SWAP1 SUB PUSH2 0xFC5 JUMPI PUSH1 0x40 SWAP1 PUSH1 0x4 CALLDATALOAD DUP2 MSTORE PUSH1 0x8 PUSH1 0x20 MSTORE KECCAK256 SWAP1 PUSH1 0x0 MSTORE PUSH1 0x20 MSTORE PUSH1 0x20 PUSH1 0xFF PUSH1 0x40 PUSH1 0x0 KECCAK256 SLOAD AND PUSH1 0x40 MLOAD SWAP1 ISZERO ISZERO DUP2 MSTORE RETURN JUMPDEST PUSH1 0x0 DUP1 REVERT JUMPDEST POP CALLVALUE PUSH2 0x19C JUMPI PUSH1 0x40 PUSH1 0x60 SWAP2 PUSH2 0xFDE CALLDATASIZE PUSH2 0x1320 JUMP JUMPDEST SWAP1 DUP3 DUP5 DUP1 MLOAD PUSH2 0xFEC DUP2 PUSH2 0x13D4 JUMP JUMPDEST DUP3 DUP2 MSTORE DUP3 PUSH1 0x20 DUP3 ADD MSTORE ADD MSTORE DUP3 MSTORE PUSH1 0x7 PUSH1 0x20 MSTORE DUP3 DUP3 KECCAK256 SWAP1 DUP3 MSTORE PUSH1 0x20 MSTORE KECCAK256 PUSH1 0x40 MLOAD PUSH2 0x1014 DUP2 PUSH2 0x13D4 JUMP JUMPDEST DUP2 SLOAD SWAP2 DUP3 DUP3 MSTORE PUSH1 0x40 PUSH1 0x2 PUSH1 0x1 DUP4 ADD SLOAD SWAP3 PUSH1 0x20 DUP6 ADD SWAP4 DUP5 MSTORE ADD SLOAD SWAP3 ADD SWAP2 DUP3 MSTORE PUSH1 0x40 MLOAD SWAP3 DUP4 MSTORE MLOAD PUSH1 0x20 DUP4 ADD MSTORE MLOAD PUSH1 0x40 DUP3 ADD MSTORE RETURN JUMPDEST POP CALLVALUE PUSH2 0x19C JUMPI PUSH1 0x20 CALLDATASIZE PUSH1 0x3 NOT ADD SLT PUSH2 0x19C JUMPI PUSH2 0x1060 PUSH2 0x130A JUMP JUMPDEST PUSH2 0x1068 PUSH2 0x14B1 JUMP JUMPDEST PUSH1 0x1 PUSH1 0x1 PUSH1 0xA0 SHL SUB AND DUP1 ISZERO PUSH2 0x10B0 JUMPI PUSH1 0x5 DUP1 SLOAD PUSH1 0x1 PUSH1 0x1 PUSH1 0xA0 SHL SUB NOT AND DUP3 OR SWAP1 SSTORE PUSH32 0xEA7E8FDF33D9A7D6D7DD09DDC69D89B8EB6F262D7EB9AE76A2470E3C4CFBC0C0 DUP3 DUP1 LOG2 DUP1 RETURN JUMPDEST PUSH1 0x40 MLOAD PUSH3 0x461BCD PUSH1 0xE5 SHL DUP2 MSTORE PUSH1 0x20 PUSH1 0x4 DUP3 ADD MSTORE PUSH1 0x16 PUSH1 0x24 DUP3 ADD MSTORE PUSH22 0x496E76616C696420657363726F772061646472657373 PUSH1 0x50 SHL PUSH1 0x44 DUP3 ADD MSTORE PUSH1 0x64 SWAP1 REVERT JUMPDEST POP CALLVALUE PUSH2 0x19C JUMPI PUSH1 0x20 CALLDATASIZE PUSH1 0x3 NOT ADD SLT PUSH2 0x19C JUMPI PUSH1 0x4 CALLDATALOAD PUSH2 0x110B PUSH2 0x1567 JUMP JUMPDEST DUP1 DUP3 MSTORE PUSH1 0x6 PUSH1 0x20 MSTORE PUSH1 0x40 DUP3 KECCAK256 PUSH1 0x3 DUP2 ADD DUP1 SLOAD PUSH1 0x1 PUSH1 0x1 PUSH1 0xA0 SHL SUB SWAP4 SWAP1 SWAP3 SWAP1 SWAP2 SWAP1 DUP5 DUP5 AND CALLER EQ DUP1 ISZERO PUSH2 0x1278 JUMPI JUMPDEST ISZERO PUSH2 0x1244 JUMPI PUSH1 0xFF DUP5 PUSH1 0xA0 SHR AND PUSH2 0x120B JUMPI PUSH1 0x1 ADD SLOAD TIMESTAMP GT PUSH2 0x11CD JUMPI PUSH1 0xFF PUSH1 0xA0 SHL NOT SWAP1 SWAP3 AND PUSH1 0x1 PUSH1 0xA0 SHL OR SWAP1 SWAP2 SSTORE PUSH1 0x40 MLOAD SWAP2 DUP4 SWAP2 SWAP1 DUP2 PUSH32 0xDC3CB569B066460F4A22DFFA05317BDCCE5D3826382ED49A21F13E5FA2063D39 DUP5 DUP1 LOG2 PUSH1 0x5 SLOAD AND SWAP1 DUP2 EXTCODESIZE ISZERO PUSH2 0x6E6 JUMPI DUP4 DUP4 DUP2 SWAP4 PUSH1 0x24 SWAP4 PUSH4 0x3F69BABD PUSH1 0xE0 SHL DUP5 MSTORE PUSH1 0x4 DUP5 ADD MSTORE GAS CALL DUP1 ISZERO PUSH2 0x8B7 JUMPI PUSH2 0x11C1 JUMPI POP DUP1 RETURN JUMPDEST PUSH2 0x11CA SWAP1 PUSH2 0x13AA JUMP JUMPDEST DUP1 RETURN JUMPDEST PUSH1 0x40 MLOAD PUSH3 0x461BCD PUSH1 0xE5 SHL DUP2 MSTORE PUSH1 0x20 PUSH1 0x4 DUP3 ADD MSTORE PUSH1 0x16 PUSH1 0x24 DUP3 ADD MSTORE PUSH22 0x115D995B9D08185B1C9958591E481BD8D8DD5C9C9959 PUSH1 0x52 SHL PUSH1 0x44 DUP3 ADD MSTORE PUSH1 0x64 SWAP1 REVERT JUMPDEST PUSH1 0x40 MLOAD PUSH3 0x461BCD PUSH1 0xE5 SHL DUP2 MSTORE PUSH1 0x20 PUSH1 0x4 DUP3 ADD MSTORE PUSH1 0x11 PUSH1 0x24 DUP3 ADD MSTORE PUSH17 0x105B1C9958591E4818D85B98D95B1B1959 PUSH1 0x7A SHL PUSH1 0x44 DUP3 ADD MSTORE PUSH1 0x64 SWAP1 REVERT JUMPDEST PUSH1 0x40 MLOAD PUSH3 0x461BCD PUSH1 0xE5 SHL DUP2 MSTORE PUSH1 0x20 PUSH1 0x4 DUP3 ADD MSTORE PUSH1 0xC PUSH1 0x24 DUP3 ADD MSTORE PUSH12 0x155B985D5D1A1BDC9A5E9959 PUSH1 0xA2 SHL PUSH1 0x44 DUP3 ADD MSTORE PUSH1 0x64 SWAP1 REVERT JUMPDEST POP DUP5 DUP7 SLOAD AND CALLER EQ PUSH2 0x1137 JUMP JUMPDEST POP CALLVALUE PUSH2 0x19C JUMPI DUP1 PUSH1 0x3 NOT CALLDATASIZE ADD SLT PUSH2 0x19C JUMPI PUSH2 0x129D PUSH2 0x14B1 JUMP JUMPDEST PUSH1 0x2 SLOAD PUSH1 0xFF DUP2 AND ISZERO PUSH2 0x12DD JUMPI PUSH1 0xFF NOT AND PUSH1 0x2 SSTORE PUSH32 0x5DB9EE0A495BF2E6FF9C91A7834C1BA4FDD244A5E8AA4E537BD38AEAE4B073AA PUSH1 0x20 PUSH1 0x40 MLOAD CALLER DUP2 MSTORE LOG1 DUP1 RETURN JUMPDEST PUSH1 0x40 MLOAD PUSH4 0x8DFC202B PUSH1 0xE0 SHL DUP2 MSTORE PUSH1 0x4 SWAP1 REVERT JUMPDEST SWAP1 POP CALLVALUE PUSH2 0x6E2 JUMPI DUP2 PUSH1 0x3 NOT CALLDATASIZE ADD SLT PUSH2 0x6E2 JUMPI DUP1 PUSH1 0x5 PUSH1 0x20 SWAP3 MSTORE RETURN JUMPDEST PUSH1 0x4 CALLDATALOAD SWAP1 PUSH1 0x1 PUSH1 0x1 PUSH1 0xA0 SHL SUB DUP3 AND DUP3 SUB PUSH2 0xFC5 JUMPI JUMP JUMPDEST PUSH1 0x40 SWAP1 PUSH1 0x3 NOT ADD SLT PUSH2 0xFC5 JUMPI PUSH1 0x4 CALLDATALOAD SWAP1 PUSH1 0x24 CALLDATALOAD SWAP1 JUMP JUMPDEST SWAP2 SWAP1 DUP3 MLOAD SWAP3 DUP4 DUP3 MSTORE PUSH1 0x0 JUMPDEST DUP5 DUP2 LT PUSH2 0x1362 JUMPI POP POP DUP3 PUSH1 0x0 PUSH1 0x20 DUP1 SWAP5 SWAP6 DUP5 ADD ADD MSTORE PUSH1 0x1F DUP1 NOT SWAP2 ADD AND ADD ADD SWAP1 JUMP JUMPDEST PUSH1 0x20 DUP2 DUP4 ADD DUP2 ADD MLOAD DUP5 DUP4 ADD DUP3 ADD MSTORE ADD PUSH2 0x1341 JUMP JUMPDEST SWAP1 DUP2 MLOAD DUP1 DUP3 MSTORE PUSH1 0x20 DUP1 DUP1 SWAP4 ADD SWAP4 ADD SWAP2 PUSH1 0x0 JUMPDEST DUP3 DUP2 LT PUSH2 0x1396 JUMPI POP POP POP POP SWAP1 JUMP JUMPDEST DUP4 MLOAD DUP6 MSTORE SWAP4 DUP2 ADD SWAP4 SWAP3 DUP2 ADD SWAP3 PUSH1 0x1 ADD PUSH2 0x1388 JUMP JUMPDEST PUSH8 0xFFFFFFFFFFFFFFFF DUP2 GT PUSH2 0x13BE JUMPI PUSH1 0x40 MSTORE JUMP JUMPDEST PUSH4 0x4E487B71 PUSH1 0xE0 SHL PUSH1 0x0 MSTORE PUSH1 0x41 PUSH1 0x4 MSTORE PUSH1 0x24 PUSH1 0x0 REVERT JUMPDEST PUSH1 0x60 DUP2 ADD SWAP1 DUP2 LT PUSH8 0xFFFFFFFFFFFFFFFF DUP3 GT OR PUSH2 0x13BE JUMPI PUSH1 0x40 MSTORE JUMP JUMPDEST PUSH1 0xE0 DUP2 ADD SWAP1 DUP2 LT PUSH8 0xFFFFFFFFFFFFFFFF DUP3 GT OR PUSH2 0x13BE JUMPI PUSH1 0x40 MSTORE JUMP JUMPDEST SWAP1 PUSH1 0x1F DUP1 NOT SWAP2 ADD AND DUP2 ADD SWAP1 DUP2 LT PUSH8 0xFFFFFFFFFFFFFFFF DUP3 GT OR PUSH2 0x13BE JUMPI PUSH1 0x40 MSTORE JUMP JUMPDEST PUSH8 0xFFFFFFFFFFFFFFFF DUP2 GT PUSH2 0x13BE JUMPI PUSH1 0x1F ADD PUSH1 0x1F NOT AND PUSH1 0x20 ADD SWAP1 JUMP JUMPDEST SWAP1 DUP1 PUSH1 0x1F DUP4 ADD SLT ISZERO PUSH2 0xFC5 JUMPI DUP2 CALLDATALOAD SWAP1 PUSH8 0xFFFFFFFFFFFFFFFF DUP3 GT PUSH2 0x13BE JUMPI DUP2 PUSH1 0x5 SHL PUSH1 0x40 MLOAD SWAP4 PUSH1 0x20 SWAP4 PUSH2 0x147F DUP6 DUP5 ADD DUP8 PUSH2 0x140C JUMP JUMPDEST DUP6 MSTORE DUP4 DUP1 DUP7 ADD SWAP3 DUP3 ADD ADD SWAP3 DUP4 GT PUSH2 0xFC5 JUMPI DUP4 ADD SWAP1 JUMPDEST DUP3 DUP3 LT PUSH2 0x14A2 JUMPI POP POP POP POP SWAP1 JUMP JUMPDEST DUP2 CALLDATALOAD DUP2 MSTORE SWAP1 DUP4 ADD SWAP1 DUP4 ADD PUSH2 0x1494 JUMP JUMPDEST PUSH1 0x0 SLOAD PUSH1 0x1 PUSH1 0x1 PUSH1 0xA0 SHL SUB AND CALLER SUB PUSH2 0x14C5 JUMPI JUMP JUMPDEST PUSH1 0x40 MLOAD PUSH4 0x118CDAA7 PUSH1 0xE0 SHL DUP2 MSTORE CALLER PUSH1 0x4 DUP3 ADD MSTORE PUSH1 0x24 SWAP1 REVERT JUMPDEST PUSH1 0x0 NOT DUP2 EQ PUSH2 0x91C JUMPI PUSH1 0x1 ADD SWAP1 JUMP JUMPDEST SWAP1 PUSH1 0x1 DUP3 DUP2 SHR SWAP3 AND DUP1 ISZERO PUSH2 0x151C JUMPI JUMPDEST PUSH1 0x20 DUP4 LT EQ PUSH2 0x1506 JUMPI JUMP JUMPDEST PUSH4 0x4E487B71 PUSH1 0xE0 SHL PUSH1 0x0 MSTORE PUSH1 0x22 PUSH1 0x4 MSTORE PUSH1 0x24 PUSH1 0x0 REVERT JUMPDEST SWAP2 PUSH1 0x7F AND SWAP2 PUSH2 0x14FB JUMP JUMPDEST DUP2 DUP2 LT PUSH2 0x1531 JUMPI POP POP JUMP JUMPDEST PUSH1 0x0 DUP2 SSTORE PUSH1 0x1 ADD PUSH2 0x1526 JUMP JUMPDEST DUP1 MLOAD DUP3 LT ISZERO PUSH2 0x1551 JUMPI PUSH1 0x20 SWAP2 PUSH1 0x5 SHL ADD ADD SWAP1 JUMP JUMPDEST PUSH4 0x4E487B71 PUSH1 0xE0 SHL PUSH1 0x0 MSTORE PUSH1 0x32 PUSH1 0x4 MSTORE PUSH1 0x24 PUSH1 0x0 REVERT JUMPDEST PUSH1 0xFF PUSH1 0x2 SLOAD AND PUSH2 0x1573 JUMPI JUMP JUMPDEST PUSH1 0x40 MLOAD PUSH4 0xD93C0665 PUSH1 0xE0 SHL DUP2 MSTORE PUSH1 0x4 SWAP1 REVERT JUMPDEST SWAP2 SWAP1 DUP3 SUB SWAP2 DUP3 GT PUSH2 0x91C JUMPI JUMP JUMPDEST RETURNDATASIZE ISZERO PUSH2 0x15BD JUMPI RETURNDATASIZE SWAP1 PUSH2 0x15A3 DUP3 PUSH2 0x142E JUMP JUMPDEST SWAP2 PUSH2 0x15B1 PUSH1 0x40 MLOAD SWAP4 DUP5 PUSH2 0x140C JUMP JUMPDEST DUP3 MSTORE RETURNDATASIZE PUSH1 0x0 PUSH1 0x20 DUP5 ADD RETURNDATACOPY JUMP JUMPDEST PUSH1 0x60 SWAP1 JUMP JUMPDEST PUSH1 0x2 PUSH1 0x1 SLOAD EQ PUSH2 0x15D3 JUMPI PUSH1 0x2 PUSH1 0x1 SSTORE JUMP JUMPDEST PUSH1 0x40 MLOAD PUSH4 0x3EE5AEB5 PUSH1 0xE0 SHL DUP2 MSTORE PUSH1 0x4 SWAP1 REVERT JUMPDEST SWAP1 PUSH1 0x40 MLOAD SWAP2 DUP3 DUP2 SLOAD SWAP2 DUP3 DUP3 MSTORE PUSH1 0x20 SWAP3 DUP4 DUP4 ADD SWAP2 PUSH1 0x0 MSTORE DUP4 PUSH1 0x0 KECCAK256 SWAP4 PUSH1 0x0 SWAP1 JUMPDEST DUP3 DUP3 LT PUSH2 0x161C JUMPI POP POP POP PUSH2 0x161A SWAP3 POP SUB DUP4 PUSH2 0x140C JUMP JUMPDEST JUMP JUMPDEST DUP6 SLOAD DUP5 MSTORE PUSH1 0x1 SWAP6 DUP7 ADD SWAP6 DUP9 SWAP6 POP SWAP4 DUP2 ADD SWAP4 SWAP1 SWAP2 ADD SWAP1 PUSH2 0x1604 JUMP INVALID LOG2 PUSH5 0x6970667358 0x22 SLT KECCAK256 PUSH30 0x41DE100EC8DC989AE72B39ECBFC0EE740E4DD98F4F26F3943EE6FE62B9DC PUSH3 0x64736F PUSH13 0x63430008140033000000000000 "},"methodIdentifiers":{"CANCELLATION_WINDOW()":"92a57fca","MIN_EVENT_DELAY()":"6816aa7d","PLATFORM_FEE_PERCENTAGE()":"15548232","cancelEvent(uint256)":"3f69babd","createEvent(string,uint256,uint256,uint256[],uint256[])":"efdf49d7","getEvent(uint256)":"6d1884e0","getEventRevenue(uint256)":"4cbd6fc6","getOrganizer(uint256)":"524c15a2","getZone(uint256,uint256)":"46eff867","hasEventConcluded(uint256)":"d88a1498","hasTicket(uint256,address)":"4843d2b1","owner()":"8da5cb5b","pause()":"8456cb59","paused()":"5c975abb","purchaseTicket(uint256,uint256)":"bdbbb0cb","refundEscrow()":"4be91944","renounceOwnership()":"715018a6","setRefundEscrow(address)":"455b848f","transferOwnership(address)":"f2fde38b","unpause()":"3f4ba83a","withdrawEventRevenue(uint256)":"b6d9e868"}}}}}