{
  "_format": "hh-sol-artifact-1",
  "contractName": "RefundEscrow",
  "sourceName": "contracts/core/RefundEscrow.sol",
  "abi": [
    {
      "inputs": [
        {
          "internalType": "address",
          "name": "eventManagerAddress",
          "type": "address"
        }
      ],
      "stateMutability": "nonpayable",
      "type": "constructor"
    },
    {
      "inputs": [],
      "name": "EnforcedPause",
      "type": "error"
    },
    {
      "inputs": [],
      "name": "ExpectedPause",
      "type": "error"
    },
    {
      "inputs": [
        {
          "internalType": "address",
          "name": "owner",
          "type": "address"
        }
      ],
      "name": "OwnableInvalidOwner",
      "type": "error"
    },
    {
      "inputs": [
        {
          "internalType": "address",
          "name": "account",
          "type": "address"
        }
      ],
      "name": "OwnableUnauthorizedAccount",
      "type": "error"
    },
    {
      "inputs": [],
      "name": "ReentrancyGuardReentrantCall",
      "type": "error"
    },
    {
      "anonymous": false,
      "inputs": [
        {
          "indexed": true,
          "internalType": "uint256",
          "name": "eventId",
          "type": "uint256"
        },
        {
          "indexed": true,
          "internalType": "uint256",
          "name": "ticketId",
          "type": "uint256"
        },
        {
          "indexed": false,
          "internalType": "uint256",
          "name": "refundAmount",
          "type": "uint256"
        }
      ],
      "name": "EventCancellationRefunded",
      "type": "event"
    },
    {
      "anonymous": false,
      "inputs": [
        {
          "indexed": true,
          "internalType": "uint256",
          "name": "eventId",
          "type": "uint256"
        }
      ],
      "name": "EventCancelled",
      "type": "event"
    },
    {
      "anonymous": false,
      "inputs": [
        {
          "indexed": true,
          "internalType": "address",
          "name": "previousOwner",
          "type": "address"
        },
        {
          "indexed": true,
          "internalType": "address",
          "name": "newOwner",
          "type": "address"
        }
      ],
      "name": "OwnershipTransferred",
      "type": "event"
    },
    {
      "anonymous": false,
      "inputs": [
        {
          "indexed": false,
          "internalType": "address",
          "name": "account",
          "type": "address"
        }
      ],
      "name": "Paused",
      "type": "event"
    },
    {
      "anonymous": false,
      "inputs": [
        {
          "indexed": true,
          "internalType": "uint256",
          "name": "eventId",
          "type": "uint256"
        },
        {
          "indexed": true,
          "internalType": "address",
          "name": "payer",
          "type": "address"
        },
        {
          "indexed": false,
          "internalType": "uint256",
          "name": "amount",
          "type": "uint256"
        }
      ],
      "name": "PaymentDeposited",
      "type": "event"
    },
    {
      "anonymous": false,
      "inputs": [
        {
          "indexed": true,
          "internalType": "uint256",
          "name": "eventId",
          "type": "uint256"
        },
        {
          "indexed": true,
          "internalType": "address",
          "name": "payer",
          "type": "address"
        },
        {
          "indexed": false,
          "internalType": "uint256",
          "name": "amount",
          "type": "uint256"
        }
      ],
      "name": "PaymentRefunded",
      "type": "event"
    },
    {
      "anonymous": false,
      "inputs": [
        {
          "indexed": true,
          "internalType": "uint256",
          "name": "eventId",
          "type": "uint256"
        },
        {
          "indexed": true,
          "internalType": "address",
          "name": "payee",
          "type": "address"
        },
        {
          "indexed": false,
          "internalType": "uint256",
          "name": "amount",
          "type": "uint256"
        }
      ],
      "name": "PaymentReleased",
      "type": "event"
    },
    {
      "anonymous": false,
      "inputs": [
        {
          "indexed": true,
          "internalType": "uint256",
          "name": "eventId",
          "type": "uint256"
        },
        {
          "indexed": true,
          "internalType": "uint256",
          "name": "ticketId",
          "type": "uint256"
        },
        {
          "indexed": false,
          "internalType": "uint256",
          "name": "refundAmount",
          "type": "uint256"
        }
      ],
      "name": "TicketCancelled",
      "type": "event"
    },
    {
      "anonymous": false,
      "inputs": [
        {
          "indexed": false,
          "internalType": "address",
          "name": "account",
          "type": "address"
        }
      ],
      "name": "Unpaused",
      "type": "event"
    },
    {
      "anonymous": false,
      "inputs": [
        {
          "indexed": true,
          "internalType": "uint256",
          "name": "eventId",
          "type": "uint256"
        },
        {
          "indexed": true,
          "internalType": "uint256",
          "name": "ticketId",
          "type": "uint256"
        }
      ],
      "name": "WaitlistRefundEnabled",
      "type": "event"
    },
    {
      "inputs": [],
      "name": "CANCELLATION_FEE_PERCENT",
      "outputs": [
        {
          "internalType": "uint256",
          "name": "",
          "type": "uint256"
        }
      ],
      "stateMutability": "view",
      "type": "function"
    },
    {
      "inputs": [],
      "name": "REFUND_WINDOW",
      "outputs": [
        {
          "internalType": "uint256",
          "name": "",
          "type": "uint256"
        }
      ],
      "stateMutability": "view",
      "type": "function"
    },
    {
      "inputs": [
        {
          "internalType": "uint256",
          "name": "eventId",
          "type": "uint256"
        }
      ],
      "name": "cancelEvent",
      "outputs": [],
      "stateMutability": "nonpayable",
      "type": "function"
    },
    {
      "inputs": [
        {
          "internalType": "uint256",
          "name": "eventId",
          "type": "uint256"
        },
        {
          "internalType": "uint256",
          "name": "ticketId",
          "type": "uint256"
        }
      ],
      "name": "cancelTicket",
      "outputs": [],
      "stateMutability": "nonpayable",
      "type": "function"
    },
    {
      "inputs": [
        {
          "internalType": "uint256",
          "name": "eventId",
          "type": "uint256"
        },
        {
          "internalType": "uint256",
          "name": "ticketId",
          "type": "uint256"
        }
      ],
      "name": "depositPayment",
      "outputs": [],
      "stateMutability": "payable",
      "type": "function"
    },
    {
      "inputs": [
        {
          "internalType": "uint256",
          "name": "eventId",
          "type": "uint256"
        },
        {
          "internalType": "uint256",
          "name": "ticketId",
          "type": "uint256"
        }
      ],
      "name": "enableWaitlistRefund",
      "outputs": [],
      "stateMutability": "nonpayable",
      "type": "function"
    },
    {
      "inputs": [
        {
          "internalType": "uint256",
          "name": "eventId",
          "type": "uint256"
        },
        {
          "internalType": "uint256",
          "name": "ticketId",
          "type": "uint256"
        }
      ],
      "name": "getPaymentAmount",
      "outputs": [
        {
          "internalType": "uint256",
          "name": "",
          "type": "uint256"
        }
      ],
      "stateMutability": "view",
      "type": "function"
    },
    {
      "inputs": [
        {
          "internalType": "uint256",
          "name": "eventId",
          "type": "uint256"
        },
        {
          "internalType": "uint256",
          "name": "ticketId",
          "type": "uint256"
        }
      ],
      "name": "getPaymentDetails",
      "outputs": [
        {
          "internalType": "address",
          "name": "payer",
          "type": "address"
        },
        {
          "internalType": "uint256",
          "name": "amount",
          "type": "uint256"
        },
        {
          "internalType": "enum IRefundEscrow.PaymentStatus",
          "name": "status",
          "type": "uint8"
        },
        {
          "internalType": "bool",
          "name": "waitlistRefundEnabled",
          "type": "bool"
        },
        {
          "internalType": "uint256",
          "name": "refundDeadline",
          "type": "uint256"
        },
        {
          "internalType": "bool",
          "name": "isCancelled",
          "type": "bool"
        }
      ],
      "stateMutability": "view",
      "type": "function"
    },
    {
      "inputs": [
        {
          "internalType": "uint256",
          "name": "eventId",
          "type": "uint256"
        },
        {
          "internalType": "uint256",
          "name": "ticketId",
          "type": "uint256"
        }
      ],
      "name": "getPaymentStatus",
      "outputs": [
        {
          "internalType": "enum IRefundEscrow.PaymentStatus",
          "name": "",
          "type": "uint8"
        }
      ],
      "stateMutability": "view",
      "type": "function"
    },
    {
      "inputs": [
        {
          "internalType": "uint256",
          "name": "eventId",
          "type": "uint256"
        }
      ],
      "name": "isEventCancelled",
      "outputs": [
        {
          "internalType": "bool",
          "name": "",
          "type": "bool"
        }
      ],
      "stateMutability": "view",
      "type": "function"
    },
    {
      "inputs": [],
      "name": "owner",
      "outputs": [
        {
          "internalType": "address",
          "name": "",
          "type": "address"
        }
      ],
      "stateMutability": "view",
      "type": "function"
    },
    {
      "inputs": [],
      "name": "pause",
      "outputs": [],
      "stateMutability": "nonpayable",
      "type": "function"
    },
    {
      "inputs": [],
      "name": "paused",
      "outputs": [
        {
          "internalType": "bool",
          "name": "",
          "type": "bool"
        }
      ],
      "stateMutability": "view",
      "type": "function"
    },
    {
      "inputs": [
        {
          "internalType": "uint256",
          "name": "eventId",
          "type": "uint256"
        },
        {
          "internalType": "uint256",
          "name": "ticketId",
          "type": "uint256"
        }
      ],
      "name": "processEventCancellationRefund",
      "outputs": [],
      "stateMutability": "nonpayable",
      "type": "function"
    },
    {
      "inputs": [
        {
          "internalType": "uint256",
          "name": "eventId",
          "type": "uint256"
        },
        {
          "internalType": "uint256",
          "name": "ticketId",
          "type": "uint256"
        }
      ],
      "name": "refundPayment",
      "outputs": [],
      "stateMutability": "nonpayable",
      "type": "function"
    },
    {
      "inputs": [
        {
          "internalType": "uint256",
          "name": "eventId",
          "type": "uint256"
        },
        {
          "internalType": "uint256",
          "name": "ticketId",
          "type": "uint256"
        }
      ],
      "name": "releasePayment",
      "outputs": [],
      "stateMutability": "nonpayable",
      "type": "function"
    },
    {
      "inputs": [],
      "name": "renounceOwnership",
      "outputs": [],
      "stateMutability": "nonpayable",
      "type": "function"
    },
    {
      "inputs": [
        {
          "internalType": "address",
          "name": "newOwner",
          "type": "address"
        }
      ],
      "name": "transferOwnership",
      "outputs": [],
      "stateMutability": "nonpayable",
      "type": "function"
    },
    {
      "inputs": [],
      "name": "unpause",
      "outputs": [],
      "stateMutability": "nonpayable",
      "type": "function"
    },
    {
      "inputs": [],
      "name": "withdrawStuckFunds",
      "outputs": [],
      "stateMutability": "nonpayable",
      "type": "function"
    }
  ],
  "bytecode": "0x60a03461012657601f61117e38819003918201601f19168301916001600160401b0383118484101761012b5780849260209460405283398101031261012657516001600160a01b0380821680830361012657331561010d576000543360018060a01b0319821617600055604051923391167f8be0079c531659141344cd1fd0a4f28419497f9722a3daafe3b4186f6b6457e0600080a36001805560ff1960025416600255156100cb575060805260405161103c908161014282396080518181816105a50152610ad40152f35b62461bcd60e51b815260206004820152601c60248201527f496e76616c6964204576656e744d616e616765722061646472657373000000006044820152606490fd5b604051631e4fbdf760e01b815260006004820152602490fd5b600080fd5b634e487b7160e01b600052604160045260246000fdfe608060408181526004908136101561001657600080fd5b600092833560e01c90816306633e1214610cae57508063110f269714610c825780631153b5f314610c645780632f62582c14610bae5780633f4ba83a14610b445780633f69babd14610ab95780635c975abb14610a9557806366e008f814610a66578063715018a614610a0c57806378c5e06d146109d3578063830ce587146108b45780638456cb59146108595780638da5cb5b1461082d578063925a91011461075d57806395144dc41461067d57806397e99a80146105745780639bdc727c146103a5578063c5b60a4814610333578063ea266fcf146101905763f2fde38b1461010057600080fd5b3461018c57602036600319011261018c576001600160a01b0382358181169391929084900361018857610131610d07565b831561017257505082546001600160a01b0319811683178455167f8be0079c531659141344cd1fd0a4f28419497f9722a3daafe3b4186f6b6457e08380a380f35b51631e4fbdf760e01b8152908101849052602490fd5b8480fd5b8280fd5b503461018c5761019f36610cc9565b9290916101aa610dc5565b6101b2610da7565b82855260036020528085208486526020528085209160018060a01b03906101dd828554163314610de8565b8084019384549460ff86166102fc57906001918260038301549761020389421115610e27565b60ff191617905501549362093a7f1981019081116102e957421161026e575b505081602091610262878080807fb0897fa6b40736fe48b8a1b08df225f049ed49c9de048c3a99a1def267a503ee98335af161025c610e6a565b50610eb5565b51908152a36001805580f35b909260058102818104600514821517156102d65760649004918282039182116102c35750868080938193968254168282156102ba575bf1156102b1573880610222565b513d85823e3d90fd5b506108fc6102a4565b634e487b7160e01b885260119052602487fd5b634e487b7160e01b885260118352602488fd5b634e487b7160e01b885260118252602488fd5b845162461bcd60e51b81526020818501526011602482015270105b1c9958591e4818d85b98d95b1b1959607a1b6044820152606490fd5b503461018c578260031936011261018c5761034c610d07565b8280808060018060a01b0381541647905af1610366610e6a565b5015610370578280f35b906020606492519162461bcd60e51b8352820152600f60248201526e151c985b9cd9995c8819985a5b1959608a1b6044820152fd5b5082906103b136610cc9565b916103ba610dc5565b6103c2610da7565b341561053f5781845260209260038452818520818652845260018060a01b039586838720541661050b5783865280855261040260ff848820541615610d33565b6212750042018042116104f857610417610d71565b9033825286820134815285830190898252606084019a8a8c526080850193845260a08501968b8852898c5260038b52888c20908c528a52878b209451166bffffffffffffffffffffffff60a01b85541617845551600184015560028301905160038110156104e5577f71284872bb4c088a81295dff2513729babbccfeda38a8d824bb1a73bcaab494e9798999a60ff61ff0084549251151560081b1692169061ffff191617179055516003820155019051151560ff8019835416911617905551923484523393a36001805580f35b634e487b7160e01b8a526021855260248afd5b634e487b7160e01b875260118252602487fd5b825162461bcd60e51b8152908101859052600e60248201526d5061796d656e742065786973747360901b6044820152606490fd5b5162461bcd60e51b8152602081860152601060248201526f14185e5b595b9d081c995c5d5a5c995960821b6044820152606490fd5b503461018c5761058336610cc9565b61058e929192610dc5565b610596610da7565b6001600160a01b03906105cc337f0000000000000000000000000000000000000000000000000000000000000000841614610efa565b838652600360205282862090865260205281852093600285019081549060ff8216600381101561066a5792600180936020969361062b7f21d71db5be59bb9fa133895586b7404307dd33fb93b16db09dc6f1d9d7d231b0999715610f46565b61063b60ff828d01541615610f8b565b898c52875261065060ff878d20541615610d33565b60ff19161790558654169501549051908152a36001805580f35b634e487b7160e01b895260218252602489fd5b503461018c5761068c36610cc9565b610697929192610dc5565b61069f610da7565b8285526003602052818520908552602052808420600281019081549460ff861690600382101561074a57506002916106d960019215610f46565b6106ec828060a01b038254163314610fca565b6106fc6003820154421115610e27565b01549460ff19161790556107198480808087335af161025c610e6a565b519182527fe89ec1881a76229445bcd179b8c4b24f9edc7ddd87d07fb3b19c67ae9c6e27cc60203393a36001805580f35b634e487b7160e01b885260219052602487fd5b50823461082a5761076d36610cc9565b9082526003602052828220908252602052818120610789610d71565b9160018060a01b039384835416845260018301549460208501958652600284015460ff8116936003851015610817575091839160ff806108069560c09b97858b015260081c161515958660608a01526003880154978860808b01520154161515968760a08201525116965181519788526020880152860190610ce4565b6060840152608083015260a0820152f35b634e487b7160e01b815260218952602490fd5b80fd5b838234610855578160031936011261085557905490516001600160a01b039091168152602090f35b5080fd5b83823461085557816003193601126108555760207f62e78cea01bee320cd4e420270b5ea74000d11b0c9f74754ebdbfc544b05a25891610897610d07565b61089f610da7565b600160ff19600254161760025551338152a180f35b503461018c576108c336610cc9565b9290916108ce610dc5565b6108d6610da7565b82855260209180835260ff82872054161561099c578386526003835281862085875283528186209061091260018060a01b038354163314610de8565b8082019081549060ff8216610966575060ff1916600190811790915501547faaf6c9d5bc32e5fc43b1512d04c81426a969d259164fcb878aef8ae9a34d227092916102628780808086335af161025c610e6a565b845162461bcd60e51b8152908101869052601060248201526f105b1c9958591e481c99599d5b99195960821b6044820152606490fd5b82606492519162461bcd60e51b83528201526013602482015272115d995b9d081b9bdd0818d85b98d95b1b1959606a1b6044820152fd5b83823461085557610a0a60ff6002836020956109ee36610cc9565b9082526003885282822090825287522001541691518092610ce4565bf35b833461082a578060031936011261082a57610a25610d07565b80546001600160a01b03198116825581906001600160a01b03167f8be0079c531659141344cd1fd0a4f28419497f9722a3daafe3b4186f6b6457e08280a380f35b83823461085557600181602093610a7c36610cc9565b9082526003865282822090825285522001549051908152f35b83823461085557816003193601126108555760209060ff6002541690519015158152f35b503461018c57602036600319011261018c57813591610b02337f00000000000000000000000000000000000000000000000000000000000000006001600160a01b031614610efa565b610b0a610da7565b8284526020528220805460ff191660011790557fdc3cb569b066460f4a22dffa05317bdcce5d3826382ed49a21f13e5fa2063d398280a280f35b50903461018c578260031936011261018c57610b5e610d07565b6002549060ff821615610ba0575060ff1916600255513381527f5db9ee0a495bf2e6ff9c91a7834c1ba4fdd244a5e8aa4e537bd38aeae4b073aa90602090a180f35b8251638dfc202b60e01b8152fd5b503461018c57610bbd36610cc9565b929091610bc8610da7565b82855260036020528085208486526020528420600281019182549160ff83166003811015610c51576101009392610c2292610c0560ff9315610f46565b610c1960018060a01b038254163314610fca565b01541615610f8b565b61ff0019161790557f42a333aa9f5e83ed874e2c82d84df396c2a89c4ad056bc332d38ba044bbe8bba8380a380f35b634e487b7160e01b885260218352602488fd5b83823461085557816003193601126108555760209051621275008152f35b50903461018c57602036600319011261018c57816020938260ff93358252855220541690519015158152f35b84903461085557816003193601126108555780600560209252f35b6040906003190112610cdf576004359060243590565b600080fd5b906003821015610cf15752565b634e487b7160e01b600052602160045260246000fd5b6000546001600160a01b03163303610d1b57565b60405163118cdaa760e01b8152336004820152602490fd5b15610d3a57565b60405162461bcd60e51b815260206004820152600f60248201526e115d995b9d0818d85b98d95b1b1959608a1b6044820152606490fd5b6040519060c0820182811067ffffffffffffffff821117610d9157604052565b634e487b7160e01b600052604160045260246000fd5b60ff60025416610db357565b60405163d93c066560e01b8152600490fd5b600260015414610dd6576002600155565b604051633ee5aeb560e01b8152600490fd5b15610def57565b60405162461bcd60e51b815260206004820152601060248201526f2737ba103a34b1b5b2ba1037bbb732b960811b6044820152606490fd5b15610e2e57565b60405162461bcd60e51b81526020600482015260146024820152731499599d5b99081dda5b991bddc818db1bdcd95960621b6044820152606490fd5b3d15610eb05767ffffffffffffffff903d828111610d915760405192601f8201601f19908116603f0116840190811184821017610d915760405282523d6000602084013e565b606090565b15610ebc57565b60405162461bcd60e51b81526020600482015260166024820152751499599d5b99081d1c985b9cd9995c8819985a5b195960521b6044820152606490fd5b15610f0157565b60405162461bcd60e51b815260206004820152601a60248201527f4f6e6c79204576656e744d616e616765722063616e2063616c6c0000000000006044820152606490fd5b15610f4d57565b60405162461bcd60e51b8152602060048201526016602482015275496e76616c6964207061796d656e742073746174757360501b6044820152606490fd5b15610f9257565b60405162461bcd60e51b815260206004820152601060248201526f151a58dad95d0818d85b98d95b1b195960821b6044820152606490fd5b15610fd157565b60405162461bcd60e51b815260206004820152600d60248201526c2737ba103a3432903830bcb2b960991b6044820152606490fdfea2646970667358221220073be5b66e3770063b50597f28af4ff97544933c290e504216e1941e900c6f9664736f6c63430008140033",
  "linkReferences": {},
  "deployedLinkReferences": {}
}