{
  "_format": "hh-sol-artifact-1",
  "contractName": "RefundEscrow",
  "sourceName": "contracts/core/RefundEscrow.sol",
  "abi": [
    {
      "inputs": [
        {
          "internalType": "address",
          "name": "eventManagerAddress",
          "type": "address"
        }
      ],
      "stateMutability": "nonpayable",
      "type": "constructor"
    },
    {
      "inputs": [],
      "name": "EnforcedPause",
      "type": "error"
    },
    {
      "inputs": [],
      "name": "ExpectedPause",
      "type": "error"
    },
    {
      "inputs": [
        {
          "internalType": "address",
          "name": "owner",
          "type": "address"
        }
      ],
      "name": "OwnableInvalidOwner",
      "type": "error"
    },
    {
      "inputs": [
        {
          "internalType": "address",
          "name": "account",
          "type": "address"
        }
      ],
      "name": "OwnableUnauthorizedAccount",
      "type": "error"
    },
    {
      "inputs": [],
      "name": "ReentrancyGuardReentrantCall",
      "type": "error"
    },
    {
      "anonymous": false,
      "inputs": [
        {
          "indexed": true,
          "internalType": "uint256",
          "name": "eventId",
          "type": "uint256"
        },
        {
          "indexed": true,
          "internalType": "uint256",
          "name": "ticketId",
          "type": "uint256"
        },
        {
          "indexed": false,
          "internalType": "uint256",
          "name": "refundAmount",
          "type": "uint256"
        }
      ],
      "name": "EventCancellationRefunded",
      "type": "event"
    },
    {
      "anonymous": false,
      "inputs": [
        {
          "indexed": true,
          "internalType": "uint256",
          "name": "eventId",
          "type": "uint256"
        }
      ],
      "name": "EventCancelled",
      "type": "event"
    },
    {
      "anonymous": false,
      "inputs": [
        {
          "indexed": true,
          "internalType": "address",
          "name": "previousOwner",
          "type": "address"
        },
        {
          "indexed": true,
          "internalType": "address",
          "name": "newOwner",
          "type": "address"
        }
      ],
      "name": "OwnershipTransferred",
      "type": "event"
    },
    {
      "anonymous": false,
      "inputs": [
        {
          "indexed": false,
          "internalType": "address",
          "name": "account",
          "type": "address"
        }
      ],
      "name": "Paused",
      "type": "event"
    },
    {
      "anonymous": false,
      "inputs": [
        {
          "indexed": true,
          "internalType": "uint256",
          "name": "eventId",
          "type": "uint256"
        },
        {
          "indexed": true,
          "internalType": "address",
          "name": "payer",
          "type": "address"
        },
        {
          "indexed": false,
          "internalType": "uint256",
          "name": "amount",
          "type": "uint256"
        }
      ],
      "name": "PaymentDeposited",
      "type": "event"
    },
    {
      "anonymous": false,
      "inputs": [
        {
          "indexed": true,
          "internalType": "uint256",
          "name": "eventId",
          "type": "uint256"
        },
        {
          "indexed": true,
          "internalType": "address",
          "name": "payer",
          "type": "address"
        },
        {
          "indexed": false,
          "internalType": "uint256",
          "name": "amount",
          "type": "uint256"
        }
      ],
      "name": "PaymentRefunded",
      "type": "event"
    },
    {
      "anonymous": false,
      "inputs": [
        {
          "indexed": true,
          "internalType": "uint256",
          "name": "eventId",
          "type": "uint256"
        },
        {
          "indexed": true,
          "internalType": "address",
          "name": "payee",
          "type": "address"
        },
        {
          "indexed": false,
          "internalType": "uint256",
          "name": "amount",
          "type": "uint256"
        }
      ],
      "name": "PaymentReleased",
      "type": "event"
    },
    {
      "anonymous": false,
      "inputs": [
        {
          "indexed": true,
          "internalType": "uint256",
          "name": "eventId",
          "type": "uint256"
        },
        {
          "indexed": true,
          "internalType": "uint256",
          "name": "ticketId",
          "type": "uint256"
        },
        {
          "indexed": false,
          "internalType": "uint256",
          "name": "refundAmount",
          "type": "uint256"
        }
      ],
      "name": "TicketCancelled",
      "type": "event"
    },
    {
      "anonymous": false,
      "inputs": [
        {
          "indexed": false,
          "internalType": "address",
          "name": "account",
          "type": "address"
        }
      ],
      "name": "Unpaused",
      "type": "event"
    },
    {
      "anonymous": false,
      "inputs": [
        {
          "indexed": true,
          "internalType": "uint256",
          "name": "eventId",
          "type": "uint256"
        },
        {
          "indexed": true,
          "internalType": "uint256",
          "name": "ticketId",
          "type": "uint256"
        }
      ],
      "name": "WaitlistRefundEnabled",
      "type": "event"
    },
    {
      "inputs": [],
      "name": "CANCELLATION_FEE_PERCENT",
      "outputs": [
        {
          "internalType": "uint256",
          "name": "",
          "type": "uint256"
        }
      ],
      "stateMutability": "view",
      "type": "function"
    },
    {
      "inputs": [],
      "name": "REFUND_WINDOW",
      "outputs": [
        {
          "internalType": "uint256",
          "name": "",
          "type": "uint256"
        }
      ],
      "stateMutability": "view",
      "type": "function"
    },
    {
      "inputs": [
        {
          "internalType": "uint256",
          "name": "eventId",
          "type": "uint256"
        }
      ],
      "name": "cancelEvent",
      "outputs": [],
      "stateMutability": "nonpayable",
      "type": "function"
    },
    {
      "inputs": [
        {
          "internalType": "uint256",
          "name": "eventId",
          "type": "uint256"
        },
        {
          "internalType": "uint256",
          "name": "ticketId",
          "type": "uint256"
        }
      ],
      "name": "cancelTicket",
      "outputs": [],
      "stateMutability": "nonpayable",
      "type": "function"
    },
    {
      "inputs": [
        {
          "internalType": "uint256",
          "name": "eventId",
          "type": "uint256"
        },
        {
          "internalType": "uint256",
          "name": "ticketId",
          "type": "uint256"
        }
      ],
      "name": "depositPayment",
      "outputs": [],
      "stateMutability": "payable",
      "type": "function"
    },
    {
      "inputs": [
        {
          "internalType": "uint256",
          "name": "eventId",
          "type": "uint256"
        },
        {
          "internalType": "uint256",
          "name": "ticketId",
          "type": "uint256"
        }
      ],
      "name": "enableWaitlistRefund",
      "outputs": [],
      "stateMutability": "nonpayable",
      "type": "function"
    },
    {
      "inputs": [
        {
          "internalType": "uint256",
          "name": "eventId",
          "type": "uint256"
        },
        {
          "internalType": "uint256",
          "name": "ticketId",
          "type": "uint256"
        }
      ],
      "name": "getOriginalPayer",
      "outputs": [
        {
          "internalType": "address",
          "name": "",
          "type": "address"
        }
      ],
      "stateMutability": "view",
      "type": "function"
    },
    {
      "inputs": [
        {
          "internalType": "uint256",
          "name": "eventId",
          "type": "uint256"
        },
        {
          "internalType": "uint256",
          "name": "ticketId",
          "type": "uint256"
        }
      ],
      "name": "getPaymentAmount",
      "outputs": [
        {
          "internalType": "uint256",
          "name": "",
          "type": "uint256"
        }
      ],
      "stateMutability": "view",
      "type": "function"
    },
    {
      "inputs": [
        {
          "internalType": "uint256",
          "name": "eventId",
          "type": "uint256"
        },
        {
          "internalType": "uint256",
          "name": "ticketId",
          "type": "uint256"
        }
      ],
      "name": "getPaymentDetails",
      "outputs": [
        {
          "internalType": "address",
          "name": "payer",
          "type": "address"
        },
        {
          "internalType": "uint256",
          "name": "amount",
          "type": "uint256"
        },
        {
          "internalType": "enum IRefundEscrow.PaymentStatus",
          "name": "status",
          "type": "uint8"
        },
        {
          "internalType": "bool",
          "name": "waitlistRefundEnabled",
          "type": "bool"
        },
        {
          "internalType": "uint256",
          "name": "refundDeadline",
          "type": "uint256"
        },
        {
          "internalType": "bool",
          "name": "isCancelled",
          "type": "bool"
        }
      ],
      "stateMutability": "view",
      "type": "function"
    },
    {
      "inputs": [
        {
          "internalType": "uint256",
          "name": "eventId",
          "type": "uint256"
        },
        {
          "internalType": "uint256",
          "name": "ticketId",
          "type": "uint256"
        }
      ],
      "name": "getPaymentStatus",
      "outputs": [
        {
          "internalType": "enum IRefundEscrow.PaymentStatus",
          "name": "",
          "type": "uint8"
        }
      ],
      "stateMutability": "view",
      "type": "function"
    },
    {
      "inputs": [
        {
          "internalType": "uint256",
          "name": "eventId",
          "type": "uint256"
        }
      ],
      "name": "isEventCancelled",
      "outputs": [
        {
          "internalType": "bool",
          "name": "",
          "type": "bool"
        }
      ],
      "stateMutability": "view",
      "type": "function"
    },
    {
      "inputs": [],
      "name": "owner",
      "outputs": [
        {
          "internalType": "address",
          "name": "",
          "type": "address"
        }
      ],
      "stateMutability": "view",
      "type": "function"
    },
    {
      "inputs": [],
      "name": "pause",
      "outputs": [],
      "stateMutability": "nonpayable",
      "type": "function"
    },
    {
      "inputs": [],
      "name": "paused",
      "outputs": [
        {
          "internalType": "bool",
          "name": "",
          "type": "bool"
        }
      ],
      "stateMutability": "view",
      "type": "function"
    },
    {
      "inputs": [
        {
          "internalType": "uint256",
          "name": "eventId",
          "type": "uint256"
        },
        {
          "internalType": "uint256",
          "name": "ticketId",
          "type": "uint256"
        }
      ],
      "name": "processEventCancellationRefund",
      "outputs": [],
      "stateMutability": "nonpayable",
      "type": "function"
    },
    {
      "inputs": [
        {
          "internalType": "uint256",
          "name": "eventId",
          "type": "uint256"
        },
        {
          "internalType": "uint256",
          "name": "ticketId",
          "type": "uint256"
        }
      ],
      "name": "refundPayment",
      "outputs": [],
      "stateMutability": "nonpayable",
      "type": "function"
    },
    {
      "inputs": [
        {
          "internalType": "uint256",
          "name": "eventId",
          "type": "uint256"
        },
        {
          "internalType": "uint256",
          "name": "ticketId",
          "type": "uint256"
        }
      ],
      "name": "releasePayment",
      "outputs": [],
      "stateMutability": "nonpayable",
      "type": "function"
    },
    {
      "inputs": [],
      "name": "renounceOwnership",
      "outputs": [],
      "stateMutability": "nonpayable",
      "type": "function"
    },
    {
      "inputs": [
        {
          "internalType": "address",
          "name": "newOwner",
          "type": "address"
        }
      ],
      "name": "transferOwnership",
      "outputs": [],
      "stateMutability": "nonpayable",
      "type": "function"
    },
    {
      "inputs": [],
      "name": "unpause",
      "outputs": [],
      "stateMutability": "nonpayable",
      "type": "function"
    },
    {
      "inputs": [],
      "name": "withdrawStuckFunds",
      "outputs": [],
      "stateMutability": "nonpayable",
      "type": "function"
    }
  ],
  "bytecode": "0x60a03461012657601f61155a38819003918201601f19168301916001600160401b0383118484101761012b5780849260209460405283398101031261012657516001600160a01b0380821680830361012657331561010d576000543360018060a01b0319821617600055604051923391167f8be0079c531659141344cd1fd0a4f28419497f9722a3daafe3b4186f6b6457e0600080a36001805560ff1960025416600255156100cb57506080526040516114189081610142823960805181818161074c0152610ee70152f35b62461bcd60e51b815260206004820152601c60248201527f496e76616c6964204576656e744d616e616765722061646472657373000000006044820152606490fd5b604051631e4fbdf760e01b815260006004820152602490fd5b600080fd5b634e487b7160e01b600052604160045260246000fdfe608060408181526004908136101561001657600080fd5b600092833560e01c90816306633e121461113357508063110f2697146111075780631153b5f3146110e95780632f62582c14610fc15780633f4ba83a14610f575780633f69babd14610ecc5780635c975abb14610ea857806366e008f814610e79578063715018a614610e1f57806378c5e06d14610de6578063830ce58714610c095780638456cb5914610bae5780638da5cb5b14610b86578063925a910114610ab657806395144dc41461092457806397e99a801461071d5780639bdc727c146104a1578063c5b60a481461042f578063e7e74183146103f4578063ea266fcf1461019b5763f2fde38b1461010b57600080fd5b34610197576020366003190112610197576001600160a01b038235818116939192908490036101935761013c61118c565b831561017d57505082546001600160a01b0319811683178455167f8be0079c531659141344cd1fd0a4f28419497f9722a3daafe3b4186f6b6457e08380a380f35b51631e4fbdf760e01b8152908101849052602490fd5b8480fd5b8280fd5b509034610197576101ab3661114e565b9290916101b661120c565b6101be6111ee565b8285526020916003835280862085875283528086209160018060a01b036101fd81855416878a5260058752848a20898b52875282858b2054161461122f565b8184019384549460ff86166103a2576003820154958642116103445760ff1916600190811790915501549362093a7f1981019081116103315742116102de575b508680808086335af161024e611289565b50156102845750519081527fb0897fa6b40736fe48b8a1b08df225f049ed49c9de048c3a99a1def267a503ee9190a36001805580f35b83608492519162461bcd60e51b8352820152603060248201527f5472616e73666572206f6620726566756e6420616d6f756e7420746f2074696360448201526f1ad95d081bdddb995c8819985a5b195960821b6064820152fd5b9260058102818104600514821517156103315760649004908181039081116103315788808093819397825416828215610328575bf11561031e573861023d565b81513d88823e3d90fd5b506108fc610312565b634e487b7160e01b895260118352602489fd5b855162461bcd60e51b8152808601899052603260248201527f526566756e64207265717565737420657863656564732074686520616c6c6f7760448201527161626c6520726566756e642077696e646f7760701b6064820152608490fd5b845162461bcd60e51b8152808501889052602660248201527f54686973207469636b65742068617320616c7265616479206265656e2063616e60448201526518d95b1b195960d21b6064820152608490fd5b83823461042b576020916104073661114e565b9082526005845282822090825283528190205490516001600160a01b039091168152f35b5080fd5b503461019757826003193601126101975761044861118c565b8280808060018060a01b0381541647905af1610462611289565b501561046c578280f35b906020606492519162461bcd60e51b8352820152600f60248201526e151c985b9cd9995c8819985a5b1959608a1b6044820152fd5b5082906104ad3661114e565b916104b661120c565b6104be6111ee565b34156106ca5781845260209260038452818520818652845260018060a01b03958683872054166106765783865280855260ff838720541661061e578386526005855282862082875285528286206bffffffffffffffffffffffff60a01b90328282541617905562127500420180421161060b576105396111b8565b91328352878301348152868401918a8352606085019b8b8d526080860194855260a08601978c89528a8d5260038c52898d20908d528b52888c209551169085541617845551600184015560028301905160038110156105f8577f71284872bb4c088a81295dff2513729babbccfeda38a8d824bb1a73bcaab494e9798999a60ff61ff0084549251151560081b1692169061ffff191617179055516003820155019051151560ff8019835416911617905551923484523293a36001805580f35b634e487b7160e01b8a526021855260248afd5b634e487b7160e01b885260118352602488fd5b825162461bcd60e51b8152908101859052602c60248201527f43616e6e6f74206465706f736974207061796d656e7420666f7220612063616e60448201526b18d95b1b195908195d995b9d60a21b6064820152608490fd5b825162461bcd60e51b8152908101859052602860248201527f41207061796d656e7420666f722074686973207469636b657420616c72656164604482015267792065786973747360c01b6064820152608490fd5b5162461bcd60e51b8152602081860152602860248201527f5061796d656e7420616d6f756e74206d7573742062652067726561746572207460448201526768616e207a65726f60c01b6064820152608490fd5b50346101975761072c3661114e565b909161073661120c565b61073e6111ee565b6001600160a01b03610773337f00000000000000000000000000000000000000000000000000000000000000008316146112d4565b83865260209260038452828720908752835281862094600286019081549060ff82166003811015610911576108b35760ff818901541661085a5786895280865260ff858a205416610802575091600191827f21d71db5be59bb9fa133895586b7404307dd33fb93b16db09dc6f1d9d7d231b096959460ff19161790558654169501549051908152a36001805580f35b845162461bcd60e51b8152908101869052602c60248201527f43616e6e6f742072656c65617365207061796d656e7420666f7220612063616e60448201526b18d95b1b195908195d995b9d60a21b6064820152608490fd5b845162461bcd60e51b8152908101869052602d60248201527f43616e6e6f742072656c65617365207061796d656e7420666f7220612063616e60448201526c18d95b1b1959081d1a58dad95d609a1b6064820152608490fd5b845162461bcd60e51b8152908101869052603260248201527f5061796d656e74206d75737420626520696e20612050656e64696e67207374616044820152711d1d5cc81d1bc81899481c995b19585cd95960721b6064820152608490fd5b634e487b7160e01b8a526021825260248afd5b5034610197576109333661114e565b92909161093e61120c565b6109466111ee565b828552602091600383528186208587528352818620600281019081549660ff881660038110156105f85761097a9015611320565b86895260058652848920908952855261099f60018060a01b03858a2054163314611387565b60038101544211610a54576001015460ff1990961660021790558580808088335af16109c9611289565b5015610a015750907fe89ec1881a76229445bcd179b8c4b24f9edc7ddd87d07fb3b19c67ae9c6e27cc91519384523393a36001805580f35b82608492519162461bcd60e51b8352820152602960248201527f5472616e73666572206f6620726566756e6420616d6f756e7420746f20706179604482015268195c8819985a5b195960ba1b6064820152fd5b835162461bcd60e51b8152808401869052603660248201527f43616e6e6f7420726566756e64207061796d656e7420617320746865207265666044820152751d5b99081dda5b991bddc81a185cc8195e1c1a5c995960521b6064820152608490fd5b508234610b8357610ac63661114e565b9082526003602052828220908252602052818120610ae26111b8565b9160018060a01b039384835416845260018301549460208501958652600284015460ff8116936003851015610b70575091839160ff80610b5f9560c09b97858b015260081c161515958660608a01526003880154978860808b01520154161515968760a08201525116965181519788526020880152860190611169565b6060840152608083015260a0820152f35b634e487b7160e01b815260218952602490fd5b80fd5b83823461042b578160031936011261042b57905490516001600160a01b039091168152602090f35b83823461042b578160031936011261042b5760207f62e78cea01bee320cd4e420270b5ea74000d11b0c9f74754ebdbfc544b05a25891610bec61118c565b610bf46111ee565b600160ff19600254161760025551338152a180f35b50903461019757610c193661114e565b929091610c2461120c565b610c2c6111ee565b82855260209181835260ff818720541615610d7257838652600383528086208587528352808620805485885260058552828820878952855282882054610c7f916001600160a01b0391821691161461122f565b828101805460ff8116610d215760ff191660019081179091550154918680808086335af1610cab611289565b5015610ce15750519081527faaf6c9d5bc32e5fc43b1512d04c81426a969d259164fcb878aef8ae9a34d22709190a36001805580f35b8380606493519262461bcd60e51b845283015260248201527f5472616e73666572206f6620726566756e6420616d6f756e74206661696c65646044820152fd5b835162461bcd60e51b8152808601879052602560248201527f54686973207469636b65742068617320616c7265616479206265656e207265666044820152641d5b99195960da1b6064820152608490fd5b9160a492519162461bcd60e51b8352820152604460248201527f526566756e64732063616e6e6f742062652070726f63657373656420666f722060448201527f616e206576656e74207468617420686173206e6f74206265656e2063616e63656064820152631b1b195960e21b6084820152fd5b83823461042b57610e1d60ff600283602095610e013661114e565b9082526003885282822090825287522001541691518092611169565bf35b8334610b835780600319360112610b8357610e3861118c565b80546001600160a01b03198116825581906001600160a01b03167f8be0079c531659141344cd1fd0a4f28419497f9722a3daafe3b4186f6b6457e08280a380f35b83823461042b57600181602093610e8f3661114e565b9082526003865282822090825285522001549051908152f35b83823461042b578160031936011261042b5760209060ff6002541690519015158152f35b503461019757602036600319011261019757813591610f15337f00000000000000000000000000000000000000000000000000000000000000006001600160a01b0316146112d4565b610f1d6111ee565b8284526020528220805460ff191660011790557fdc3cb569b066460f4a22dffa05317bdcce5d3826382ed49a21f13e5fa2063d398280a280f35b509034610197578260031936011261019757610f7161118c565b6002549060ff821615610fb3575060ff1916600255513381527f5db9ee0a495bf2e6ff9c91a7834c1ba4fdd244a5e8aa4e537bd38aeae4b073aa90602090a180f35b8251638dfc202b60e01b8152fd5b50903461019757610fd13661114e565b929091610fdc6111ee565b828552600360205281852084865260205281852090600282019283549260ff841660038110156110d65760ff91611014859215611320565b878a526005602052838a20898b5260205261103b60018060a01b03858c2054163314611387565b01541661107657505061ff0019166101001790557f42a333aa9f5e83ed874e2c82d84df396c2a89c4ad056bc332d38ba044bbe8bba8380a380f35b906020608492519162461bcd60e51b8352820152603460248201527f43616e6e6f7420656e61626c6520776169746c69737420726566756e6420666f6044820152731c88184818d85b98d95b1b1959081d1a58dad95d60621b6064820152fd5b634e487b7160e01b895260218452602489fd5b83823461042b578160031936011261042b5760209051621275008152f35b50903461019757602036600319011261019757816020938260ff93358252855220541690519015158152f35b84903461042b578160031936011261042b5780600560209252f35b6040906003190112611164576004359060243590565b600080fd5b9060038210156111765752565b634e487b7160e01b600052602160045260246000fd5b6000546001600160a01b031633036111a057565b60405163118cdaa760e01b8152336004820152602490fd5b6040519060c0820182811067ffffffffffffffff8211176111d857604052565b634e487b7160e01b600052604160045260246000fd5b60ff600254166111fa57565b60405163d93c066560e01b8152600490fd5b60026001541461121d576002600155565b604051633ee5aeb560e01b8152600490fd5b1561123657565b60405162461bcd60e51b815260206004820152602560248201527f43616c6c6572206973206e6f7420746865206f776e6572206f662074686520746044820152641a58dad95d60da1b6064820152608490fd5b3d156112cf5767ffffffffffffffff903d8281116111d85760405192601f8201601f19908116603f01168401908111848210176111d85760405282523d6000602084013e565b606090565b156112db57565b60405162461bcd60e51b815260206004820152601e60248201527f43616c6c6572206973206e6f7420746865204576656e744d616e6167657200006044820152606490fd5b1561132757565b60405162461bcd60e51b815260206004820152603260248201527f5061796d656e74206d75737420626520696e20612050656e64696e67207374616044820152711d1d5cc81d1bc81899481c99599d5b99195960721b6064820152608490fd5b1561138e57565b60405162461bcd60e51b815260206004820152602660248201527f43616c6c6572206973206e6f7420746865207061796572206f662074686973206044820152651d1a58dad95d60d21b6064820152608490fdfea264697066735822122039766dd8719d70462ecd5bff14b167e80b828b2da5fac500704f4dce6510ce8d64736f6c63430008140033",
  "linkReferences": {},
  "deployedLinkReferences": {}
}