{
  "_format": "hh-sol-artifact-1",
  "contractName": "TicketFactory",
  "sourceName": "contracts/core/TicketFactory.sol",
  "abi": [
    {
      "inputs": [
        {
          "internalType": "address",
          "name": "waitlistManagerAddress",
          "type": "address"
        }
      ],
      "stateMutability": "nonpayable",
      "type": "constructor"
    },
    {
      "inputs": [
        {
          "internalType": "address",
          "name": "sender",
          "type": "address"
        },
        {
          "internalType": "uint256",
          "name": "tokenId",
          "type": "uint256"
        },
        {
          "internalType": "address",
          "name": "owner",
          "type": "address"
        }
      ],
      "name": "ERC721IncorrectOwner",
      "type": "error"
    },
    {
      "inputs": [
        {
          "internalType": "address",
          "name": "operator",
          "type": "address"
        },
        {
          "internalType": "uint256",
          "name": "tokenId",
          "type": "uint256"
        }
      ],
      "name": "ERC721InsufficientApproval",
      "type": "error"
    },
    {
      "inputs": [
        {
          "internalType": "address",
          "name": "approver",
          "type": "address"
        }
      ],
      "name": "ERC721InvalidApprover",
      "type": "error"
    },
    {
      "inputs": [
        {
          "internalType": "address",
          "name": "operator",
          "type": "address"
        }
      ],
      "name": "ERC721InvalidOperator",
      "type": "error"
    },
    {
      "inputs": [
        {
          "internalType": "address",
          "name": "owner",
          "type": "address"
        }
      ],
      "name": "ERC721InvalidOwner",
      "type": "error"
    },
    {
      "inputs": [
        {
          "internalType": "address",
          "name": "receiver",
          "type": "address"
        }
      ],
      "name": "ERC721InvalidReceiver",
      "type": "error"
    },
    {
      "inputs": [
        {
          "internalType": "address",
          "name": "sender",
          "type": "address"
        }
      ],
      "name": "ERC721InvalidSender",
      "type": "error"
    },
    {
      "inputs": [
        {
          "internalType": "uint256",
          "name": "tokenId",
          "type": "uint256"
        }
      ],
      "name": "ERC721NonexistentToken",
      "type": "error"
    },
    {
      "inputs": [
        {
          "internalType": "address",
          "name": "owner",
          "type": "address"
        }
      ],
      "name": "OwnableInvalidOwner",
      "type": "error"
    },
    {
      "inputs": [
        {
          "internalType": "address",
          "name": "account",
          "type": "address"
        }
      ],
      "name": "OwnableUnauthorizedAccount",
      "type": "error"
    },
    {
      "inputs": [],
      "name": "ReentrancyGuardReentrantCall",
      "type": "error"
    },
    {
      "anonymous": false,
      "inputs": [
        {
          "indexed": true,
          "internalType": "address",
          "name": "owner",
          "type": "address"
        },
        {
          "indexed": true,
          "internalType": "address",
          "name": "approved",
          "type": "address"
        },
        {
          "indexed": true,
          "internalType": "uint256",
          "name": "tokenId",
          "type": "uint256"
        }
      ],
      "name": "Approval",
      "type": "event"
    },
    {
      "anonymous": false,
      "inputs": [
        {
          "indexed": true,
          "internalType": "address",
          "name": "owner",
          "type": "address"
        },
        {
          "indexed": true,
          "internalType": "address",
          "name": "operator",
          "type": "address"
        },
        {
          "indexed": false,
          "internalType": "bool",
          "name": "approved",
          "type": "bool"
        }
      ],
      "name": "ApprovalForAll",
      "type": "event"
    },
    {
      "anonymous": false,
      "inputs": [
        {
          "indexed": true,
          "internalType": "uint256",
          "name": "eventId",
          "type": "uint256"
        },
        {
          "indexed": false,
          "internalType": "uint256",
          "name": "maxSupply",
          "type": "uint256"
        },
        {
          "indexed": false,
          "internalType": "uint256",
          "name": "price",
          "type": "uint256"
        }
      ],
      "name": "EventCreated",
      "type": "event"
    },
    {
      "anonymous": false,
      "inputs": [
        {
          "indexed": true,
          "internalType": "address",
          "name": "previousOwner",
          "type": "address"
        },
        {
          "indexed": true,
          "internalType": "address",
          "name": "newOwner",
          "type": "address"
        }
      ],
      "name": "OwnershipTransferred",
      "type": "event"
    },
    {
      "anonymous": false,
      "inputs": [
        {
          "indexed": true,
          "internalType": "uint256",
          "name": "tokenId",
          "type": "uint256"
        },
        {
          "indexed": false,
          "internalType": "uint256",
          "name": "price",
          "type": "uint256"
        }
      ],
      "name": "TicketListedForResale",
      "type": "event"
    },
    {
      "anonymous": false,
      "inputs": [
        {
          "indexed": true,
          "internalType": "uint256",
          "name": "tokenId",
          "type": "uint256"
        },
        {
          "indexed": true,
          "internalType": "uint256",
          "name": "eventId",
          "type": "uint256"
        },
        {
          "indexed": false,
          "internalType": "uint256",
          "name": "price",
          "type": "uint256"
        }
      ],
      "name": "TicketMinted",
      "type": "event"
    },
    {
      "anonymous": false,
      "inputs": [
        {
          "indexed": true,
          "internalType": "uint256",
          "name": "tokenId",
          "type": "uint256"
        },
        {
          "indexed": true,
          "internalType": "address",
          "name": "buyer",
          "type": "address"
        },
        {
          "indexed": false,
          "internalType": "uint256",
          "name": "price",
          "type": "uint256"
        }
      ],
      "name": "TicketPurchased",
      "type": "event"
    },
    {
      "anonymous": false,
      "inputs": [
        {
          "indexed": true,
          "internalType": "uint256",
          "name": "tokenId",
          "type": "uint256"
        },
        {
          "indexed": true,
          "internalType": "address",
          "name": "buyer",
          "type": "address"
        },
        {
          "indexed": false,
          "internalType": "uint256",
          "name": "price",
          "type": "uint256"
        }
      ],
      "name": "TicketResold",
      "type": "event"
    },
    {
      "anonymous": false,
      "inputs": [
        {
          "indexed": true,
          "internalType": "uint256",
          "name": "tokenId",
          "type": "uint256"
        }
      ],
      "name": "TicketUsed",
      "type": "event"
    },
    {
      "anonymous": false,
      "inputs": [
        {
          "indexed": true,
          "internalType": "address",
          "name": "from",
          "type": "address"
        },
        {
          "indexed": true,
          "internalType": "address",
          "name": "to",
          "type": "address"
        },
        {
          "indexed": true,
          "internalType": "uint256",
          "name": "tokenId",
          "type": "uint256"
        }
      ],
      "name": "Transfer",
      "type": "event"
    },
    {
      "anonymous": false,
      "inputs": [
        {
          "indexed": true,
          "internalType": "uint256",
          "name": "tokenId",
          "type": "uint256"
        },
        {
          "indexed": true,
          "internalType": "uint256",
          "name": "eventId",
          "type": "uint256"
        },
        {
          "indexed": true,
          "internalType": "address",
          "name": "user",
          "type": "address"
        }
      ],
      "name": "WaitlistTicketIssued",
      "type": "event"
    },
    {
      "inputs": [],
      "name": "MAX_RESALE_MARKUP",
      "outputs": [
        {
          "internalType": "uint256",
          "name": "",
          "type": "uint256"
        }
      ],
      "stateMutability": "view",
      "type": "function"
    },
    {
      "inputs": [],
      "name": "PLATFORM_FEE_PERCENTAGE",
      "outputs": [
        {
          "internalType": "uint256",
          "name": "",
          "type": "uint256"
        }
      ],
      "stateMutability": "view",
      "type": "function"
    },
    {
      "inputs": [
        {
          "internalType": "address",
          "name": "to",
          "type": "address"
        },
        {
          "internalType": "uint256",
          "name": "tokenId",
          "type": "uint256"
        }
      ],
      "name": "approve",
      "outputs": [],
      "stateMutability": "nonpayable",
      "type": "function"
    },
    {
      "inputs": [
        {
          "internalType": "address",
          "name": "owner",
          "type": "address"
        }
      ],
      "name": "balanceOf",
      "outputs": [
        {
          "internalType": "uint256",
          "name": "",
          "type": "uint256"
        }
      ],
      "stateMutability": "view",
      "type": "function"
    },
    {
      "inputs": [
        {
          "internalType": "uint256",
          "name": "eventId",
          "type": "uint256"
        },
        {
          "internalType": "uint256",
          "name": "maxSupply",
          "type": "uint256"
        },
        {
          "internalType": "uint256",
          "name": "price",
          "type": "uint256"
        }
      ],
      "name": "createEvent",
      "outputs": [],
      "stateMutability": "nonpayable",
      "type": "function"
    },
    {
      "inputs": [
        {
          "internalType": "uint256",
          "name": "",
          "type": "uint256"
        }
      ],
      "name": "events",
      "outputs": [
        {
          "internalType": "uint256",
          "name": "maxSupply",
          "type": "uint256"
        },
        {
          "internalType": "uint256",
          "name": "currentSupply",
          "type": "uint256"
        },
        {
          "internalType": "uint256",
          "name": "price",
          "type": "uint256"
        },
        {
          "internalType": "bool",
          "name": "isActive",
          "type": "bool"
        }
      ],
      "stateMutability": "view",
      "type": "function"
    },
    {
      "inputs": [
        {
          "internalType": "uint256",
          "name": "tokenId",
          "type": "uint256"
        }
      ],
      "name": "getApproved",
      "outputs": [
        {
          "internalType": "address",
          "name": "",
          "type": "address"
        }
      ],
      "stateMutability": "view",
      "type": "function"
    },
    {
      "inputs": [
        {
          "internalType": "uint256",
          "name": "tokenId",
          "type": "uint256"
        }
      ],
      "name": "getTicketDetails",
      "outputs": [
        {
          "internalType": "uint256",
          "name": "eventId",
          "type": "uint256"
        },
        {
          "internalType": "uint256",
          "name": "price",
          "type": "uint256"
        },
        {
          "internalType": "bool",
          "name": "used",
          "type": "bool"
        },
        {
          "internalType": "uint256",
          "name": "seatNumber",
          "type": "uint256"
        },
        {
          "internalType": "bool",
          "name": "isWaitlisted",
          "type": "bool"
        },
        {
          "internalType": "bool",
          "name": "isResale",
          "type": "bool"
        },
        {
          "internalType": "uint256",
          "name": "resalePrice",
          "type": "uint256"
        }
      ],
      "stateMutability": "view",
      "type": "function"
    },
    {
      "inputs": [
        {
          "internalType": "uint256",
          "name": "eventId",
          "type": "uint256"
        }
      ],
      "name": "getWaitlistCount",
      "outputs": [
        {
          "internalType": "uint256",
          "name": "",
          "type": "uint256"
        }
      ],
      "stateMutability": "view",
      "type": "function"
    },
    {
      "inputs": [
        {
          "internalType": "address",
          "name": "owner",
          "type": "address"
        },
        {
          "internalType": "address",
          "name": "operator",
          "type": "address"
        }
      ],
      "name": "isApprovedForAll",
      "outputs": [
        {
          "internalType": "bool",
          "name": "",
          "type": "bool"
        }
      ],
      "stateMutability": "view",
      "type": "function"
    },
    {
      "inputs": [
        {
          "internalType": "address",
          "name": "to",
          "type": "address"
        },
        {
          "internalType": "uint256",
          "name": "eventId",
          "type": "uint256"
        },
        {
          "internalType": "uint256",
          "name": "seatNumber",
          "type": "uint256"
        }
      ],
      "name": "issueTicket",
      "outputs": [
        {
          "internalType": "uint256",
          "name": "",
          "type": "uint256"
        }
      ],
      "stateMutability": "nonpayable",
      "type": "function"
    },
    {
      "inputs": [
        {
          "internalType": "uint256",
          "name": "tokenId",
          "type": "uint256"
        },
        {
          "internalType": "uint256",
          "name": "resalePrice",
          "type": "uint256"
        }
      ],
      "name": "listForResale",
      "outputs": [],
      "stateMutability": "nonpayable",
      "type": "function"
    },
    {
      "inputs": [],
      "name": "name",
      "outputs": [
        {
          "internalType": "string",
          "name": "",
          "type": "string"
        }
      ],
      "stateMutability": "view",
      "type": "function"
    },
    {
      "inputs": [],
      "name": "owner",
      "outputs": [
        {
          "internalType": "address",
          "name": "",
          "type": "address"
        }
      ],
      "stateMutability": "view",
      "type": "function"
    },
    {
      "inputs": [
        {
          "internalType": "uint256",
          "name": "tokenId",
          "type": "uint256"
        }
      ],
      "name": "ownerOf",
      "outputs": [
        {
          "internalType": "address",
          "name": "",
          "type": "address"
        }
      ],
      "stateMutability": "view",
      "type": "function"
    },
    {
      "inputs": [
        {
          "internalType": "uint256",
          "name": "tokenId",
          "type": "uint256"
        }
      ],
      "name": "purchaseResaleTicket",
      "outputs": [],
      "stateMutability": "payable",
      "type": "function"
    },
    {
      "inputs": [
        {
          "internalType": "uint256",
          "name": "eventId",
          "type": "uint256"
        },
        {
          "internalType": "uint256",
          "name": "seatNumber",
          "type": "uint256"
        }
      ],
      "name": "purchaseTicket",
      "outputs": [
        {
          "internalType": "uint256",
          "name": "",
          "type": "uint256"
        }
      ],
      "stateMutability": "payable",
      "type": "function"
    },
    {
      "inputs": [],
      "name": "renounceOwnership",
      "outputs": [],
      "stateMutability": "nonpayable",
      "type": "function"
    },
    {
      "inputs": [
        {
          "internalType": "address",
          "name": "from",
          "type": "address"
        },
        {
          "internalType": "address",
          "name": "to",
          "type": "address"
        },
        {
          "internalType": "uint256",
          "name": "tokenId",
          "type": "uint256"
        }
      ],
      "name": "safeTransferFrom",
      "outputs": [],
      "stateMutability": "nonpayable",
      "type": "function"
    },
    {
      "inputs": [
        {
          "internalType": "address",
          "name": "from",
          "type": "address"
        },
        {
          "internalType": "address",
          "name": "to",
          "type": "address"
        },
        {
          "internalType": "uint256",
          "name": "tokenId",
          "type": "uint256"
        },
        {
          "internalType": "bytes",
          "name": "data",
          "type": "bytes"
        }
      ],
      "name": "safeTransferFrom",
      "outputs": [],
      "stateMutability": "nonpayable",
      "type": "function"
    },
    {
      "inputs": [
        {
          "internalType": "address",
          "name": "operator",
          "type": "address"
        },
        {
          "internalType": "bool",
          "name": "approved",
          "type": "bool"
        }
      ],
      "name": "setApprovalForAll",
      "outputs": [],
      "stateMutability": "nonpayable",
      "type": "function"
    },
    {
      "inputs": [
        {
          "internalType": "address",
          "name": "newWaitlistManager",
          "type": "address"
        }
      ],
      "name": "setWaitlistManager",
      "outputs": [],
      "stateMutability": "nonpayable",
      "type": "function"
    },
    {
      "inputs": [
        {
          "internalType": "bytes4",
          "name": "interfaceId",
          "type": "bytes4"
        }
      ],
      "name": "supportsInterface",
      "outputs": [
        {
          "internalType": "bool",
          "name": "",
          "type": "bool"
        }
      ],
      "stateMutability": "view",
      "type": "function"
    },
    {
      "inputs": [],
      "name": "symbol",
      "outputs": [
        {
          "internalType": "string",
          "name": "",
          "type": "string"
        }
      ],
      "stateMutability": "view",
      "type": "function"
    },
    {
      "inputs": [
        {
          "internalType": "uint256",
          "name": "",
          "type": "uint256"
        }
      ],
      "name": "tickets",
      "outputs": [
        {
          "internalType": "uint256",
          "name": "eventId",
          "type": "uint256"
        },
        {
          "internalType": "uint256",
          "name": "price",
          "type": "uint256"
        },
        {
          "internalType": "bool",
          "name": "used",
          "type": "bool"
        },
        {
          "internalType": "uint256",
          "name": "seatNumber",
          "type": "uint256"
        },
        {
          "internalType": "bool",
          "name": "isWaitlisted",
          "type": "bool"
        },
        {
          "internalType": "bool",
          "name": "isResale",
          "type": "bool"
        },
        {
          "internalType": "uint256",
          "name": "resalePrice",
          "type": "uint256"
        }
      ],
      "stateMutability": "view",
      "type": "function"
    },
    {
      "inputs": [
        {
          "internalType": "uint256",
          "name": "tokenId",
          "type": "uint256"
        }
      ],
      "name": "tokenURI",
      "outputs": [
        {
          "internalType": "string",
          "name": "",
          "type": "string"
        }
      ],
      "stateMutability": "view",
      "type": "function"
    },
    {
      "inputs": [
        {
          "internalType": "address",
          "name": "from",
          "type": "address"
        },
        {
          "internalType": "address",
          "name": "to",
          "type": "address"
        },
        {
          "internalType": "uint256",
          "name": "tokenId",
          "type": "uint256"
        }
      ],
      "name": "transferFrom",
      "outputs": [],
      "stateMutability": "nonpayable",
      "type": "function"
    },
    {
      "inputs": [
        {
          "internalType": "address",
          "name": "newOwner",
          "type": "address"
        }
      ],
      "name": "transferOwnership",
      "outputs": [],
      "stateMutability": "nonpayable",
      "type": "function"
    },
    {
      "inputs": [
        {
          "internalType": "uint256",
          "name": "tokenId",
          "type": "uint256"
        }
      ],
      "name": "useTicket",
      "outputs": [],
      "stateMutability": "nonpayable",
      "type": "function"
    },
    {
      "inputs": [],
      "name": "waitlistManager",
      "outputs": [
        {
          "internalType": "contract IWaitlistManager",
          "name": "",
          "type": "address"
        }
      ],
      "stateMutability": "view",
      "type": "function"
    }
  ],
  "bytecode": "0x6080346200040857601f90601f19906001600160401b03906200263a3881900385810185168301848111848210176200040d578392829160405283396020928391810103126200040857516001600160a01b03808216959093909186900362000408576200006c62000423565b90600c82526b115d995b9d08151a58dad95d60a21b848301526200008f62000423565b92600493848152631510d2d560e21b86820152835197838911620003f3576000988954956001968781811c91168015620003e8575b8a821014620003d55790818684931162000382575b50899086831160011462000321578c9262000315575b5050600019600383901b1c191690861b1789555b8151938411620003025784548581811c91168015620002f7575b88821014620002e45790818486959493116200028d575b50879284116001146200022c5750889262000220575b5050600019600383901b1c191690821b1781555b3315620002085760065460018060a01b03199533878316176006557f8be0079c531659141344cd1fd0a4f28419497f9722a3daafe3b4186f6b6457e0604051963393169180a36007558415620001c95750505060095416176009556040516121f69081620004448239f35b62461bcd60e51b8352820181905260248201527f496e76616c696420576169746c697374206d616e616765722061646472657373604482015260649150fd5b604051631e4fbdf760e01b8152808301869052602490fd5b0151905038806200014a565b858a52878a20869590939291168a5b898282106200027657505084116200025c575b505050811b0181556200015e565b015160001960f88460031b161c191690553880806200024e565b83850151865588979095019493840193016200023b565b9091929350858a52878a208480870160051c8201928a8810620002da575b9187968992969594930160051c01915b828110620002cb57505062000134565b8c8155879650889101620002bb565b92508192620002ab565b634e487b7160e01b8a526022875260248afd5b90607f16906200011d565b634e487b7160e01b895260418652602489fd5b015190503880620000ef565b908c91858a95168380528c8420935b8d8282106200036b575050841162000351575b505050811b01895562000103565b015160001960f88460031b161c1916905538808062000343565b8385015186558c9790950194938401930162000330565b9091508b8052898c208680850160051c8201928c8610620003cb575b918a91869594930160051c01915b828110620003bc575050620000d9565b8e81558594508a9101620003ac565b925081926200039e565b634e487b7160e01b8c526022895260248cfd5b90607f1690620000c4565b604186634e487b7160e01b6000525260246000fd5b600080fd5b634e487b7160e01b600052604160045260246000fd5b60408051919082016001600160401b038111838210176200040d5760405256fe60806040908082526004918236101561001757600080fd5b600091823560e01c90816301ffc9a714611abd5750806306fdde03146119f2578063081812fc146119b65780630847112a1461199b578063095ea7b3146118be5780630b7914301461186f57806315548232146118545780631f7d863c146116f857806323b872dd146116e057806324c141601461162157806326606448146114fe5780633fc4a0601461123b57806342842e0e1461121357806350b447121461119a5780635f0290e3146111075780636352211e146110d657806370a0823114611081578063715018a614611024578063753a35cb14610ffc57806384a9504714610f625780638da5cb5b14610f3a57806395d89b4114610e21578063a22cb46514610d75578063b88d4fde14610ceb578063bdbbb0cb14610837578063c87b56dd146107e6578063e250243a14610446578063e985e9c5146103f9578063f2fde38b146103655763f6143d851461016f57600080fd5b3461036157606036600319011261036157823590602435604435610191611c71565b8385526020600a815260ff600385882001541661030b5782156102b95781156102625783516080810181811067ffffffffffffffff82111761024f577f06168e40fac2576e22d73ab2e9efa79b4e7530dd3dd411ab7d8862d04be798a2969798509061024391865284815260038382018a81528783018681526060840191600183528b8d52600a8752898d209451855551600185015551600284015551151591019060ff801983541691151516179055565b8351928352820152a280f35b634e487b7160e01b885260418952602488fd5b8660849185519162461bcd60e51b8352820152602c60248201527f4576656e74207469636b6574207072696365206d75737420626520677265617460448201526b6572207468616e207a65726f60a01b6064820152fd5b8660849185519162461bcd60e51b8352820152602760248201527f5469636b657420737570706c79206d7573742062652067726561746572207468604482015266616e207a65726f60c81b6064820152fd5b8660849185519162461bcd60e51b8352820152602b60248201527f416e20616374697665206576656e742077697468207468697320494420616c7260448201526a656164792065786973747360a81b6064820152fd5b5080fd5b5082346103f55760203660031901126103f557610380611b69565b90610389611c71565b6001600160a01b039182169283156103df575050600654826bffffffffffffffffffffffff60a01b821617600655167f8be0079c531659141344cd1fd0a4f28419497f9722a3daafe3b4186f6b6457e08380a380f35b51631e4fbdf760e01b8152908101849052602490fd5b8280fd5b503461036157806003193601126103615760ff81602093610418611b69565b610420611b84565b6001600160a01b0391821683526005875283832091168252855220549151911615158152f35b508290346103f55760603660031901126103f557610462611b69565b91602493843591610471611c71565b828252602094600a865284832060ff6003820154161561078d57600181019788548254111561073657600954875163569e25f560e11b81528581018890528281018790526001600160a01b03918a908290604490829086165afa90811561072c5790829188916106ff575b501680159081156106f3575b50156106b8579188610512999a9260648989966105066008546120af565b9d8e806008558a6120ec565b8060095416988d519b8c958694633964fdaf60e01b86528d86015284015216978860448301525afa9586156106ae57838b959389938c999896938a949961067c575b506002019587898d89549381519461056b86611be5565b8986528486019081528286018881526060870191604435835260808801951515865260a08801948a865260c08901978b89528c8c52600b90528a209751885551600188015551151560028701906105cd919060ff801983541691151516179055565b5160038601558401915115156105ef90839060ff801983541691151516179055565b51815461ff00191690151560081b61ff00161790555190600501558054610615906120af565b90557f98e3b865be443d525120139ac6a4ad7bf406891236bb145ad9ec6ba80333a5b59661064f575b50505050548551908152a351908152f35b807fbd1c7de52de5d7a65a85c1849ae6e2e0fe5569288a9fc6e56a0c4fa17e3faace91a48885858261063e565b60029199506106a090893d8b116106a7575b6106988183611c33565b8101906120d4565b9890610554565b503d61068e565b88513d85823e3d90fd5b875162461bcd60e51b81528086018a905260168184015275135d5cdd081a5cdcdd59481d1bc81dd85a5d1b1a5cdd60521b6044820152606490fd5b9050818516148b6104e8565b61071f91508b3d8d11610725575b6107178183611c33565b810190612090565b8c6104dc565b503d61070d565b89513d89823e3d90fd5b83602d6084928a8a519362461bcd60e51b85528401528201527f43616e6e6f74206973737565207469636b65747320617320746865206576656e60448201526c1d081a5cc81cdbdb19081bdd5d609a1b6064820152fd5b855162461bcd60e51b8152808401889052602e818a01527f5469636b6574732063616e6e6f742062652069737375656420666f7220616e2060448201526d1a5b9858dd1a5d9948195d995b9d60921b6064820152608490fd5b5034610361576020366003190112610361576108056108339335612025565b5081815161081281611c17565b5280519161081f83611c17565b825251918291602083526020830190611b29565b0390f35b50829061084336611b9a565b61084b61219d565b818552602094600a865283812060ff60038201541615610c8e576001810190815481541115610c3f5760020192835496873410610bea57600954875163569e25f560e11b8152828101889052602481018690526001600160a01b0399918b90829060449082908e165afa908115610be057908a918791610bc3575b50168015908115610bb9575b5015610b7657600581029080820460051481151715610b6357858080808d60646108ff6109169734612126565b970490600654165af1610910612060565b50612133565b80610af3575b5090606494939291896109306008546120af565b998a60085561093f8b336120ec565b60095416895197888092633964fdaf60e01b82528b868301528860248301523360448301525afa958615610ae9579189809796949286948d9798610aca575b508a86549181519461098f86611be5565b8c86528986019384528286018881526060870191825260808701948c1515865260a08801948a865260c08901978b89528b52600b8d528a209751885551600188015551151560028701906109ee919060ff801983541691151516179055565b516003860155840191511515610a1090839060ff801983541691151516179055565b51815461ff00191690151560081b61ff00161790555190600501558054610a36906120af565b90557f98e3b865be443d525120139ac6a4ad7bf406891236bb145ad9ec6ba80333a5b593610a9d575b50548551818152847fdbaaf4c87ce30816c961a81d110622a3227ede77953d4383d514ff88ab2e0fd3843393a38551908152a3600160075551908152f35b85857fbd1c7de52de5d7a65a85c1849ae6e2e0fe5569288a9fc6e56a0c4fa17e3faace339380a488610a5f565b610ae2919850873d89116106a7576106988183611c33565b968d61097e565b88513d86823e3d90fd5b8480808093335af1610b03612060565b5015610b0f578961091c565b865162461bcd60e51b8152908101899052602860248201527f526566756e64206f6620657863657373207061796d656e7420746f20627579656044820152671c8819985a5b195960c21b6064820152608490fd5b634e487b7160e01b865260118352602486fd5b875162461bcd60e51b81528083018b9052601e60248201527f4d757374207265737065637420776169746c697374207072696f7269747900006044820152606490fd5b905033148b6108d2565b610bda91508c8d3d10610725576107178183611c33565b8c6108c6565b89513d88823e3d90fd5b865162461bcd60e51b8152908101899052602960248201527f5061796d656e74206d757374206265206174206c6561737420746865207469636044820152686b657420707269636560b81b6064820152608490fd5b855162461bcd60e51b8152808801899052602360248201527f5469636b65747320666f722074686973206576656e742061726520736f6c64206044820152621bdd5d60ea1b6064820152608490fd5b845162461bcd60e51b8152808701889052603160248201527f5469636b6574732063616e6e6f742062652070757263686173656420666f7220604482015270185b881a5b9858dd1a5d9948195d995b9d607a1b6064820152608490fd5b508290346103f55760803660031901126103f557610d07611b69565b610d0f611b84565b846064359467ffffffffffffffff861161036157366023870112156103615785013594610d47610d3e87611c55565b95519586611c33565b85855236602487830101116103615785610d7296602460209301838801378501015260443591611e46565b80f35b508290346103f557806003193601126103f557610d90611b69565b9060243580151592838203610e1d576001600160a01b0316938415610e065750610dd99033865260056020528286208587526020528286209060ff801983541691151516179055565b519081527f17307eab39ab6107e8899845ad3d59bd9653f200f220920489ca2b5937696c3160203392a380f35b8251630b61174360e31b8152908101859052602490fd5b8580fd5b509034610f375780600319360112610f37578151918160019283549384811c91818616958615610f2d575b6020968785108114610f1a578899509688969785829a529182600014610ef3575050600114610e98575b5050506108339291610e89910385611c33565b51928284938452830190611b29565b91908693508083527fb10e2d527612073b26eecdfd717e6a320cf44b4afac2b0732d9fcbe2b7fa0cf65b828410610edb5750505082010181610e89610833610e76565b8054848a018601528895508794909301928101610ec2565b60ff19168782015293151560051b86019093019350849250610e8991506108339050610e76565b634e487b7160e01b835260228a52602483fd5b92607f1692610e4c565b80fd5b503461036157816003193601126103615760065490516001600160a01b039091168152602090f35b503461036157602092836003193601126103f5576009548251631a15991160e11b8152823592810192909252602482018490528490829060449082906001600160a01b03165afa928315610ff1578093610fbf575b505051908152f35b909192508382813d8311610fea575b610fd88183611c33565b81010312610f37575051903880610fb7565b503d610fce565b8251903d90823e3d90fd5b503461036157816003193601126103615760095490516001600160a01b039091168152602090f35b8234610f375780600319360112610f375761103d611c71565b600680546001600160a01b0319811690915581906001600160a01b03167f8be0079c531659141344cd1fd0a4f28419497f9722a3daafe3b4186f6b6457e08280a380f35b509034610f37576020366003190112610f37576001600160a01b036110a4611b69565b169283156110c15750806020938392526003845220549051908152f35b91516322718ad960e21b815291820152602490fd5b509034610f37576020366003190112610f3757506110f660209235612025565b90516001600160a01b039091168152f35b5082346103f55760203660031901126103f557611122611b69565b61112a611c71565b6001600160a01b03169182156111575750506bffffffffffffffffffffffff60a01b600954161760095580f35b906020606492519162461bcd60e51b8352820152602060248201527f496e76616c696420576169746c697374206d616e6167657220616464726573736044820152fd5b509034610f37576020366003190112610f375782358152600b60209081529082902080546001820154600283015460038401549684015460059094015495519283529382015260ff9283161515604082015260608101949094528181161515608085015260081c16151560a083015260c082015260e090f35b503461036157610d729061122636611bb0565b9192519261123384611c17565b858452611e46565b509190602092836003193601126103615782359161125761219d565b828152600b8552818120948486019560ff875460081c16156114bb5760ff60028201541661147857600501805434106114235761129385612025565b96600534023481046005143415171561141057888580808060648196046112ba8134612126565b956112da83808060018060a01b039b8c9687600654165af1610910612060565b1694855af16112e7612060565b50156113b557331561139e576112fd8833611f69565b9182168061131c578751637e27328960e01b8152808b018a9052602490fd5b908a99929198969803611368575050805461ff001916905554925192835233927fc40e38d52641f445f65e6b37a0df098ef6a34a66ff5d6c176b0f1209f6a0792c9190a3600160075580f35b86516364283d7b60e01b81526001600160a01b03808b169382019384526020840188905290911660408301529081906060010390fd5b8651633250574960e11b8152808a01879052602490fd5b865162461bcd60e51b8152808a01869052602f60248201527f5472616e73666572206f66207061796d656e7420746f20746865207469636b6560448201526e1d081cd95b1b195c8819985a5b1959608a1b6064820152608490fd5b634e487b7160e01b855260118852602485fd5b835162461bcd60e51b8152808701839052602960248201527f5061796d656e74206d757374206265206174206c656173742074686520726573604482015268616c6520707269636560b81b6064820152608490fd5b835162461bcd60e51b8152808701839052601d60248201527f43616e6e6f7420707572636861736520612075736564207469636b65740000006044820152606490fd5b835162461bcd60e51b8152808701839052601c60248201527f5469636b6574206e6f74206c697374656420666f7220726573616c65000000006044820152606490fd5b508290346103f55760203660031901126103f55781359161151e83612025565b336001600160a01b03909116036115d157828452600b60205260ff60028386200154166115855750818352600b6020528220600201805460ff191660011790557f1f5d53e38fbc5a40092861e993062e74fb6dc7acef58356c7b55aa1afd8b35018280a280f35b6020608492519162461bcd60e51b8352820152602160248201527f54686973207469636b65742068617320616c7265616479206265656e207573656044820152601960fa1b6064820152fd5b6020608492519162461bcd60e51b8352820152602560248201527f43616c6c6572206973206e6f7420746865206f776e6572206f662074686520746044820152641a58dad95d60da1b6064820152fd5b50919034610f37576020366003190112610f375760c0836108339284358152600b60205220845161165181611be5565b81549485825260018301549687602084015260ff600285015416151590818185015260038501549283606086015285015493600560ff80871615159687608085015260081c161515968760a084015201549687910152519788978893909796959260c0959260e08601998652602086015215156040850152606084015215156080830152151560a08201520152565b8234610f3757610d726116f236611bb0565b91611c9d565b5082346103f55761170836611b9a565b909261171384612025565b336001600160a01b039091160361182657838552602092600b845260ff60028388200154166117f757848652600b845260018287200154606e810290808204606e14901517156117e4576064900483116117b257848652600b8452818620908101805461ff001916610100179055600501829055519081527f2d8cbebfd87cb19b7bed949f9c8d5a80d939133966ef331ac575d69160ea04659190a280f35b83606492519162461bcd60e51b8352820152600e60248201526d0a0e4d2c6ca40e8dede40d0d2ced60931b6044820152fd5b634e487b7160e01b875260118252602487fd5b83606492519162461bcd60e51b8352820152600b60248201526a151a58dad95d081d5cd95960aa1b6044820152fd5b5162461bcd60e51b815260208184015260096024820152682737ba1037bbb732b960b91b6044820152606490fd5b50346103615781600319360112610361576020905160058152f35b5082346103f55760203660031901126103f5576080928291358152600a602052209081549160018101549160ff6003600284015493015416928151948552602085015283015215156060820152f35b508290346103f557806003193601126103f5576118d9611b69565b916024356118e681612025565b33151580611988575b8061195f575b611949576001600160a01b039485169482918691167f8c5be1e5ebec7d5bd14f71427d1e84f3dd0314c0f7b2291e5b200ac8c7c3b9258880a48452602052822080546001600160a01b031916909117905580f35b835163a9fbf51f60e01b81523381850152602490fd5b506001600160a01b03811686526005602090815284872033885290528386205460ff16156118f5565b506001600160a01b0381163314156118ef565b503461036157816003193601126103615760209051606e8152f35b5082346103f55760203660031901126103f5579182602093356119d881612025565b50825283528190205490516001600160a01b039091168152f35b509034610f375780600319360112610f375781519181825492600184811c91818616958615611ab3575b6020968785108114610f1a578899509688969785829a529182600014610ef3575050600114611a58575050506108339291610e89910385611c33565b91908693508280527f290decd9548b62a8d60345a988386fc84ba6bc95484008f6362f93160ef3e5635b828410611a9b5750505082010181610e89610833610e76565b8054848a018601528895508794909301928101611a82565b92607f1692611a1c565b839085346103f55760203660031901126103f5573563ffffffff60e01b81168091036103f557602092506380ac58cd60e01b8114908115611b18575b8115611b07575b5015158152f35b6301ffc9a760e01b14905083611b00565b635b5e139f60e01b81149150611af9565b919082519283825260005b848110611b55575050826000602080949584010152601f8019910116010190565b602081830181015184830182015201611b34565b600435906001600160a01b0382168203611b7f57565b600080fd5b602435906001600160a01b0382168203611b7f57565b6040906003190112611b7f576004359060243590565b6060906003190112611b7f576001600160a01b03906004358281168103611b7f57916024359081168103611b7f579060443590565b60e0810190811067ffffffffffffffff821117611c0157604052565b634e487b7160e01b600052604160045260246000fd5b6020810190811067ffffffffffffffff821117611c0157604052565b90601f8019910116810190811067ffffffffffffffff821117611c0157604052565b67ffffffffffffffff8111611c0157601f01601f191660200190565b6006546001600160a01b03163303611c8557565b60405163118cdaa760e01b8152336004820152602490fd5b906001600160a01b039081168015611e2d57600091848352846020926002845260409383858720541695869133151580611d97575b509060027fddf252ad1be2c89b69c2b068fc378daa952ba7f163c4a11628f55a4df523b3ef9284611d64575b85835260038152888320805460010190558683525286812080546001600160a01b0319168517905580a483168203611d365750505050565b516364283d7b60e01b81526001600160a01b0392831660048201526024810193909352166044820152606490fd5b600087815260046020526040902080546001600160a01b0319169055848352600381528883208054600019019055611cfe565b91939450915080611dec575b15611db357879291869138611cd2565b848887611dd0576024915190637e27328960e01b82526004820152fd5b604491519063177e802f60e01b82523360048301526024820152fd5b503386148015611e11575b80611da35750878252600481523384868420541614611da3565b5085825260058152848220338352815260ff8583205416611df7565b604051633250574960e11b815260006004820152602490fd5b9190611e53828285611c9d565b803b611e60575b50505050565b611ea260018060a01b0380921694604051938493630a85bd0160e11b968786523360048701521660248501526044840152608060648401526084830190611b29565b03906020816000938185885af190829082611f21575b5050611ef05782611ec7612060565b8051919082611ee957604051633250574960e11b815260048101839052602490fd5b9050602001fd5b6001600160e01b03191603611f09575038808080611e5a565b60249060405190633250574960e11b82526004820152fd5b909192506020813d8211611f61575b81611f3d60209383611c33565b810103126103615751906001600160e01b031982168203610f375750903880611eb8565b3d9150611f30565b6000828152600260205260408120546001600160a01b03908116939284917fddf252ad1be2c89b69c2b068fc378daa952ba7f163c4a11628f55a4df523b3ef9183611ff0575b169283611fd8575b84815260026020526040812080546001600160a01b0319168517905580a490565b83815260036020526040812060018154019055611fb7565b600086815260046020526040902080546001600160a01b03191690558385526003602052604085208054600019019055611faf565b6000818152600260205260409020546001600160a01b0316908115612048575090565b60249060405190637e27328960e01b82526004820152fd5b3d1561208b573d9061207182611c55565b9161207f6040519384611c33565b82523d6000602084013e565b606090565b90816020910312611b7f57516001600160a01b0381168103611b7f5790565b60001981146120be5760010190565b634e487b7160e01b600052601160045260246000fd5b90816020910312611b7f57518015158103611b7f5790565b6001600160a01b039181831615611e2d5761210691611f69565b1661210d57565b6040516339e3563760e11b815260006004820152602490fd5b919082039182116120be57565b1561213a57565b60405162461bcd60e51b815260206004820152603560248201527f5472616e73666572206f6620706c6174666f726d2066656520746f207468652060448201527418dbdb9d1c9858dd081bdddb995c8819985a5b1959605a1b6064820152608490fd5b6002600754146121ae576002600755565b604051633ee5aeb560e01b8152600490fdfea264697066735822122049f0c78fc1c6850d2a51c432949ea83f7159ee3d07c1e2df70246ec6f8c7779c64736f6c63430008140033",
  "linkReferences": {},
  "deployedLinkReferences": {}
}