{
  "_format": "hh-sol-artifact-1",
  "contractName": "TicketFactory",
  "sourceName": "contracts/core/TicketFactory.sol",
  "abi": [
    {
      "inputs": [
        {
          "internalType": "address",
          "name": "waitlistManagerAddress",
          "type": "address"
        }
      ],
      "stateMutability": "nonpayable",
      "type": "constructor"
    },
    {
      "inputs": [
        {
          "internalType": "address",
          "name": "sender",
          "type": "address"
        },
        {
          "internalType": "uint256",
          "name": "tokenId",
          "type": "uint256"
        },
        {
          "internalType": "address",
          "name": "owner",
          "type": "address"
        }
      ],
      "name": "ERC721IncorrectOwner",
      "type": "error"
    },
    {
      "inputs": [
        {
          "internalType": "address",
          "name": "operator",
          "type": "address"
        },
        {
          "internalType": "uint256",
          "name": "tokenId",
          "type": "uint256"
        }
      ],
      "name": "ERC721InsufficientApproval",
      "type": "error"
    },
    {
      "inputs": [
        {
          "internalType": "address",
          "name": "approver",
          "type": "address"
        }
      ],
      "name": "ERC721InvalidApprover",
      "type": "error"
    },
    {
      "inputs": [
        {
          "internalType": "address",
          "name": "operator",
          "type": "address"
        }
      ],
      "name": "ERC721InvalidOperator",
      "type": "error"
    },
    {
      "inputs": [
        {
          "internalType": "address",
          "name": "owner",
          "type": "address"
        }
      ],
      "name": "ERC721InvalidOwner",
      "type": "error"
    },
    {
      "inputs": [
        {
          "internalType": "address",
          "name": "receiver",
          "type": "address"
        }
      ],
      "name": "ERC721InvalidReceiver",
      "type": "error"
    },
    {
      "inputs": [
        {
          "internalType": "address",
          "name": "sender",
          "type": "address"
        }
      ],
      "name": "ERC721InvalidSender",
      "type": "error"
    },
    {
      "inputs": [
        {
          "internalType": "uint256",
          "name": "tokenId",
          "type": "uint256"
        }
      ],
      "name": "ERC721NonexistentToken",
      "type": "error"
    },
    {
      "inputs": [
        {
          "internalType": "address",
          "name": "owner",
          "type": "address"
        }
      ],
      "name": "OwnableInvalidOwner",
      "type": "error"
    },
    {
      "inputs": [
        {
          "internalType": "address",
          "name": "account",
          "type": "address"
        }
      ],
      "name": "OwnableUnauthorizedAccount",
      "type": "error"
    },
    {
      "inputs": [],
      "name": "ReentrancyGuardReentrantCall",
      "type": "error"
    },
    {
      "anonymous": false,
      "inputs": [
        {
          "indexed": true,
          "internalType": "address",
          "name": "owner",
          "type": "address"
        },
        {
          "indexed": true,
          "internalType": "address",
          "name": "approved",
          "type": "address"
        },
        {
          "indexed": true,
          "internalType": "uint256",
          "name": "tokenId",
          "type": "uint256"
        }
      ],
      "name": "Approval",
      "type": "event"
    },
    {
      "anonymous": false,
      "inputs": [
        {
          "indexed": true,
          "internalType": "address",
          "name": "owner",
          "type": "address"
        },
        {
          "indexed": true,
          "internalType": "address",
          "name": "operator",
          "type": "address"
        },
        {
          "indexed": false,
          "internalType": "bool",
          "name": "approved",
          "type": "bool"
        }
      ],
      "name": "ApprovalForAll",
      "type": "event"
    },
    {
      "anonymous": false,
      "inputs": [
        {
          "indexed": true,
          "internalType": "uint256",
          "name": "eventId",
          "type": "uint256"
        },
        {
          "indexed": false,
          "internalType": "uint256",
          "name": "maxSupply",
          "type": "uint256"
        },
        {
          "indexed": false,
          "internalType": "uint256",
          "name": "price",
          "type": "uint256"
        }
      ],
      "name": "EventCreated",
      "type": "event"
    },
    {
      "anonymous": false,
      "inputs": [
        {
          "indexed": true,
          "internalType": "address",
          "name": "previousOwner",
          "type": "address"
        },
        {
          "indexed": true,
          "internalType": "address",
          "name": "newOwner",
          "type": "address"
        }
      ],
      "name": "OwnershipTransferred",
      "type": "event"
    },
    {
      "anonymous": false,
      "inputs": [
        {
          "indexed": true,
          "internalType": "uint256",
          "name": "tokenId",
          "type": "uint256"
        },
        {
          "indexed": false,
          "internalType": "uint256",
          "name": "price",
          "type": "uint256"
        }
      ],
      "name": "TicketListedForResale",
      "type": "event"
    },
    {
      "anonymous": false,
      "inputs": [
        {
          "indexed": true,
          "internalType": "uint256",
          "name": "tokenId",
          "type": "uint256"
        },
        {
          "indexed": true,
          "internalType": "uint256",
          "name": "eventId",
          "type": "uint256"
        },
        {
          "indexed": false,
          "internalType": "uint256",
          "name": "price",
          "type": "uint256"
        }
      ],
      "name": "TicketMinted",
      "type": "event"
    },
    {
      "anonymous": false,
      "inputs": [
        {
          "indexed": true,
          "internalType": "uint256",
          "name": "tokenId",
          "type": "uint256"
        },
        {
          "indexed": true,
          "internalType": "address",
          "name": "buyer",
          "type": "address"
        },
        {
          "indexed": false,
          "internalType": "uint256",
          "name": "price",
          "type": "uint256"
        }
      ],
      "name": "TicketPurchased",
      "type": "event"
    },
    {
      "anonymous": false,
      "inputs": [
        {
          "indexed": true,
          "internalType": "uint256",
          "name": "tokenId",
          "type": "uint256"
        },
        {
          "indexed": true,
          "internalType": "address",
          "name": "buyer",
          "type": "address"
        },
        {
          "indexed": false,
          "internalType": "uint256",
          "name": "price",
          "type": "uint256"
        }
      ],
      "name": "TicketResold",
      "type": "event"
    },
    {
      "anonymous": false,
      "inputs": [
        {
          "indexed": true,
          "internalType": "uint256",
          "name": "tokenId",
          "type": "uint256"
        }
      ],
      "name": "TicketUsed",
      "type": "event"
    },
    {
      "anonymous": false,
      "inputs": [
        {
          "indexed": true,
          "internalType": "address",
          "name": "from",
          "type": "address"
        },
        {
          "indexed": true,
          "internalType": "address",
          "name": "to",
          "type": "address"
        },
        {
          "indexed": true,
          "internalType": "uint256",
          "name": "tokenId",
          "type": "uint256"
        }
      ],
      "name": "Transfer",
      "type": "event"
    },
    {
      "anonymous": false,
      "inputs": [
        {
          "indexed": true,
          "internalType": "uint256",
          "name": "tokenId",
          "type": "uint256"
        },
        {
          "indexed": true,
          "internalType": "uint256",
          "name": "eventId",
          "type": "uint256"
        },
        {
          "indexed": true,
          "internalType": "address",
          "name": "user",
          "type": "address"
        }
      ],
      "name": "WaitlistTicketIssued",
      "type": "event"
    },
    {
      "inputs": [],
      "name": "MAX_RESALE_MARKUP",
      "outputs": [
        {
          "internalType": "uint256",
          "name": "",
          "type": "uint256"
        }
      ],
      "stateMutability": "view",
      "type": "function"
    },
    {
      "inputs": [],
      "name": "PLATFORM_FEE_PERCENTAGE",
      "outputs": [
        {
          "internalType": "uint256",
          "name": "",
          "type": "uint256"
        }
      ],
      "stateMutability": "view",
      "type": "function"
    },
    {
      "inputs": [
        {
          "internalType": "address",
          "name": "to",
          "type": "address"
        },
        {
          "internalType": "uint256",
          "name": "tokenId",
          "type": "uint256"
        }
      ],
      "name": "approve",
      "outputs": [],
      "stateMutability": "nonpayable",
      "type": "function"
    },
    {
      "inputs": [
        {
          "internalType": "address",
          "name": "owner",
          "type": "address"
        }
      ],
      "name": "balanceOf",
      "outputs": [
        {
          "internalType": "uint256",
          "name": "",
          "type": "uint256"
        }
      ],
      "stateMutability": "view",
      "type": "function"
    },
    {
      "inputs": [
        {
          "internalType": "uint256",
          "name": "eventId",
          "type": "uint256"
        },
        {
          "internalType": "uint256",
          "name": "maxSupply",
          "type": "uint256"
        },
        {
          "internalType": "uint256",
          "name": "price",
          "type": "uint256"
        }
      ],
      "name": "createEvent",
      "outputs": [],
      "stateMutability": "nonpayable",
      "type": "function"
    },
    {
      "inputs": [
        {
          "internalType": "uint256",
          "name": "",
          "type": "uint256"
        }
      ],
      "name": "events",
      "outputs": [
        {
          "internalType": "uint256",
          "name": "maxSupply",
          "type": "uint256"
        },
        {
          "internalType": "uint256",
          "name": "currentSupply",
          "type": "uint256"
        },
        {
          "internalType": "uint256",
          "name": "price",
          "type": "uint256"
        },
        {
          "internalType": "bool",
          "name": "isActive",
          "type": "bool"
        }
      ],
      "stateMutability": "view",
      "type": "function"
    },
    {
      "inputs": [
        {
          "internalType": "uint256",
          "name": "tokenId",
          "type": "uint256"
        }
      ],
      "name": "getApproved",
      "outputs": [
        {
          "internalType": "address",
          "name": "",
          "type": "address"
        }
      ],
      "stateMutability": "view",
      "type": "function"
    },
    {
      "inputs": [
        {
          "internalType": "uint256",
          "name": "tokenId",
          "type": "uint256"
        }
      ],
      "name": "getTicketDetails",
      "outputs": [
        {
          "internalType": "uint256",
          "name": "eventId",
          "type": "uint256"
        },
        {
          "internalType": "uint256",
          "name": "price",
          "type": "uint256"
        },
        {
          "internalType": "bool",
          "name": "used",
          "type": "bool"
        },
        {
          "internalType": "uint256",
          "name": "seatNumber",
          "type": "uint256"
        },
        {
          "internalType": "bool",
          "name": "isWaitlisted",
          "type": "bool"
        },
        {
          "internalType": "bool",
          "name": "isResale",
          "type": "bool"
        },
        {
          "internalType": "uint256",
          "name": "resalePrice",
          "type": "uint256"
        }
      ],
      "stateMutability": "view",
      "type": "function"
    },
    {
      "inputs": [
        {
          "internalType": "uint256",
          "name": "eventId",
          "type": "uint256"
        }
      ],
      "name": "getWaitlistCount",
      "outputs": [
        {
          "internalType": "uint256",
          "name": "",
          "type": "uint256"
        }
      ],
      "stateMutability": "view",
      "type": "function"
    },
    {
      "inputs": [
        {
          "internalType": "address",
          "name": "owner",
          "type": "address"
        },
        {
          "internalType": "address",
          "name": "operator",
          "type": "address"
        }
      ],
      "name": "isApprovedForAll",
      "outputs": [
        {
          "internalType": "bool",
          "name": "",
          "type": "bool"
        }
      ],
      "stateMutability": "view",
      "type": "function"
    },
    {
      "inputs": [
        {
          "internalType": "address",
          "name": "to",
          "type": "address"
        },
        {
          "internalType": "uint256",
          "name": "eventId",
          "type": "uint256"
        },
        {
          "internalType": "uint256",
          "name": "seatNumber",
          "type": "uint256"
        }
      ],
      "name": "issueTicket",
      "outputs": [
        {
          "internalType": "uint256",
          "name": "",
          "type": "uint256"
        }
      ],
      "stateMutability": "nonpayable",
      "type": "function"
    },
    {
      "inputs": [
        {
          "internalType": "uint256",
          "name": "tokenId",
          "type": "uint256"
        },
        {
          "internalType": "uint256",
          "name": "resalePrice",
          "type": "uint256"
        }
      ],
      "name": "listForResale",
      "outputs": [],
      "stateMutability": "nonpayable",
      "type": "function"
    },
    {
      "inputs": [],
      "name": "name",
      "outputs": [
        {
          "internalType": "string",
          "name": "",
          "type": "string"
        }
      ],
      "stateMutability": "view",
      "type": "function"
    },
    {
      "inputs": [],
      "name": "owner",
      "outputs": [
        {
          "internalType": "address",
          "name": "",
          "type": "address"
        }
      ],
      "stateMutability": "view",
      "type": "function"
    },
    {
      "inputs": [
        {
          "internalType": "uint256",
          "name": "tokenId",
          "type": "uint256"
        }
      ],
      "name": "ownerOf",
      "outputs": [
        {
          "internalType": "address",
          "name": "",
          "type": "address"
        }
      ],
      "stateMutability": "view",
      "type": "function"
    },
    {
      "inputs": [
        {
          "internalType": "uint256",
          "name": "tokenId",
          "type": "uint256"
        }
      ],
      "name": "purchaseResaleTicket",
      "outputs": [],
      "stateMutability": "payable",
      "type": "function"
    },
    {
      "inputs": [
        {
          "internalType": "uint256",
          "name": "eventId",
          "type": "uint256"
        },
        {
          "internalType": "uint256",
          "name": "seatNumber",
          "type": "uint256"
        }
      ],
      "name": "purchaseTicket",
      "outputs": [
        {
          "internalType": "uint256",
          "name": "",
          "type": "uint256"
        }
      ],
      "stateMutability": "payable",
      "type": "function"
    },
    {
      "inputs": [],
      "name": "renounceOwnership",
      "outputs": [],
      "stateMutability": "nonpayable",
      "type": "function"
    },
    {
      "inputs": [
        {
          "internalType": "address",
          "name": "from",
          "type": "address"
        },
        {
          "internalType": "address",
          "name": "to",
          "type": "address"
        },
        {
          "internalType": "uint256",
          "name": "tokenId",
          "type": "uint256"
        }
      ],
      "name": "safeTransferFrom",
      "outputs": [],
      "stateMutability": "nonpayable",
      "type": "function"
    },
    {
      "inputs": [
        {
          "internalType": "address",
          "name": "from",
          "type": "address"
        },
        {
          "internalType": "address",
          "name": "to",
          "type": "address"
        },
        {
          "internalType": "uint256",
          "name": "tokenId",
          "type": "uint256"
        },
        {
          "internalType": "bytes",
          "name": "data",
          "type": "bytes"
        }
      ],
      "name": "safeTransferFrom",
      "outputs": [],
      "stateMutability": "nonpayable",
      "type": "function"
    },
    {
      "inputs": [
        {
          "internalType": "address",
          "name": "operator",
          "type": "address"
        },
        {
          "internalType": "bool",
          "name": "approved",
          "type": "bool"
        }
      ],
      "name": "setApprovalForAll",
      "outputs": [],
      "stateMutability": "nonpayable",
      "type": "function"
    },
    {
      "inputs": [
        {
          "internalType": "address",
          "name": "newWaitlistManager",
          "type": "address"
        }
      ],
      "name": "setWaitlistManager",
      "outputs": [],
      "stateMutability": "nonpayable",
      "type": "function"
    },
    {
      "inputs": [
        {
          "internalType": "bytes4",
          "name": "interfaceId",
          "type": "bytes4"
        }
      ],
      "name": "supportsInterface",
      "outputs": [
        {
          "internalType": "bool",
          "name": "",
          "type": "bool"
        }
      ],
      "stateMutability": "view",
      "type": "function"
    },
    {
      "inputs": [],
      "name": "symbol",
      "outputs": [
        {
          "internalType": "string",
          "name": "",
          "type": "string"
        }
      ],
      "stateMutability": "view",
      "type": "function"
    },
    {
      "inputs": [
        {
          "internalType": "uint256",
          "name": "",
          "type": "uint256"
        }
      ],
      "name": "tickets",
      "outputs": [
        {
          "internalType": "uint256",
          "name": "eventId",
          "type": "uint256"
        },
        {
          "internalType": "uint256",
          "name": "price",
          "type": "uint256"
        },
        {
          "internalType": "bool",
          "name": "used",
          "type": "bool"
        },
        {
          "internalType": "uint256",
          "name": "seatNumber",
          "type": "uint256"
        },
        {
          "internalType": "bool",
          "name": "isWaitlisted",
          "type": "bool"
        },
        {
          "internalType": "bool",
          "name": "isResale",
          "type": "bool"
        },
        {
          "internalType": "uint256",
          "name": "resalePrice",
          "type": "uint256"
        }
      ],
      "stateMutability": "view",
      "type": "function"
    },
    {
      "inputs": [
        {
          "internalType": "uint256",
          "name": "tokenId",
          "type": "uint256"
        }
      ],
      "name": "tokenURI",
      "outputs": [
        {
          "internalType": "string",
          "name": "",
          "type": "string"
        }
      ],
      "stateMutability": "view",
      "type": "function"
    },
    {
      "inputs": [
        {
          "internalType": "address",
          "name": "from",
          "type": "address"
        },
        {
          "internalType": "address",
          "name": "to",
          "type": "address"
        },
        {
          "internalType": "uint256",
          "name": "tokenId",
          "type": "uint256"
        }
      ],
      "name": "transferFrom",
      "outputs": [],
      "stateMutability": "nonpayable",
      "type": "function"
    },
    {
      "inputs": [
        {
          "internalType": "address",
          "name": "newOwner",
          "type": "address"
        }
      ],
      "name": "transferOwnership",
      "outputs": [],
      "stateMutability": "nonpayable",
      "type": "function"
    },
    {
      "inputs": [
        {
          "internalType": "uint256",
          "name": "tokenId",
          "type": "uint256"
        }
      ],
      "name": "useTicket",
      "outputs": [],
      "stateMutability": "nonpayable",
      "type": "function"
    },
    {
      "inputs": [],
      "name": "waitlistManager",
      "outputs": [
        {
          "internalType": "contract IWaitlistManager",
          "name": "",
          "type": "address"
        }
      ],
      "stateMutability": "view",
      "type": "function"
    }
  ],
  "bytecode": "0x6080346200040857601f90601f19906001600160401b0390620021ed3881900385810185168301848111848210176200040d578392829160405283396020928391810103126200040857516001600160a01b03808216959093909186900362000408576200006c62000423565b90600c82526b115d995b9d08151a58dad95d60a21b848301526200008f62000423565b92600493848152631510d2d560e21b86820152835197838911620003f3576000988954956001968781811c91168015620003e8575b8a821014620003d55790818684931162000382575b50899086831160011462000321578c9262000315575b5050600019600383901b1c191690861b1789555b8151938411620003025784548581811c91168015620002f7575b88821014620002e45790818486959493116200028d575b50879284116001146200022c5750889262000220575b5050600019600383901b1c191690821b1781555b3315620002085760065460018060a01b03199533878316176006557f8be0079c531659141344cd1fd0a4f28419497f9722a3daafe3b4186f6b6457e0604051963393169180a36007558415620001c9575050506009541617600955604051611da99081620004448239f35b62461bcd60e51b8352820181905260248201527f496e76616c696420776169746c697374206d616e616765722061646472657373604482015260649150fd5b604051631e4fbdf760e01b8152808301869052602490fd5b0151905038806200014a565b858a52878a20869590939291168a5b898282106200027657505084116200025c575b505050811b0181556200015e565b015160001960f88460031b161c191690553880806200024e565b83850151865588979095019493840193016200023b565b9091929350858a52878a208480870160051c8201928a8810620002da575b9187968992969594930160051c01915b828110620002cb57505062000134565b8c8155879650889101620002bb565b92508192620002ab565b634e487b7160e01b8a526022875260248afd5b90607f16906200011d565b634e487b7160e01b895260418652602489fd5b015190503880620000ef565b908c91858a95168380528c8420935b8d8282106200036b575050841162000351575b505050811b01895562000103565b015160001960f88460031b161c1916905538808062000343565b8385015186558c9790950194938401930162000330565b9091508b8052898c208680850160051c8201928c8610620003cb575b918a91869594930160051c01915b828110620003bc575050620000d9565b8e81558594508a9101620003ac565b925081926200039e565b634e487b7160e01b8c526022895260248cfd5b90607f1690620000c4565b604186634e487b7160e01b6000525260246000fd5b600080fd5b634e487b7160e01b600052604160045260246000fd5b60408051919082016001600160401b038111838210176200040d5760405256fe60806040908082526004918236101561001757600080fd5b600091823560e01c90816301ffc9a7146115b45750806306fdde03146114e9578063081812fc146114ad5780630847112a14611492578063095ea7b3146113b55780630b79143014611366578063155482321461134b5780631f7d863c1461121557806323b872dd146111fd57806324c141601461113e578063266064481461104a5780633fc4a06014610e4957806342842e0e14610e2157806350b4471214610da85780635f0290e314610d235780636352211e14610cf257806370a0823114610c9d578063715018a614610c40578063753a35cb14610c1857806384a9504714610b7e5780638da5cb5b14610b5657806395d89b4114610a3d578063a22cb46514610991578063b88d4fde14610907578063bdbbb0cb146106c2578063c87b56dd14610671578063e250243a146103e5578063e985e9c514610398578063f2fde38b146103045763f6143d851461016f57600080fd5b3461030057606036600319011261030057823590602435604435610191611768565b8385526020600a815260ff60038588200154166102c75782156102945781156102625783516080810181811067ffffffffffffffff82111761024f577f06168e40fac2576e22d73ab2e9efa79b4e7530dd3dd411ab7d8862d04be798a2969798509061024391865284815260038382018a81528783018681526060840191600183528b8d52600a8752898d209451855551600185015551600284015551151591019060ff801983541691151516179055565b8351928352820152a280f35b634e487b7160e01b885260418952602488fd5b8660649185519162461bcd60e51b8352820152600d60248201526c496e76616c696420707269636560981b6044820152fd5b8660649185519162461bcd60e51b8352820152600e60248201526d496e76616c696420737570706c7960901b6044820152fd5b8660649185519162461bcd60e51b835282015260146024820152734576656e7420616c72656164792065786973747360601b6044820152fd5b5080fd5b5082346103945760203660031901126103945761031f611660565b90610328611768565b6001600160a01b0391821692831561037e575050600654826bffffffffffffffffffffffff60a01b821617600655167f8be0079c531659141344cd1fd0a4f28419497f9722a3daafe3b4186f6b6457e08380a380f35b51631e4fbdf760e01b8152908101849052602490fd5b8280fd5b503461030057806003193601126103005760ff816020936103b7611660565b6103bf61167b565b6001600160a01b0391821683526005875283832091168252855220549151911615158152f35b5034610300576060366003190112610300576103ff611660565b926024359061040c611768565b818452602094600a86528385209461042a60ff600388015416611b87565b600186019261043c8454885411611bc6565b84600261044a600854611c03565b98896008556104598a87611c40565b019485549060018060a01b0380928c82600954169860648d5180958193633964fdaf60e01b9a8b84528c8401528c6024840152169b8c60448301525afa91821561066757928b60058f97948f90610561908f8b8e829e9c9960649c8295610642575b5090610528918951998a956104cf876116dc565b865284860191825280860192808452600b60608801966044358852608089019915158a5260c060a08a0199848b52019b838d528352522099518a555160018a0155511515600289019060ff801983541691151516179055565b51600387015561054a8b870192511515839060ff801983541691151516179055565b51815461ff00191690151560081b61ff0016179055565b5191015561056f8154611c03565b9055600954168a51958694859384528301528660248301528760448301525afa90811561063857928588848197947f98e3b865be443d525120139ac6a4ad7bf406891236bb145ad9ec6ba80333a5b5978d979161060b575b506105de575b50505050548551908152a351908152f35b807fbd1c7de52de5d7a65a85c1849ae6e2e0fe5569288a9fc6e56a0c4fa17e3faace91a4388585826105cd565b61062b9150873d8911610631575b610623818361172a565b810190611c28565b386105c7565b503d610619565b86513d84823e3d90fd5b6105289291955061065f90843d861161063157610623818361172a565b9490916104bb565b8b513d89823e3d90fd5b5034610300576020366003190112610300576106906106be9335611b1c565b5081815161069d8161170e565b528051916106aa8361170e565b825251918291602083526020830190611620565b0390f35b5082906106ce36611691565b936106d7611d16565b818152602094600a86528382206106f460ff600383015416611b87565b600260018201916107088354825411611bc6565b0191825461071881341015611c7a565b6005810290808204600514811517156108f4579061075d868080806064610740829834611cbd565b960460018060a01b03600654165af1610757611b57565b50611cca565b8061089c575b50508760085461077290611c03565b60088190559788956107848733611c40565b855491895194610793866116dc565b8986528486019384528a86018381526060870191825260808701948486528c60a089019580875260c08a0198818a528d8252600b9052209751885551600188015551151560028701906107f1919060ff801983541691151516179055565b51600386015584019151151561081390839060ff801983541691151516179055565b51815461ff00191690151560081b61ff0016179055519060050155805461083990611c03565b9055548582855183815233927fdbaaf4c87ce30816c961a81d110622a3227ede77953d4383d514ff88ab2e0fd391a38584519182527f98e3b865be443d525120139ac6a4ad7bf406891236bb145ad9ec6ba80333a5b591a3600160075551908152f35b81808092335af16108ab611b57565b50156108b8578389610763565b855162461bcd60e51b815280880189905260166024820152751499599d5b99081d1c985b9cd9995c8819985a5b195960521b6044820152606490fd5b634e487b7160e01b865260118952602486fd5b5082903461039457608036600319011261039457610923611660565b61092b61167b565b846064359467ffffffffffffffff86116103005736602387011215610300578501359461096361095a8761174c565b9551958661172a565b8585523660248783010111610300578561098e9660246020930183880137850101526044359161193d565b80f35b508290346103945780600319360112610394576109ac611660565b9060243580151592838203610a39576001600160a01b0316938415610a2257506109f59033865260056020528286208587526020528286209060ff801983541691151516179055565b519081527f17307eab39ab6107e8899845ad3d59bd9653f200f220920489ca2b5937696c3160203392a380f35b8251630b61174360e31b8152908101859052602490fd5b8580fd5b509034610b535780600319360112610b53578151918160019283549384811c91818616958615610b49575b6020968785108114610b36578899509688969785829a529182600014610b0f575050600114610ab4575b5050506106be9291610aa591038561172a565b51928284938452830190611620565b91908693508083527fb10e2d527612073b26eecdfd717e6a320cf44b4afac2b0732d9fcbe2b7fa0cf65b828410610af75750505082010181610aa56106be610a92565b8054848a018601528895508794909301928101610ade565b60ff19168782015293151560051b86019093019350849250610aa591506106be9050610a92565b634e487b7160e01b835260228a52602483fd5b92607f1692610a68565b80fd5b503461030057816003193601126103005760065490516001600160a01b039091168152602090f35b50346103005760209283600319360112610394576009548251631a15991160e11b8152823592810192909252602482018490528490829060449082906001600160a01b03165afa928315610c0d578093610bdb575b505051908152f35b909192508382813d8311610c06575b610bf4818361172a565b81010312610b53575051903880610bd3565b503d610bea565b8251903d90823e3d90fd5b503461030057816003193601126103005760095490516001600160a01b039091168152602090f35b8234610b535780600319360112610b5357610c59611768565b600680546001600160a01b0319811690915581906001600160a01b03167f8be0079c531659141344cd1fd0a4f28419497f9722a3daafe3b4186f6b6457e08280a380f35b509034610b53576020366003190112610b53576001600160a01b03610cc0611660565b16928315610cdd5750806020938392526003845220549051908152f35b91516322718ad960e21b815291820152602490fd5b509034610b53576020366003190112610b535750610d1260209235611b1c565b90516001600160a01b039091168152f35b50823461039457602036600319011261039457610d3e611660565b610d46611768565b6001600160a01b0316918215610d735750506bffffffffffffffffffffffff60a01b600954161760095580f35b906020606492519162461bcd60e51b8352820152600f60248201526e496e76616c6964206164647265737360881b6044820152fd5b509034610b53576020366003190112610b535782358152600b60209081529082902080546001820154600283015460038401549684015460059094015495519283529382015260ff9283161515604082015260608101949094528181161515608085015260081c16151560a083015260c082015260e090f35b50346103005761098e90610e34366116a7565b91925192610e418461170e565b85845261193d565b508290602036600319011261039457813590610e63611d16565b818452600b6020528084208381019060ff825460081c16156110165780610e9360ff600260059401541615611d39565b0190610ea28254341015611c7a565b610eab84611b1c565b60053402348104600514341517156110035760649004610ecb8134611cbd565b610ee98980808060018060a01b039687600654165af1610757611b57565b8880808085871694855af1610efc611b57565b5015610fc7573315610fb057610f128733611a60565b91821680610f31578651637e27328960e01b8152808a01899052602490fd5b97929394959703610f7c5750505061ff001981541690555491519182527fc40e38d52641f445f65e6b37a0df098ef6a34a66ff5d6c176b0f1209f6a0792c60203393a3600160075580f35b86516364283d7b60e01b81526001600160a01b03938416928101928352602083018790529216604082015281906060010390fd5b8551633250574960e11b81528089018a9052602490fd5b855162461bcd60e51b81526020818a0152601660248201527514d95b1b195c881d1c985b9cd9995c8819985a5b195960521b6044820152606490fd5b634e487b7160e01b885260118752602488fd5b825162461bcd60e51b8152602081870152600e60248201526d4e6f7420666f7220726573616c6560901b6044820152606490fd5b508290346103945760203660031901126103945781359161106a83611b1c565b336001600160a01b039091160361110957828452600b60205260ff60028386200154166110d15750818352600b6020528220600201805460ff191660011790557f1f5d53e38fbc5a40092861e993062e74fb6dc7acef58356c7b55aa1afd8b35018280a280f35b6020606492519162461bcd60e51b83528201526013602482015272151a58dad95d08185b1c9958591e481d5cd959606a1b6044820152fd5b6020606492519162461bcd60e51b8352820152601060248201526f2737ba103a34b1b5b2ba1037bbb732b960811b6044820152fd5b50919034610b53576020366003190112610b535760c0836106be9284358152600b60205220845161116e816116dc565b81549485825260018301549687602084015260ff600285015416151590818185015260038501549283606086015285015493600560ff80871615159687608085015260081c161515968760a084015201549687910152519788978893909796959260c0959260e08601998652602086015215156040850152606084015215156080830152151560a08201520152565b8234610b535761098e61120f366116a7565b91611794565b508290346103945761122636611691565b91909261123284611b1c565b336001600160a01b039091160361131d57838552600b60205261125e60ff600284882001541615611d39565b838552600b60205260018286200154606e810290808204606e149015171561130a576064900483116112d757916020918160057f2d8cbebfd87cb19b7bed949f9c8d5a80d939133966ef331ac575d69160ea046595878952600b865283892090810161010061ff0019825416179055015551908152a280f35b6020606492519162461bcd60e51b8352820152600e60248201526d0a0e4d2c6ca40e8dede40d0d2ced60931b6044820152fd5b634e487b7160e01b865260118252602486fd5b6020606492519162461bcd60e51b835282015260096024820152682737ba1037bbb732b960b91b6044820152fd5b50346103005781600319360112610300576020905160058152f35b508234610394576020366003190112610394576080928291358152600a602052209081549160018101549160ff6003600284015493015416928151948552602085015283015215156060820152f35b508290346103945780600319360112610394576113d0611660565b916024356113dd81611b1c565b3315158061147f575b80611456575b611440576001600160a01b039485169482918691167f8c5be1e5ebec7d5bd14f71427d1e84f3dd0314c0f7b2291e5b200ac8c7c3b9258880a48452602052822080546001600160a01b031916909117905580f35b835163a9fbf51f60e01b81523381850152602490fd5b506001600160a01b03811686526005602090815284872033885290528386205460ff16156113ec565b506001600160a01b0381163314156113e6565b503461030057816003193601126103005760209051606e8152f35b508234610394576020366003190112610394579182602093356114cf81611b1c565b50825283528190205490516001600160a01b039091168152f35b509034610b535780600319360112610b535781519181825492600184811c918186169586156115aa575b6020968785108114610b36578899509688969785829a529182600014610b0f57505060011461154f575050506106be9291610aa591038561172a565b91908693508280527f290decd9548b62a8d60345a988386fc84ba6bc95484008f6362f93160ef3e5635b8284106115925750505082010181610aa56106be610a92565b8054848a018601528895508794909301928101611579565b92607f1692611513565b83908534610394576020366003190112610394573563ffffffff60e01b811680910361039457602092506380ac58cd60e01b811490811561160f575b81156115fe575b5015158152f35b6301ffc9a760e01b149050836115f7565b635b5e139f60e01b811491506115f0565b919082519283825260005b84811061164c575050826000602080949584010152601f8019910116010190565b60208183018101518483018201520161162b565b600435906001600160a01b038216820361167657565b600080fd5b602435906001600160a01b038216820361167657565b6040906003190112611676576004359060243590565b6060906003190112611676576001600160a01b0390600435828116810361167657916024359081168103611676579060443590565b60e0810190811067ffffffffffffffff8211176116f857604052565b634e487b7160e01b600052604160045260246000fd5b6020810190811067ffffffffffffffff8211176116f857604052565b90601f8019910116810190811067ffffffffffffffff8211176116f857604052565b67ffffffffffffffff81116116f857601f01601f191660200190565b6006546001600160a01b0316330361177c57565b60405163118cdaa760e01b8152336004820152602490fd5b906001600160a01b0390811680156119245760009184835284602092600284526040938385872054169586913315158061188e575b509060027fddf252ad1be2c89b69c2b068fc378daa952ba7f163c4a11628f55a4df523b3ef928461185b575b85835260038152888320805460010190558683525286812080546001600160a01b0319168517905580a48316820361182d5750505050565b516364283d7b60e01b81526001600160a01b0392831660048201526024810193909352166044820152606490fd5b600087815260046020526040902080546001600160a01b03191690558483526003815288832080546000190190556117f5565b919394509150806118e3575b156118aa578792918691386117c9565b8488876118c7576024915190637e27328960e01b82526004820152fd5b604491519063177e802f60e01b82523360048301526024820152fd5b503386148015611908575b8061189a575087825260048152338486842054161461189a565b5085825260058152848220338352815260ff85832054166118ee565b604051633250574960e11b815260006004820152602490fd5b919061194a828285611794565b803b611957575b50505050565b61199960018060a01b0380921694604051938493630a85bd0160e11b968786523360048701521660248501526044840152608060648401526084830190611620565b03906020816000938185885af190829082611a18575b50506119e757826119be611b57565b80519190826119e057604051633250574960e11b815260048101839052602490fd5b9050602001fd5b6001600160e01b03191603611a00575038808080611951565b60249060405190633250574960e11b82526004820152fd5b909192506020813d8211611a58575b81611a346020938361172a565b810103126103005751906001600160e01b031982168203610b5357509038806119af565b3d9150611a27565b6000828152600260205260408120546001600160a01b03908116939284917fddf252ad1be2c89b69c2b068fc378daa952ba7f163c4a11628f55a4df523b3ef9183611ae7575b169283611acf575b84815260026020526040812080546001600160a01b0319168517905580a490565b83815260036020526040812060018154019055611aae565b600086815260046020526040902080546001600160a01b03191690558385526003602052604085208054600019019055611aa6565b6000818152600260205260409020546001600160a01b0316908115611b3f575090565b60249060405190637e27328960e01b82526004820152fd5b3d15611b82573d90611b688261174c565b91611b76604051938461172a565b82523d6000602084013e565b606090565b15611b8e57565b60405162461bcd60e51b815260206004820152601060248201526f4576656e74206e6f742061637469766560801b6044820152606490fd5b15611bcd57565b60405162461bcd60e51b815260206004820152600e60248201526d115d995b9d081cdbdb19081bdd5d60921b6044820152606490fd5b6000198114611c125760010190565b634e487b7160e01b600052601160045260246000fd5b90816020910312611676575180151581036116765790565b6001600160a01b03918183161561192457611c5a91611a60565b16611c6157565b6040516339e3563760e11b815260006004820152602490fd5b15611c8157565b60405162461bcd60e51b8152602060048201526014602482015273125b9cdd59999a58da595b9d081c185e5b595b9d60621b6044820152606490fd5b91908203918211611c1257565b15611cd157565b60405162461bcd60e51b815260206004820152601c60248201527f506c6174666f726d20666565207472616e73666572206661696c6564000000006044820152606490fd5b600260075414611d27576002600755565b604051633ee5aeb560e01b8152600490fd5b15611d4057565b60405162461bcd60e51b815260206004820152600b60248201526a151a58dad95d081d5cd95960aa1b6044820152606490fdfea2646970667358221220a791b73c5b3adb8e90af9078c7f97d61da567d6fedee2aefe8f8fd557a06ed9064736f6c63430008140033",
  "linkReferences": {},
  "deployedLinkReferences": {}
}