{
  "_format": "hh-sol-artifact-1",
  "contractName": "ResaleManager",
  "sourceName": "contracts/core/ResaleManager.sol",
  "abi": [
    {
      "inputs": [
        {
          "internalType": "address",
          "name": "ticketFactoryAddress",
          "type": "address"
        }
      ],
      "stateMutability": "nonpayable",
      "type": "constructor"
    },
    {
      "inputs": [],
      "name": "EnforcedPause",
      "type": "error"
    },
    {
      "inputs": [],
      "name": "ExpectedPause",
      "type": "error"
    },
    {
      "inputs": [
        {
          "internalType": "address",
          "name": "owner",
          "type": "address"
        }
      ],
      "name": "OwnableInvalidOwner",
      "type": "error"
    },
    {
      "inputs": [
        {
          "internalType": "address",
          "name": "account",
          "type": "address"
        }
      ],
      "name": "OwnableUnauthorizedAccount",
      "type": "error"
    },
    {
      "inputs": [],
      "name": "ReentrancyGuardReentrantCall",
      "type": "error"
    },
    {
      "anonymous": false,
      "inputs": [
        {
          "indexed": true,
          "internalType": "address",
          "name": "previousOwner",
          "type": "address"
        },
        {
          "indexed": true,
          "internalType": "address",
          "name": "newOwner",
          "type": "address"
        }
      ],
      "name": "OwnershipTransferred",
      "type": "event"
    },
    {
      "anonymous": false,
      "inputs": [
        {
          "indexed": false,
          "internalType": "address",
          "name": "account",
          "type": "address"
        }
      ],
      "name": "Paused",
      "type": "event"
    },
    {
      "anonymous": false,
      "inputs": [
        {
          "indexed": true,
          "internalType": "uint256",
          "name": "tokenId",
          "type": "uint256"
        },
        {
          "indexed": false,
          "internalType": "uint256",
          "name": "amount",
          "type": "uint256"
        }
      ],
      "name": "PlatformFeeCollected",
      "type": "event"
    },
    {
      "anonymous": false,
      "inputs": [
        {
          "indexed": true,
          "internalType": "uint256",
          "name": "tokenId",
          "type": "uint256"
        },
        {
          "indexed": true,
          "internalType": "address",
          "name": "seller",
          "type": "address"
        },
        {
          "indexed": false,
          "internalType": "uint256",
          "name": "price",
          "type": "uint256"
        }
      ],
      "name": "TicketListed",
      "type": "event"
    },
    {
      "anonymous": false,
      "inputs": [
        {
          "indexed": true,
          "internalType": "uint256",
          "name": "tokenId",
          "type": "uint256"
        },
        {
          "indexed": true,
          "internalType": "address",
          "name": "seller",
          "type": "address"
        },
        {
          "indexed": true,
          "internalType": "address",
          "name": "buyer",
          "type": "address"
        },
        {
          "indexed": false,
          "internalType": "uint256",
          "name": "price",
          "type": "uint256"
        }
      ],
      "name": "TicketResold",
      "type": "event"
    },
    {
      "anonymous": false,
      "inputs": [
        {
          "indexed": true,
          "internalType": "uint256",
          "name": "tokenId",
          "type": "uint256"
        },
        {
          "indexed": true,
          "internalType": "address",
          "name": "seller",
          "type": "address"
        }
      ],
      "name": "TicketUnlisted",
      "type": "event"
    },
    {
      "anonymous": false,
      "inputs": [
        {
          "indexed": false,
          "internalType": "address",
          "name": "account",
          "type": "address"
        }
      ],
      "name": "Unpaused",
      "type": "event"
    },
    {
      "inputs": [],
      "name": "MAX_RESALE_MARKUP",
      "outputs": [
        {
          "internalType": "uint256",
          "name": "",
          "type": "uint256"
        }
      ],
      "stateMutability": "view",
      "type": "function"
    },
    {
      "inputs": [],
      "name": "PLATFORM_FEE_PERCENTAGE",
      "outputs": [
        {
          "internalType": "uint256",
          "name": "",
          "type": "uint256"
        }
      ],
      "stateMutability": "view",
      "type": "function"
    },
    {
      "inputs": [],
      "name": "RESALE_TIMEOUT",
      "outputs": [
        {
          "internalType": "uint256",
          "name": "",
          "type": "uint256"
        }
      ],
      "stateMutability": "view",
      "type": "function"
    },
    {
      "inputs": [
        {
          "internalType": "uint256",
          "name": "tokenId",
          "type": "uint256"
        }
      ],
      "name": "cancelResaleListing",
      "outputs": [],
      "stateMutability": "nonpayable",
      "type": "function"
    },
    {
      "inputs": [
        {
          "internalType": "uint256",
          "name": "tokenId",
          "type": "uint256"
        }
      ],
      "name": "getResaleListing",
      "outputs": [
        {
          "internalType": "address",
          "name": "seller",
          "type": "address"
        },
        {
          "internalType": "uint256",
          "name": "price",
          "type": "uint256"
        },
        {
          "internalType": "uint256",
          "name": "listingTime",
          "type": "uint256"
        },
        {
          "internalType": "bool",
          "name": "isActive",
          "type": "bool"
        }
      ],
      "stateMutability": "view",
      "type": "function"
    },
    {
      "inputs": [
        {
          "internalType": "uint256",
          "name": "tokenId",
          "type": "uint256"
        }
      ],
      "name": "isListingValid",
      "outputs": [
        {
          "internalType": "bool",
          "name": "",
          "type": "bool"
        }
      ],
      "stateMutability": "view",
      "type": "function"
    },
    {
      "inputs": [
        {
          "internalType": "uint256",
          "name": "tokenId",
          "type": "uint256"
        },
        {
          "internalType": "uint256",
          "name": "price",
          "type": "uint256"
        }
      ],
      "name": "listTicketForResale",
      "outputs": [],
      "stateMutability": "nonpayable",
      "type": "function"
    },
    {
      "inputs": [],
      "name": "owner",
      "outputs": [
        {
          "internalType": "address",
          "name": "",
          "type": "address"
        }
      ],
      "stateMutability": "view",
      "type": "function"
    },
    {
      "inputs": [],
      "name": "pause",
      "outputs": [],
      "stateMutability": "nonpayable",
      "type": "function"
    },
    {
      "inputs": [],
      "name": "paused",
      "outputs": [
        {
          "internalType": "bool",
          "name": "",
          "type": "bool"
        }
      ],
      "stateMutability": "view",
      "type": "function"
    },
    {
      "inputs": [
        {
          "internalType": "uint256",
          "name": "tokenId",
          "type": "uint256"
        }
      ],
      "name": "purchaseResaleTicket",
      "outputs": [],
      "stateMutability": "payable",
      "type": "function"
    },
    {
      "inputs": [],
      "name": "renounceOwnership",
      "outputs": [],
      "stateMutability": "nonpayable",
      "type": "function"
    },
    {
      "inputs": [
        {
          "internalType": "uint256",
          "name": "",
          "type": "uint256"
        }
      ],
      "name": "resaleListings",
      "outputs": [
        {
          "internalType": "address",
          "name": "seller",
          "type": "address"
        },
        {
          "internalType": "uint256",
          "name": "price",
          "type": "uint256"
        },
        {
          "internalType": "uint256",
          "name": "listingTime",
          "type": "uint256"
        },
        {
          "internalType": "bool",
          "name": "isActive",
          "type": "bool"
        }
      ],
      "stateMutability": "view",
      "type": "function"
    },
    {
      "inputs": [
        {
          "internalType": "address",
          "name": "newTicketFactory",
          "type": "address"
        }
      ],
      "name": "setTicketFactory",
      "outputs": [],
      "stateMutability": "nonpayable",
      "type": "function"
    },
    {
      "inputs": [],
      "name": "ticketFactory",
      "outputs": [
        {
          "internalType": "contract ITicketFactory",
          "name": "",
          "type": "address"
        }
      ],
      "stateMutability": "view",
      "type": "function"
    },
    {
      "inputs": [
        {
          "internalType": "address",
          "name": "newOwner",
          "type": "address"
        }
      ],
      "name": "transferOwnership",
      "outputs": [],
      "stateMutability": "nonpayable",
      "type": "function"
    },
    {
      "inputs": [],
      "name": "unpause",
      "outputs": [],
      "stateMutability": "nonpayable",
      "type": "function"
    },
    {
      "stateMutability": "payable",
      "type": "receive"
    }
  ],
  "bytecode": "0x60803461012f57601f610f2e38819003918201601f19168301916001600160401b038311848410176101345780849260209460405283398101031261012f57516001600160a01b03808216919082820361012f573315610116576000543360018060a01b0319821617600055604051913391167f8be0079c531659141344cd1fd0a4f28419497f9722a3daafe3b4186f6b6457e0600080a36001805560025492156100d457506001600160a81b031990911660089190911b610100600160a81b031617600255604051610de3908161014b8239f35b62461bcd60e51b815260206004820152601d60248201527f496e76616c6964205469636b6574466163746f727920616464726573730000006044820152606490fd5b604051631e4fbdf760e01b815260006004820152602490fd5b600080fd5b634e487b7160e01b600052604160045260246000fdfe608060409080825260049081361015610061575b50361561001f57600080fd5b6020606492519162461bcd60e51b8352820152601c60248201527f446972656374207061796d656e7473206e6f74206163636570746564000000006044820152fd5b600090813560e01c908163068f46ce14610c2e575080630847112a14610c125780631554823214610bf65780633847593414610b525780633b85977614610b345780633f4ba83a14610ac95780633fc4a060146107a45780634f7885ee146107105780635c975abb146106ec5780636053b0ef1461043b578063715018a6146103de57806373253387146103375780638456cb59146102dc5780638da5cb5b146102b0578063b41b4bd414610253578063b9c9e0de146101c05763f2fde38b036100135791346101bc5760203660031901126101bc576001600160a01b038235818116939192908490036101b857610157610c56565b83156101a2575050600054826bffffffffffffffffffffffff60a01b821617600055167f8be0079c531659141344cd1fd0a4f28419497f9722a3daafe3b4186f6b6457e0600080a380f35b51631e4fbdf760e01b8152908101849052602490fd5b8480fd5b8280fd5b509190346101bc5760203660031901126101bc579181923581526003602052209061024f60608251936101f285610c82565b80546001600160a01b031680865260018201546020808801829052600284015488880181905260039094015460ff161515949097018490529451908152948501939093526040840192909252606083019190915281906080820190565b0390f35b509190346101bc5760203660031901126101bc573582526003602081815292829020805460018201546002830154929093015493516001600160a01b03909116815293840191909152604083015260ff1615156060820152608090f35b5082346102d857816003193601126102d857905490516001600160a01b039091168152602090f35b5080fd5b5082346102d857816003193601126102d85760207f62e78cea01bee320cd4e420270b5ea74000d11b0c9f74754ebdbfc544b05a2589161031a610c56565b610322610ce8565b600160ff19600254161760025551338152a180f35b5091346101bc5760203660031901126101bc578192606092358152600360205281812090825161036681610c82565b82546001600160a01b0316815260018301546020820152600283015484820181905260039093015460ff1615159401849052836103aa575b60208484519015158152f35b9091925062093a8082018092116103cb57506020925042111590388061039e565b634e487b7160e01b815260118452602490fd5b50346104385780600319360112610438576103f7610c56565b600080546001600160a01b0319811682556001600160a01b03167f8be0079c531659141344cd1fd0a4f28419497f9722a3daafe3b4186f6b6457e08280a380f35b80fd5b5082346102d857806003193601126102d8578235602480359261045c610ce8565b60018060a01b03958660025460081c16928251936331a9108f60e11b8552858386015260209485818481855afa9081156106e25789916106a8575b5089339116036106745760e082918551928380926301260a0b60e51b82528a888301525afa801561066a578891899161060b575b506105d457606e810290808204606e14901517156105c25760649004861161058257505090818660037f22968ec3be3687b180f3544163a034b88d57b48159d9a7e9a1b610fdb2d05f80945161052081610c82565b33815284810188815284820190428252606083019460018652898c52848852868c209351166bffffffffffffffffffffffff60a01b845416178355516001830155516002820155019051151560ff80198354169116179055519384523393a380f35b60649360189293519362461bcd60e51b85528401528201527f50726963652065786365656473206d6178206d61726b757000000000000000006044820152fd5b50634e487b7160e01b87526011825286fd5b5060649360139293519362461bcd60e51b855284015282015272151a58dad95d08185b1c9958591e481d5cd959606a1b6044820152fd5b91505060e0813d8211610662575b8161062660e09383610cb4565b8101031261065e578481015161065660a0610642878501610cd6565b9361064f60808201610cd6565b5001610cd6565b50908a6104cb565b8780fd5b3d9150610619565b84513d8a823e3d90fd5b5060649360109293519362461bcd60e51b85528401528201526f2737ba103a34b1b5b2ba1037bbb732b960811b6044820152fd5b90508581813d83116106db575b6106bf8183610cb4565b810103126106d7575189811681036106d7578a610497565b8880fd5b503d6106b5565b85513d8b823e3d90fd5b5082346102d857816003193601126102d85760209060ff6002541690519015158152f35b509190346101bc5760203660031901126101bc578035916001600160a01b0383168084036101b857610740610c56565b1561076f57505060028054610100600160a81b03191660089290921b610100600160a81b031691909117905580f35b906020606492519162461bcd60e51b8352820152600f60248201526e496e76616c6964206164647265737360881b6044820152fd5b50826020806003193601126101bc57833591600260015414610aba5760026001556107cd610ce8565b828452600382528084209060038201916107ea60ff845416610d06565b600281015462093a808101809111610aa7574211610a725760018101805493843410610a385760018060a01b0380935416926005860286810460051487151715610a255760649004958961083e8883610d4a565b918034116109cd575b5080808093885af1610857610d6d565b5015610992578880808089858254165af1610870610d6d565b501561094f5760025460081c16803b156106d757888460648c83895195869485936323b872dd60e01b85528401523360248401528d60448401525af180156106e25761091e575b507fa8341f104131cae3e9965326a01662a1e0dc3dc60c8d099fefa4578ef8f6f9ae9697985060ff19815416905554908251918252867fd59a36d8310ffb140214be490baf3fe8961f859a17199ec1bf9015c8b7340011863394a451908152a26001805580f35b67ffffffffffffffff819992991161093c57845296975087896108b7565b634e487b7160e01b825260418a52602482fd5b845162461bcd60e51b8152808b01889052601c60248201527f506c6174666f726d20666565207472616e73666572206661696c6564000000006044820152606490fd5b845162461bcd60e51b8152808b01889052601560248201527414d95b1b195c881c185e5b595b9d0819985a5b1959605a1b6044820152606490fd5b81806109da819334610d4a565b335af16109e5610d6d565b50156109f257898c610847565b855162461bcd60e51b8152808c01899052600d60248201526c1499599d5b990819985a5b1959609a1b6044820152606490fd5b634e487b7160e01b8a5260118b5260248afd5b835162461bcd60e51b8152808a018790526014602482015273125b9cdd59999a58da595b9d081c185e5b595b9d60621b6044820152606490fd5b815162461bcd60e51b8152808801859052600f60248201526e131a5cdd1a5b99c8195e1c1a5c9959608a1b6044820152606490fd5b634e487b7160e01b875260118852602487fd5b51633ee5aeb560e01b81528490fd5b509190346101bc57826003193601126101bc57610ae4610c56565b6002549060ff821615610b26575060ff1916600255513381527f5db9ee0a495bf2e6ff9c91a7834c1ba4fdd244a5e8aa4e537bd38aeae4b073aa90602090a180f35b8251638dfc202b60e01b8152fd5b5082346102d857816003193601126102d8576020905162093a808152f35b5091346101bc5760203660031901126101bc5781359182845260036020528184209160018060a01b038354163303610bc65750506003018054610b9760ff8216610d06565b60ff1916905533907fe9fb774dd973cb7cec5d5fec2b11504f51b019e22a09c82a32f4cd4fcbd1c5e88380a380f35b906020606492519162461bcd60e51b8352820152600a6024820152692737ba1039b2b63632b960b11b6044820152fd5b5082346102d857816003193601126102d8576020905160058152f35b5082346102d857816003193601126102d85760209051606e8152f35b9050346102d857816003193601126102d85760025460081c6001600160a01b03168152602090f35b6000546001600160a01b03163303610c6a57565b60405163118cdaa760e01b8152336004820152602490fd5b6080810190811067ffffffffffffffff821117610c9e57604052565b634e487b7160e01b600052604160045260246000fd5b90601f8019910116810190811067ffffffffffffffff821117610c9e57604052565b51908115158203610ce357565b600080fd5b60ff60025416610cf457565b60405163d93c066560e01b8152600490fd5b15610d0d57565b60405162461bcd60e51b81526020600482015260156024820152744c697374696e67206973206e6f742061637469766560581b6044820152606490fd5b91908203918211610d5757565b634e487b7160e01b600052601160045260246000fd5b3d15610da8573d9067ffffffffffffffff8211610c9e5760405191610d9c601f8201601f191660200184610cb4565b82523d6000602084013e565b60609056fea2646970667358221220e8b113e2a14f98f2c983db9732aef2371100e1d3ad826be3b9c646cd08e9ff7e64736f6c63430008140033",
  "linkReferences": {},
  "deployedLinkReferences": {}
}