{
  "_format": "hh-sol-artifact-1",
  "contractName": "EventManager",
  "sourceName": "contracts/core/EventManager.sol",
  "abi": [
    {
      "inputs": [
        {
          "internalType": "address",
          "name": "refundEscrowAddress",
          "type": "address"
        }
      ],
      "stateMutability": "nonpayable",
      "type": "constructor"
    },
    {
      "inputs": [],
      "name": "EnforcedPause",
      "type": "error"
    },
    {
      "inputs": [],
      "name": "ExpectedPause",
      "type": "error"
    },
    {
      "inputs": [
        {
          "internalType": "address",
          "name": "owner",
          "type": "address"
        }
      ],
      "name": "OwnableInvalidOwner",
      "type": "error"
    },
    {
      "inputs": [
        {
          "internalType": "address",
          "name": "account",
          "type": "address"
        }
      ],
      "name": "OwnableUnauthorizedAccount",
      "type": "error"
    },
    {
      "inputs": [],
      "name": "ReentrancyGuardReentrantCall",
      "type": "error"
    },
    {
      "anonymous": false,
      "inputs": [
        {
          "indexed": true,
          "internalType": "uint256",
          "name": "eventId",
          "type": "uint256"
        }
      ],
      "name": "EventCancelled",
      "type": "event"
    },
    {
      "anonymous": false,
      "inputs": [
        {
          "indexed": true,
          "internalType": "uint256",
          "name": "eventId",
          "type": "uint256"
        },
        {
          "indexed": false,
          "internalType": "string",
          "name": "name",
          "type": "string"
        },
        {
          "indexed": false,
          "internalType": "uint256",
          "name": "date",
          "type": "uint256"
        },
        {
          "indexed": false,
          "internalType": "address",
          "name": "organizer",
          "type": "address"
        }
      ],
      "name": "EventCreated",
      "type": "event"
    },
    {
      "anonymous": false,
      "inputs": [
        {
          "indexed": true,
          "internalType": "address",
          "name": "previousOwner",
          "type": "address"
        },
        {
          "indexed": true,
          "internalType": "address",
          "name": "newOwner",
          "type": "address"
        }
      ],
      "name": "OwnershipTransferred",
      "type": "event"
    },
    {
      "anonymous": false,
      "inputs": [
        {
          "indexed": false,
          "internalType": "address",
          "name": "account",
          "type": "address"
        }
      ],
      "name": "Paused",
      "type": "event"
    },
    {
      "anonymous": false,
      "inputs": [
        {
          "indexed": true,
          "internalType": "address",
          "name": "newEscrow",
          "type": "address"
        }
      ],
      "name": "RefundEscrowUpdated",
      "type": "event"
    },
    {
      "anonymous": false,
      "inputs": [
        {
          "indexed": true,
          "internalType": "uint256",
          "name": "eventId",
          "type": "uint256"
        },
        {
          "indexed": true,
          "internalType": "address",
          "name": "organizer",
          "type": "address"
        },
        {
          "indexed": false,
          "internalType": "uint256",
          "name": "amount",
          "type": "uint256"
        }
      ],
      "name": "RevenueWithdrawn",
      "type": "event"
    },
    {
      "anonymous": false,
      "inputs": [
        {
          "indexed": true,
          "internalType": "uint256",
          "name": "eventId",
          "type": "uint256"
        },
        {
          "indexed": true,
          "internalType": "uint256",
          "name": "ticketId",
          "type": "uint256"
        },
        {
          "indexed": false,
          "internalType": "address",
          "name": "buyer",
          "type": "address"
        }
      ],
      "name": "TicketPurchased",
      "type": "event"
    },
    {
      "anonymous": false,
      "inputs": [
        {
          "indexed": false,
          "internalType": "address",
          "name": "account",
          "type": "address"
        }
      ],
      "name": "Unpaused",
      "type": "event"
    },
    {
      "inputs": [],
      "name": "CANCELLATION_WINDOW",
      "outputs": [
        {
          "internalType": "uint256",
          "name": "",
          "type": "uint256"
        }
      ],
      "stateMutability": "view",
      "type": "function"
    },
    {
      "inputs": [],
      "name": "MIN_EVENT_DELAY",
      "outputs": [
        {
          "internalType": "uint256",
          "name": "",
          "type": "uint256"
        }
      ],
      "stateMutability": "view",
      "type": "function"
    },
    {
      "inputs": [],
      "name": "PLATFORM_FEE_PERCENTAGE",
      "outputs": [
        {
          "internalType": "uint256",
          "name": "",
          "type": "uint256"
        }
      ],
      "stateMutability": "view",
      "type": "function"
    },
    {
      "inputs": [
        {
          "internalType": "uint256",
          "name": "eventId",
          "type": "uint256"
        }
      ],
      "name": "cancelEvent",
      "outputs": [],
      "stateMutability": "nonpayable",
      "type": "function"
    },
    {
      "inputs": [
        {
          "internalType": "string",
          "name": "name",
          "type": "string"
        },
        {
          "internalType": "uint256",
          "name": "date",
          "type": "uint256"
        },
        {
          "internalType": "uint256",
          "name": "basePrice",
          "type": "uint256"
        },
        {
          "internalType": "uint256[]",
          "name": "zoneCapacities",
          "type": "uint256[]"
        },
        {
          "internalType": "uint256[]",
          "name": "zonePrices",
          "type": "uint256[]"
        }
      ],
      "name": "createEvent",
      "outputs": [
        {
          "internalType": "uint256",
          "name": "",
          "type": "uint256"
        }
      ],
      "stateMutability": "nonpayable",
      "type": "function"
    },
    {
      "inputs": [
        {
          "internalType": "uint256",
          "name": "eventId",
          "type": "uint256"
        }
      ],
      "name": "getEvent",
      "outputs": [
        {
          "components": [
            {
              "internalType": "string",
              "name": "name",
              "type": "string"
            },
            {
              "internalType": "uint256",
              "name": "date",
              "type": "uint256"
            },
            {
              "internalType": "uint256",
              "name": "basePrice",
              "type": "uint256"
            },
            {
              "internalType": "address",
              "name": "organizer",
              "type": "address"
            },
            {
              "internalType": "bool",
              "name": "cancelled",
              "type": "bool"
            },
            {
              "internalType": "uint256[]",
              "name": "zoneCapacities",
              "type": "uint256[]"
            },
            {
              "internalType": "uint256[]",
              "name": "zonePrices",
              "type": "uint256[]"
            }
          ],
          "internalType": "struct IEventManager.Event",
          "name": "",
          "type": "tuple"
        }
      ],
      "stateMutability": "view",
      "type": "function"
    },
    {
      "inputs": [
        {
          "internalType": "uint256",
          "name": "eventId",
          "type": "uint256"
        }
      ],
      "name": "getEventRevenue",
      "outputs": [
        {
          "internalType": "uint256",
          "name": "",
          "type": "uint256"
        }
      ],
      "stateMutability": "view",
      "type": "function"
    },
    {
      "inputs": [
        {
          "internalType": "uint256",
          "name": "eventId",
          "type": "uint256"
        }
      ],
      "name": "getOrganizer",
      "outputs": [
        {
          "internalType": "address",
          "name": "",
          "type": "address"
        }
      ],
      "stateMutability": "view",
      "type": "function"
    },
    {
      "inputs": [
        {
          "internalType": "uint256",
          "name": "eventId",
          "type": "uint256"
        },
        {
          "internalType": "uint256",
          "name": "zoneId",
          "type": "uint256"
        }
      ],
      "name": "getZone",
      "outputs": [
        {
          "components": [
            {
              "internalType": "uint256",
              "name": "capacity",
              "type": "uint256"
            },
            {
              "internalType": "uint256",
              "name": "price",
              "type": "uint256"
            },
            {
              "internalType": "uint256",
              "name": "availableSeats",
              "type": "uint256"
            }
          ],
          "internalType": "struct IEventManager.Zone",
          "name": "",
          "type": "tuple"
        }
      ],
      "stateMutability": "view",
      "type": "function"
    },
    {
      "inputs": [
        {
          "internalType": "uint256",
          "name": "eventId",
          "type": "uint256"
        }
      ],
      "name": "hasEventConcluded",
      "outputs": [
        {
          "internalType": "bool",
          "name": "",
          "type": "bool"
        }
      ],
      "stateMutability": "view",
      "type": "function"
    },
    {
      "inputs": [
        {
          "internalType": "uint256",
          "name": "eventId",
          "type": "uint256"
        },
        {
          "internalType": "address",
          "name": "user",
          "type": "address"
        }
      ],
      "name": "hasTicket",
      "outputs": [
        {
          "internalType": "bool",
          "name": "",
          "type": "bool"
        }
      ],
      "stateMutability": "view",
      "type": "function"
    },
    {
      "inputs": [],
      "name": "owner",
      "outputs": [
        {
          "internalType": "address",
          "name": "",
          "type": "address"
        }
      ],
      "stateMutability": "view",
      "type": "function"
    },
    {
      "inputs": [],
      "name": "pause",
      "outputs": [],
      "stateMutability": "nonpayable",
      "type": "function"
    },
    {
      "inputs": [],
      "name": "paused",
      "outputs": [
        {
          "internalType": "bool",
          "name": "",
          "type": "bool"
        }
      ],
      "stateMutability": "view",
      "type": "function"
    },
    {
      "inputs": [
        {
          "internalType": "uint256",
          "name": "eventId",
          "type": "uint256"
        },
        {
          "internalType": "uint256",
          "name": "zoneId",
          "type": "uint256"
        }
      ],
      "name": "purchaseTicket",
      "outputs": [],
      "stateMutability": "payable",
      "type": "function"
    },
    {
      "inputs": [],
      "name": "refundEscrow",
      "outputs": [
        {
          "internalType": "contract IRefundEscrow",
          "name": "",
          "type": "address"
        }
      ],
      "stateMutability": "view",
      "type": "function"
    },
    {
      "inputs": [],
      "name": "renounceOwnership",
      "outputs": [],
      "stateMutability": "nonpayable",
      "type": "function"
    },
    {
      "inputs": [
        {
          "internalType": "address",
          "name": "newEscrow",
          "type": "address"
        }
      ],
      "name": "setRefundEscrow",
      "outputs": [],
      "stateMutability": "nonpayable",
      "type": "function"
    },
    {
      "inputs": [
        {
          "internalType": "address",
          "name": "newOwner",
          "type": "address"
        }
      ],
      "name": "transferOwnership",
      "outputs": [],
      "stateMutability": "nonpayable",
      "type": "function"
    },
    {
      "inputs": [],
      "name": "unpause",
      "outputs": [],
      "stateMutability": "nonpayable",
      "type": "function"
    },
    {
      "inputs": [
        {
          "internalType": "uint256",
          "name": "eventId",
          "type": "uint256"
        }
      ],
      "name": "withdrawEventRevenue",
      "outputs": [],
      "stateMutability": "nonpayable",
      "type": "function"
    },
    {
      "stateMutability": "payable",
      "type": "receive"
    }
  ],
  "bytecode": "0x60803461012057601f6117a838819003918201601f19168301916001600160401b038311848410176101255780849260209460405283398101031261012057516001600160a01b0380821691829003610120573315610107576000549060018060a01b0319913383821617600055604051913391167f8be0079c531659141344cd1fd0a4f28419497f9722a3daafe3b4186f6b6457e0600080a36001805560ff196002541660025582156100c55750600554161760055560405161166c908161013c8239f35b62461bcd60e51b815260206004820152601660248201527f496e76616c696420657363726f772061646472657373000000000000000000006044820152606490fd5b604051631e4fbdf760e01b815260006004820152602490fd5b600080fd5b634e487b7160e01b600052604160045260246000fdfe608080604052600436101561001d575b50361561001b57600080fd5b005b600090813560e01c90816315548232146112ef575080633f4ba83a146112845780633f69babd146110ee578063455b848f1461104657806346eff86714610fca5780634843d2b114610f735780634be9194414610f4a5780634cbd6fc614610f20578063524c15a214610eea5780635c975abb14610ec75780636816aa7d14610ea95780636d1884e014610ced578063715018a614610c935780638456cb5914610c385780638da5cb5b14610c1157806392a57fca14610bf3578063b6d9e86814610a70578063bdbbb0cb14610719578063d88a1498146106ea578063efdf49d71461019f5763f2fde38b0361000f573461019c57602036600319011261019c5761012661130a565b61012e6114b1565b6001600160a01b0390811690811561018357600054826bffffffffffffffffffffffff60a01b821617600055167f8be0079c531659141344cd1fd0a4f28419497f9722a3daafe3b4186f6b6457e0600080a380f35b604051631e4fbdf760e01b815260048101849052602490fd5b80fd5b503461019c5760a036600319011261019c5760043567ffffffffffffffff81116106e257366023820112156106e257818160040135916101de8361142e565b926101ec604051948561140c565b80845236602482840101116106e65780602460209301838601378301015260643567ffffffffffffffff81116106e65761022a90369060040161144a565b9160843567ffffffffffffffff81116106e25761024b90369060040161144a565b90610254611567565b6201518042018042116106ce57602435111561069a57835182510361065d5761027e6003546114dd565b8060035560405161028e816113f0565b848152602435602082015260443560408201523360608201528260808201528560a08201528360c082015281835260066020526040832090805180519067ffffffffffffffff821161059f5781906102e685546114ec565b601f8111610622575b50602090601f83116001146105be5787926105b3575b50508160011b916000199060031b1c19161782555b60208101516001830155604081015160028301556003820160018060a01b0360608301511681549060ff60a01b6080850151151560a01b16916affffffffffffffffffffff60a81b161717905560a081015180519067ffffffffffffffff821161059f57600160401b821161059f576020906004850154836004870155808410610582575b500160048401865260208620865b83811061056e575050505060c001519081519167ffffffffffffffff831161055a57600160401b831161055a57602060059182840154858486015580861061053e575b50019101845260208420845b83811061052a5750505050815b85518110156104d55760443561041f828661153d565b51106104985780610433610493928861153d565b516002610440838861153d565b5161044b848b61153d565b51906040519361045a856113d4565b845260208401908152604084019182528688526007602052604088208589526020526040882093518455516001840155519101556114dd565b610409565b60405162461bcd60e51b81526020600482015260156024820152745a6f6e652070726963652062656c6f77206261736560581b6044820152606490fd5b602082807f9c2f02f9bc3109d6ef9e6ddb6bd47137ccc8e9deabc67b747c58342a70d9e2c861051289604051918291606083526060830190611336565b602435878301523360408301520390a2604051908152f35b6001906020845194019381840155016103fc565b8484018852828820610554918101908701611526565b386103f0565b634e487b7160e01b85526041600452602485fd5b6001906020845194019381840155016103ad565b600486018852828820610599918101908501611526565b3861039f565b634e487b7160e01b86526041600452602486fd5b015190503880610305565b858852602088209250601f198416885b81811061060a57509084600195949392106105f1575b505050811b01825561031a565b015160001960f88460031b161c191690553880806105e4565b929360206001819287860151815501950193016105ce565b61064d9086895260208920601f850160051c81019160208610610653575b601f0160051c0190611526565b386102ef565b9091508190610640565b60405162461bcd60e51b8152602060048201526015602482015274082e4e4c2f240d8cadccee8d040dad2e6dac2e8c6d605b1b6044820152606490fd5b60405162461bcd60e51b815260206004820152600c60248201526b496e76616c6964206461746560a01b6044820152606490fd5b634e487b7160e01b82526011600452602482fd5b5080fd5b8280fd5b503461019c57602036600319011261019c57600160406020926004358152600684522001544211604051908152f35b5061072336611320565b9061072c6115c2565b610734611567565b808352602091600683526040842060ff600382015460a01c16610a395760010154421015610a0557818452600883526040842033600052835260ff604060002054166109cb578184526007835260408420908452825260408320916002830192835415610996576001018054341061095a576107b16004546114dd565b9384600455805480156109465760001901905582855260088252604085203360005282526040600020600160ff198254161790556005340234810460051434151715610932576064610804910434611585565b8386526009835260408620805491820180921161091c57558481548034116108c2575b50600554915490916001600160a01b0316803b156106e65782906044604051809481936326f71c9f60e21b83528960048401528a60248401525af180156108b75761089f575b50507f94c5953e15f54d38b82a662bdd5739fc91af3a23d3ef7e67269dfaeee71a813c90604051338152a36001805580f35b6108a8906113aa565b6108b357833861086d565b8380fd5b6040513d84823e3d90fd5b81806108cf819334611585565b335af16108da611592565b50156108e7578438610827565b60405162461bcd60e51b815260048101839052600d60248201526c1499599d5b990819985a5b1959609a1b6044820152606490fd5b634e487b7160e01b600052601160045260246000fd5b634e487b7160e01b86526011600452602486fd5b634e487b7160e01b87526011600452602487fd5b60405162461bcd60e51b8152600481018390526014602482015273125b9cdd59999a58da595b9d081c185e5b595b9d60621b6044820152606490fd5b60405162461bcd60e51b815260048101839052600d60248201526c169bdb99481cdbdb19081bdd5d609a1b6044820152606490fd5b60405162461bcd60e51b8152600481018490526012602482015271105b1c9958591e481a185cc81d1a58dad95d60721b6044820152606490fd5b60405162461bcd60e51b815260048101849052600c60248201526b115d995b9d081c185cdcd95960a21b6044820152606490fd5b60405162461bcd60e51b815260048101859052600f60248201526e115d995b9d0818d85b98d95b1b1959608a1b6044820152606490fd5b503461019c576020806003193601126106e257600435610a8e6115c2565b808352600682526040832060038101546001600160a01b03163303610bbe5760010154421115610b8757808352600982526040832054918215610b5657818452600981528360408120558380808086335af1610ae8611592565b5015610b20577f841fbab03327efe47fb7d133055c9aa87df38ff76b5919d1c190e0067c5e34b3906040519384523393a36001805580f35b6064906040519062461bcd60e51b82526004820152600f60248201526e151c985b9cd9995c8819985a5b1959608a1b6044820152fd5b6064906040519062461bcd60e51b82526004820152600a6024820152694e6f20726576656e756560b01b6044820152fd5b60405162461bcd60e51b815260048101839052600f60248201526e115d995b9d081b9bdd08195b991959608a1b6044820152606490fd5b60405162461bcd60e51b815260048101849052600d60248201526c2737ba1037b933b0b734bd32b960991b6044820152606490fd5b503461019c578060031936011261019c576020604051621275008152f35b503461019c578060031936011261019c57546040516001600160a01b039091168152602090f35b503461019c578060031936011261019c57610c516114b1565b610c59611567565b600160ff1960025416176002557f62e78cea01bee320cd4e420270b5ea74000d11b0c9f74754ebdbfc544b05a2586020604051338152a180f35b503461019c578060031936011261019c57610cac6114b1565b600080546001600160a01b0319811682556001600160a01b03167f8be0079c531659141344cd1fd0a4f28419497f9722a3daafe3b4186f6b6457e08280a380f35b503461019c576020908160031936011261019c5760c0604051610d0f816113f0565b6060918183809352848682015284604082015284838201528460808201528260a082015201526004358252600683526040822060405192610d4f846113f0565b60405181835492610d5f846114ec565b908184526001948581169081600014610e8d5750600114610e5d575b60e089610e598a8a610e488b8b8b610d95818d038261140c565b8552810154928685019384526002820154604086019081526003830154918087019060018060a01b0392838516835260ff60808a019560a01c1615158552610e18610df56005610de760048a016115e5565b9860a08d01998a52016115e5565b9960c081019a8b526040519d8d8f9e928f938452519201526101008d0190611336565b975160408c015251908a01525116608088015251151560a08701525191601f1992838783030160c0880152611376565b9151908483030160e0850152611376565b0390f35b91508482528782205b818310610e7a575050810186018282610d7b565b80548484018a0152918801918401610e66565b60ff1916858b01525050151560051b8201870190508282610d7b565b503461019c578060031936011261019c576020604051620151808152f35b503461019c578060031936011261019c57602060ff600254166040519015158152f35b503461019c57602036600319011261019c576020906004358152600682526003604060018060a01b039220015416604051908152f35b503461019c57602036600319011261019c5760406020916004358152600983522054604051908152f35b503461019c578060031936011261019c576005546040516001600160a01b039091168152602090f35b503461019c57604036600319011261019c576024356001600160a01b0381169190829003610fc557604090600435815260086020522090600052602052602060ff604060002054166040519015158152f35b600080fd5b503461019c576040606091610fde36611320565b9082848051610fec816113d4565b82815282602082015201528252600760205282822090825260205220604051611014816113d4565b815491828252604060026001830154926020850193845201549201918252604051928352516020830152516040820152f35b503461019c57602036600319011261019c5761106061130a565b6110686114b1565b6001600160a01b031680156110b057600580546001600160a01b031916821790557fea7e8fdf33d9a7d6d7dd09ddc69d89b8eb6f262d7eb9ae76a2470e3c4cfbc0c08280a280f35b60405162461bcd60e51b8152602060048201526016602482015275496e76616c696420657363726f77206164647265737360501b6044820152606490fd5b503461019c57602036600319011261019c5760043561110b611567565b8082526006602052604082206003810180546001600160a01b0393909290919084841633148015611278575b156112445760ff8460a01c1661120b576001015442116111cd5760ff60a01b19909216600160a01b1790915560405191839190817fdc3cb569b066460f4a22dffa05317bdcce5d3826382ed49a21f13e5fa2063d398480a26005541690813b156106e65783838193602493633f69babd60e01b845260048401525af180156108b7576111c1575080f35b6111ca906113aa565b80f35b60405162461bcd60e51b8152602060048201526016602482015275115d995b9d08185b1c9958591e481bd8d8dd5c9c995960521b6044820152606490fd5b60405162461bcd60e51b8152602060048201526011602482015270105b1c9958591e4818d85b98d95b1b1959607a1b6044820152606490fd5b60405162461bcd60e51b815260206004820152600c60248201526b155b985d5d1a1bdc9a5e995960a21b6044820152606490fd5b50848654163314611137565b503461019c578060031936011261019c5761129d6114b1565b60025460ff8116156112dd5760ff19166002557f5db9ee0a495bf2e6ff9c91a7834c1ba4fdd244a5e8aa4e537bd38aeae4b073aa6020604051338152a180f35b604051638dfc202b60e01b8152600490fd5b9050346106e257816003193601126106e25780600560209252f35b600435906001600160a01b0382168203610fc557565b6040906003190112610fc5576004359060243590565b919082519283825260005b848110611362575050826000602080949584010152601f8019910116010190565b602081830181015184830182015201611341565b90815180825260208080930193019160005b828110611396575050505090565b835185529381019392810192600101611388565b67ffffffffffffffff81116113be57604052565b634e487b7160e01b600052604160045260246000fd5b6060810190811067ffffffffffffffff8211176113be57604052565b60e0810190811067ffffffffffffffff8211176113be57604052565b90601f8019910116810190811067ffffffffffffffff8211176113be57604052565b67ffffffffffffffff81116113be57601f01601f191660200190565b9080601f83011215610fc55781359067ffffffffffffffff82116113be578160051b6040519360209361147f8584018761140c565b85528380860192820101928311610fc5578301905b8282106114a2575050505090565b81358152908301908301611494565b6000546001600160a01b031633036114c557565b60405163118cdaa760e01b8152336004820152602490fd5b600019811461091c5760010190565b90600182811c9216801561151c575b602083101461150657565b634e487b7160e01b600052602260045260246000fd5b91607f16916114fb565b818110611531575050565b60008155600101611526565b80518210156115515760209160051b010190565b634e487b7160e01b600052603260045260246000fd5b60ff6002541661157357565b60405163d93c066560e01b8152600490fd5b9190820391821161091c57565b3d156115bd573d906115a38261142e565b916115b1604051938461140c565b82523d6000602084013e565b606090565b6002600154146115d3576002600155565b604051633ee5aeb560e01b8152600490fd5b9060405191828154918282526020928383019160005283600020936000905b82821061161c5750505061161a9250038361140c565b565b85548452600195860195889550938101939091019061160456fea26469706673582212207d41de100ec8dc989ae72b39ecbfc0ee740e4dd98f4f26f3943ee6fe62b9dc6264736f6c63430008140033",
  "linkReferences": {},
  "deployedLinkReferences": {}
}