{
  "_format": "hh-sol-artifact-1",
  "contractName": "EventManager",
  "sourceName": "contracts/core/EventManager.sol",
  "abi": [
    {
      "inputs": [],
      "stateMutability": "nonpayable",
      "type": "constructor"
    },
    {
      "inputs": [],
      "name": "EnforcedPause",
      "type": "error"
    },
    {
      "inputs": [],
      "name": "ExpectedPause",
      "type": "error"
    },
    {
      "inputs": [
        {
          "internalType": "address",
          "name": "owner",
          "type": "address"
        }
      ],
      "name": "OwnableInvalidOwner",
      "type": "error"
    },
    {
      "inputs": [
        {
          "internalType": "address",
          "name": "account",
          "type": "address"
        }
      ],
      "name": "OwnableUnauthorizedAccount",
      "type": "error"
    },
    {
      "inputs": [],
      "name": "ReentrancyGuardReentrantCall",
      "type": "error"
    },
    {
      "anonymous": false,
      "inputs": [
        {
          "indexed": true,
          "internalType": "uint256",
          "name": "eventId",
          "type": "uint256"
        }
      ],
      "name": "EventCancelled",
      "type": "event"
    },
    {
      "anonymous": false,
      "inputs": [
        {
          "indexed": true,
          "internalType": "uint256",
          "name": "eventId",
          "type": "uint256"
        },
        {
          "indexed": false,
          "internalType": "string",
          "name": "name",
          "type": "string"
        },
        {
          "indexed": false,
          "internalType": "uint256",
          "name": "date",
          "type": "uint256"
        },
        {
          "indexed": false,
          "internalType": "address",
          "name": "organizer",
          "type": "address"
        }
      ],
      "name": "EventCreated",
      "type": "event"
    },
    {
      "anonymous": false,
      "inputs": [
        {
          "indexed": true,
          "internalType": "address",
          "name": "previousOwner",
          "type": "address"
        },
        {
          "indexed": true,
          "internalType": "address",
          "name": "newOwner",
          "type": "address"
        }
      ],
      "name": "OwnershipTransferred",
      "type": "event"
    },
    {
      "anonymous": false,
      "inputs": [
        {
          "indexed": false,
          "internalType": "address",
          "name": "account",
          "type": "address"
        }
      ],
      "name": "Paused",
      "type": "event"
    },
    {
      "anonymous": false,
      "inputs": [
        {
          "indexed": true,
          "internalType": "address",
          "name": "newEscrow",
          "type": "address"
        }
      ],
      "name": "RefundEscrowUpdated",
      "type": "event"
    },
    {
      "anonymous": false,
      "inputs": [
        {
          "indexed": true,
          "internalType": "uint256",
          "name": "eventId",
          "type": "uint256"
        },
        {
          "indexed": true,
          "internalType": "address",
          "name": "organizer",
          "type": "address"
        },
        {
          "indexed": false,
          "internalType": "uint256",
          "name": "amount",
          "type": "uint256"
        }
      ],
      "name": "RevenueWithdrawn",
      "type": "event"
    },
    {
      "anonymous": false,
      "inputs": [
        {
          "indexed": true,
          "internalType": "uint256",
          "name": "eventId",
          "type": "uint256"
        },
        {
          "indexed": true,
          "internalType": "uint256",
          "name": "ticketId",
          "type": "uint256"
        },
        {
          "indexed": false,
          "internalType": "address",
          "name": "buyer",
          "type": "address"
        }
      ],
      "name": "TicketPurchased",
      "type": "event"
    },
    {
      "anonymous": false,
      "inputs": [
        {
          "indexed": false,
          "internalType": "address",
          "name": "account",
          "type": "address"
        }
      ],
      "name": "Unpaused",
      "type": "event"
    },
    {
      "inputs": [],
      "name": "MIN_EVENT_DELAY",
      "outputs": [
        {
          "internalType": "uint256",
          "name": "",
          "type": "uint256"
        }
      ],
      "stateMutability": "view",
      "type": "function"
    },
    {
      "inputs": [],
      "name": "PLATFORM_FEE_PERCENTAGE",
      "outputs": [
        {
          "internalType": "uint256",
          "name": "",
          "type": "uint256"
        }
      ],
      "stateMutability": "view",
      "type": "function"
    },
    {
      "inputs": [
        {
          "internalType": "uint256",
          "name": "eventId",
          "type": "uint256"
        }
      ],
      "name": "cancelEvent",
      "outputs": [],
      "stateMutability": "nonpayable",
      "type": "function"
    },
    {
      "inputs": [
        {
          "internalType": "string",
          "name": "name",
          "type": "string"
        },
        {
          "internalType": "uint256",
          "name": "date",
          "type": "uint256"
        },
        {
          "internalType": "uint256",
          "name": "basePrice",
          "type": "uint256"
        },
        {
          "internalType": "uint256[]",
          "name": "zoneCapacities",
          "type": "uint256[]"
        },
        {
          "internalType": "uint256[]",
          "name": "zonePrices",
          "type": "uint256[]"
        }
      ],
      "name": "createEvent",
      "outputs": [
        {
          "internalType": "uint256",
          "name": "",
          "type": "uint256"
        }
      ],
      "stateMutability": "nonpayable",
      "type": "function"
    },
    {
      "inputs": [
        {
          "internalType": "uint256",
          "name": "eventId",
          "type": "uint256"
        }
      ],
      "name": "getEvent",
      "outputs": [
        {
          "components": [
            {
              "internalType": "string",
              "name": "name",
              "type": "string"
            },
            {
              "internalType": "uint256",
              "name": "date",
              "type": "uint256"
            },
            {
              "internalType": "uint256",
              "name": "basePrice",
              "type": "uint256"
            },
            {
              "internalType": "address",
              "name": "organizer",
              "type": "address"
            },
            {
              "internalType": "bool",
              "name": "cancelled",
              "type": "bool"
            },
            {
              "internalType": "uint256",
              "name": "zoneCount",
              "type": "uint256"
            }
          ],
          "internalType": "struct IEventManager.EventView",
          "name": "",
          "type": "tuple"
        }
      ],
      "stateMutability": "view",
      "type": "function"
    },
    {
      "inputs": [
        {
          "internalType": "uint256",
          "name": "eventId",
          "type": "uint256"
        }
      ],
      "name": "getEventRevenue",
      "outputs": [
        {
          "internalType": "uint256",
          "name": "",
          "type": "uint256"
        }
      ],
      "stateMutability": "view",
      "type": "function"
    },
    {
      "inputs": [
        {
          "internalType": "uint256",
          "name": "eventId",
          "type": "uint256"
        }
      ],
      "name": "getOrganizer",
      "outputs": [
        {
          "internalType": "address",
          "name": "",
          "type": "address"
        }
      ],
      "stateMutability": "view",
      "type": "function"
    },
    {
      "inputs": [
        {
          "internalType": "uint256",
          "name": "eventId",
          "type": "uint256"
        },
        {
          "internalType": "uint256",
          "name": "zoneId",
          "type": "uint256"
        }
      ],
      "name": "getZone",
      "outputs": [
        {
          "components": [
            {
              "internalType": "uint256",
              "name": "capacity",
              "type": "uint256"
            },
            {
              "internalType": "uint256",
              "name": "price",
              "type": "uint256"
            },
            {
              "internalType": "uint256",
              "name": "availableSeats",
              "type": "uint256"
            }
          ],
          "internalType": "struct IEventManager.Zone",
          "name": "",
          "type": "tuple"
        }
      ],
      "stateMutability": "view",
      "type": "function"
    },
    {
      "inputs": [
        {
          "internalType": "uint256",
          "name": "eventId",
          "type": "uint256"
        },
        {
          "internalType": "uint256",
          "name": "zoneId",
          "type": "uint256"
        }
      ],
      "name": "getZoneCapacity",
      "outputs": [
        {
          "internalType": "uint256",
          "name": "",
          "type": "uint256"
        }
      ],
      "stateMutability": "view",
      "type": "function"
    },
    {
      "inputs": [
        {
          "internalType": "uint256",
          "name": "eventId",
          "type": "uint256"
        }
      ],
      "name": "getZoneCount",
      "outputs": [
        {
          "internalType": "uint256",
          "name": "",
          "type": "uint256"
        }
      ],
      "stateMutability": "view",
      "type": "function"
    },
    {
      "inputs": [
        {
          "internalType": "uint256",
          "name": "eventId",
          "type": "uint256"
        },
        {
          "internalType": "uint256",
          "name": "zoneId",
          "type": "uint256"
        }
      ],
      "name": "getZonePrice",
      "outputs": [
        {
          "internalType": "uint256",
          "name": "",
          "type": "uint256"
        }
      ],
      "stateMutability": "view",
      "type": "function"
    },
    {
      "inputs": [
        {
          "internalType": "uint256",
          "name": "eventId",
          "type": "uint256"
        }
      ],
      "name": "hasEventConcluded",
      "outputs": [
        {
          "internalType": "bool",
          "name": "",
          "type": "bool"
        }
      ],
      "stateMutability": "view",
      "type": "function"
    },
    {
      "inputs": [
        {
          "internalType": "uint256",
          "name": "eventId",
          "type": "uint256"
        },
        {
          "internalType": "address",
          "name": "user",
          "type": "address"
        }
      ],
      "name": "hasTicket",
      "outputs": [
        {
          "internalType": "bool",
          "name": "",
          "type": "bool"
        }
      ],
      "stateMutability": "view",
      "type": "function"
    },
    {
      "inputs": [],
      "name": "owner",
      "outputs": [
        {
          "internalType": "address",
          "name": "",
          "type": "address"
        }
      ],
      "stateMutability": "view",
      "type": "function"
    },
    {
      "inputs": [],
      "name": "pause",
      "outputs": [],
      "stateMutability": "nonpayable",
      "type": "function"
    },
    {
      "inputs": [],
      "name": "paused",
      "outputs": [
        {
          "internalType": "bool",
          "name": "",
          "type": "bool"
        }
      ],
      "stateMutability": "view",
      "type": "function"
    },
    {
      "inputs": [
        {
          "internalType": "uint256",
          "name": "eventId",
          "type": "uint256"
        },
        {
          "internalType": "uint256",
          "name": "zoneId",
          "type": "uint256"
        }
      ],
      "name": "purchaseTicket",
      "outputs": [],
      "stateMutability": "payable",
      "type": "function"
    },
    {
      "inputs": [],
      "name": "refundEscrow",
      "outputs": [
        {
          "internalType": "contract IRefundEscrow",
          "name": "",
          "type": "address"
        }
      ],
      "stateMutability": "view",
      "type": "function"
    },
    {
      "inputs": [],
      "name": "renounceOwnership",
      "outputs": [],
      "stateMutability": "nonpayable",
      "type": "function"
    },
    {
      "inputs": [
        {
          "internalType": "address",
          "name": "newEscrow",
          "type": "address"
        }
      ],
      "name": "setRefundEscrow",
      "outputs": [],
      "stateMutability": "nonpayable",
      "type": "function"
    },
    {
      "inputs": [
        {
          "internalType": "address",
          "name": "newOwner",
          "type": "address"
        }
      ],
      "name": "transferOwnership",
      "outputs": [],
      "stateMutability": "nonpayable",
      "type": "function"
    },
    {
      "inputs": [],
      "name": "unpause",
      "outputs": [],
      "stateMutability": "nonpayable",
      "type": "function"
    },
    {
      "inputs": [
        {
          "internalType": "uint256",
          "name": "eventId",
          "type": "uint256"
        }
      ],
      "name": "withdrawEventRevenue",
      "outputs": [],
      "stateMutability": "nonpayable",
      "type": "function"
    },
    {
      "stateMutability": "payable",
      "type": "receive"
    }
  ],
  "bytecode": "0x6080806040523461008d5733156100775760008054336001600160a01b031982168117835560405192916001600160a01b03167f8be0079c531659141344cd1fd0a4f28419497f9722a3daafe3b4186f6b6457e08380a36001805560ff1960025416600255806003556004556119bf90816100938239f35b631e4fbdf760e01b815260006004820152602490fd5b600080fdfe608080604052600436101561001d575b50361561001b57600080fd5b005b600090813560e01c90816315548232146115e0575080633f4ba83a146115755780633f69babd146113ac578063455b848f1461130457806346eff867146112515780634843d2b1146111dc5780634be91944146111b35780634cbd6fc61461116b578063516ceac814611105578063524c15a2146110b15780635a45a31a1461104e5780635c975abb1461102b5780636816aa7d1461100d5780636d1884e014610e6f578063715018a614610e155780638456cb5914610dba5780638da5cb5b14610d93578063ad1de32314610d49578063b6d9e86814610b8f578063bdbbb0cb146107fc578063d88a1498146107af578063efdf49d7146101b55763f2fde38b0361000f57346101b25760203660031901126101b25761013c6115fb565b61014461175a565b6001600160a01b0390811690811561019957600054826bffffffffffffffffffffffff60a01b821617600055167f8be0079c531659141344cd1fd0a4f28419497f9722a3daafe3b4186f6b6457e0600080a380f35b604051631e4fbdf760e01b815260048101849052602490fd5b80fd5b50346101b25760a03660031901126101b25760043567ffffffffffffffff81116107a757366023820112156107a757818160040135916101f4836116d7565b9261020260405194856116b5565b80845236602482840101116107ab5780602460209301838601378301015260643567ffffffffffffffff81116107ab576102409036906004016116f3565b9160843567ffffffffffffffff81116107a7576102619036906004016116f3565b9061026a6117f9565b8251156107625762015180420180421161074e5760243511156106ef5783518251036106955783511561065057604435156105ff576102aa600354611786565b806003558451604051906102bd82611699565b8582526024356020830152604435604083015233606083015283608083015260a082015281835260066020526040832090805180519067ffffffffffffffff82116105eb5761030c8454611795565b601f81116105aa575b50602090601f83116001146105415791806004949260a0948992610536575b50508160011b916000199060031b1c19161784555b602081015160018501556040810151600285015560038401600180841b0360608301511681549060ff851b60808501511515861b16916affffffffffffffffffffff60a81b16171790550151910155815b85518110156104d2576103ad81876117cf565b511561047d576044356103c082866117cf565b511061043957806103d461043492886117cf565b5160026103e183886117cf565b516103ec848b6117cf565b5190604051936103fb85611667565b84526020840190815260408401918252868852600760205260408820858952602052604088209351845551600184015551910155611786565b61039a565b606460405162461bcd60e51b815260206004820152602060248201527f5a6f6e65207072696365206d757374206265203e3d20626173652070726963656044820152fd5b60405162461bcd60e51b815260206004820152602760248201527f5a6f6e65206361706163697479206d7573742062652067726561746572207468604482015266616e207a65726f60c81b6064820152608490fd5b50807f9c2f02f9bc3109d6ef9e6ddb6bd47137ccc8e9deabc67b747c58342a70d9e2c861051e8660209560408a5191868152600a89522055604051918291606083526060830190611627565b602435878301523360408301520390a2604051908152f35b015190503880610334565b848752602087209190601f198416885b818110610592575092600192859260a0966004989610610579575b505050811b018455610349565b015160001960f88460031b161c1916905538808061056c565b92936020600181928786015181550195019301610551565b84875260208720601f840160051c8101602085106105e4575b601f830160051c820181106105d9575050610315565b8881556001016105c3565b50806105c3565b634e487b7160e01b86526041600452602486fd5b60405162461bcd60e51b8152602060048201526024808201527f42617365207072696365206d7573742062652067726561746572207468616e206044820152637a65726f60e01b6064820152608490fd5b60405162461bcd60e51b815260206004820152601a60248201527f4174206c65617374206f6e65207a6f6e652072657175697265640000000000006044820152606490fd5b60405162461bcd60e51b815260206004820152602c60248201527f5a6f6e65206361706163697469657320616e642070726963657320617272617960448201526b0e640daeae6e840dac2e8c6d60a31b6064820152608490fd5b60405162461bcd60e51b815260206004820152603160248201527f4576656e742064617465206d757374206265206174206c65617374206f6e652060448201527064617920696e207468652066757475726560781b6064820152608490fd5b634e487b7160e01b82526011600452602482fd5b60405162461bcd60e51b815260206004820152601a60248201527f4576656e74206e616d652063616e6e6f7420626520656d7074790000000000006044820152606490fd5b5080fd5b8280fd5b50346101b25760203660031901126101b25760016040602092600435600354811115806107f3575b6107e090611817565b8152600684522001544211604051908152f35b508015156107d7565b5061080636611611565b9061080f611924565b6108176117f9565b60035481111580610b86575b61082c906118a8565b808352602091600683526040842060ff600382015460a01c16610b4f5761085860018201544210611863565b828552600884526040852033600052845260ff60406000205416610b0a5760040154811015610ad3578184526007835260408420908452825260408320916002830192835415610a8e5760010180543410610a52576108b8600454611786565b938460045580548015610a3e5760001901905582855260088252604085203360005282526040600020600160ff1982541617905580546005810281810460051482151715610a3e57606461090e910480926118e7565b908487526009845260408720918254908101809111610a2857909155855486918291829182916001600160a01b03165af16109476118f4565b50156109e35784905480341161098a575b50507f94c5953e15f54d38b82a662bdd5739fc91af3a23d3ef7e67269dfaeee71a813c90604051338152a36001805580f35b81806109978193346118e7565b335af16109a26118f4565b50156109af578338610958565b6064906040519062461bcd60e51b82526004820152600d60248201526c1499599d5b990819985a5b1959609a1b6044820152fd5b60405162461bcd60e51b815260048101839052601c60248201527f506c6174666f726d20666565207472616e73666572206661696c6564000000006044820152606490fd5b634e487b7160e01b600052601160045260246000fd5b634e487b7160e01b87526011600452602487fd5b60405162461bcd60e51b8152600481018390526014602482015273125b9cdd59999a58da595b9d081c185e5b595b9d60621b6044820152606490fd5b60405162461bcd60e51b815260048101839052601a60248201527f4e6f20736561747320617661696c61626c6520696e207a6f6e650000000000006044820152606490fd5b60405162461bcd60e51b815260048101849052600f60248201526e125b9d985b1a59081e9bdb99481251608a1b6044820152606490fd5b60405162461bcd60e51b815260048101859052601860248201527f416c726561647920707572636861736564207469636b657400000000000000006044820152606490fd5b60405162461bcd60e51b815260048101859052600f60248201526e115d995b9d0818d85b98d95b1b1959608a1b6044820152606490fd5b50801515610823565b50346101b2576020806003193601126107a757600435610bad611924565b60035481111580610d40575b610bc2906118a8565b808352600682526040832060038101546001600160a01b03163303610d045760010154421115610cc957808352600982526040832054918215610c9857818452600981528360408120558380808086335af1610c1c6118f4565b5015610c54577f841fbab03327efe47fb7d133055c9aa87df38ff76b5919d1c190e0067c5e34b3906040519384523393a36001805580f35b6064906040519062461bcd60e51b82526004820152601c60248201527f5472616e7366657220746f206f7267616e697a6572206661696c6564000000006044820152fd5b6064906040519062461bcd60e51b82526004820152600a6024820152694e6f20726576656e756560b01b6044820152fd5b60405162461bcd60e51b8152600481018390526013602482015272115d995b9d081b9bdd08195b991959081e595d606a1b6044820152606490fd5b60405162461bcd60e51b815260048101849052601460248201527321b0b63632b9103737ba1037b933b0b734bd32b960611b6044820152606490fd5b50801515610bb9565b50346101b25760203660031901126101b25760046040602092823560035481111580610d8a575b610d7990611817565b815260068452200154604051908152f35b50801515610d70565b50346101b257806003193601126101b257546040516001600160a01b039091168152602090f35b50346101b257806003193601126101b257610dd361175a565b610ddb6117f9565b600160ff1960025416176002557f62e78cea01bee320cd4e420270b5ea74000d11b0c9f74754ebdbfc544b05a2586020604051338152a180f35b50346101b257806003193601126101b257610e2e61175a565b600080546001600160a01b0319811682556001600160a01b03167f8be0079c531659141344cd1fd0a4f28419497f9722a3daafe3b4186f6b6457e08280a380f35b50346101b2576020806003193601126107a7576004358260a0604051610e9481611699565b606081528285820152826040820152826060820152826080820152015260035481111580611004575b610ec690611817565b82526006815260408220906001808301549160028401549060038501549160048601549360405196610ef788611699565b6040519189825492610f0884611795565b80865293838116908115610fe15750600114610fa9575b50505050610f318160c09903826116b5565b8652818601948552604086019081526060860190610f8360018060a01b0393848616845260ff60808a019660a01c161515865260a08901968752604051998a99828b5251918a015260e0890190611627565b955160408801525160608701525116608085015251151560a08401525160c08301520390f35b90809b5052848a205b828b10610fce57505050610f31818460c09a8201019938610f1f565b8054848c01870152998501998101610fb2565b60ff19168887015250505050151560051b810183019750610f318160c038610f1f565b50801515610ebd565b50346101b257806003193601126101b2576020604051620151808152f35b50346101b257806003193601126101b257602060ff600254166040519015158152f35b50346101b257604060209161106236611611565b90600354811115806110a8575b61107890611817565b80835260068552611090600485852001548310611947565b82526007845282822090825283522054604051908152f35b5080151561106f565b50346101b25760203660031901126101b257602090600435600354811115806110fc575b6110de90611817565b8152600682526003604060018060a01b039220015416604051908152f35b508015156110d5565b50346101b2576001604060209261111b36611611565b9060035481111580611162575b61113190611817565b80835260068652611149600485852001548310611947565b8252600785528282209082528452200154604051908152f35b50801515611128565b50346101b25760203660031901126101b2576040602091600435600354811115806111aa575b61119a90611817565b8152600983522054604051908152f35b50801515611191565b50346101b257806003193601126101b2576005546040516001600160a01b039091168152602090f35b50346101b25760403660031901126101b2576024356001600160a01b038116916004359183900361124c5760409160035481111580611243575b61121f90611817565b815260086020522090600052602052602060ff604060002054166040519015158152f35b50801515611216565b600080fd5b50346101b257606090604061126536611611565b8251939161127285611667565b828552828460209682888201520152600354811115806112fb575b61129690611817565b808352600685526112ae600485852001548310611947565b82526007845282822090825283522090604051906112cb82611667565b82549283835260406002600183015492848601938452015493019283526040519384525190830152516040820152f35b5080151561128d565b50346101b25760203660031901126101b25761131e6115fb565b61132661175a565b6001600160a01b0316801561136e57600580546001600160a01b031916821790557fea7e8fdf33d9a7d6d7dd09ddc69d89b8eb6f262d7eb9ae76a2470e3c4cfbc0c08280a280f35b60405162461bcd60e51b8152602060048201526016602482015275496e76616c696420657363726f77206164647265737360501b6044820152606490fd5b50346101b25760203660031901126101b2576004356113c96117f9565b6003548111158061156c575b6113de90611817565b8082526006602052604082206003810180546001600160a01b0393919084811633148015611560575b1561151b5760ff8160a01c166114d657611428600187950154421115611863565b60ff60a01b1916600160a01b17905560405192817fdc3cb569b066460f4a22dffa05317bdcce5d3826382ed49a21f13e5fa2063d398480a260055416908161146e578280f35b813b156107ab5783838193602493633f69babd60e01b845260048401525af180156114cb5761149f575b8181808280f35b67ffffffffffffffff81116114b75760405238611498565b634e487b7160e01b82526041600452602482fd5b6040513d84823e3d90fd5b60405162461bcd60e51b815260206004820152601760248201527f4576656e7420616c72656164792063616e63656c6c65640000000000000000006044820152606490fd5b60405162461bcd60e51b815260206004820152601c60248201527f4e6f74206576656e74206f7267616e697a6572206f72206f776e6572000000006044820152606490fd5b50848654163314611407565b508015156113d5565b50346101b257806003193601126101b25761158e61175a565b60025460ff8116156115ce5760ff19166002557f5db9ee0a495bf2e6ff9c91a7834c1ba4fdd244a5e8aa4e537bd38aeae4b073aa6020604051338152a180f35b604051638dfc202b60e01b8152600490fd5b9050346107a757816003193601126107a75780600560209252f35b600435906001600160a01b038216820361124c57565b604090600319011261124c576004359060243590565b919082519283825260005b848110611653575050826000602080949584010152601f8019910116010190565b602081830181015184830182015201611632565b6060810190811067ffffffffffffffff82111761168357604052565b634e487b7160e01b600052604160045260246000fd5b60c0810190811067ffffffffffffffff82111761168357604052565b90601f8019910116810190811067ffffffffffffffff82111761168357604052565b67ffffffffffffffff811161168357601f01601f191660200190565b9080601f8301121561124c5781359067ffffffffffffffff8211611683578160051b60405193602093611728858401876116b5565b8552838086019282010192831161124c578301905b82821061174b575050505090565b8135815290830190830161173d565b6000546001600160a01b0316330361176e57565b60405163118cdaa760e01b8152336004820152602490fd5b6000198114610a285760010190565b90600182811c921680156117c5575b60208310146117af57565b634e487b7160e01b600052602260045260246000fd5b91607f16916117a4565b80518210156117e35760209160051b010190565b634e487b7160e01b600052603260045260246000fd5b60ff6002541661180557565b60405163d93c066560e01b8152600490fd5b1561181e57565b60405162461bcd60e51b815260206004820152601760248201527f4576656e7420494420646f6573206e6f742065786973740000000000000000006044820152606490fd5b1561186a57565b60405162461bcd60e51b8152602060048201526016602482015275115d995b9d08185b1c9958591e481bd8d8dd5c9c995960521b6044820152606490fd5b156118af57565b60405162461bcd60e51b815260206004820152601060248201526f125b9d985b1a5908195d995b9d08125160821b6044820152606490fd5b91908203918211610a2857565b3d1561191f573d90611905826116d7565b9161191360405193846116b5565b82523d6000602084013e565b606090565b600260015414611935576002600155565b604051633ee5aeb560e01b8152600490fd5b1561194e57565b60405162461bcd60e51b8152602060048201526013602482015272169bdb9948191bd95cc81b9bdd08195e1a5cdd606a1b6044820152606490fdfea26469706673582212202c51658a42961a5ec1cc859ba149f9915488043d9c2ddcc7005d02c12e489dc264736f6c63430008140033",
  "linkReferences": {},
  "deployedLinkReferences": {}
}