{
  "_format": "hh-sol-artifact-1",
  "contractName": "EventManager",
  "sourceName": "contracts/core/EventManager.sol",
  "abi": [
    {
      "inputs": [],
      "stateMutability": "nonpayable",
      "type": "constructor"
    },
    {
      "inputs": [],
      "name": "EnforcedPause",
      "type": "error"
    },
    {
      "inputs": [],
      "name": "ExpectedPause",
      "type": "error"
    },
    {
      "inputs": [
        {
          "internalType": "address",
          "name": "owner",
          "type": "address"
        }
      ],
      "name": "OwnableInvalidOwner",
      "type": "error"
    },
    {
      "inputs": [
        {
          "internalType": "address",
          "name": "account",
          "type": "address"
        }
      ],
      "name": "OwnableUnauthorizedAccount",
      "type": "error"
    },
    {
      "inputs": [],
      "name": "ReentrancyGuardReentrantCall",
      "type": "error"
    },
    {
      "anonymous": false,
      "inputs": [
        {
          "indexed": true,
          "internalType": "uint256",
          "name": "eventId",
          "type": "uint256"
        }
      ],
      "name": "EventCancelled",
      "type": "event"
    },
    {
      "anonymous": false,
      "inputs": [
        {
          "indexed": true,
          "internalType": "uint256",
          "name": "eventId",
          "type": "uint256"
        },
        {
          "indexed": false,
          "internalType": "string",
          "name": "name",
          "type": "string"
        },
        {
          "indexed": false,
          "internalType": "uint256",
          "name": "date",
          "type": "uint256"
        },
        {
          "indexed": false,
          "internalType": "address",
          "name": "organizer",
          "type": "address"
        }
      ],
      "name": "EventCreated",
      "type": "event"
    },
    {
      "anonymous": false,
      "inputs": [
        {
          "indexed": true,
          "internalType": "address",
          "name": "previousOwner",
          "type": "address"
        },
        {
          "indexed": true,
          "internalType": "address",
          "name": "newOwner",
          "type": "address"
        }
      ],
      "name": "OwnershipTransferred",
      "type": "event"
    },
    {
      "anonymous": false,
      "inputs": [
        {
          "indexed": false,
          "internalType": "address",
          "name": "account",
          "type": "address"
        }
      ],
      "name": "Paused",
      "type": "event"
    },
    {
      "anonymous": false,
      "inputs": [
        {
          "indexed": true,
          "internalType": "address",
          "name": "newEscrow",
          "type": "address"
        }
      ],
      "name": "RefundEscrowUpdated",
      "type": "event"
    },
    {
      "anonymous": false,
      "inputs": [
        {
          "indexed": true,
          "internalType": "uint256",
          "name": "eventId",
          "type": "uint256"
        },
        {
          "indexed": true,
          "internalType": "address",
          "name": "organizer",
          "type": "address"
        },
        {
          "indexed": false,
          "internalType": "uint256",
          "name": "amount",
          "type": "uint256"
        }
      ],
      "name": "RevenueWithdrawn",
      "type": "event"
    },
    {
      "anonymous": false,
      "inputs": [
        {
          "indexed": true,
          "internalType": "uint256",
          "name": "eventId",
          "type": "uint256"
        },
        {
          "indexed": true,
          "internalType": "uint256",
          "name": "ticketId",
          "type": "uint256"
        },
        {
          "indexed": false,
          "internalType": "address",
          "name": "buyer",
          "type": "address"
        }
      ],
      "name": "TicketPurchased",
      "type": "event"
    },
    {
      "anonymous": false,
      "inputs": [
        {
          "indexed": false,
          "internalType": "address",
          "name": "account",
          "type": "address"
        }
      ],
      "name": "Unpaused",
      "type": "event"
    },
    {
      "inputs": [],
      "name": "CANCELLATION_WINDOW",
      "outputs": [
        {
          "internalType": "uint256",
          "name": "",
          "type": "uint256"
        }
      ],
      "stateMutability": "view",
      "type": "function"
    },
    {
      "inputs": [],
      "name": "MIN_EVENT_DELAY",
      "outputs": [
        {
          "internalType": "uint256",
          "name": "",
          "type": "uint256"
        }
      ],
      "stateMutability": "view",
      "type": "function"
    },
    {
      "inputs": [],
      "name": "PLATFORM_FEE_PERCENTAGE",
      "outputs": [
        {
          "internalType": "uint256",
          "name": "",
          "type": "uint256"
        }
      ],
      "stateMutability": "view",
      "type": "function"
    },
    {
      "inputs": [
        {
          "internalType": "uint256",
          "name": "eventId",
          "type": "uint256"
        }
      ],
      "name": "cancelEvent",
      "outputs": [],
      "stateMutability": "nonpayable",
      "type": "function"
    },
    {
      "inputs": [
        {
          "internalType": "string",
          "name": "name",
          "type": "string"
        },
        {
          "internalType": "uint256",
          "name": "date",
          "type": "uint256"
        },
        {
          "internalType": "uint256",
          "name": "basePrice",
          "type": "uint256"
        },
        {
          "internalType": "uint256[]",
          "name": "zoneCapacities",
          "type": "uint256[]"
        },
        {
          "internalType": "uint256[]",
          "name": "zonePrices",
          "type": "uint256[]"
        }
      ],
      "name": "createEvent",
      "outputs": [
        {
          "internalType": "uint256",
          "name": "",
          "type": "uint256"
        }
      ],
      "stateMutability": "nonpayable",
      "type": "function"
    },
    {
      "inputs": [
        {
          "internalType": "uint256",
          "name": "eventId",
          "type": "uint256"
        }
      ],
      "name": "getEvent",
      "outputs": [
        {
          "components": [
            {
              "internalType": "string",
              "name": "name",
              "type": "string"
            },
            {
              "internalType": "uint256",
              "name": "date",
              "type": "uint256"
            },
            {
              "internalType": "uint256",
              "name": "basePrice",
              "type": "uint256"
            },
            {
              "internalType": "address",
              "name": "organizer",
              "type": "address"
            },
            {
              "internalType": "bool",
              "name": "cancelled",
              "type": "bool"
            },
            {
              "internalType": "uint256",
              "name": "zoneCount",
              "type": "uint256"
            }
          ],
          "internalType": "struct IEventManager.EventView",
          "name": "",
          "type": "tuple"
        }
      ],
      "stateMutability": "view",
      "type": "function"
    },
    {
      "inputs": [
        {
          "internalType": "uint256",
          "name": "eventId",
          "type": "uint256"
        }
      ],
      "name": "getEventRevenue",
      "outputs": [
        {
          "internalType": "uint256",
          "name": "",
          "type": "uint256"
        }
      ],
      "stateMutability": "view",
      "type": "function"
    },
    {
      "inputs": [
        {
          "internalType": "uint256",
          "name": "eventId",
          "type": "uint256"
        }
      ],
      "name": "getOrganizer",
      "outputs": [
        {
          "internalType": "address",
          "name": "",
          "type": "address"
        }
      ],
      "stateMutability": "view",
      "type": "function"
    },
    {
      "inputs": [
        {
          "internalType": "uint256",
          "name": "eventId",
          "type": "uint256"
        },
        {
          "internalType": "uint256",
          "name": "zoneId",
          "type": "uint256"
        }
      ],
      "name": "getZone",
      "outputs": [
        {
          "components": [
            {
              "internalType": "uint256",
              "name": "capacity",
              "type": "uint256"
            },
            {
              "internalType": "uint256",
              "name": "price",
              "type": "uint256"
            },
            {
              "internalType": "uint256",
              "name": "availableSeats",
              "type": "uint256"
            }
          ],
          "internalType": "struct IEventManager.Zone",
          "name": "",
          "type": "tuple"
        }
      ],
      "stateMutability": "view",
      "type": "function"
    },
    {
      "inputs": [
        {
          "internalType": "uint256",
          "name": "eventId",
          "type": "uint256"
        },
        {
          "internalType": "uint256",
          "name": "zoneId",
          "type": "uint256"
        }
      ],
      "name": "getZoneCapacity",
      "outputs": [
        {
          "internalType": "uint256",
          "name": "",
          "type": "uint256"
        }
      ],
      "stateMutability": "view",
      "type": "function"
    },
    {
      "inputs": [
        {
          "internalType": "uint256",
          "name": "eventId",
          "type": "uint256"
        }
      ],
      "name": "getZoneCount",
      "outputs": [
        {
          "internalType": "uint256",
          "name": "",
          "type": "uint256"
        }
      ],
      "stateMutability": "view",
      "type": "function"
    },
    {
      "inputs": [
        {
          "internalType": "uint256",
          "name": "eventId",
          "type": "uint256"
        },
        {
          "internalType": "uint256",
          "name": "zoneId",
          "type": "uint256"
        }
      ],
      "name": "getZonePrice",
      "outputs": [
        {
          "internalType": "uint256",
          "name": "",
          "type": "uint256"
        }
      ],
      "stateMutability": "view",
      "type": "function"
    },
    {
      "inputs": [
        {
          "internalType": "uint256",
          "name": "eventId",
          "type": "uint256"
        }
      ],
      "name": "hasEventConcluded",
      "outputs": [
        {
          "internalType": "bool",
          "name": "",
          "type": "bool"
        }
      ],
      "stateMutability": "view",
      "type": "function"
    },
    {
      "inputs": [
        {
          "internalType": "uint256",
          "name": "eventId",
          "type": "uint256"
        },
        {
          "internalType": "address",
          "name": "user",
          "type": "address"
        }
      ],
      "name": "hasTicket",
      "outputs": [
        {
          "internalType": "bool",
          "name": "",
          "type": "bool"
        }
      ],
      "stateMutability": "view",
      "type": "function"
    },
    {
      "inputs": [],
      "name": "owner",
      "outputs": [
        {
          "internalType": "address",
          "name": "",
          "type": "address"
        }
      ],
      "stateMutability": "view",
      "type": "function"
    },
    {
      "inputs": [],
      "name": "pause",
      "outputs": [],
      "stateMutability": "nonpayable",
      "type": "function"
    },
    {
      "inputs": [],
      "name": "paused",
      "outputs": [
        {
          "internalType": "bool",
          "name": "",
          "type": "bool"
        }
      ],
      "stateMutability": "view",
      "type": "function"
    },
    {
      "inputs": [
        {
          "internalType": "uint256",
          "name": "eventId",
          "type": "uint256"
        },
        {
          "internalType": "uint256",
          "name": "zoneId",
          "type": "uint256"
        }
      ],
      "name": "purchaseTicket",
      "outputs": [],
      "stateMutability": "payable",
      "type": "function"
    },
    {
      "inputs": [],
      "name": "refundEscrow",
      "outputs": [
        {
          "internalType": "contract IRefundEscrow",
          "name": "",
          "type": "address"
        }
      ],
      "stateMutability": "view",
      "type": "function"
    },
    {
      "inputs": [],
      "name": "renounceOwnership",
      "outputs": [],
      "stateMutability": "nonpayable",
      "type": "function"
    },
    {
      "inputs": [
        {
          "internalType": "address",
          "name": "newEscrow",
          "type": "address"
        }
      ],
      "name": "setRefundEscrow",
      "outputs": [],
      "stateMutability": "nonpayable",
      "type": "function"
    },
    {
      "inputs": [
        {
          "internalType": "address",
          "name": "newOwner",
          "type": "address"
        }
      ],
      "name": "transferOwnership",
      "outputs": [],
      "stateMutability": "nonpayable",
      "type": "function"
    },
    {
      "inputs": [],
      "name": "unpause",
      "outputs": [],
      "stateMutability": "nonpayable",
      "type": "function"
    },
    {
      "inputs": [
        {
          "internalType": "uint256",
          "name": "eventId",
          "type": "uint256"
        }
      ],
      "name": "withdrawEventRevenue",
      "outputs": [],
      "stateMutability": "nonpayable",
      "type": "function"
    },
    {
      "stateMutability": "payable",
      "type": "receive"
    }
  ],
  "bytecode": "0x6080806040523461008d5733156100775760008054336001600160a01b031982168117835560405192916001600160a01b03167f8be0079c531659141344cd1fd0a4f28419497f9722a3daafe3b4186f6b6457e08380a36001805560ff196002541660025580600355600455611ba290816100938239f35b631e4fbdf760e01b815260006004820152602490fd5b600080fdfe608080604052600436101561001d575b50361561001b57600080fd5b005b600090813560e01c908163155482321461181b575080633f4ba83a146117b05780633f69babd146115a1578063455b848f146114f957806346eff867146114465780634843d2b1146113d15780634be91944146113a85780634cbd6fc614611360578063516ceac8146112fa578063524c15a2146112a65780635a45a31a146112435780635c975abb146112205780636816aa7d146112025780636d1884e014611064578063715018a61461100a5780638456cb5914610faf5780638da5cb5b14610f8857806392a57fca14610f6a578063ad1de32314610f20578063b6d9e86814610cee578063bdbbb0cb1461084b578063d88a1498146107fe578063efdf49d7146101c05763f2fde38b0361000f57346101bd5760203660031901126101bd57610147611836565b61014f6119a9565b6001600160a01b039081169081156101a457600054826bffffffffffffffffffffffff60a01b821617600055167f8be0079c531659141344cd1fd0a4f28419497f9722a3daafe3b4186f6b6457e0600080a380f35b604051631e4fbdf760e01b815260048101849052602490fd5b80fd5b50346101bd5760a03660031901126101bd5760043567ffffffffffffffff81116107f657366023820112156107f657818160040135916101ff83611926565b9261020d6040519485611904565b80845236602482840101116107fa5780602460209301838601378301015260643567ffffffffffffffff81116107fa5761024b903690600401611942565b9160843567ffffffffffffffff81116107f65761026c903690600401611942565b90610275611a48565b8251156107b15762015180420180421161079d57602435111561073e5783518251036106d3578351156106825760443515610631576102b56003546119d5565b806003558451604051906102c8826118e8565b8582526024356020830152604435604083015233606083015283608083015260a082015281835260066020526040832090805180519067ffffffffffffffff821161061d5761031784546119e4565b601f81116105dc575b50602090601f83116001146105735791806004949260a0948992610568575b50508160011b916000199060031b1c19161784555b602081015160018501556040810151600285015560038401600180841b0360608301511681549060ff851b60808501511515861b16916affffffffffffffffffffff60a81b16171790550151910155815b8551811015610504576103b88187611a1e565b51156104af576044356103cb8286611a1e565b511061044457806103df61043f9288611a1e565b5160026103ec8388611a1e565b516103f7848b611a1e565b519060405193610406856118cc565b845260208401908152604084019182528688526007602052604088208589526020526040882093518455516001840155519101556119d5565b6103a5565b60405162461bcd60e51b815260206004820152603a60248201527f5a6f6e65207072696365206d7573742062652067726561746572207468616e2060448201527f6f7220657175616c20746f2074686520626173652070726963650000000000006064820152608490fd5b60405162461bcd60e51b815260206004820152602760248201527f5a6f6e65206361706163697479206d7573742062652067726561746572207468604482015266616e207a65726f60c81b6064820152608490fd5b50807f9c2f02f9bc3109d6ef9e6ddb6bd47137ccc8e9deabc67b747c58342a70d9e2c86105508660209560408a5191868152600a89522055604051918291606083526060830190611862565b602435878301523360408301520390a2604051908152f35b01519050388061033f565b848752602087209190601f198416885b8181106105c4575092600192859260a09660049896106105ab575b505050811b018455610354565b015160001960f88460031b161c1916905538808061059e565b92936020600181928786015181550195019301610583565b84875260208720601f840160051c810160208510610616575b601f830160051c8201811061060b575050610320565b8881556001016105f5565b50806105f5565b634e487b7160e01b86526041600452602486fd5b60405162461bcd60e51b8152602060048201526024808201527f42617365207072696365206d7573742062652067726561746572207468616e206044820152637a65726f60e01b6064820152608490fd5b60405162461bcd60e51b815260206004820152602360248201527f4174206c65617374206f6e65207a6f6e65206d757374206265207370656369666044820152621a595960ea1b6064820152608490fd5b60405162461bcd60e51b815260206004820152603b60248201527f5a6f6e65206361706163697469657320616e642070726963657320617272617960448201527f73206d7573742068617665207468652073616d65206c656e67746800000000006064820152608490fd5b60405162461bcd60e51b815260206004820152603160248201527f4576656e742064617465206d757374206265206174206c65617374206f6e652060448201527064617920696e207468652066757475726560781b6064820152608490fd5b634e487b7160e01b82526011600452602482fd5b60405162461bcd60e51b815260206004820152601a60248201527f4576656e74206e616d652063616e6e6f7420626520656d7074790000000000006044820152606490fd5b5080fd5b8280fd5b50346101bd5760203660031901126101bd576001604060209260043560035481111580610842575b61082f90611a66565b8152600684522001544211604051908152f35b50801515610826565b506108553661184c565b9061085e611b49565b610866611a48565b60035481111580610ce5575b61087b90611a66565b808352602091600683526040842060ff600382015460a01c16610c8a576001810154421015610c1f57828552600884526040852033600052845260ff60406000205416610bbd5760046108d19101548210611ab2565b8184526007835260408420908452825260408320916002830192835415610b675760010180543410610b0f576109086004546119d5565b938460045580548015610afb5760001901905582855260088252604085203360005282526040600020600160ff1982541617905580546005810281810460051482151715610afb57606461095e91048092611b0c565b918487526009845260408720805490848201809211610ae557558680808060018060a01b0395868254165af1610992611b19565b5015610aa0579086929154803411610a41575b5060055416806109e3575b5050507f94c5953e15f54d38b82a662bdd5739fc91af3a23d3ef7e67269dfaeee71a813c90604051338152a36001805580f35b803b156107fa5782906044604051809481936326f71c9f60e21b83528960048401528a60248401525af18015610a3657610a1e575b806109b0565b610a27906118a2565b610a32578338610a18565b8380fd5b6040513d84823e3d90fd5b928080610a518194959634611b0c565b335af1610a5c611b19565b5015610a6b57908591386109a5565b60405162461bcd60e51b815260048101849052600d60248201526c1499599d5b990819985a5b1959609a1b6044820152606490fd5b60405162461bcd60e51b815260048101859052601c60248201527f506c6174666f726d20666565207472616e73666572206661696c6564000000006044820152606490fd5b634e487b7160e01b600052601160045260246000fd5b634e487b7160e01b87526011600452602487fd5b60405162461bcd60e51b815260048101839052602a60248201527f5061796d656e7420616d6f756e74206d75737420636f76657220746865207469604482015269636b657420707269636560b01b6064820152608490fd5b60405162461bcd60e51b815260048101839052602860248201527f4e6f20736561747320617661696c61626c6520696e2074686520737065636966604482015267696564207a6f6e6560c01b6064820152608490fd5b60405162461bcd60e51b815260048101859052603460248201527f43616c6c65722068617320616c726561647920707572636861736564206120746044820152731a58dad95d08199bdc881d1a1a5cc8195d995b9d60621b6064820152608490fd5b60405162461bcd60e51b815260048101859052603e60248201527f43616e6e6f74207075726368617365207469636b65747320666f7220616e206560448201527f76656e7420746861742068617320616c7265616479206f6363757272656400006064820152608490fd5b60405162461bcd60e51b815260048101859052602d60248201527f43616e6e6f74207075726368617365207469636b65747320666f72206120636160448201526c1b98d95b1b195908195d995b9d609a1b6064820152608490fd5b50801515610872565b50346101bd576020806003193601126107f657600435610d0c611b49565b60035481111580610f17575b610d2190611a66565b808352600682526040832060038101546001600160a01b03163303610ec85760010154421115610e5d57808352600982526040832054918215610e0d57818452600981528360408120558380808086335af1610d7b611b19565b5015610db3577f841fbab03327efe47fb7d133055c9aa87df38ff76b5919d1c190e0067c5e34b3906040519384523393a36001805580f35b6084906040519062461bcd60e51b82526004820152602d60248201527f5472616e73666572206f66206576656e7420726576656e756520746f206f726760448201526c185b9a5e995c8819985a5b1959609a1b6064820152fd5b6084906040519062461bcd60e51b82526004820152602360248201527f4e6f20726576656e756520617661696c61626c6520666f7220776974686472616044820152621dd85b60ea1b6064820152fd5b60405162461bcd60e51b815260048101839052603d60248201527f4576656e7420726576656e75652063616e206f6e6c792062652077697468647260448201527f61776e20616674657220746865206576656e742068617320656e6465640000006064820152608490fd5b60405162461bcd60e51b815260048101849052602160248201527f43616c6c6572206973206e6f7420746865206576656e74206f7267616e697a656044820152603960f91b6064820152608490fd5b50801515610d18565b50346101bd5760203660031901126101bd5760046040602092823560035481111580610f61575b610f5090611a66565b815260068452200154604051908152f35b50801515610f47565b50346101bd57806003193601126101bd576020604051621275008152f35b50346101bd57806003193601126101bd57546040516001600160a01b039091168152602090f35b50346101bd57806003193601126101bd57610fc86119a9565b610fd0611a48565b600160ff1960025416176002557f62e78cea01bee320cd4e420270b5ea74000d11b0c9f74754ebdbfc544b05a2586020604051338152a180f35b50346101bd57806003193601126101bd576110236119a9565b600080546001600160a01b0319811682556001600160a01b03167f8be0079c531659141344cd1fd0a4f28419497f9722a3daafe3b4186f6b6457e08280a380f35b50346101bd576020806003193601126107f6576004358260a0604051611089816118e8565b6060815282858201528260408201528260608201528260808201520152600354811115806111f9575b6110bb90611a66565b825260068152604082209060018083015491600284015490600385015491600486015493604051966110ec886118e8565b60405191898254926110fd846119e4565b808652938381169081156111d6575060011461119e575b505050506111268160c0990382611904565b865281860194855260408601908152606086019061117860018060a01b0393848616845260ff60808a019660a01c161515865260a08901968752604051998a99828b5251918a015260e0890190611862565b955160408801525160608701525116608085015251151560a08401525160c08301520390f35b90809b5052848a205b828b106111c357505050611126818460c09a8201019938611114565b8054848c018701529985019981016111a7565b60ff19168887015250505050151560051b8101830197506111268160c038611114565b508015156110b2565b50346101bd57806003193601126101bd576020604051620151808152f35b50346101bd57806003193601126101bd57602060ff600254166040519015158152f35b50346101bd5760406020916112573661184c565b906003548111158061129d575b61126d90611a66565b80835260068552611285600485852001548310611ab2565b82526007845282822090825283522054604051908152f35b50801515611264565b50346101bd5760203660031901126101bd57602090600435600354811115806112f1575b6112d390611a66565b8152600682526003604060018060a01b039220015416604051908152f35b508015156112ca565b50346101bd57600160406020926113103661184c565b9060035481111580611357575b61132690611a66565b8083526006865261133e600485852001548310611ab2565b8252600785528282209082528452200154604051908152f35b5080151561131d565b50346101bd5760203660031901126101bd5760406020916004356003548111158061139f575b61138f90611a66565b8152600983522054604051908152f35b50801515611386565b50346101bd57806003193601126101bd576005546040516001600160a01b039091168152602090f35b50346101bd5760403660031901126101bd576024356001600160a01b03811691600435918390036114415760409160035481111580611438575b61141490611a66565b815260086020522090600052602052602060ff604060002054166040519015158152f35b5080151561140b565b600080fd5b50346101bd57606090604061145a3661184c565b82519391611467856118cc565b828552828460209682888201520152600354811115806114f0575b61148b90611a66565b808352600685526114a3600485852001548310611ab2565b82526007845282822090825283522090604051906114c0826118cc565b82549283835260406002600183015492848601938452015493019283526040519384525190830152516040820152f35b50801515611482565b50346101bd5760203660031901126101bd57611513611836565b61151b6119a9565b6001600160a01b0316801561156357600580546001600160a01b031916821790557fea7e8fdf33d9a7d6d7dd09ddc69d89b8eb6f262d7eb9ae76a2470e3c4cfbc0c08280a280f35b60405162461bcd60e51b8152602060048201526016602482015275496e76616c696420657363726f77206164647265737360501b6044820152606490fd5b50346101bd576020806003193601126107f6576004356115bf611a48565b600354811115806117a7575b6115d490611a66565b80835260068252604083206003810180546001600160a01b039491929091908583163314801561179b575b156117435760ff8360a01c16611700576001015442116116a3575060ff60a01b1916600160a01b17905560405191839190817fdc3cb569b066460f4a22dffa05317bdcce5d3826382ed49a21f13e5fa2063d398480a2600554169081611663578280f35b813b156107fa5783838193602493633f69babd60e01b845260048401525af18015610a3657611694575b8181808280f35b61169d906118a2565b3861168d565b6084906040519062461bcd60e51b82526004820152603060248201527f43616e6e6f742063616e63656c20616e206576656e742074686174206861732060448201526f185b1c9958591e481bd8d8dd5c9c995960821b6064820152fd5b6064826040519062461bcd60e51b825280600483015260248201527f4576656e742068617320616c7265616479206265656e2063616e63656c6c65646044820152fd5b60405162461bcd60e51b815260048101839052602a60248201527f43616c6c6572206973206e6f7420746865206576656e74206f7267616e697a65604482015269391037b91037bbb732b960b11b6064820152608490fd5b508587541633146115ff565b508015156115cb565b50346101bd57806003193601126101bd576117c96119a9565b60025460ff8116156118095760ff19166002557f5db9ee0a495bf2e6ff9c91a7834c1ba4fdd244a5e8aa4e537bd38aeae4b073aa6020604051338152a180f35b604051638dfc202b60e01b8152600490fd5b9050346107f657816003193601126107f65780600560209252f35b600435906001600160a01b038216820361144157565b6040906003190112611441576004359060243590565b919082519283825260005b84811061188e575050826000602080949584010152601f8019910116010190565b60208183018101518483018201520161186d565b67ffffffffffffffff81116118b657604052565b634e487b7160e01b600052604160045260246000fd5b6060810190811067ffffffffffffffff8211176118b657604052565b60c0810190811067ffffffffffffffff8211176118b657604052565b90601f8019910116810190811067ffffffffffffffff8211176118b657604052565b67ffffffffffffffff81116118b657601f01601f191660200190565b9080601f830112156114415781359067ffffffffffffffff82116118b6578160051b6040519360209361197785840187611904565b85528380860192820101928311611441578301905b82821061199a575050505090565b8135815290830190830161198c565b6000546001600160a01b031633036119bd57565b60405163118cdaa760e01b8152336004820152602490fd5b6000198114610ae55760010190565b90600182811c92168015611a14575b60208310146119fe57565b634e487b7160e01b600052602260045260246000fd5b91607f16916119f3565b8051821015611a325760209160051b010190565b634e487b7160e01b600052603260045260246000fd5b60ff60025416611a5457565b60405163d93c066560e01b8152600490fd5b15611a6d57565b60405162461bcd60e51b815260206004820152601760248201527f4576656e7420494420646f6573206e6f742065786973740000000000000000006044820152606490fd5b15611ab957565b60405162461bcd60e51b815260206004820152602560248201527f5a6f6e6520494420646f6573206e6f7420657869737420666f72207468697320604482015264195d995b9d60da1b6064820152608490fd5b91908203918211610ae557565b3d15611b44573d90611b2a82611926565b91611b386040519384611904565b82523d6000602084013e565b606090565b600260015414611b5a576002600155565b604051633ee5aeb560e01b8152600490fdfea2646970667358221220553002e8a76990c1cce279de48fc187d089094d3b7beaa78ae8a83419caad58d64736f6c63430008140033",
  "linkReferences": {},
  "deployedLinkReferences": {}
}