{
  "_format": "hh-sol-artifact-1",
  "contractName": "EventManager",
  "sourceName": "contracts/core/EventManager.sol",
  "abi": [
    {
      "inputs": [],
      "stateMutability": "nonpayable",
      "type": "constructor"
    },
    {
      "inputs": [],
      "name": "EnforcedPause",
      "type": "error"
    },
    {
      "inputs": [],
      "name": "ExpectedPause",
      "type": "error"
    },
    {
      "inputs": [
        {
          "internalType": "address",
          "name": "owner",
          "type": "address"
        }
      ],
      "name": "OwnableInvalidOwner",
      "type": "error"
    },
    {
      "inputs": [
        {
          "internalType": "address",
          "name": "account",
          "type": "address"
        }
      ],
      "name": "OwnableUnauthorizedAccount",
      "type": "error"
    },
    {
      "inputs": [],
      "name": "ReentrancyGuardReentrantCall",
      "type": "error"
    },
    {
      "anonymous": false,
      "inputs": [
        {
          "indexed": true,
          "internalType": "uint256",
          "name": "eventId",
          "type": "uint256"
        }
      ],
      "name": "EventCancelled",
      "type": "event"
    },
    {
      "anonymous": false,
      "inputs": [
        {
          "indexed": true,
          "internalType": "uint256",
          "name": "eventId",
          "type": "uint256"
        },
        {
          "indexed": false,
          "internalType": "string",
          "name": "name",
          "type": "string"
        },
        {
          "indexed": false,
          "internalType": "uint256",
          "name": "date",
          "type": "uint256"
        },
        {
          "indexed": false,
          "internalType": "address",
          "name": "organizer",
          "type": "address"
        }
      ],
      "name": "EventCreated",
      "type": "event"
    },
    {
      "anonymous": false,
      "inputs": [
        {
          "indexed": true,
          "internalType": "address",
          "name": "previousOwner",
          "type": "address"
        },
        {
          "indexed": true,
          "internalType": "address",
          "name": "newOwner",
          "type": "address"
        }
      ],
      "name": "OwnershipTransferred",
      "type": "event"
    },
    {
      "anonymous": false,
      "inputs": [
        {
          "indexed": false,
          "internalType": "address",
          "name": "account",
          "type": "address"
        }
      ],
      "name": "Paused",
      "type": "event"
    },
    {
      "anonymous": false,
      "inputs": [
        {
          "indexed": true,
          "internalType": "address",
          "name": "newEscrow",
          "type": "address"
        }
      ],
      "name": "RefundEscrowUpdated",
      "type": "event"
    },
    {
      "anonymous": false,
      "inputs": [
        {
          "indexed": true,
          "internalType": "uint256",
          "name": "eventId",
          "type": "uint256"
        },
        {
          "indexed": true,
          "internalType": "address",
          "name": "organizer",
          "type": "address"
        },
        {
          "indexed": false,
          "internalType": "uint256",
          "name": "amount",
          "type": "uint256"
        }
      ],
      "name": "RevenueWithdrawn",
      "type": "event"
    },
    {
      "anonymous": false,
      "inputs": [
        {
          "indexed": true,
          "internalType": "uint256",
          "name": "eventId",
          "type": "uint256"
        },
        {
          "indexed": true,
          "internalType": "uint256",
          "name": "ticketId",
          "type": "uint256"
        },
        {
          "indexed": false,
          "internalType": "address",
          "name": "buyer",
          "type": "address"
        }
      ],
      "name": "TicketPurchased",
      "type": "event"
    },
    {
      "anonymous": false,
      "inputs": [
        {
          "indexed": false,
          "internalType": "address",
          "name": "account",
          "type": "address"
        }
      ],
      "name": "Unpaused",
      "type": "event"
    },
    {
      "inputs": [],
      "name": "MIN_EVENT_DELAY",
      "outputs": [
        {
          "internalType": "uint256",
          "name": "",
          "type": "uint256"
        }
      ],
      "stateMutability": "view",
      "type": "function"
    },
    {
      "inputs": [],
      "name": "PLATFORM_FEE_PERCENTAGE",
      "outputs": [
        {
          "internalType": "uint256",
          "name": "",
          "type": "uint256"
        }
      ],
      "stateMutability": "view",
      "type": "function"
    },
    {
      "inputs": [
        {
          "internalType": "uint256",
          "name": "eventId",
          "type": "uint256"
        }
      ],
      "name": "cancelEvent",
      "outputs": [],
      "stateMutability": "nonpayable",
      "type": "function"
    },
    {
      "inputs": [
        {
          "internalType": "string",
          "name": "name",
          "type": "string"
        },
        {
          "internalType": "uint256",
          "name": "date",
          "type": "uint256"
        },
        {
          "internalType": "uint256",
          "name": "basePrice",
          "type": "uint256"
        },
        {
          "internalType": "uint256[]",
          "name": "zoneCapacities",
          "type": "uint256[]"
        },
        {
          "internalType": "uint256[]",
          "name": "zonePrices",
          "type": "uint256[]"
        }
      ],
      "name": "createEvent",
      "outputs": [
        {
          "internalType": "uint256",
          "name": "",
          "type": "uint256"
        }
      ],
      "stateMutability": "nonpayable",
      "type": "function"
    },
    {
      "inputs": [
        {
          "internalType": "uint256",
          "name": "eventId",
          "type": "uint256"
        }
      ],
      "name": "getEvent",
      "outputs": [
        {
          "components": [
            {
              "internalType": "string",
              "name": "name",
              "type": "string"
            },
            {
              "internalType": "uint256",
              "name": "date",
              "type": "uint256"
            },
            {
              "internalType": "uint256",
              "name": "basePrice",
              "type": "uint256"
            },
            {
              "internalType": "address",
              "name": "organizer",
              "type": "address"
            },
            {
              "internalType": "bool",
              "name": "cancelled",
              "type": "bool"
            },
            {
              "internalType": "uint256",
              "name": "zoneCount",
              "type": "uint256"
            }
          ],
          "internalType": "struct IEventManager.EventView",
          "name": "",
          "type": "tuple"
        }
      ],
      "stateMutability": "view",
      "type": "function"
    },
    {
      "inputs": [
        {
          "internalType": "uint256",
          "name": "eventId",
          "type": "uint256"
        }
      ],
      "name": "getEventData",
      "outputs": [
        {
          "internalType": "string",
          "name": "name",
          "type": "string"
        },
        {
          "internalType": "uint256",
          "name": "date",
          "type": "uint256"
        },
        {
          "internalType": "uint256",
          "name": "basePrice",
          "type": "uint256"
        },
        {
          "internalType": "address",
          "name": "organizer",
          "type": "address"
        },
        {
          "internalType": "bool",
          "name": "cancelled",
          "type": "bool"
        },
        {
          "internalType": "uint256",
          "name": "zoneCount",
          "type": "uint256"
        }
      ],
      "stateMutability": "view",
      "type": "function"
    },
    {
      "inputs": [
        {
          "internalType": "uint256",
          "name": "eventId",
          "type": "uint256"
        }
      ],
      "name": "getEventRevenue",
      "outputs": [
        {
          "internalType": "uint256",
          "name": "",
          "type": "uint256"
        }
      ],
      "stateMutability": "view",
      "type": "function"
    },
    {
      "inputs": [
        {
          "internalType": "uint256",
          "name": "eventId",
          "type": "uint256"
        }
      ],
      "name": "getOrganizer",
      "outputs": [
        {
          "internalType": "address",
          "name": "",
          "type": "address"
        }
      ],
      "stateMutability": "view",
      "type": "function"
    },
    {
      "inputs": [
        {
          "internalType": "uint256",
          "name": "eventId",
          "type": "uint256"
        },
        {
          "internalType": "uint256",
          "name": "zoneId",
          "type": "uint256"
        }
      ],
      "name": "getZone",
      "outputs": [
        {
          "components": [
            {
              "internalType": "uint256",
              "name": "capacity",
              "type": "uint256"
            },
            {
              "internalType": "uint256",
              "name": "price",
              "type": "uint256"
            },
            {
              "internalType": "uint256",
              "name": "availableSeats",
              "type": "uint256"
            }
          ],
          "internalType": "struct IEventManager.Zone",
          "name": "",
          "type": "tuple"
        }
      ],
      "stateMutability": "view",
      "type": "function"
    },
    {
      "inputs": [
        {
          "internalType": "uint256",
          "name": "eventId",
          "type": "uint256"
        },
        {
          "internalType": "uint256",
          "name": "zoneId",
          "type": "uint256"
        }
      ],
      "name": "getZoneCapacity",
      "outputs": [
        {
          "internalType": "uint256",
          "name": "",
          "type": "uint256"
        }
      ],
      "stateMutability": "view",
      "type": "function"
    },
    {
      "inputs": [
        {
          "internalType": "uint256",
          "name": "eventId",
          "type": "uint256"
        }
      ],
      "name": "getZoneCount",
      "outputs": [
        {
          "internalType": "uint256",
          "name": "",
          "type": "uint256"
        }
      ],
      "stateMutability": "view",
      "type": "function"
    },
    {
      "inputs": [
        {
          "internalType": "uint256",
          "name": "eventId",
          "type": "uint256"
        },
        {
          "internalType": "uint256",
          "name": "zoneId",
          "type": "uint256"
        }
      ],
      "name": "getZonePrice",
      "outputs": [
        {
          "internalType": "uint256",
          "name": "",
          "type": "uint256"
        }
      ],
      "stateMutability": "view",
      "type": "function"
    },
    {
      "inputs": [
        {
          "internalType": "uint256",
          "name": "eventId",
          "type": "uint256"
        }
      ],
      "name": "hasEventConcluded",
      "outputs": [
        {
          "internalType": "bool",
          "name": "",
          "type": "bool"
        }
      ],
      "stateMutability": "view",
      "type": "function"
    },
    {
      "inputs": [
        {
          "internalType": "uint256",
          "name": "eventId",
          "type": "uint256"
        },
        {
          "internalType": "address",
          "name": "user",
          "type": "address"
        }
      ],
      "name": "hasTicket",
      "outputs": [
        {
          "internalType": "bool",
          "name": "",
          "type": "bool"
        }
      ],
      "stateMutability": "view",
      "type": "function"
    },
    {
      "inputs": [],
      "name": "owner",
      "outputs": [
        {
          "internalType": "address",
          "name": "",
          "type": "address"
        }
      ],
      "stateMutability": "view",
      "type": "function"
    },
    {
      "inputs": [],
      "name": "pause",
      "outputs": [],
      "stateMutability": "nonpayable",
      "type": "function"
    },
    {
      "inputs": [],
      "name": "paused",
      "outputs": [
        {
          "internalType": "bool",
          "name": "",
          "type": "bool"
        }
      ],
      "stateMutability": "view",
      "type": "function"
    },
    {
      "inputs": [
        {
          "internalType": "uint256",
          "name": "eventId",
          "type": "uint256"
        },
        {
          "internalType": "uint256",
          "name": "zoneId",
          "type": "uint256"
        }
      ],
      "name": "purchaseTicket",
      "outputs": [],
      "stateMutability": "payable",
      "type": "function"
    },
    {
      "inputs": [],
      "name": "refundEscrow",
      "outputs": [
        {
          "internalType": "contract IRefundEscrow",
          "name": "",
          "type": "address"
        }
      ],
      "stateMutability": "view",
      "type": "function"
    },
    {
      "inputs": [],
      "name": "renounceOwnership",
      "outputs": [],
      "stateMutability": "nonpayable",
      "type": "function"
    },
    {
      "inputs": [
        {
          "internalType": "address",
          "name": "newEscrow",
          "type": "address"
        }
      ],
      "name": "setRefundEscrow",
      "outputs": [],
      "stateMutability": "nonpayable",
      "type": "function"
    },
    {
      "inputs": [
        {
          "internalType": "address",
          "name": "newOwner",
          "type": "address"
        }
      ],
      "name": "transferOwnership",
      "outputs": [],
      "stateMutability": "nonpayable",
      "type": "function"
    },
    {
      "inputs": [],
      "name": "unpause",
      "outputs": [],
      "stateMutability": "nonpayable",
      "type": "function"
    },
    {
      "inputs": [
        {
          "internalType": "uint256",
          "name": "eventId",
          "type": "uint256"
        }
      ],
      "name": "withdrawEventRevenue",
      "outputs": [],
      "stateMutability": "nonpayable",
      "type": "function"
    },
    {
      "stateMutability": "payable",
      "type": "receive"
    }
  ],
  "bytecode": "0x6080806040523461008d5733156100775760008054336001600160a01b031982168117835560405192916001600160a01b03167f8be0079c531659141344cd1fd0a4f28419497f9722a3daafe3b4186f6b6457e08380a36001805560ff196002541660025580600355600455611a8590816100938239f35b631e4fbdf760e01b815260006004820152602490fd5b600080fdfe608080604052600436101561001d575b50361561001b57600080fd5b005b600090813560e01c9081631554823214611600575080633f4ba83a146115955780633f69babd146113cc5780634392bb6814611329578063455b848f1461128157806346eff867146111ce5780634843d2b1146111595780634be91944146111305780634cbd6fc6146110e8578063516ceac814611082578063524c15a21461102e5780635a45a31a14610fcb5780635c975abb14610fa85780636816aa7d14610f8a5780636d1884e014610e7a578063715018a614610e205780638456cb5914610dc55780638da5cb5b14610d9e578063ad1de32314610d54578063b6d9e86814610b9a578063bdbbb0cb14610807578063d88a1498146107ba578063efdf49d7146101c05763f2fde38b0361000f57346101bd5760203660031901126101bd5761014761165b565b61014f61177a565b6001600160a01b039081169081156101a457600054826bffffffffffffffffffffffff60a01b821617600055167f8be0079c531659141344cd1fd0a4f28419497f9722a3daafe3b4186f6b6457e0600080a380f35b604051631e4fbdf760e01b815260048101849052602490fd5b80fd5b50346101bd5760a03660031901126101bd5760043567ffffffffffffffff81116107b257366023820112156107b257818160040135916101ff836116f7565b9261020d60405194856116d5565b80845236602482840101116107b65780602460209301838601378301015260643567ffffffffffffffff81116107b65761024b903690600401611713565b9160843567ffffffffffffffff81116107b25761026c903690600401611713565b90610275611819565b82511561076d576201518042018042116107595760243511156106fa5783518251036106a05783511561065b576044351561060a576102b56003546117a6565b806003558451604051906102c8826116b9565b8582526024356020830152604435604083015233606083015283608083015260a082015281835260066020526040832090805180519067ffffffffffffffff82116105f65761031784546117b5565b601f81116105b5575b50602090601f831160011461054c5791806004949260a0948992610541575b50508160011b916000199060031b1c19161784555b602081015160018501556040810151600285015560038401600180841b0360608301511681549060ff851b60808501511515861b16916affffffffffffffffffffff60a81b16171790550151910155815b85518110156104dd576103b881876117ef565b5115610488576044356103cb82866117ef565b511061044457806103df61043f92886117ef565b5160026103ec83886117ef565b516103f7848b6117ef565b51906040519361040685611687565b845260208401908152604084019182528688526007602052604088208589526020526040882093518455516001840155519101556117a6565b6103a5565b606460405162461bcd60e51b815260206004820152602060248201527f5a6f6e65207072696365206d757374206265203e3d20626173652070726963656044820152fd5b60405162461bcd60e51b815260206004820152602760248201527f5a6f6e65206361706163697479206d7573742062652067726561746572207468604482015266616e207a65726f60c81b6064820152608490fd5b50807f9c2f02f9bc3109d6ef9e6ddb6bd47137ccc8e9deabc67b747c58342a70d9e2c86105298660209560408a5191868152600a8952205560405191829160608352606083019061161b565b602435878301523360408301520390a2604051908152f35b01519050388061033f565b848752602087209190601f198416885b81811061059d575092600192859260a0966004989610610584575b505050811b018455610354565b015160001960f88460031b161c19169055388080610577565b9293602060018192878601518155019501930161055c565b84875260208720601f840160051c8101602085106105ef575b601f830160051c820181106105e4575050610320565b8881556001016105ce565b50806105ce565b634e487b7160e01b86526041600452602486fd5b60405162461bcd60e51b8152602060048201526024808201527f42617365207072696365206d7573742062652067726561746572207468616e206044820152637a65726f60e01b6064820152608490fd5b60405162461bcd60e51b815260206004820152601a60248201527f4174206c65617374206f6e65207a6f6e652072657175697265640000000000006044820152606490fd5b60405162461bcd60e51b815260206004820152602c60248201527f5a6f6e65206361706163697469657320616e642070726963657320617272617960448201526b0e640daeae6e840dac2e8c6d60a31b6064820152608490fd5b60405162461bcd60e51b815260206004820152603160248201527f4576656e742064617465206d757374206265206174206c65617374206f6e652060448201527064617920696e207468652066757475726560781b6064820152608490fd5b634e487b7160e01b82526011600452602482fd5b60405162461bcd60e51b815260206004820152601a60248201527f4576656e74206e616d652063616e6e6f7420626520656d7074790000000000006044820152606490fd5b5080fd5b8280fd5b50346101bd5760203660031901126101bd5760016040602092600435600354811115806107fe575b6107eb90611837565b8152600684522001544211604051908152f35b508015156107e2565b5061081136611671565b9061081a611944565b610822611819565b60035481111580610b91575b610837906118c8565b808352602091600683526040842060ff600382015460a01c16610b5a5761086360018201544210611883565b828552600884526040852033600052845260ff60406000205416610b155760040154811015610ade578184526007835260408420908452825260408320916002830192835415610a995760010180543410610a5d576108c36004546117a6565b938460045580548015610a495760001901905582855260088252604085203360005282526040600020600160ff1982541617905580546005810281810460051482151715610a4957606461091991048092611907565b908487526009845260408720918254908101809111610a3357909155855486918291829182916001600160a01b03165af1610952611914565b50156109ee57849054803411610995575b50507f94c5953e15f54d38b82a662bdd5739fc91af3a23d3ef7e67269dfaeee71a813c90604051338152a36001805580f35b81806109a2819334611907565b335af16109ad611914565b50156109ba578338610963565b6064906040519062461bcd60e51b82526004820152600d60248201526c1499599d5b990819985a5b1959609a1b6044820152fd5b60405162461bcd60e51b815260048101839052601c60248201527f506c6174666f726d20666565207472616e73666572206661696c6564000000006044820152606490fd5b634e487b7160e01b600052601160045260246000fd5b634e487b7160e01b87526011600452602487fd5b60405162461bcd60e51b8152600481018390526014602482015273125b9cdd59999a58da595b9d081c185e5b595b9d60621b6044820152606490fd5b60405162461bcd60e51b815260048101839052601a60248201527f4e6f20736561747320617661696c61626c6520696e207a6f6e650000000000006044820152606490fd5b60405162461bcd60e51b815260048101849052600f60248201526e125b9d985b1a59081e9bdb99481251608a1b6044820152606490fd5b60405162461bcd60e51b815260048101859052601860248201527f416c726561647920707572636861736564207469636b657400000000000000006044820152606490fd5b60405162461bcd60e51b815260048101859052600f60248201526e115d995b9d0818d85b98d95b1b1959608a1b6044820152606490fd5b5080151561082e565b50346101bd576020806003193601126107b257600435610bb8611944565b60035481111580610d4b575b610bcd906118c8565b808352600682526040832060038101546001600160a01b03163303610d0f5760010154421115610cd457808352600982526040832054918215610ca357818452600981528360408120558380808086335af1610c27611914565b5015610c5f577f841fbab03327efe47fb7d133055c9aa87df38ff76b5919d1c190e0067c5e34b3906040519384523393a36001805580f35b6064906040519062461bcd60e51b82526004820152601c60248201527f5472616e7366657220746f206f7267616e697a6572206661696c6564000000006044820152fd5b6064906040519062461bcd60e51b82526004820152600a6024820152694e6f20726576656e756560b01b6044820152fd5b60405162461bcd60e51b8152600481018390526013602482015272115d995b9d081b9bdd08195b991959081e595d606a1b6044820152606490fd5b60405162461bcd60e51b815260048101849052601460248201527321b0b63632b9103737ba1037b933b0b734bd32b960611b6044820152606490fd5b50801515610bc4565b50346101bd5760203660031901126101bd5760046040602092823560035481111580610d95575b610d8490611837565b815260068452200154604051908152f35b50801515610d7b565b50346101bd57806003193601126101bd57546040516001600160a01b039091168152602090f35b50346101bd57806003193601126101bd57610dde61177a565b610de6611819565b600160ff1960025416176002557f62e78cea01bee320cd4e420270b5ea74000d11b0c9f74754ebdbfc544b05a2586020604051338152a180f35b50346101bd57806003193601126101bd57610e3961177a565b600080546001600160a01b0319811682556001600160a01b03167f8be0079c531659141344cd1fd0a4f28419497f9722a3daafe3b4186f6b6457e08280a380f35b50346101bd576020806003193601126107b257604060c0926004358160a08451610ea3816116b9565b6060815282878201528286820152826060820152826080820152015260035481111580610f81575b610ed490611837565b8152600683522090600182015490600283015490600384015490600485015492610f0960405196610f04886116b9565b611967565b8652818601948552604086019081526060860190610f5b60018060a01b0393848616845260ff60808a019660a01c161515865260a08901968752604051998a99828b5251918a015260e089019061161b565b955160408801525160608701525116608085015251151560a08401525160c08301520390f35b50801515610ecb565b50346101bd57806003193601126101bd576020604051620151808152f35b50346101bd57806003193601126101bd57602060ff600254166040519015158152f35b50346101bd576040602091610fdf36611671565b9060035481111580611025575b610ff590611837565b8083526006855261100d600485852001548310611a0d565b82526007845282822090825283522054604051908152f35b50801515610fec565b50346101bd5760203660031901126101bd5760209060043560035481111580611079575b61105b90611837565b8152600682526003604060018060a01b039220015416604051908152f35b50801515611052565b50346101bd576001604060209261109836611671565b90600354811115806110df575b6110ae90611837565b808352600686526110c6600485852001548310611a0d565b8252600785528282209082528452200154604051908152f35b508015156110a5565b50346101bd5760203660031901126101bd57604060209160043560035481111580611127575b61111790611837565b8152600983522054604051908152f35b5080151561110e565b50346101bd57806003193601126101bd576005546040516001600160a01b039091168152602090f35b50346101bd5760403660031901126101bd576024356001600160a01b03811691600435918390036111c957604091600354811115806111c0575b61119c90611837565b815260086020522090600052602052602060ff604060002054166040519015158152f35b50801515611193565b600080fd5b50346101bd5760609060406111e236611671565b825193916111ef85611687565b82855282846020968288820152015260035481111580611278575b61121390611837565b8083526006855261122b600485852001548310611a0d565b825260078452828220908252835220906040519061124882611687565b82549283835260406002600183015492848601938452015493019283526040519384525190830152516040820152f35b5080151561120a565b50346101bd5760203660031901126101bd5761129b61165b565b6112a361177a565b6001600160a01b031680156112eb57600580546001600160a01b031916821790557fea7e8fdf33d9a7d6d7dd09ddc69d89b8eb6f262d7eb9ae76a2470e3c4cfbc0c08280a280f35b60405162461bcd60e51b8152602060048201526016602482015275496e76616c696420657363726f77206164647265737360501b6044820152606490fd5b50346101bd5760203660031901126101bd57604061139691600435600354811115806113c3575b61135990611837565b8152600660205220600181015460028201549160ff6003820154611381600484015493611967565b9460405196879660c0885260c088019061161b565b946020870152604086015260018060a01b038116606086015260a01c161515608084015260a08301520390f35b50801515611350565b50346101bd5760203660031901126101bd576004356113e9611819565b6003548111158061158c575b6113fe90611837565b8082526006602052604082206003810180546001600160a01b0393919084811633148015611580575b1561153b5760ff8160a01c166114f657611448600187950154421115611883565b60ff60a01b1916600160a01b17905560405192817fdc3cb569b066460f4a22dffa05317bdcce5d3826382ed49a21f13e5fa2063d398480a260055416908161148e578280f35b813b156107b65783838193602493633f69babd60e01b845260048401525af180156114eb576114bf575b8181808280f35b67ffffffffffffffff81116114d757604052386114b8565b634e487b7160e01b82526041600452602482fd5b6040513d84823e3d90fd5b60405162461bcd60e51b815260206004820152601760248201527f4576656e7420616c72656164792063616e63656c6c65640000000000000000006044820152606490fd5b60405162461bcd60e51b815260206004820152601c60248201527f4e6f74206576656e74206f7267616e697a6572206f72206f776e6572000000006044820152606490fd5b50848654163314611427565b508015156113f5565b50346101bd57806003193601126101bd576115ae61177a565b60025460ff8116156115ee5760ff19166002557f5db9ee0a495bf2e6ff9c91a7834c1ba4fdd244a5e8aa4e537bd38aeae4b073aa6020604051338152a180f35b604051638dfc202b60e01b8152600490fd5b9050346107b257816003193601126107b25780600560209252f35b919082519283825260005b848110611647575050826000602080949584010152601f8019910116010190565b602081830181015184830182015201611626565b600435906001600160a01b03821682036111c957565b60409060031901126111c9576004359060243590565b6060810190811067ffffffffffffffff8211176116a357604052565b634e487b7160e01b600052604160045260246000fd5b60c0810190811067ffffffffffffffff8211176116a357604052565b90601f8019910116810190811067ffffffffffffffff8211176116a357604052565b67ffffffffffffffff81116116a357601f01601f191660200190565b9080601f830112156111c95781359067ffffffffffffffff82116116a3578160051b60405193602093611748858401876116d5565b855283808601928201019283116111c9578301905b82821061176b575050505090565b8135815290830190830161175d565b6000546001600160a01b0316330361178e57565b60405163118cdaa760e01b8152336004820152602490fd5b6000198114610a335760010190565b90600182811c921680156117e5575b60208310146117cf57565b634e487b7160e01b600052602260045260246000fd5b91607f16916117c4565b80518210156118035760209160051b010190565b634e487b7160e01b600052603260045260246000fd5b60ff6002541661182557565b60405163d93c066560e01b8152600490fd5b1561183e57565b60405162461bcd60e51b815260206004820152601760248201527f4576656e7420494420646f6573206e6f742065786973740000000000000000006044820152606490fd5b1561188a57565b60405162461bcd60e51b8152602060048201526016602482015275115d995b9d08185b1c9958591e481bd8d8dd5c9c995960521b6044820152606490fd5b156118cf57565b60405162461bcd60e51b815260206004820152601060248201526f125b9d985b1a5908195d995b9d08125160821b6044820152606490fd5b91908203918211610a3357565b3d1561193f573d90611925826116f7565b9161193360405193846116d5565b82523d6000602084013e565b606090565b600260015414611955576002600155565b604051633ee5aeb560e01b8152600490fd5b906040519182600082549261197b846117b5565b9081845260019485811690816000146119ea57506001146119a7575b50506119a5925003836116d5565b565b9093915060005260209081600020936000915b8183106119d25750506119a593508201013880611997565b855488840185015294850194879450918301916119ba565b9150506119a594506020925060ff191682840152151560051b8201013880611997565b15611a1457565b60405162461bcd60e51b8152602060048201526013602482015272169bdb9948191bd95cc81b9bdd08195e1a5cdd606a1b6044820152606490fdfea264697066735822122051e592fd5d446346cd1a5f802ddaed851e7fef7eb4e18defdd0a964fd7aa1b0164736f6c63430008140033",
  "linkReferences": {},
  "deployedLinkReferences": {}
}