{
  "_format": "hh-sol-artifact-1",
  "contractName": "EventManager",
  "sourceName": "contracts/core/EventManager.sol",
  "abi": [
    {
      "inputs": [],
      "stateMutability": "nonpayable",
      "type": "constructor"
    },
    {
      "inputs": [],
      "name": "EnforcedPause",
      "type": "error"
    },
    {
      "inputs": [],
      "name": "ExpectedPause",
      "type": "error"
    },
    {
      "inputs": [
        {
          "internalType": "address",
          "name": "owner",
          "type": "address"
        }
      ],
      "name": "OwnableInvalidOwner",
      "type": "error"
    },
    {
      "inputs": [
        {
          "internalType": "address",
          "name": "account",
          "type": "address"
        }
      ],
      "name": "OwnableUnauthorizedAccount",
      "type": "error"
    },
    {
      "inputs": [],
      "name": "ReentrancyGuardReentrantCall",
      "type": "error"
    },
    {
      "anonymous": false,
      "inputs": [
        {
          "indexed": true,
          "internalType": "uint256",
          "name": "eventId",
          "type": "uint256"
        }
      ],
      "name": "EventCancelled",
      "type": "event"
    },
    {
      "anonymous": false,
      "inputs": [
        {
          "indexed": true,
          "internalType": "uint256",
          "name": "eventId",
          "type": "uint256"
        },
        {
          "indexed": false,
          "internalType": "string",
          "name": "name",
          "type": "string"
        },
        {
          "indexed": false,
          "internalType": "uint256",
          "name": "date",
          "type": "uint256"
        },
        {
          "indexed": false,
          "internalType": "address",
          "name": "organizer",
          "type": "address"
        }
      ],
      "name": "EventCreated",
      "type": "event"
    },
    {
      "anonymous": false,
      "inputs": [
        {
          "indexed": true,
          "internalType": "address",
          "name": "previousOwner",
          "type": "address"
        },
        {
          "indexed": true,
          "internalType": "address",
          "name": "newOwner",
          "type": "address"
        }
      ],
      "name": "OwnershipTransferred",
      "type": "event"
    },
    {
      "anonymous": false,
      "inputs": [
        {
          "indexed": false,
          "internalType": "address",
          "name": "account",
          "type": "address"
        }
      ],
      "name": "Paused",
      "type": "event"
    },
    {
      "anonymous": false,
      "inputs": [
        {
          "indexed": true,
          "internalType": "address",
          "name": "newEscrow",
          "type": "address"
        }
      ],
      "name": "RefundEscrowUpdated",
      "type": "event"
    },
    {
      "anonymous": false,
      "inputs": [
        {
          "indexed": true,
          "internalType": "uint256",
          "name": "eventId",
          "type": "uint256"
        },
        {
          "indexed": true,
          "internalType": "address",
          "name": "organizer",
          "type": "address"
        },
        {
          "indexed": false,
          "internalType": "uint256",
          "name": "amount",
          "type": "uint256"
        }
      ],
      "name": "RevenueWithdrawn",
      "type": "event"
    },
    {
      "anonymous": false,
      "inputs": [
        {
          "indexed": true,
          "internalType": "uint256",
          "name": "eventId",
          "type": "uint256"
        },
        {
          "indexed": true,
          "internalType": "uint256",
          "name": "ticketId",
          "type": "uint256"
        },
        {
          "indexed": false,
          "internalType": "address",
          "name": "buyer",
          "type": "address"
        }
      ],
      "name": "TicketPurchased",
      "type": "event"
    },
    {
      "anonymous": false,
      "inputs": [
        {
          "indexed": false,
          "internalType": "address",
          "name": "account",
          "type": "address"
        }
      ],
      "name": "Unpaused",
      "type": "event"
    },
    {
      "inputs": [],
      "name": "CANCELLATION_WINDOW",
      "outputs": [
        {
          "internalType": "uint256",
          "name": "",
          "type": "uint256"
        }
      ],
      "stateMutability": "view",
      "type": "function"
    },
    {
      "inputs": [],
      "name": "MIN_EVENT_DELAY",
      "outputs": [
        {
          "internalType": "uint256",
          "name": "",
          "type": "uint256"
        }
      ],
      "stateMutability": "view",
      "type": "function"
    },
    {
      "inputs": [],
      "name": "PLATFORM_FEE_PERCENTAGE",
      "outputs": [
        {
          "internalType": "uint256",
          "name": "",
          "type": "uint256"
        }
      ],
      "stateMutability": "view",
      "type": "function"
    },
    {
      "inputs": [
        {
          "internalType": "uint256",
          "name": "eventId",
          "type": "uint256"
        }
      ],
      "name": "cancelEvent",
      "outputs": [],
      "stateMutability": "nonpayable",
      "type": "function"
    },
    {
      "inputs": [
        {
          "internalType": "string",
          "name": "name",
          "type": "string"
        },
        {
          "internalType": "uint256",
          "name": "date",
          "type": "uint256"
        },
        {
          "internalType": "uint256",
          "name": "basePrice",
          "type": "uint256"
        },
        {
          "internalType": "uint256[]",
          "name": "zoneCapacities",
          "type": "uint256[]"
        },
        {
          "internalType": "uint256[]",
          "name": "zonePrices",
          "type": "uint256[]"
        }
      ],
      "name": "createEvent",
      "outputs": [
        {
          "internalType": "uint256",
          "name": "",
          "type": "uint256"
        }
      ],
      "stateMutability": "nonpayable",
      "type": "function"
    },
    {
      "inputs": [
        {
          "internalType": "uint256",
          "name": "eventId",
          "type": "uint256"
        }
      ],
      "name": "getEvent",
      "outputs": [
        {
          "components": [
            {
              "internalType": "string",
              "name": "name",
              "type": "string"
            },
            {
              "internalType": "uint256",
              "name": "date",
              "type": "uint256"
            },
            {
              "internalType": "uint256",
              "name": "basePrice",
              "type": "uint256"
            },
            {
              "internalType": "address",
              "name": "organizer",
              "type": "address"
            },
            {
              "internalType": "bool",
              "name": "cancelled",
              "type": "bool"
            },
            {
              "internalType": "uint256",
              "name": "zoneCount",
              "type": "uint256"
            }
          ],
          "internalType": "struct IEventManager.EventView",
          "name": "",
          "type": "tuple"
        }
      ],
      "stateMutability": "view",
      "type": "function"
    },
    {
      "inputs": [
        {
          "internalType": "uint256",
          "name": "eventId",
          "type": "uint256"
        }
      ],
      "name": "getEventRevenue",
      "outputs": [
        {
          "internalType": "uint256",
          "name": "",
          "type": "uint256"
        }
      ],
      "stateMutability": "view",
      "type": "function"
    },
    {
      "inputs": [
        {
          "internalType": "uint256",
          "name": "eventId",
          "type": "uint256"
        }
      ],
      "name": "getOrganizer",
      "outputs": [
        {
          "internalType": "address",
          "name": "",
          "type": "address"
        }
      ],
      "stateMutability": "view",
      "type": "function"
    },
    {
      "inputs": [
        {
          "internalType": "uint256",
          "name": "eventId",
          "type": "uint256"
        },
        {
          "internalType": "uint256",
          "name": "zoneId",
          "type": "uint256"
        }
      ],
      "name": "getZone",
      "outputs": [
        {
          "components": [
            {
              "internalType": "uint256",
              "name": "capacity",
              "type": "uint256"
            },
            {
              "internalType": "uint256",
              "name": "price",
              "type": "uint256"
            },
            {
              "internalType": "uint256",
              "name": "availableSeats",
              "type": "uint256"
            }
          ],
          "internalType": "struct IEventManager.Zone",
          "name": "",
          "type": "tuple"
        }
      ],
      "stateMutability": "view",
      "type": "function"
    },
    {
      "inputs": [
        {
          "internalType": "uint256",
          "name": "eventId",
          "type": "uint256"
        },
        {
          "internalType": "uint256",
          "name": "zoneId",
          "type": "uint256"
        }
      ],
      "name": "getZoneCapacity",
      "outputs": [
        {
          "internalType": "uint256",
          "name": "",
          "type": "uint256"
        }
      ],
      "stateMutability": "view",
      "type": "function"
    },
    {
      "inputs": [
        {
          "internalType": "uint256",
          "name": "eventId",
          "type": "uint256"
        }
      ],
      "name": "getZoneCount",
      "outputs": [
        {
          "internalType": "uint256",
          "name": "",
          "type": "uint256"
        }
      ],
      "stateMutability": "view",
      "type": "function"
    },
    {
      "inputs": [
        {
          "internalType": "uint256",
          "name": "eventId",
          "type": "uint256"
        },
        {
          "internalType": "uint256",
          "name": "zoneId",
          "type": "uint256"
        }
      ],
      "name": "getZonePrice",
      "outputs": [
        {
          "internalType": "uint256",
          "name": "",
          "type": "uint256"
        }
      ],
      "stateMutability": "view",
      "type": "function"
    },
    {
      "inputs": [
        {
          "internalType": "uint256",
          "name": "eventId",
          "type": "uint256"
        }
      ],
      "name": "hasEventConcluded",
      "outputs": [
        {
          "internalType": "bool",
          "name": "",
          "type": "bool"
        }
      ],
      "stateMutability": "view",
      "type": "function"
    },
    {
      "inputs": [
        {
          "internalType": "uint256",
          "name": "eventId",
          "type": "uint256"
        },
        {
          "internalType": "address",
          "name": "user",
          "type": "address"
        }
      ],
      "name": "hasTicket",
      "outputs": [
        {
          "internalType": "bool",
          "name": "",
          "type": "bool"
        }
      ],
      "stateMutability": "view",
      "type": "function"
    },
    {
      "inputs": [],
      "name": "owner",
      "outputs": [
        {
          "internalType": "address",
          "name": "",
          "type": "address"
        }
      ],
      "stateMutability": "view",
      "type": "function"
    },
    {
      "inputs": [],
      "name": "pause",
      "outputs": [],
      "stateMutability": "nonpayable",
      "type": "function"
    },
    {
      "inputs": [],
      "name": "paused",
      "outputs": [
        {
          "internalType": "bool",
          "name": "",
          "type": "bool"
        }
      ],
      "stateMutability": "view",
      "type": "function"
    },
    {
      "inputs": [
        {
          "internalType": "uint256",
          "name": "eventId",
          "type": "uint256"
        },
        {
          "internalType": "uint256",
          "name": "zoneId",
          "type": "uint256"
        }
      ],
      "name": "purchaseTicket",
      "outputs": [],
      "stateMutability": "payable",
      "type": "function"
    },
    {
      "inputs": [],
      "name": "refundEscrow",
      "outputs": [
        {
          "internalType": "contract IRefundEscrow",
          "name": "",
          "type": "address"
        }
      ],
      "stateMutability": "view",
      "type": "function"
    },
    {
      "inputs": [],
      "name": "renounceOwnership",
      "outputs": [],
      "stateMutability": "nonpayable",
      "type": "function"
    },
    {
      "inputs": [
        {
          "internalType": "address",
          "name": "newEscrow",
          "type": "address"
        }
      ],
      "name": "setRefundEscrow",
      "outputs": [],
      "stateMutability": "nonpayable",
      "type": "function"
    },
    {
      "inputs": [
        {
          "internalType": "address",
          "name": "newOwner",
          "type": "address"
        }
      ],
      "name": "transferOwnership",
      "outputs": [],
      "stateMutability": "nonpayable",
      "type": "function"
    },
    {
      "inputs": [],
      "name": "unpause",
      "outputs": [],
      "stateMutability": "nonpayable",
      "type": "function"
    },
    {
      "inputs": [
        {
          "internalType": "uint256",
          "name": "eventId",
          "type": "uint256"
        }
      ],
      "name": "withdrawEventRevenue",
      "outputs": [],
      "stateMutability": "nonpayable",
      "type": "function"
    },
    {
      "stateMutability": "payable",
      "type": "receive"
    }
  ],
  "bytecode": "0x6080806040523461008d5733156100775760008054336001600160a01b031982168117835560405192916001600160a01b03167f8be0079c531659141344cd1fd0a4f28419497f9722a3daafe3b4186f6b6457e08380a36001805560ff1960025416600255806003556004556118f790816100938239f35b631e4fbdf760e01b815260006004820152602490fd5b600080fdfe608080604052600436101561001d575b50361561001b57600080fd5b005b600090813560e01c9081631554823214611599575080633f4ba83a1461152e5780633f69babd1461136a578063455b848f146112c257806346eff8671461120f5780634843d2b11461119a5780634be91944146111715780634cbd6fc614611129578063516ceac8146110c3578063524c15a21461106f5780635a45a31a1461100c5780635c975abb14610fe95780636816aa7d14610fcb5780636d1884e014610e2d578063715018a614610dd35780638456cb5914610d785780638da5cb5b14610d5157806392a57fca14610d33578063ad1de32314610ce9578063b6d9e86814610b44578063bdbbb0cb1461076f578063d88a149814610722578063efdf49d7146101c05763f2fde38b0361000f57346101bd5760203660031901126101bd576101476115b4565b61014f611727565b6001600160a01b039081169081156101a457600054826bffffffffffffffffffffffff60a01b821617600055167f8be0079c531659141344cd1fd0a4f28419497f9722a3daafe3b4186f6b6457e0600080a380f35b604051631e4fbdf760e01b815260048101849052602490fd5b80fd5b50346101bd5760a03660031901126101bd5767ffffffffffffffff60043581811161071e573660238201121561071e5782816004013591610200836116a4565b9261020e6040519485611682565b808452366024828401011161071e5780602460209301838601378301015260643582811161071a576102449036906004016116c0565b6084358381116107165761025c9036906004016116c0565b926102656117c6565b8251156106e2576201518042018042116106ce57602435111561069a57815184510361065d5781511561062357604435156105e9576102a5600354611753565b93846003558251604051906102b982611666565b8582526024356020830152604435604083015233606083015287608083015260a082015285875260066020526040872092815180519182116105d55781906103018654611762565b601f8111610588575b50602090601f8311600114610524578a92610519575b50508160011b916000199060031b1c19161783555b60208101519260019384820155600460a06040840151936002948585015560038401600180841b0360608301511681549060ff851b60808501511515861b16916affffffffffffffffffffff60a81b161717905501519101558287905b6103fb575b602087807f9c2f02f9bc3109d6ef9e6ddb6bd47137ccc8e9deabc67b747c58342a70d9e2c86103e38a8d60408c5191868152600a895220556040519182916060835260608301906115e0565b602435878301523360408301520390a2604051908152f35b84518110156105145761040e818661179c565b51156104d757604435610421828561179c565b511061049a576104948184848a8960408e6104548761044d818f9c610446908861179c565b519961179c565b519461179c565b51938251966104628861164a565b875260208701938452828701948552815260076020528181208782526020522093518455518684015551910155611753565b90610392565b60405162461bcd60e51b81526020600482015260156024820152745a6f6e652070726963652062656c6f77206261736560581b6044820152606490fd5b60405162461bcd60e51b8152602060048201526015602482015274496e76616c6964207a6f6e6520636170616369747960581b6044820152606490fd5b610397565b015190503880610320565b868b5260208b209250601f1984168b5b8181106105705750908460019594939210610557575b505050811b018355610335565b015160001960f88460031b161c1916905538808061054a565b92936020600181928786015181550195019301610534565b909150858a5260208a20601f840160051c8101602085106105ce575b90849392915b601f830160051c820181106105c057505061030a565b8c81558594506001016105aa565b50806105a4565b634e487b7160e01b89526041600452602489fd5b60405162461bcd60e51b8152602060048201526012602482015271496e76616c6964206261736520707269636560701b6044820152606490fd5b60405162461bcd60e51b8152602060048201526012602482015271139bc81e9bdb995cc81cdc1958da599a595960721b6044820152606490fd5b60405162461bcd60e51b8152602060048201526015602482015274082e4e4c2f240d8cadccee8d040dad2e6dac2e8c6d605b1b6044820152606490fd5b60405162461bcd60e51b815260206004820152600c60248201526b496e76616c6964206461746560a01b6044820152606490fd5b634e487b7160e01b86526011600452602486fd5b60405162461bcd60e51b815260206004820152600c60248201526b496e76616c6964206e616d6560a01b6044820152606490fd5b8480fd5b8380fd5b8280fd5b50346101bd5760203660031901126101bd576001604060209260043560035481111580610766575b610753906117e4565b8152600684522001544211604051908152f35b5080151561074a565b50610779366115ca565b9061078261189e565b61078a6117c6565b60035481111580610b3b575b61079f906117e4565b808352602091600683526040842060ff600382015460a01c16610b04576001810154421015610ad057828552600884526040852033600052845260ff60406000205416610a965760046107f59101548210611823565b8184526007835260408420908452825260408320916002830192835415610a615760010180543410610a255761082c600454611753565b938460045580548015610a115760001901905582855260088252604085203360005282526040600020600160ff1982541617905580546005810281810460051482151715610a1157606461088291048092611861565b9184875260098452604087208054908482018092116109fb57558680808060018060a01b0395868254165af16108b661186e565b50156109c0579086929154803411610961575b506005541680610907575b5050507f94c5953e15f54d38b82a662bdd5739fc91af3a23d3ef7e67269dfaeee71a813c90604051338152a36001805580f35b803b1561071e5782906044604051809481936326f71c9f60e21b83528960048401528a60248401525af1801561095657610942575b806108d4565b61094b90611620565b61071a57833861093c565b6040513d84823e3d90fd5b9280806109718194959634611861565b335af161097c61186e565b501561098b57908591386108c9565b60405162461bcd60e51b815260048101849052600d60248201526c1499599d5b990819985a5b1959609a1b6044820152606490fd5b60405162461bcd60e51b8152600481018590526013602482015272119959481d1c985b9cd9995c8819985a5b1959606a1b6044820152606490fd5b634e487b7160e01b600052601160045260246000fd5b634e487b7160e01b87526011600452602487fd5b60405162461bcd60e51b8152600481018390526014602482015273125b9cdd59999a58da595b9d081c185e5b595b9d60621b6044820152606490fd5b60405162461bcd60e51b815260048101839052600d60248201526c169bdb99481cdbdb19081bdd5d609a1b6044820152606490fd5b60405162461bcd60e51b8152600481018590526012602482015271105b1c9958591e481a185cc81d1a58dad95d60721b6044820152606490fd5b60405162461bcd60e51b815260048101859052600c60248201526b115d995b9d081c185cdcd95960a21b6044820152606490fd5b60405162461bcd60e51b815260048101859052600f60248201526e115d995b9d0818d85b98d95b1b1959608a1b6044820152606490fd5b50801515610796565b50346101bd57602080600319360112610ce557600435610b6261189e565b60035481111580610cdc575b610b77906117e4565b808352600682526040832060038101546001600160a01b03163303610ca75760010154421115610c7057808352600982526040832054918215610c3f57818452600981528360408120558380808086335af1610bd161186e565b5015610c09577f841fbab03327efe47fb7d133055c9aa87df38ff76b5919d1c190e0067c5e34b3906040519384523393a36001805580f35b6064906040519062461bcd60e51b82526004820152600f60248201526e151c985b9cd9995c8819985a5b1959608a1b6044820152fd5b6064906040519062461bcd60e51b82526004820152600a6024820152694e6f20726576656e756560b01b6044820152fd5b60405162461bcd60e51b815260048101839052600f60248201526e115d995b9d081b9bdd08195b991959608a1b6044820152606490fd5b60405162461bcd60e51b815260048101849052600d60248201526c2737ba1037b933b0b734bd32b960991b6044820152606490fd5b50801515610b6e565b5080fd5b50346101bd5760203660031901126101bd5760046040602092823560035481111580610d2a575b610d19906117e4565b815260068452200154604051908152f35b50801515610d10565b50346101bd57806003193601126101bd576020604051621275008152f35b50346101bd57806003193601126101bd57546040516001600160a01b039091168152602090f35b50346101bd57806003193601126101bd57610d91611727565b610d996117c6565b600160ff1960025416176002557f62e78cea01bee320cd4e420270b5ea74000d11b0c9f74754ebdbfc544b05a2586020604051338152a180f35b50346101bd57806003193601126101bd57610dec611727565b600080546001600160a01b0319811682556001600160a01b03167f8be0079c531659141344cd1fd0a4f28419497f9722a3daafe3b4186f6b6457e08280a380f35b50346101bd57602080600319360112610ce5576004358260a0604051610e5281611666565b606081528285820152826040820152826060820152826080820152015260035481111580610fc2575b610e84906117e4565b82526006815260408220906001808301549160028401549060038501549160048601549360405196610eb588611666565b6040519189825492610ec684611762565b80865293838116908115610f9f5750600114610f67575b50505050610eef8160c0990382611682565b8652818601948552604086019081526060860190610f4160018060a01b0393848616845260ff60808a019660a01c161515865260a08901968752604051998a99828b5251918a015260e08901906115e0565b955160408801525160608701525116608085015251151560a08401525160c08301520390f35b90809b5052848a205b828b10610f8c57505050610eef818460c09a8201019938610edd565b8054848c01870152998501998101610f70565b60ff19168887015250505050151560051b810183019750610eef8160c038610edd565b50801515610e7b565b50346101bd57806003193601126101bd576020604051620151808152f35b50346101bd57806003193601126101bd57602060ff600254166040519015158152f35b50346101bd576040602091611020366115ca565b9060035481111580611066575b611036906117e4565b8083526006855261104e600485852001548310611823565b82526007845282822090825283522054604051908152f35b5080151561102d565b50346101bd5760203660031901126101bd57602090600435600354811115806110ba575b61109c906117e4565b8152600682526003604060018060a01b039220015416604051908152f35b50801515611093565b50346101bd57600160406020926110d9366115ca565b9060035481111580611120575b6110ef906117e4565b80835260068652611107600485852001548310611823565b8252600785528282209082528452200154604051908152f35b508015156110e6565b50346101bd5760203660031901126101bd57604060209160043560035481111580611168575b611158906117e4565b8152600983522054604051908152f35b5080151561114f565b50346101bd57806003193601126101bd576005546040516001600160a01b039091168152602090f35b50346101bd5760403660031901126101bd576024356001600160a01b038116916004359183900361120a5760409160035481111580611201575b6111dd906117e4565b815260086020522090600052602052602060ff604060002054166040519015158152f35b508015156111d4565b600080fd5b50346101bd576060906040611223366115ca565b825193916112308561164a565b828552828460209682888201520152600354811115806112b9575b611254906117e4565b8083526006855261126c600485852001548310611823565b82526007845282822090825283522090604051906112898261164a565b82549283835260406002600183015492848601938452015493019283526040519384525190830152516040820152f35b5080151561124b565b50346101bd5760203660031901126101bd576112dc6115b4565b6112e4611727565b6001600160a01b0316801561132c57600580546001600160a01b031916821790557fea7e8fdf33d9a7d6d7dd09ddc69d89b8eb6f262d7eb9ae76a2470e3c4cfbc0c08280a280f35b60405162461bcd60e51b8152602060048201526016602482015275496e76616c696420657363726f77206164647265737360501b6044820152606490fd5b50346101bd5760203660031901126101bd576004356113876117c6565b60035481111580611525575b61139c906117e4565b8082526006602052604082206003810180546001600160a01b0393909290919084841633148015611519575b156114e55760ff8460a01c166114ac5760010154421161146e5760ff60a01b19909216600160a01b1790915560405191839190817fdc3cb569b066460f4a22dffa05317bdcce5d3826382ed49a21f13e5fa2063d398480a260055416908161142e578280f35b813b1561071e5783838193602493633f69babd60e01b845260048401525af180156109565761145f575b8181808280f35b61146890611620565b38611458565b60405162461bcd60e51b8152602060048201526016602482015275115d995b9d08185b1c9958591e481bd8d8dd5c9c995960521b6044820152606490fd5b60405162461bcd60e51b8152602060048201526011602482015270105b1c9958591e4818d85b98d95b1b1959607a1b6044820152606490fd5b60405162461bcd60e51b815260206004820152600c60248201526b155b985d5d1a1bdc9a5e995960a21b6044820152606490fd5b508486541633146113c8565b50801515611393565b50346101bd57806003193601126101bd57611547611727565b60025460ff8116156115875760ff19166002557f5db9ee0a495bf2e6ff9c91a7834c1ba4fdd244a5e8aa4e537bd38aeae4b073aa6020604051338152a180f35b604051638dfc202b60e01b8152600490fd5b905034610ce55781600319360112610ce55780600560209252f35b600435906001600160a01b038216820361120a57565b604090600319011261120a576004359060243590565b919082519283825260005b84811061160c575050826000602080949584010152601f8019910116010190565b6020818301810151848301820152016115eb565b67ffffffffffffffff811161163457604052565b634e487b7160e01b600052604160045260246000fd5b6060810190811067ffffffffffffffff82111761163457604052565b60c0810190811067ffffffffffffffff82111761163457604052565b90601f8019910116810190811067ffffffffffffffff82111761163457604052565b67ffffffffffffffff811161163457601f01601f191660200190565b9080601f8301121561120a5781359067ffffffffffffffff8211611634578160051b604051936020936116f585840187611682565b8552838086019282010192831161120a578301905b828210611718575050505090565b8135815290830190830161170a565b6000546001600160a01b0316330361173b57565b60405163118cdaa760e01b8152336004820152602490fd5b60001981146109fb5760010190565b90600182811c92168015611792575b602083101461177c57565b634e487b7160e01b600052602260045260246000fd5b91607f1691611771565b80518210156117b05760209160051b010190565b634e487b7160e01b600052603260045260246000fd5b60ff600254166117d257565b60405163d93c066560e01b8152600490fd5b156117eb57565b60405162461bcd60e51b815260206004820152601060248201526f125b9d985b1a5908195d995b9d08125160821b6044820152606490fd5b1561182a57565b60405162461bcd60e51b815260206004820152600f60248201526e125b9d985b1a59081e9bdb99481251608a1b6044820152606490fd5b919082039182116109fb57565b3d15611899573d9061187f826116a4565b9161188d6040519384611682565b82523d6000602084013e565b606090565b6002600154146118af576002600155565b604051633ee5aeb560e01b8152600490fdfea2646970667358221220fef207571da8d202d42135efd4e76a17b7b0c3b83f2a6e2df64bac7542c44d0f64736f6c63430008140033",
  "linkReferences": {},
  "deployedLinkReferences": {}
}