{
  "_format": "hh-sol-artifact-1",
  "contractName": "WaitlistManager",
  "sourceName": "contracts/core/WaitlistManager.sol",
  "abi": [
    {
      "inputs": [],
      "stateMutability": "nonpayable",
      "type": "constructor"
    },
    {
      "inputs": [],
      "name": "EnforcedPause",
      "type": "error"
    },
    {
      "inputs": [],
      "name": "ExpectedPause",
      "type": "error"
    },
    {
      "inputs": [
        {
          "internalType": "address",
          "name": "owner",
          "type": "address"
        }
      ],
      "name": "OwnableInvalidOwner",
      "type": "error"
    },
    {
      "inputs": [
        {
          "internalType": "address",
          "name": "account",
          "type": "address"
        }
      ],
      "name": "OwnableUnauthorizedAccount",
      "type": "error"
    },
    {
      "inputs": [],
      "name": "ReentrancyGuardReentrantCall",
      "type": "error"
    },
    {
      "anonymous": false,
      "inputs": [
        {
          "indexed": true,
          "internalType": "uint256",
          "name": "eventId",
          "type": "uint256"
        },
        {
          "indexed": true,
          "internalType": "uint256",
          "name": "zoneId",
          "type": "uint256"
        },
        {
          "indexed": false,
          "internalType": "address",
          "name": "user",
          "type": "address"
        }
      ],
      "name": "JoinedWaitlist",
      "type": "event"
    },
    {
      "anonymous": false,
      "inputs": [
        {
          "indexed": true,
          "internalType": "uint256",
          "name": "eventId",
          "type": "uint256"
        },
        {
          "indexed": true,
          "internalType": "uint256",
          "name": "zoneId",
          "type": "uint256"
        },
        {
          "indexed": false,
          "internalType": "address",
          "name": "user",
          "type": "address"
        }
      ],
      "name": "LeftWaitlist",
      "type": "event"
    },
    {
      "anonymous": false,
      "inputs": [
        {
          "indexed": true,
          "internalType": "address",
          "name": "previousOwner",
          "type": "address"
        },
        {
          "indexed": true,
          "internalType": "address",
          "name": "newOwner",
          "type": "address"
        }
      ],
      "name": "OwnershipTransferred",
      "type": "event"
    },
    {
      "anonymous": false,
      "inputs": [
        {
          "indexed": false,
          "internalType": "address",
          "name": "account",
          "type": "address"
        }
      ],
      "name": "Paused",
      "type": "event"
    },
    {
      "anonymous": false,
      "inputs": [
        {
          "indexed": false,
          "internalType": "address",
          "name": "account",
          "type": "address"
        }
      ],
      "name": "Unpaused",
      "type": "event"
    },
    {
      "anonymous": false,
      "inputs": [
        {
          "indexed": true,
          "internalType": "uint256",
          "name": "eventId",
          "type": "uint256"
        },
        {
          "indexed": true,
          "internalType": "uint256",
          "name": "zoneId",
          "type": "uint256"
        },
        {
          "indexed": false,
          "internalType": "address",
          "name": "user",
          "type": "address"
        }
      ],
      "name": "WaitlistOfferExpired",
      "type": "event"
    },
    {
      "anonymous": false,
      "inputs": [
        {
          "indexed": true,
          "internalType": "uint256",
          "name": "eventId",
          "type": "uint256"
        },
        {
          "indexed": true,
          "internalType": "uint256",
          "name": "zoneId",
          "type": "uint256"
        },
        {
          "indexed": false,
          "internalType": "address",
          "name": "user",
          "type": "address"
        }
      ],
      "name": "WaitlistPurchaseCompleted",
      "type": "event"
    },
    {
      "anonymous": false,
      "inputs": [
        {
          "indexed": true,
          "internalType": "uint256",
          "name": "eventId",
          "type": "uint256"
        },
        {
          "indexed": true,
          "internalType": "uint256",
          "name": "zoneId",
          "type": "uint256"
        },
        {
          "indexed": false,
          "internalType": "address",
          "name": "user",
          "type": "address"
        }
      ],
      "name": "WaitlistPurchaseOffered",
      "type": "event"
    },
    {
      "inputs": [],
      "name": "OFFER_DURATION",
      "outputs": [
        {
          "internalType": "uint256",
          "name": "",
          "type": "uint256"
        }
      ],
      "stateMutability": "view",
      "type": "function"
    },
    {
      "inputs": [
        {
          "internalType": "uint256",
          "name": "eventId",
          "type": "uint256"
        },
        {
          "internalType": "uint256",
          "name": "zoneId",
          "type": "uint256"
        },
        {
          "internalType": "address",
          "name": "user",
          "type": "address"
        }
      ],
      "name": "clearWaitlistEntry",
      "outputs": [],
      "stateMutability": "nonpayable",
      "type": "function"
    },
    {
      "inputs": [
        {
          "internalType": "uint256",
          "name": "eventId",
          "type": "uint256"
        },
        {
          "internalType": "uint256",
          "name": "zoneId",
          "type": "uint256"
        },
        {
          "internalType": "address",
          "name": "user",
          "type": "address"
        }
      ],
      "name": "clearWaitlistForUser",
      "outputs": [],
      "stateMutability": "nonpayable",
      "type": "function"
    },
    {
      "inputs": [
        {
          "internalType": "uint256",
          "name": "eventId",
          "type": "uint256"
        },
        {
          "internalType": "uint256",
          "name": "zoneId",
          "type": "uint256"
        }
      ],
      "name": "completeWaitlistPurchase",
      "outputs": [],
      "stateMutability": "nonpayable",
      "type": "function"
    },
    {
      "inputs": [
        {
          "internalType": "uint256",
          "name": "eventId",
          "type": "uint256"
        },
        {
          "internalType": "uint256",
          "name": "zoneId",
          "type": "uint256"
        },
        {
          "internalType": "address",
          "name": "user",
          "type": "address"
        }
      ],
      "name": "expireOffer",
      "outputs": [],
      "stateMutability": "nonpayable",
      "type": "function"
    },
    {
      "inputs": [
        {
          "internalType": "uint256",
          "name": "eventId",
          "type": "uint256"
        },
        {
          "internalType": "uint256",
          "name": "zoneId",
          "type": "uint256"
        }
      ],
      "name": "getNextWaitingUser",
      "outputs": [
        {
          "internalType": "address",
          "name": "",
          "type": "address"
        }
      ],
      "stateMutability": "view",
      "type": "function"
    },
    {
      "inputs": [
        {
          "internalType": "uint256",
          "name": "eventId",
          "type": "uint256"
        },
        {
          "internalType": "uint256",
          "name": "zoneId",
          "type": "uint256"
        }
      ],
      "name": "getWaitlistLength",
      "outputs": [
        {
          "internalType": "uint256",
          "name": "",
          "type": "uint256"
        }
      ],
      "stateMutability": "view",
      "type": "function"
    },
    {
      "inputs": [
        {
          "internalType": "uint256",
          "name": "eventId",
          "type": "uint256"
        },
        {
          "internalType": "uint256",
          "name": "zoneId",
          "type": "uint256"
        },
        {
          "internalType": "address",
          "name": "user",
          "type": "address"
        }
      ],
      "name": "getWaitlistPosition",
      "outputs": [
        {
          "internalType": "uint256",
          "name": "",
          "type": "uint256"
        }
      ],
      "stateMutability": "view",
      "type": "function"
    },
    {
      "inputs": [
        {
          "internalType": "uint256",
          "name": "eventId",
          "type": "uint256"
        },
        {
          "internalType": "uint256",
          "name": "zoneId",
          "type": "uint256"
        },
        {
          "internalType": "address",
          "name": "user",
          "type": "address"
        }
      ],
      "name": "hasActiveOffer",
      "outputs": [
        {
          "internalType": "bool",
          "name": "",
          "type": "bool"
        }
      ],
      "stateMutability": "view",
      "type": "function"
    },
    {
      "inputs": [
        {
          "internalType": "uint256",
          "name": "eventId",
          "type": "uint256"
        },
        {
          "internalType": "uint256",
          "name": "zoneId",
          "type": "uint256"
        },
        {
          "internalType": "address",
          "name": "user",
          "type": "address"
        }
      ],
      "name": "isUserWaiting",
      "outputs": [
        {
          "internalType": "bool",
          "name": "",
          "type": "bool"
        }
      ],
      "stateMutability": "view",
      "type": "function"
    },
    {
      "inputs": [
        {
          "internalType": "uint256",
          "name": "eventId",
          "type": "uint256"
        },
        {
          "internalType": "uint256",
          "name": "zoneId",
          "type": "uint256"
        }
      ],
      "name": "joinWaitlist",
      "outputs": [],
      "stateMutability": "nonpayable",
      "type": "function"
    },
    {
      "inputs": [
        {
          "internalType": "uint256",
          "name": "eventId",
          "type": "uint256"
        },
        {
          "internalType": "uint256",
          "name": "zoneId",
          "type": "uint256"
        }
      ],
      "name": "leaveWaitlist",
      "outputs": [],
      "stateMutability": "nonpayable",
      "type": "function"
    },
    {
      "inputs": [
        {
          "internalType": "uint256",
          "name": "eventId",
          "type": "uint256"
        },
        {
          "internalType": "uint256",
          "name": "zoneId",
          "type": "uint256"
        },
        {
          "internalType": "address",
          "name": "user",
          "type": "address"
        }
      ],
      "name": "offerTicketToWaitlisted",
      "outputs": [],
      "stateMutability": "nonpayable",
      "type": "function"
    },
    {
      "inputs": [],
      "name": "owner",
      "outputs": [
        {
          "internalType": "address",
          "name": "",
          "type": "address"
        }
      ],
      "stateMutability": "view",
      "type": "function"
    },
    {
      "inputs": [],
      "name": "pause",
      "outputs": [],
      "stateMutability": "nonpayable",
      "type": "function"
    },
    {
      "inputs": [],
      "name": "paused",
      "outputs": [
        {
          "internalType": "bool",
          "name": "",
          "type": "bool"
        }
      ],
      "stateMutability": "view",
      "type": "function"
    },
    {
      "inputs": [],
      "name": "renounceOwnership",
      "outputs": [],
      "stateMutability": "nonpayable",
      "type": "function"
    },
    {
      "inputs": [
        {
          "internalType": "address",
          "name": "newOwner",
          "type": "address"
        }
      ],
      "name": "transferOwnership",
      "outputs": [],
      "stateMutability": "nonpayable",
      "type": "function"
    },
    {
      "inputs": [],
      "name": "unpause",
      "outputs": [],
      "stateMutability": "nonpayable",
      "type": "function"
    }
  ],
  "bytecode": "0x608080604052346100885733156100725760008054336001600160a01b03198216811783556040519290916001600160a01b0316907f8be0079c531659141344cd1fd0a4f28419497f9722a3daafe3b4186f6b6457e09080a36001805560ff19600254166002556110a4908161008e8239f35b631e4fbdf760e01b815260006004820152602490fd5b600080fdfe60406080815260048036101561001457600080fd5b600091823560e01c806326f7d7ab14610baa578063342b322214610b0c5780633727b447146109cc5780633964fdaf146109865780633f4ba83a1461091c5780635c975abb146108f85780636605afd914610853578063715018a6146107f657806375459c11146107d85780637af359ab146107325780637da337cb146106af57806381fde3b0146105135780638456cb59146104b85780638da5cb5b14610490578063ad3c4bea14610463578063b07cd487146103ad578063b2c460f414610388578063d18a5083146101815763f2fde38b146100f157600080fd5b3461017d57602036600319011261017d576001600160a01b0382358181169391929084900361017957610122610d87565b831561016357505082546001600160a01b0319811683178455167f8be0079c531659141344cd1fd0a4f28419497f9722a3daafe3b4186f6b6457e08380a380f35b51631e4fbdf760e01b8152908101849052602490fd5b8480fd5b8280fd5b508290346103845761019236610d42565b90600192600284541461037557600284556101ab610e1b565b818552602090600382528086208487528252808620600281019033885281845260ff838920541661030c576101de610db3565b338152848101428152848201898152606083018b815260808401928c84528554680100000000000000008110156102f757808d61021e9201885587610de9565b9590956102e5579060039493929160018060a01b039051166bffffffffffffffffffffffff60a01b875416178655518c86015560028501915115159060ff61ff0084549251151560081b1692169061ffff1916171790555191015580549060001982019182116102d25790877f1b05357d371fc0514ffdda84ffa13b09409626dc280ef8e115cccb122e9c280195949392338b520184528289205582528087208660ff1982541617905551338152a3805580f35b634e487b7160e01b895260118a52602489fd5b634e487b7160e01b8e528d8f5260248efd5b5050634e487b7160e01b8c5260418d5260248cfd5b825162461bcd60e51b8152808a01859052603960248201527f43616c6c657220697320616c726561647920696e2074686520776169746c697360448201527f7420666f722074686973206576656e7420616e64207a6f6e65000000000000006064820152608490fd5b51633ee5aeb560e01b81528590fd5b5080fd5b838234610384576020906103a461039e36610d5d565b91610ffb565b90519015158152f35b838234610384576103bd36610d5d565b6103c8939193610d87565b82855260209060038252828620858752825282862092600284019160018060a01b03169182885280845260ff8289205416610401578780f35b60026104388660017fbaf0e44559d75d5f16083d7080809f9219d24470c13696b78f7a5345e758be8598018752848b205490610de9565b50019060ff1991828154169055838952845281882090815416905551908152a3818080808080808780f35b8382346103845760209061047f61047936610d42565b90610f7b565b90516001600160a01b039091168152f35b838234610384578160031936011261038457905490516001600160a01b039091168152602090f35b83823461038457816003193601126103845760207f62e78cea01bee320cd4e420270b5ea74000d11b0c9f74754ebdbfc544b05a258916104f6610d87565b6104fe610e1b565b600160ff19600254161760025551338152a180f35b503461017d5761052236610d5d565b9093919261052e610e1b565b83865260209260038452818720868852845261057b8288209360018060a01b03169384895260028101865261056860ff858b205416610ea3565b8489526001810186528389205490610de9565b50600281019081549060ff8260081c161561063c576003019283544211156105d3575061ff0019169055869055519081527fff71f12e5cf1906301f43d16584823504c506a9b4309a1d39ac6eb40ced1c6a99190a380f35b845162461bcd60e51b8152908101879052603860248201527f546865207469636b6574206f6666657220666f722074686973206576656e742060448201527f616e64207a6f6e6520686173206e6f74206578706972656400000000000000006064820152608490fd5b845162461bcd60e51b8152808501889052604160248201527f5573657220646f6573206e6f74206861766520616e206163746976652074696360448201527f6b6574206f6666657220666f722074686973206576656e7420616e64207a6f6e6064820152606560f81b608482015260a490fd5b838234610384576106bf36610d5d565b92918452600360205281842090845260205280832091600283019060018060a01b0316928385528160205260ff83862054166106f9578480f35b610710816001600293016020528487205490610de9565b50019260ff199384815416905584526020528220908154169055818080808480f35b838234610384577fbaf0e44559d75d5f16083d7080809f9219d24470c13696b78f7a5345e758be859061076436610d42565b92909161076f610e1b565b82855260209060038252808620858752825280862060026107b581830192338a528386526107a260ff868c205416610e39565b338a52600181018652848a205490610de9565b50019060ff1991828154169055338852835281872090815416905551338152a380f35b83823461038457816003193601126103845760209051620151808152f35b833461085057806003193601126108505761080f610d87565b80546001600160a01b03198116825581906001600160a01b03167f8be0079c531659141344cd1fd0a4f28419497f9722a3daafe3b4186f6b6457e08280a380f35b80fd5b8382346103845761086336610d5d565b9291845260036020528184209084526020528083209160018060a01b031691828452600280820160205260ff9161089e838588205416610ea3565b600194865284810160205283862054955b8681106108c0576020868651908152f35b83836108cc8385610de9565b500154166108e3575b6108de90610f0b565b6108af565b946108f06108de91610f0b565b9590506108d5565b83823461038457816003193601126103845760209060ff6002541690519015158152f35b50903461017d578260031936011261017d57610936610d87565b6002549060ff821615610978575060ff1916600255513381527f5db9ee0a495bf2e6ff9c91a7834c1ba4fdd244a5e8aa4e537bd38aeae4b073aa90602090a180f35b8251638dfc202b60e01b8152fd5b8382346103845760ff8160209361099c36610d5d565b9183526003875283832090835286528282206001600160a01b039091168252600201855220549151911615158152f35b50829034610384576109dd36610d5d565b6109e8939193610e1b565b828552602091600383528086208587528352610a358187209260018060a01b031692838852600281018552610a2260ff848a205416610ea3565b8388526001810185528288205490610de9565b5060028101805460ff8160081c16610aa3576101009061ff00191617905562015180420190814211610a905760030155519081527f5e7d9f3701cb4dec6d83d2299ee59d449557f633f60c6a34486dcb59a907cf0a9190a380f35b634e487b7160e01b885260118952602488fd5b835162461bcd60e51b8152808b01879052603f60248201527f5573657220616c72656164792068617320616e20616374697665207469636b6560448201527f74206f6666657220666f722074686973206576656e7420616e64207a6f6e65006064820152608490fd5b50823461085057610b1c36610d42565b90825260036020528282209082526020528181209181928054935b848110610b48576020848451908152f35b610b528183610de9565b5060ff80600280930154169182610b8e575b5050610b79575b610b7490610f0b565b610b37565b92610b86610b7491610f0b565b939050610b6b565b909150610b9b8385610de9565b50015460081c16158680610b64565b5082903461038457610bbb36610d42565b91610bc4610e1b565b818452602090600382528085208486528252808520610c096002820191338852828552610bf660ff858a205416610e39565b3388526001810185528388205490610de9565b5090600282019788549260ff8460081c1615610ccd57600301544211610c6d57507f9a5b37deeb3286740d007e8020660109442179cbf50f003042216dc06ae784b29495969760ff198093169055338852835281872090815416905551338152a380f35b835162461bcd60e51b8152908101859052603460248201527f546865207469636b6574206f6666657220666f722074686973206576656e7420604482015273185b99081e9bdb99481a185cc8195e1c1a5c995960621b6064820152608490fd5b845162461bcd60e51b8152808301879052604360248201527f43616c6c657220646f6573206e6f74206861766520616e20616374697665207460448201527f69636b6574206f6666657220666f722074686973206576656e7420616e64207a6064820152626f6e6560e81b608482015260a490fd5b6040906003190112610d58576004359060243590565b600080fd5b6060906003190112610d585760043590602435906044356001600160a01b0381168103610d585790565b6000546001600160a01b03163303610d9b57565b60405163118cdaa760e01b8152336004820152602490fd5b6040519060a0820182811067ffffffffffffffff821117610dd357604052565b634e487b7160e01b600052604160045260246000fd5b8054821015610e055760005260206000209060021b0190600090565b634e487b7160e01b600052603260045260246000fd5b60ff60025416610e2757565b60405163d93c066560e01b8152600490fd5b15610e4057565b60405162461bcd60e51b815260206004820152603560248201527f43616c6c6572206973206e6f7420696e2074686520776169746c69737420666f604482015274722074686973206576656e7420616e64207a6f6e6560581b6064820152608490fd5b15610eaa57565b60405162461bcd60e51b815260206004820152603360248201527f55736572206973206e6f7420696e2074686520776169746c69737420666f722060448201527274686973206576656e7420616e64207a6f6e6560681b6064820152608490fd5b6000198114610f1a5760010190565b634e487b7160e01b600052601160045260246000fd5b906003610f3b610db3565b83546001600160a01b0316815260018401546020820152600284015460ff8181161515604084015260089190911c16151560608201529201546080830152565b90600091825260036020526040908183209083526020528082209082918054925b838110610faa575050505090565b610fbd610fb78284610de9565b50610f30565b83810151151580610fef575b610fdc5750610fd790610f0b565b610f9c565b516001600160a01b031695945050505050565b50606081015115610fc9565b91906000928352600360205260408320908352602052604082209060018060a01b031682526002810160205260ff6040832054161561106a5780604061104d936001610fb79401602052205490610de9565b60608101511515908161105e575090565b60809150015142111590565b509056fea264697066735822122062db71565ce5fe43de5558da0a8679fee75acbc1caa50df231955bb63f247f5a64736f6c63430008140033",
  "linkReferences": {},
  "deployedLinkReferences": {}
}