{
  "_format": "hh-sol-artifact-1",
  "contractName": "WaitlistManager",
  "sourceName": "contracts/core/WaitlistManager.sol",
  "abi": [
    {
      "inputs": [],
      "stateMutability": "nonpayable",
      "type": "constructor"
    },
    {
      "inputs": [],
      "name": "EnforcedPause",
      "type": "error"
    },
    {
      "inputs": [],
      "name": "ExpectedPause",
      "type": "error"
    },
    {
      "inputs": [
        {
          "internalType": "address",
          "name": "owner",
          "type": "address"
        }
      ],
      "name": "OwnableInvalidOwner",
      "type": "error"
    },
    {
      "inputs": [
        {
          "internalType": "address",
          "name": "account",
          "type": "address"
        }
      ],
      "name": "OwnableUnauthorizedAccount",
      "type": "error"
    },
    {
      "inputs": [],
      "name": "ReentrancyGuardReentrantCall",
      "type": "error"
    },
    {
      "anonymous": false,
      "inputs": [
        {
          "indexed": true,
          "internalType": "uint256",
          "name": "eventId",
          "type": "uint256"
        },
        {
          "indexed": true,
          "internalType": "uint256",
          "name": "zoneId",
          "type": "uint256"
        },
        {
          "indexed": false,
          "internalType": "address",
          "name": "user",
          "type": "address"
        }
      ],
      "name": "JoinedWaitlist",
      "type": "event"
    },
    {
      "anonymous": false,
      "inputs": [
        {
          "indexed": true,
          "internalType": "uint256",
          "name": "eventId",
          "type": "uint256"
        },
        {
          "indexed": true,
          "internalType": "uint256",
          "name": "zoneId",
          "type": "uint256"
        },
        {
          "indexed": false,
          "internalType": "address",
          "name": "user",
          "type": "address"
        }
      ],
      "name": "LeftWaitlist",
      "type": "event"
    },
    {
      "anonymous": false,
      "inputs": [
        {
          "indexed": true,
          "internalType": "address",
          "name": "previousOwner",
          "type": "address"
        },
        {
          "indexed": true,
          "internalType": "address",
          "name": "newOwner",
          "type": "address"
        }
      ],
      "name": "OwnershipTransferred",
      "type": "event"
    },
    {
      "anonymous": false,
      "inputs": [
        {
          "indexed": false,
          "internalType": "address",
          "name": "account",
          "type": "address"
        }
      ],
      "name": "Paused",
      "type": "event"
    },
    {
      "anonymous": false,
      "inputs": [
        {
          "indexed": false,
          "internalType": "address",
          "name": "account",
          "type": "address"
        }
      ],
      "name": "Unpaused",
      "type": "event"
    },
    {
      "anonymous": false,
      "inputs": [
        {
          "indexed": true,
          "internalType": "uint256",
          "name": "eventId",
          "type": "uint256"
        },
        {
          "indexed": true,
          "internalType": "uint256",
          "name": "zoneId",
          "type": "uint256"
        },
        {
          "indexed": false,
          "internalType": "address",
          "name": "user",
          "type": "address"
        }
      ],
      "name": "WaitlistOfferExpired",
      "type": "event"
    },
    {
      "anonymous": false,
      "inputs": [
        {
          "indexed": true,
          "internalType": "uint256",
          "name": "eventId",
          "type": "uint256"
        },
        {
          "indexed": true,
          "internalType": "uint256",
          "name": "zoneId",
          "type": "uint256"
        },
        {
          "indexed": false,
          "internalType": "address",
          "name": "user",
          "type": "address"
        }
      ],
      "name": "WaitlistPurchaseCompleted",
      "type": "event"
    },
    {
      "anonymous": false,
      "inputs": [
        {
          "indexed": true,
          "internalType": "uint256",
          "name": "eventId",
          "type": "uint256"
        },
        {
          "indexed": true,
          "internalType": "uint256",
          "name": "zoneId",
          "type": "uint256"
        },
        {
          "indexed": false,
          "internalType": "address",
          "name": "user",
          "type": "address"
        }
      ],
      "name": "WaitlistPurchaseOffered",
      "type": "event"
    },
    {
      "inputs": [],
      "name": "OFFER_DURATION",
      "outputs": [
        {
          "internalType": "uint256",
          "name": "",
          "type": "uint256"
        }
      ],
      "stateMutability": "view",
      "type": "function"
    },
    {
      "inputs": [
        {
          "internalType": "uint256",
          "name": "eventId",
          "type": "uint256"
        },
        {
          "internalType": "uint256",
          "name": "zoneId",
          "type": "uint256"
        },
        {
          "internalType": "address",
          "name": "user",
          "type": "address"
        }
      ],
      "name": "clearWaitlistEntry",
      "outputs": [],
      "stateMutability": "nonpayable",
      "type": "function"
    },
    {
      "inputs": [
        {
          "internalType": "uint256",
          "name": "eventId",
          "type": "uint256"
        },
        {
          "internalType": "uint256",
          "name": "zoneId",
          "type": "uint256"
        }
      ],
      "name": "completeWaitlistPurchase",
      "outputs": [],
      "stateMutability": "nonpayable",
      "type": "function"
    },
    {
      "inputs": [
        {
          "internalType": "uint256",
          "name": "eventId",
          "type": "uint256"
        },
        {
          "internalType": "uint256",
          "name": "zoneId",
          "type": "uint256"
        },
        {
          "internalType": "address",
          "name": "user",
          "type": "address"
        }
      ],
      "name": "expireOffer",
      "outputs": [],
      "stateMutability": "nonpayable",
      "type": "function"
    },
    {
      "inputs": [
        {
          "internalType": "uint256",
          "name": "eventId",
          "type": "uint256"
        },
        {
          "internalType": "uint256",
          "name": "zoneId",
          "type": "uint256"
        }
      ],
      "name": "getNextWaitingUser",
      "outputs": [
        {
          "internalType": "address",
          "name": "",
          "type": "address"
        }
      ],
      "stateMutability": "view",
      "type": "function"
    },
    {
      "inputs": [
        {
          "internalType": "uint256",
          "name": "eventId",
          "type": "uint256"
        },
        {
          "internalType": "uint256",
          "name": "zoneId",
          "type": "uint256"
        }
      ],
      "name": "getWaitlistLength",
      "outputs": [
        {
          "internalType": "uint256",
          "name": "",
          "type": "uint256"
        }
      ],
      "stateMutability": "view",
      "type": "function"
    },
    {
      "inputs": [
        {
          "internalType": "uint256",
          "name": "eventId",
          "type": "uint256"
        },
        {
          "internalType": "uint256",
          "name": "zoneId",
          "type": "uint256"
        },
        {
          "internalType": "address",
          "name": "user",
          "type": "address"
        }
      ],
      "name": "getWaitlistPosition",
      "outputs": [
        {
          "internalType": "uint256",
          "name": "",
          "type": "uint256"
        }
      ],
      "stateMutability": "view",
      "type": "function"
    },
    {
      "inputs": [
        {
          "internalType": "uint256",
          "name": "eventId",
          "type": "uint256"
        },
        {
          "internalType": "uint256",
          "name": "zoneId",
          "type": "uint256"
        },
        {
          "internalType": "address",
          "name": "user",
          "type": "address"
        }
      ],
      "name": "hasActiveOffer",
      "outputs": [
        {
          "internalType": "bool",
          "name": "",
          "type": "bool"
        }
      ],
      "stateMutability": "view",
      "type": "function"
    },
    {
      "inputs": [
        {
          "internalType": "uint256",
          "name": "eventId",
          "type": "uint256"
        },
        {
          "internalType": "uint256",
          "name": "zoneId",
          "type": "uint256"
        },
        {
          "internalType": "address",
          "name": "user",
          "type": "address"
        }
      ],
      "name": "isUserWaiting",
      "outputs": [
        {
          "internalType": "bool",
          "name": "",
          "type": "bool"
        }
      ],
      "stateMutability": "view",
      "type": "function"
    },
    {
      "inputs": [
        {
          "internalType": "uint256",
          "name": "eventId",
          "type": "uint256"
        },
        {
          "internalType": "uint256",
          "name": "zoneId",
          "type": "uint256"
        }
      ],
      "name": "joinWaitlist",
      "outputs": [],
      "stateMutability": "nonpayable",
      "type": "function"
    },
    {
      "inputs": [
        {
          "internalType": "uint256",
          "name": "eventId",
          "type": "uint256"
        },
        {
          "internalType": "uint256",
          "name": "zoneId",
          "type": "uint256"
        }
      ],
      "name": "leaveWaitlist",
      "outputs": [],
      "stateMutability": "nonpayable",
      "type": "function"
    },
    {
      "inputs": [
        {
          "internalType": "uint256",
          "name": "eventId",
          "type": "uint256"
        },
        {
          "internalType": "uint256",
          "name": "zoneId",
          "type": "uint256"
        },
        {
          "internalType": "address",
          "name": "user",
          "type": "address"
        }
      ],
      "name": "offerTicketToWaitlisted",
      "outputs": [],
      "stateMutability": "nonpayable",
      "type": "function"
    },
    {
      "inputs": [],
      "name": "owner",
      "outputs": [
        {
          "internalType": "address",
          "name": "",
          "type": "address"
        }
      ],
      "stateMutability": "view",
      "type": "function"
    },
    {
      "inputs": [],
      "name": "pause",
      "outputs": [],
      "stateMutability": "nonpayable",
      "type": "function"
    },
    {
      "inputs": [],
      "name": "paused",
      "outputs": [
        {
          "internalType": "bool",
          "name": "",
          "type": "bool"
        }
      ],
      "stateMutability": "view",
      "type": "function"
    },
    {
      "inputs": [],
      "name": "renounceOwnership",
      "outputs": [],
      "stateMutability": "nonpayable",
      "type": "function"
    },
    {
      "inputs": [
        {
          "internalType": "address",
          "name": "newOwner",
          "type": "address"
        }
      ],
      "name": "transferOwnership",
      "outputs": [],
      "stateMutability": "nonpayable",
      "type": "function"
    },
    {
      "inputs": [],
      "name": "unpause",
      "outputs": [],
      "stateMutability": "nonpayable",
      "type": "function"
    }
  ],
  "bytecode": "0x608080604052346100885733156100725760008054336001600160a01b03198216811783556040519290916001600160a01b0316907f8be0079c531659141344cd1fd0a4f28419497f9722a3daafe3b4186f6b6457e09080a36001805560ff1960025416600255610fed908161008e8239f35b631e4fbdf760e01b815260006004820152602490fd5b600080fdfe60406080815260048036101561001457600080fd5b600091823560e01c806326f7d7ab14610af3578063342b322214610a7e5780633727b4471461093e5780633964fdaf146108f85780633f4ba83a1461088e5780635c975abb1461086a5780636605afd9146107c5578063715018a61461076857806375459c111461074a5780637af359ab146106a457806381fde3b0146105085780638456cb59146104ad5780638da5cb5b14610485578063ad3c4bea14610458578063b07cd487146103a2578063b2c460f41461037d578063d18a5083146101765763f2fde38b146100e657600080fd5b34610172576020366003190112610172576001600160a01b0382358181169391929084900361016e57610117610cd0565b831561015857505082546001600160a01b0319811683178455167f8be0079c531659141344cd1fd0a4f28419497f9722a3daafe3b4186f6b6457e08380a380f35b51631e4fbdf760e01b8152908101849052602490fd5b8480fd5b8280fd5b508290346103795761018736610c8b565b90600192600284541461036a57600284556101a0610d64565b818552602090600382528086208487528252808620600281019033885281845260ff8389205416610301576101d3610cfc565b338152848101428152848201898152606083018b815260808401928c84528554680100000000000000008110156102ec57808d6102139201885587610d32565b9590956102da579060039493929160018060a01b039051166bffffffffffffffffffffffff60a01b875416178655518c86015560028501915115159060ff61ff0084549251151560081b1692169061ffff1916171790555191015580549060001982019182116102c75790877f1b05357d371fc0514ffdda84ffa13b09409626dc280ef8e115cccb122e9c280195949392338b520184528289205582528087208660ff1982541617905551338152a3805580f35b634e487b7160e01b895260118a52602489fd5b634e487b7160e01b8e528d8f5260248efd5b5050634e487b7160e01b8c5260418d5260248cfd5b825162461bcd60e51b8152808a01859052603960248201527f43616c6c657220697320616c726561647920696e2074686520776169746c697360448201527f7420666f722074686973206576656e7420616e64207a6f6e65000000000000006064820152608490fd5b51633ee5aeb560e01b81528590fd5b5080fd5b8382346103795760209061039961039336610ca6565b91610f44565b90519015158152f35b838234610379576103b236610ca6565b6103bd939193610cd0565b82855260209060038252828620858752825282862092600284019160018060a01b03169182885280845260ff82892054166103f6578780f35b600261042d8660017fbaf0e44559d75d5f16083d7080809f9219d24470c13696b78f7a5345e758be8598018752848b205490610d32565b50019060ff1991828154169055838952845281882090815416905551908152a3818080808080808780f35b8382346103795760209061047461046e36610c8b565b90610ec4565b90516001600160a01b039091168152f35b838234610379578160031936011261037957905490516001600160a01b039091168152602090f35b83823461037957816003193601126103795760207f62e78cea01bee320cd4e420270b5ea74000d11b0c9f74754ebdbfc544b05a258916104eb610cd0565b6104f3610d64565b600160ff19600254161760025551338152a180f35b50346101725761051736610ca6565b90939192610523610d64565b8386526020926003845281872086885284526105708288209360018060a01b03169384895260028101865261055d60ff858b205416610dec565b8489526001810186528389205490610d32565b50600281019081549060ff8260081c1615610631576003019283544211156105c8575061ff0019169055869055519081527fff71f12e5cf1906301f43d16584823504c506a9b4309a1d39ac6eb40ced1c6a99190a380f35b845162461bcd60e51b8152908101879052603860248201527f546865207469636b6574206f6666657220666f722074686973206576656e742060448201527f616e64207a6f6e6520686173206e6f74206578706972656400000000000000006064820152608490fd5b845162461bcd60e51b8152808501889052604160248201527f5573657220646f6573206e6f74206861766520616e206163746976652074696360448201527f6b6574206f6666657220666f722074686973206576656e7420616e64207a6f6e6064820152606560f81b608482015260a490fd5b838234610379577fbaf0e44559d75d5f16083d7080809f9219d24470c13696b78f7a5345e758be85906106d636610c8b565b9290916106e1610d64565b828552602090600382528086208587528252808620600261072781830192338a5283865261071460ff868c205416610d82565b338a52600181018652848a205490610d32565b50019060ff1991828154169055338852835281872090815416905551338152a380f35b83823461037957816003193601126103795760209051620151808152f35b83346107c257806003193601126107c257610781610cd0565b80546001600160a01b03198116825581906001600160a01b03167f8be0079c531659141344cd1fd0a4f28419497f9722a3daafe3b4186f6b6457e08280a380f35b80fd5b838234610379576107d536610ca6565b9291845260036020528184209084526020528083209160018060a01b031691828452600280820160205260ff91610810838588205416610dec565b600194865284810160205283862054955b868110610832576020868651908152f35b838361083e8385610d32565b50015416610855575b61085090610e54565b610821565b9461086261085091610e54565b959050610847565b83823461037957816003193601126103795760209060ff6002541690519015158152f35b5090346101725782600319360112610172576108a8610cd0565b6002549060ff8216156108ea575060ff1916600255513381527f5db9ee0a495bf2e6ff9c91a7834c1ba4fdd244a5e8aa4e537bd38aeae4b073aa90602090a180f35b8251638dfc202b60e01b8152fd5b8382346103795760ff8160209361090e36610ca6565b9183526003875283832090835286528282206001600160a01b039091168252600201855220549151911615158152f35b508290346103795761094f36610ca6565b61095a939193610d64565b8285526020916003835280862085875283526109a78187209260018060a01b03169283885260028101855261099460ff848a205416610dec565b8388526001810185528288205490610d32565b5060028101805460ff8160081c16610a15576101009061ff00191617905562015180420190814211610a025760030155519081527f5e7d9f3701cb4dec6d83d2299ee59d449557f633f60c6a34486dcb59a907cf0a9190a380f35b634e487b7160e01b885260118952602488fd5b835162461bcd60e51b8152808b01879052603f60248201527f5573657220616c72656164792068617320616e20616374697665207469636b6560448201527f74206f6666657220666f722074686973206576656e7420616e64207a6f6e65006064820152608490fd5b5082346107c257610a8e36610c8b565b908252600360205282822090825260205281812091818354905b818110610ab9576020848451908152f35b60ff6002610ac78388610d32565b50015416610ade575b610ad990610e54565b610aa8565b92610aeb610ad991610e54565b939050610ad0565b5082903461037957610b0436610c8b565b91610b0d610d64565b818452602090600382528085208486528252808520610b526002820191338852828552610b3f60ff858a205416610d82565b3388526001810185528388205490610d32565b5090600282019788549260ff8460081c1615610c1657600301544211610bb657507f9a5b37deeb3286740d007e8020660109442179cbf50f003042216dc06ae784b29495969760ff198093169055338852835281872090815416905551338152a380f35b835162461bcd60e51b8152908101859052603460248201527f546865207469636b6574206f6666657220666f722074686973206576656e7420604482015273185b99081e9bdb99481a185cc8195e1c1a5c995960621b6064820152608490fd5b845162461bcd60e51b8152808301879052604360248201527f43616c6c657220646f6573206e6f74206861766520616e20616374697665207460448201527f69636b6574206f6666657220666f722074686973206576656e7420616e64207a6064820152626f6e6560e81b608482015260a490fd5b6040906003190112610ca1576004359060243590565b600080fd5b6060906003190112610ca15760043590602435906044356001600160a01b0381168103610ca15790565b6000546001600160a01b03163303610ce457565b60405163118cdaa760e01b8152336004820152602490fd5b6040519060a0820182811067ffffffffffffffff821117610d1c57604052565b634e487b7160e01b600052604160045260246000fd5b8054821015610d4e5760005260206000209060021b0190600090565b634e487b7160e01b600052603260045260246000fd5b60ff60025416610d7057565b60405163d93c066560e01b8152600490fd5b15610d8957565b60405162461bcd60e51b815260206004820152603560248201527f43616c6c6572206973206e6f7420696e2074686520776169746c69737420666f604482015274722074686973206576656e7420616e64207a6f6e6560581b6064820152608490fd5b15610df357565b60405162461bcd60e51b815260206004820152603360248201527f55736572206973206e6f7420696e2074686520776169746c69737420666f722060448201527274686973206576656e7420616e64207a6f6e6560681b6064820152608490fd5b6000198114610e635760010190565b634e487b7160e01b600052601160045260246000fd5b906003610e84610cfc565b83546001600160a01b0316815260018401546020820152600284015460ff8181161515604084015260089190911c16151560608201529201546080830152565b90600091825260036020526040908183209083526020528082209082918054925b838110610ef3575050505090565b610f06610f008284610d32565b50610e79565b83810151151580610f38575b610f255750610f2090610e54565b610ee5565b516001600160a01b031695945050505050565b50606081015115610f12565b91906000928352600360205260408320908352602052604082209060018060a01b031682526002810160205260ff60408320541615610fb357806040610f96936001610f009401602052205490610d32565b606081015115159081610fa7575090565b60809150015142111590565b509056fea2646970667358221220472b278f706ef50eddbbc6f00256ba3c34dbc34e1027548f2d2fc2148f00d6dd64736f6c63430008140033",
  "linkReferences": {},
  "deployedLinkReferences": {}
}