{
  "_format": "hh-sol-artifact-1",
  "contractName": "WaitlistManager",
  "sourceName": "contracts/core/WaitlistManager.sol",
  "abi": [
    {
      "inputs": [],
      "stateMutability": "nonpayable",
      "type": "constructor"
    },
    {
      "inputs": [],
      "name": "EnforcedPause",
      "type": "error"
    },
    {
      "inputs": [],
      "name": "ExpectedPause",
      "type": "error"
    },
    {
      "inputs": [
        {
          "internalType": "address",
          "name": "owner",
          "type": "address"
        }
      ],
      "name": "OwnableInvalidOwner",
      "type": "error"
    },
    {
      "inputs": [
        {
          "internalType": "address",
          "name": "account",
          "type": "address"
        }
      ],
      "name": "OwnableUnauthorizedAccount",
      "type": "error"
    },
    {
      "inputs": [],
      "name": "ReentrancyGuardReentrantCall",
      "type": "error"
    },
    {
      "anonymous": false,
      "inputs": [
        {
          "indexed": true,
          "internalType": "uint256",
          "name": "eventId",
          "type": "uint256"
        },
        {
          "indexed": true,
          "internalType": "uint256",
          "name": "zoneId",
          "type": "uint256"
        },
        {
          "indexed": false,
          "internalType": "address",
          "name": "user",
          "type": "address"
        }
      ],
      "name": "JoinedWaitlist",
      "type": "event"
    },
    {
      "anonymous": false,
      "inputs": [
        {
          "indexed": true,
          "internalType": "uint256",
          "name": "eventId",
          "type": "uint256"
        },
        {
          "indexed": true,
          "internalType": "uint256",
          "name": "zoneId",
          "type": "uint256"
        },
        {
          "indexed": false,
          "internalType": "address",
          "name": "user",
          "type": "address"
        }
      ],
      "name": "LeftWaitlist",
      "type": "event"
    },
    {
      "anonymous": false,
      "inputs": [
        {
          "indexed": true,
          "internalType": "address",
          "name": "previousOwner",
          "type": "address"
        },
        {
          "indexed": true,
          "internalType": "address",
          "name": "newOwner",
          "type": "address"
        }
      ],
      "name": "OwnershipTransferred",
      "type": "event"
    },
    {
      "anonymous": false,
      "inputs": [
        {
          "indexed": false,
          "internalType": "address",
          "name": "account",
          "type": "address"
        }
      ],
      "name": "Paused",
      "type": "event"
    },
    {
      "anonymous": false,
      "inputs": [
        {
          "indexed": false,
          "internalType": "address",
          "name": "account",
          "type": "address"
        }
      ],
      "name": "Unpaused",
      "type": "event"
    },
    {
      "anonymous": false,
      "inputs": [
        {
          "indexed": true,
          "internalType": "uint256",
          "name": "eventId",
          "type": "uint256"
        },
        {
          "indexed": true,
          "internalType": "uint256",
          "name": "zoneId",
          "type": "uint256"
        },
        {
          "indexed": false,
          "internalType": "address",
          "name": "user",
          "type": "address"
        }
      ],
      "name": "WaitlistOfferExpired",
      "type": "event"
    },
    {
      "anonymous": false,
      "inputs": [
        {
          "indexed": true,
          "internalType": "uint256",
          "name": "eventId",
          "type": "uint256"
        },
        {
          "indexed": true,
          "internalType": "uint256",
          "name": "zoneId",
          "type": "uint256"
        },
        {
          "indexed": false,
          "internalType": "address",
          "name": "user",
          "type": "address"
        }
      ],
      "name": "WaitlistPurchaseCompleted",
      "type": "event"
    },
    {
      "anonymous": false,
      "inputs": [
        {
          "indexed": true,
          "internalType": "uint256",
          "name": "eventId",
          "type": "uint256"
        },
        {
          "indexed": true,
          "internalType": "uint256",
          "name": "zoneId",
          "type": "uint256"
        },
        {
          "indexed": false,
          "internalType": "address",
          "name": "user",
          "type": "address"
        }
      ],
      "name": "WaitlistPurchaseOffered",
      "type": "event"
    },
    {
      "inputs": [],
      "name": "OFFER_DURATION",
      "outputs": [
        {
          "internalType": "uint256",
          "name": "",
          "type": "uint256"
        }
      ],
      "stateMutability": "view",
      "type": "function"
    },
    {
      "inputs": [
        {
          "internalType": "uint256",
          "name": "eventId",
          "type": "uint256"
        },
        {
          "internalType": "uint256",
          "name": "zoneId",
          "type": "uint256"
        },
        {
          "internalType": "address",
          "name": "user",
          "type": "address"
        }
      ],
      "name": "clearWaitlistEntry",
      "outputs": [],
      "stateMutability": "nonpayable",
      "type": "function"
    },
    {
      "inputs": [
        {
          "internalType": "uint256",
          "name": "eventId",
          "type": "uint256"
        },
        {
          "internalType": "uint256",
          "name": "zoneId",
          "type": "uint256"
        }
      ],
      "name": "completeWaitlistPurchase",
      "outputs": [],
      "stateMutability": "nonpayable",
      "type": "function"
    },
    {
      "inputs": [
        {
          "internalType": "uint256",
          "name": "eventId",
          "type": "uint256"
        },
        {
          "internalType": "uint256",
          "name": "zoneId",
          "type": "uint256"
        },
        {
          "internalType": "address",
          "name": "user",
          "type": "address"
        }
      ],
      "name": "expireOffer",
      "outputs": [],
      "stateMutability": "nonpayable",
      "type": "function"
    },
    {
      "inputs": [
        {
          "internalType": "uint256",
          "name": "eventId",
          "type": "uint256"
        },
        {
          "internalType": "uint256",
          "name": "zoneId",
          "type": "uint256"
        }
      ],
      "name": "getNextWaitingUser",
      "outputs": [
        {
          "internalType": "address",
          "name": "",
          "type": "address"
        }
      ],
      "stateMutability": "view",
      "type": "function"
    },
    {
      "inputs": [
        {
          "internalType": "uint256",
          "name": "eventId",
          "type": "uint256"
        },
        {
          "internalType": "uint256",
          "name": "zoneId",
          "type": "uint256"
        }
      ],
      "name": "getWaitlistLength",
      "outputs": [
        {
          "internalType": "uint256",
          "name": "",
          "type": "uint256"
        }
      ],
      "stateMutability": "view",
      "type": "function"
    },
    {
      "inputs": [
        {
          "internalType": "uint256",
          "name": "eventId",
          "type": "uint256"
        },
        {
          "internalType": "uint256",
          "name": "zoneId",
          "type": "uint256"
        },
        {
          "internalType": "address",
          "name": "user",
          "type": "address"
        }
      ],
      "name": "getWaitlistPosition",
      "outputs": [
        {
          "internalType": "uint256",
          "name": "",
          "type": "uint256"
        }
      ],
      "stateMutability": "view",
      "type": "function"
    },
    {
      "inputs": [
        {
          "internalType": "uint256",
          "name": "eventId",
          "type": "uint256"
        },
        {
          "internalType": "uint256",
          "name": "zoneId",
          "type": "uint256"
        },
        {
          "internalType": "address",
          "name": "user",
          "type": "address"
        }
      ],
      "name": "hasActiveOffer",
      "outputs": [
        {
          "internalType": "bool",
          "name": "",
          "type": "bool"
        }
      ],
      "stateMutability": "view",
      "type": "function"
    },
    {
      "inputs": [
        {
          "internalType": "uint256",
          "name": "eventId",
          "type": "uint256"
        },
        {
          "internalType": "uint256",
          "name": "zoneId",
          "type": "uint256"
        },
        {
          "internalType": "address",
          "name": "user",
          "type": "address"
        }
      ],
      "name": "isUserWaiting",
      "outputs": [
        {
          "internalType": "bool",
          "name": "",
          "type": "bool"
        }
      ],
      "stateMutability": "view",
      "type": "function"
    },
    {
      "inputs": [
        {
          "internalType": "uint256",
          "name": "eventId",
          "type": "uint256"
        },
        {
          "internalType": "uint256",
          "name": "zoneId",
          "type": "uint256"
        }
      ],
      "name": "joinWaitlist",
      "outputs": [],
      "stateMutability": "nonpayable",
      "type": "function"
    },
    {
      "inputs": [
        {
          "internalType": "uint256",
          "name": "eventId",
          "type": "uint256"
        },
        {
          "internalType": "uint256",
          "name": "zoneId",
          "type": "uint256"
        }
      ],
      "name": "leaveWaitlist",
      "outputs": [],
      "stateMutability": "nonpayable",
      "type": "function"
    },
    {
      "inputs": [
        {
          "internalType": "uint256",
          "name": "eventId",
          "type": "uint256"
        },
        {
          "internalType": "uint256",
          "name": "zoneId",
          "type": "uint256"
        },
        {
          "internalType": "address",
          "name": "user",
          "type": "address"
        }
      ],
      "name": "offerTicketToWaitlisted",
      "outputs": [],
      "stateMutability": "nonpayable",
      "type": "function"
    },
    {
      "inputs": [],
      "name": "owner",
      "outputs": [
        {
          "internalType": "address",
          "name": "",
          "type": "address"
        }
      ],
      "stateMutability": "view",
      "type": "function"
    },
    {
      "inputs": [],
      "name": "pause",
      "outputs": [],
      "stateMutability": "nonpayable",
      "type": "function"
    },
    {
      "inputs": [],
      "name": "paused",
      "outputs": [
        {
          "internalType": "bool",
          "name": "",
          "type": "bool"
        }
      ],
      "stateMutability": "view",
      "type": "function"
    },
    {
      "inputs": [],
      "name": "renounceOwnership",
      "outputs": [],
      "stateMutability": "nonpayable",
      "type": "function"
    },
    {
      "inputs": [
        {
          "internalType": "address",
          "name": "newOwner",
          "type": "address"
        }
      ],
      "name": "transferOwnership",
      "outputs": [],
      "stateMutability": "nonpayable",
      "type": "function"
    },
    {
      "inputs": [],
      "name": "unpause",
      "outputs": [],
      "stateMutability": "nonpayable",
      "type": "function"
    }
  ],
  "bytecode": "0x608080604052346100885733156100725760008054336001600160a01b03198216811783556040519290916001600160a01b0316907f8be0079c531659141344cd1fd0a4f28419497f9722a3daafe3b4186f6b6457e09080a36001805560ff1960025416600255610df4908161008e8239f35b631e4fbdf760e01b815260006004820152602490fd5b600080fdfe60406080815260048036101561001457600080fd5b600091823560e01c806326f7d7ab146109ef578063342b32221461097a5780633727b4471461086c5780633964fdaf146108265780633f4ba83a146107bc5780635c975abb146107985780636605afd9146106f3578063715018a61461069657806375459c11146106785780637af359ab146105d257806381fde3b0146104d85780638456cb591461047d5780638da5cb5b14610455578063ad3c4bea14610428578063b07cd48714610372578063b2c460f41461034d578063d18a5083146101765763f2fde38b146100e657600080fd5b34610172576020366003190112610172576001600160a01b0382358181169391929084900361016e57610117610b2d565b831561015857505082546001600160a01b0319811683178455167f8be0079c531659141344cd1fd0a4f28419497f9722a3daafe3b4186f6b6457e08380a380f35b51631e4fbdf760e01b8152908101849052602490fd5b8480fd5b8280fd5b508290346103495761018736610ae8565b90600192600284541461033a57600284556101a0610bc1565b818552602090600382528086208487528252808620600281019033885281845260ff8389205416610301576101d3610b59565b338152848101428152848201898152606083018b815260808401928c84528554680100000000000000008110156102ec57808d6102139201885587610b8f565b9590956102da579060039493929160018060a01b039051166bffffffffffffffffffffffff60a01b875416178655518c86015560028501915115159060ff61ff0084549251151560081b1692169061ffff1916171790555191015580549060001982019182116102c75790877f1b05357d371fc0514ffdda84ffa13b09409626dc280ef8e115cccb122e9c280195949392338b520184528289205582528087208660ff1982541617905551338152a3805580f35b634e487b7160e01b895260118a52602489fd5b634e487b7160e01b8e528d8f5260248efd5b5050634e487b7160e01b8c5260418d5260248cfd5b825162461bcd60e51b8152808a018590526013602482015272105b1c9958591e481a5b881dd85a5d1b1a5cdd606a1b6044820152606490fd5b51633ee5aeb560e01b81528590fd5b5080fd5b8382346103495760209061036961036336610b03565b91610d4b565b90519015158152f35b8382346103495761038236610b03565b61038d939193610b2d565b82855260209060038252828620858752825282862092600284019160018060a01b03169182885280845260ff82892054166103c6578780f35b60026103fd8660017fbaf0e44559d75d5f16083d7080809f9219d24470c13696b78f7a5345e758be8598018752848b205490610b8f565b50019060ff1991828154169055838952845281882090815416905551908152a3818080808080808780f35b8382346103495760209061044461043e36610ae8565b90610ccb565b90516001600160a01b039091168152f35b838234610349578160031936011261034957905490516001600160a01b039091168152602090f35b83823461034957816003193601126103495760207f62e78cea01bee320cd4e420270b5ea74000d11b0c9f74754ebdbfc544b05a258916104bb610b2d565b6104c3610bc1565b600160ff19600254161760025551338152a180f35b5034610172576104e736610b03565b909391926104f3610bc1565b8386526020926003845281872086885284526105408288209360018060a01b03169384895260028101865261052d60ff858b205416610bdf565b8489526001810186528389205490610b8f565b506002810190600382549161055a60ff8460081c16610c1d565b0192835442111561059b575061ff0019169055869055519081527fff71f12e5cf1906301f43d16584823504c506a9b4309a1d39ac6eb40ced1c6a99190a380f35b845162461bcd60e51b8152908101879052601160248201527013d999995c881b9bdd08195e1c1a5c9959607a1b6044820152606490fd5b838234610349577fbaf0e44559d75d5f16083d7080809f9219d24470c13696b78f7a5345e758be859061060436610ae8565b92909161060f610bc1565b828552602090600382528086208587528252808620600261065581830192338a5283865261064260ff868c205416610bdf565b338a52600181018652848a205490610b8f565b50019060ff1991828154169055338852835281872090815416905551338152a380f35b83823461034957816003193601126103495760209051620151808152f35b83346106f057806003193601126106f0576106af610b2d565b80546001600160a01b03198116825581906001600160a01b03167f8be0079c531659141344cd1fd0a4f28419497f9722a3daafe3b4186f6b6457e08280a380f35b80fd5b8382346103495761070336610b03565b9291845260036020528184209084526020528083209160018060a01b031691828452600280820160205260ff9161073e838588205416610bdf565b600194865284810160205283862054955b868110610760576020868651908152f35b838361076c8385610b8f565b50015416610783575b61077e90610c5b565b61074f565b9461079061077e91610c5b565b959050610775565b83823461034957816003193601126103495760209060ff6002541690519015158152f35b5090346101725782600319360112610172576107d6610b2d565b6002549060ff821615610818575060ff1916600255513381527f5db9ee0a495bf2e6ff9c91a7834c1ba4fdd244a5e8aa4e537bd38aeae4b073aa90602090a180f35b8251638dfc202b60e01b8152fd5b8382346103495760ff8160209361083c36610b03565b9183526003875283832090835286528282206001600160a01b039091168252600201855220549151911615158152f35b508290346103495761087d36610b03565b610888939193610bc1565b8285526020916003835280862085875283526108d58187209260018060a01b0316928388526002810185526108c260ff848a205416610bdf565b8388526001810185528288205490610b8f565b5060028101805460ff8160081c16610943576101009061ff001916179055620151804201908142116109305760030155519081527f5e7d9f3701cb4dec6d83d2299ee59d449557f633f60c6a34486dcb59a907cf0a9190a380f35b634e487b7160e01b885260118952602488fd5b835162461bcd60e51b8152808b01879052601160248201527020b63932b0b23c903430b99037b33332b960791b6044820152606490fd5b5082346106f05761098a36610ae8565b908252600360205282822090825260205281812091818354905b8181106109b5576020848451908152f35b60ff60026109c38388610b8f565b500154166109da575b6109d590610c5b565b6109a4565b926109e76109d591610c5b565b9390506109cc565b5082903461034957610a0036610ae8565b91610a09610bc1565b818452602090600382528085208486528252808520610a4e6002820191338852828552610a3b60ff858a205416610bdf565b3388526001810185528388205490610b8f565b509060028201976003895493610a6960ff8660081c16610c1d565b01544211610ab557507f9a5b37deeb3286740d007e8020660109442179cbf50f003042216dc06ae784b29495969760ff198093169055338852835281872090815416905551338152a380f35b835162461bcd60e51b8152908101859052600d60248201526c13d999995c88195e1c1a5c9959609a1b6044820152606490fd5b6040906003190112610afe576004359060243590565b600080fd5b6060906003190112610afe5760043590602435906044356001600160a01b0381168103610afe5790565b6000546001600160a01b03163303610b4157565b60405163118cdaa760e01b8152336004820152602490fd5b6040519060a0820182811067ffffffffffffffff821117610b7957604052565b634e487b7160e01b600052604160045260246000fd5b8054821015610bab5760005260206000209060021b0190600090565b634e487b7160e01b600052603260045260246000fd5b60ff60025416610bcd57565b60405163d93c066560e01b8152600490fd5b15610be657565b60405162461bcd60e51b815260206004820152600f60248201526e139bdd081a5b881dd85a5d1b1a5cdd608a1b6044820152606490fd5b15610c2457565b60405162461bcd60e51b815260206004820152600f60248201526e27379030b1ba34bb329037b33332b960891b6044820152606490fd5b6000198114610c6a5760010190565b634e487b7160e01b600052601160045260246000fd5b906003610c8b610b59565b83546001600160a01b0316815260018401546020820152600284015460ff8181161515604084015260089190911c16151560608201529201546080830152565b90600091825260036020526040908183209083526020528082209082918054925b838110610cfa575050505090565b610d0d610d078284610b8f565b50610c80565b83810151151580610d3f575b610d2c5750610d2790610c5b565b610cec565b516001600160a01b031695945050505050565b50606081015115610d19565b91906000928352600360205260408320908352602052604082209060018060a01b031682526002810160205260ff60408320541615610dba57806040610d9d936001610d079401602052205490610b8f565b606081015115159081610dae575090565b60809150015142111590565b509056fea2646970667358221220dfe317e86c9a43a80fa7156e2a315fda53b90573db8345dac702da68741f0a9e64736f6c63430008140033",
  "linkReferences": {},
  "deployedLinkReferences": {}
}