{
  "_format": "hh-sol-artifact-1",
  "contractName": "ConditionalFundsEscrow",
  "sourceName": "contracts/core/ConditionalFundsEscrow.sol",
  "abi": [
    {
      "inputs": [
        {
          "internalType": "address",
          "name": "eventManagerAddress",
          "type": "address"
        }
      ],
      "stateMutability": "nonpayable",
      "type": "constructor"
    },
    {
      "inputs": [],
      "name": "EnforcedPause",
      "type": "error"
    },
    {
      "inputs": [],
      "name": "ExpectedPause",
      "type": "error"
    },
    {
      "inputs": [
        {
          "internalType": "address",
          "name": "owner",
          "type": "address"
        }
      ],
      "name": "OwnableInvalidOwner",
      "type": "error"
    },
    {
      "inputs": [
        {
          "internalType": "address",
          "name": "account",
          "type": "address"
        }
      ],
      "name": "OwnableUnauthorizedAccount",
      "type": "error"
    },
    {
      "inputs": [],
      "name": "ReentrancyGuardReentrantCall",
      "type": "error"
    },
    {
      "anonymous": false,
      "inputs": [
        {
          "indexed": true,
          "internalType": "address",
          "name": "previousOwner",
          "type": "address"
        },
        {
          "indexed": true,
          "internalType": "address",
          "name": "newOwner",
          "type": "address"
        }
      ],
      "name": "OwnershipTransferred",
      "type": "event"
    },
    {
      "anonymous": false,
      "inputs": [
        {
          "indexed": false,
          "internalType": "address",
          "name": "account",
          "type": "address"
        }
      ],
      "name": "Paused",
      "type": "event"
    },
    {
      "anonymous": false,
      "inputs": [
        {
          "indexed": true,
          "internalType": "uint256",
          "name": "eventId",
          "type": "uint256"
        },
        {
          "indexed": true,
          "internalType": "address",
          "name": "payer",
          "type": "address"
        },
        {
          "indexed": false,
          "internalType": "uint256",
          "name": "amount",
          "type": "uint256"
        }
      ],
      "name": "PaymentDeposited",
      "type": "event"
    },
    {
      "anonymous": false,
      "inputs": [
        {
          "indexed": true,
          "internalType": "uint256",
          "name": "eventId",
          "type": "uint256"
        },
        {
          "indexed": true,
          "internalType": "address",
          "name": "payer",
          "type": "address"
        },
        {
          "indexed": false,
          "internalType": "uint256",
          "name": "amount",
          "type": "uint256"
        }
      ],
      "name": "PaymentRefunded",
      "type": "event"
    },
    {
      "anonymous": false,
      "inputs": [
        {
          "indexed": true,
          "internalType": "uint256",
          "name": "eventId",
          "type": "uint256"
        },
        {
          "indexed": true,
          "internalType": "address",
          "name": "payer",
          "type": "address"
        },
        {
          "indexed": false,
          "internalType": "uint256",
          "name": "amount",
          "type": "uint256"
        }
      ],
      "name": "PaymentReleased",
      "type": "event"
    },
    {
      "anonymous": false,
      "inputs": [
        {
          "indexed": false,
          "internalType": "address",
          "name": "account",
          "type": "address"
        }
      ],
      "name": "Unpaused",
      "type": "event"
    },
    {
      "anonymous": false,
      "inputs": [
        {
          "indexed": true,
          "internalType": "uint256",
          "name": "eventId",
          "type": "uint256"
        },
        {
          "indexed": true,
          "internalType": "uint256",
          "name": "ticketId",
          "type": "uint256"
        }
      ],
      "name": "WaitlistRefundEnabled",
      "type": "event"
    },
    {
      "inputs": [
        {
          "internalType": "uint256",
          "name": "eventId",
          "type": "uint256"
        },
        {
          "internalType": "uint256",
          "name": "ticketId",
          "type": "uint256"
        }
      ],
      "name": "depositPayment",
      "outputs": [],
      "stateMutability": "payable",
      "type": "function"
    },
    {
      "inputs": [
        {
          "internalType": "uint256",
          "name": "eventId",
          "type": "uint256"
        },
        {
          "internalType": "uint256",
          "name": "ticketId",
          "type": "uint256"
        }
      ],
      "name": "enableWaitlistRefund",
      "outputs": [],
      "stateMutability": "nonpayable",
      "type": "function"
    },
    {
      "inputs": [
        {
          "internalType": "uint256",
          "name": "eventId",
          "type": "uint256"
        },
        {
          "internalType": "uint256",
          "name": "ticketId",
          "type": "uint256"
        }
      ],
      "name": "getPaymentAmount",
      "outputs": [
        {
          "internalType": "uint256",
          "name": "",
          "type": "uint256"
        }
      ],
      "stateMutability": "view",
      "type": "function"
    },
    {
      "inputs": [
        {
          "internalType": "uint256",
          "name": "eventId",
          "type": "uint256"
        },
        {
          "internalType": "uint256",
          "name": "ticketId",
          "type": "uint256"
        }
      ],
      "name": "getPaymentStatus",
      "outputs": [
        {
          "internalType": "enum IConditionalFundsEscrow.PaymentStatus",
          "name": "",
          "type": "uint8"
        }
      ],
      "stateMutability": "view",
      "type": "function"
    },
    {
      "inputs": [],
      "name": "owner",
      "outputs": [
        {
          "internalType": "address",
          "name": "",
          "type": "address"
        }
      ],
      "stateMutability": "view",
      "type": "function"
    },
    {
      "inputs": [],
      "name": "pause",
      "outputs": [],
      "stateMutability": "nonpayable",
      "type": "function"
    },
    {
      "inputs": [],
      "name": "paused",
      "outputs": [
        {
          "internalType": "bool",
          "name": "",
          "type": "bool"
        }
      ],
      "stateMutability": "view",
      "type": "function"
    },
    {
      "inputs": [
        {
          "internalType": "uint256",
          "name": "eventId",
          "type": "uint256"
        },
        {
          "internalType": "uint256",
          "name": "ticketId",
          "type": "uint256"
        }
      ],
      "name": "refundPayment",
      "outputs": [],
      "stateMutability": "nonpayable",
      "type": "function"
    },
    {
      "inputs": [
        {
          "internalType": "uint256",
          "name": "eventId",
          "type": "uint256"
        },
        {
          "internalType": "uint256",
          "name": "ticketId",
          "type": "uint256"
        }
      ],
      "name": "releasePayment",
      "outputs": [],
      "stateMutability": "nonpayable",
      "type": "function"
    },
    {
      "inputs": [],
      "name": "renounceOwnership",
      "outputs": [],
      "stateMutability": "nonpayable",
      "type": "function"
    },
    {
      "inputs": [
        {
          "internalType": "address",
          "name": "newOwner",
          "type": "address"
        }
      ],
      "name": "transferOwnership",
      "outputs": [],
      "stateMutability": "nonpayable",
      "type": "function"
    },
    {
      "inputs": [],
      "name": "unpause",
      "outputs": [],
      "stateMutability": "nonpayable",
      "type": "function"
    },
    {
      "inputs": [],
      "name": "withdrawStuckFunds",
      "outputs": [],
      "stateMutability": "nonpayable",
      "type": "function"
    }
  ],
  "bytecode": "0x60a03461011f57601f610de438819003918201601f19168301916001600160401b038311848410176101245780849260209460405283398101031261011f57516001600160a01b0380821680830361011f573315610106576000543360018060a01b0319821617600055604051923391167f8be0079c531659141344cd1fd0a4f28419497f9722a3daafe3b4186f6b6457e0600080a36001805560ff1960025416600255156100c45750608052604051610ca9908161013b8239608051816103b70152f35b62461bcd60e51b815260206004820152601c60248201527f496e76616c6964204576656e744d616e616765722061646472657373000000006044820152606490fd5b604051631e4fbdf760e01b815260006004820152602490fd5b600080fd5b634e487b7160e01b600052604160045260246000fdfe60406080815260048036101561001457600080fd5b600091823560e01c80632f62582c14610a1a5780633f4ba83a146109b05780635c975abb1461098c57806366e008f81461095d578063715018a61461090057806378c5e06d146108ad5780638456cb59146108525780638da5cb5b1461082a57806395144dc4146106c257806397e99a801461038a5780639bdc727c146101b1578063c5b60a481461013f5763f2fde38b146100af57600080fd5b3461013b57602036600319011261013b576001600160a01b03823581811693919290849003610137576100e0610b43565b831561012157505082546001600160a01b0319811683178455167f8be0079c531659141344cd1fd0a4f28419497f9722a3daafe3b4186f6b6457e08380a380f35b51631e4fbdf760e01b8152908101849052602490fd5b8480fd5b8280fd5b503461013b578260031936011261013b57610158610b43565b8280808060018060a01b0381541647905af1610172610be8565b501561017c578280f35b906020606492519162461bcd60e51b8352820152600f60248201526e151c985b9cd9995c8819985a5b1959608a1b6044820152fd5b5082906101bd36610b28565b916101c6610bc5565b6101ce610ba7565b3415610337578184526003602090815281852084865281528185205490936001600160a01b039182166102e55782516080810181811067ffffffffffffffff8211176102d2579060029185523381528681013481528582019489865260608301948a8652888b5260038a52878b20908b528952868a209251166bffffffffffffffffffffffff60a01b8354161782555160018201550191519060038210156102bf5790829160ff61ff007f71284872bb4c088a81295dff2513729babbccfeda38a8d824bb1a73bcaab494e9695549251151560081b1692169061ffff19161717905551923484523393a36001805580f35b634e487b7160e01b875260218852602487fd5b634e487b7160e01b885260418952602488fd5b825162461bcd60e51b8152808801869052602660248201527f5061796d656e7420666f722074686973207469636b657420616c72656164792060448201526565786973747360d01b6064820152608490fd5b5162461bcd60e51b8152602081860152602860248201527f4465706f73697420616d6f756e74206d7573742062652067726561746572207460448201526768616e207a65726f60c01b6064820152608490fd5b508290346106be5761039b36610b28565b90916103a5610bc5565b6103ad610ba7565b6001600160a01b037f00000000000000000000000000000000000000000000000000000000000000008116953387900361066b578486526020936003855283872090875284528286209060028201805460ff8116600381101561065857610609578551631b11429360e31b815283810189905287816024818e5afa9081156105ff578a916105c5575b501561055c5760ff1916600117905583516329260ad160e11b815281810187905296978590889060249082905afa968715610552578897610516575b5087808080600186019a878c5491165af161048b610be8565b50156104c85750907f21d71db5be59bb9fa133895586b7404307dd33fb93b16db09dc6f1d9d7d231b0939291541694549051908152a36001805580f35b835162461bcd60e51b8152908101859052602260248201527f5472616e7366657220746f206576656e74206f7267616e697a6572206661696c604482015261195960f21b6064820152608490fd5b9096508481813d831161054b575b61052e8183610b6f565b8101031261054757518281168103610547579588610472565b8780fd5b503d610524565b84513d8a823e3d90fd5b855162461bcd60e51b8152808401889052603b60248201527f4576656e7420686173206e6f7420636f6e636c75646564206f7220646f65732060448201527f6e6f74206d6565742072656c6561736520636f6e646974696f6e7300000000006064820152608490fd5b90508781813d83116105f8575b6105dc8183610b6f565b810103126105f4575180151581036105f4578b610436565b8980fd5b503d6105d2565b87513d8c823e3d90fd5b855162461bcd60e51b8152808401889052602360248201527f5061796d656e74206d75737420626520696e20612050656e64696e672073746160448201526274757360e81b6064820152608490fd5b634e487b7160e01b8a526021845260248afd5b608490602084519162461bcd60e51b8352820152602760248201527f43616c6c6572206973206e6f7420746865204576656e744d616e6167657220636044820152661bdb9d1c9858dd60ca1b6064820152fd5b5080fd5b503461013b576106d136610b28565b6106dc929192610bc5565b6106e4610ba7565b8285526003602052818520908552602052808420926002840180549460ff86166003811015610817576107bd576001600291610729828060a01b038254163314610c28565b01549560ff19161790558480808087335af1610743610be8565b501561077b5750519182527fe89ec1881a76229445bcd179b8c4b24f9edc7ddd87d07fb3b19c67ae9c6e27cc60203393a36001805580f35b6020606492519162461bcd60e51b8352820152601f60248201527f526566756e64207472616e7366657220746f207061796572206661696c6564006044820152fd5b835162461bcd60e51b8152602081850152602e60248201527f5061796d656e74206d75737420626520696e20612050656e64696e672073746160448201526d1d1d5cc8199bdc881c99599d5b9960921b6064820152608490fd5b634e487b7160e01b885260218452602488fd5b8382346106be57816003193601126106be57905490516001600160a01b039091168152602090f35b8382346106be57816003193601126106be5760207f62e78cea01bee320cd4e420270b5ea74000d11b0c9f74754ebdbfc544b05a25891610890610b43565b610898610ba7565b600160ff19600254161760025551338152a180f35b508290346106be576108be36610b28565b908352600360205281832090835260205260ff600282842001541690519160038210156108ed57602083838152f35b634e487b7160e01b815260218452602490fd5b833461095a578060031936011261095a57610919610b43565b80546001600160a01b03198116825581906001600160a01b03167f8be0079c531659141344cd1fd0a4f28419497f9722a3daafe3b4186f6b6457e08280a380f35b80fd5b8382346106be5760018160209361097336610b28565b9082526003865282822090825285522001549051908152f35b8382346106be57816003193601126106be5760209060ff6002541690519015158152f35b50903461013b578260031936011261013b576109ca610b43565b6002549060ff821615610a0c575060ff1916600255513381527f5db9ee0a495bf2e6ff9c91a7834c1ba4fdd244a5e8aa4e537bd38aeae4b073aa90602090a180f35b8251638dfc202b60e01b8152fd5b503461013b57610a2936610b28565b929091610a34610ba7565b8285526003602052808520848652602052808520600281019283549260ff84166003811015610b1557610aac575050546101009190610a7d906001600160a01b03163314610c28565b61ff0019161790557f42a333aa9f5e83ed874e2c82d84df396c2a89c4ad056bc332d38ba044bbe8bba8380a380f35b906020608492519162461bcd60e51b8352820152603d60248201527f5061796d656e74206d75737420626520696e20612050656e64696e672073746160448201527f74757320746f20656e61626c6520776169746c69737420726566756e640000006064820152fd5b634e487b7160e01b895260218352602489fd5b6040906003190112610b3e576004359060243590565b600080fd5b6000546001600160a01b03163303610b5757565b60405163118cdaa760e01b8152336004820152602490fd5b90601f8019910116810190811067ffffffffffffffff821117610b9157604052565b634e487b7160e01b600052604160045260246000fd5b60ff60025416610bb357565b60405163d93c066560e01b8152600490fd5b600260015414610bd6576002600155565b604051633ee5aeb560e01b8152600490fd5b3d15610c23573d9067ffffffffffffffff8211610b915760405191610c17601f8201601f191660200184610b6f565b82523d6000602084013e565b606090565b15610c2f57565b606460405162461bcd60e51b815260206004820152602060248201527f43616c6c6572206973206e6f7420746865206f726967696e616c2070617965726044820152fdfea26469706673582212208f95744d89f3110f6305cc4d9ac430116fc27f31ff96c973f659f505405b2f1b64736f6c63430008140033",
  "linkReferences": {},
  "deployedLinkReferences": {}
}