{
  "_format": "hh-sol-artifact-1",
  "contractName": "ConditionalFundsEscrow",
  "sourceName": "contracts/core/ConditionalFundsEscrow.sol",
  "abi": [
    {
      "inputs": [
        {
          "internalType": "address",
          "name": "eventManagerAddress",
          "type": "address"
        }
      ],
      "stateMutability": "nonpayable",
      "type": "constructor"
    },
    {
      "inputs": [],
      "name": "EnforcedPause",
      "type": "error"
    },
    {
      "inputs": [],
      "name": "ExpectedPause",
      "type": "error"
    },
    {
      "inputs": [
        {
          "internalType": "address",
          "name": "owner",
          "type": "address"
        }
      ],
      "name": "OwnableInvalidOwner",
      "type": "error"
    },
    {
      "inputs": [
        {
          "internalType": "address",
          "name": "account",
          "type": "address"
        }
      ],
      "name": "OwnableUnauthorizedAccount",
      "type": "error"
    },
    {
      "inputs": [],
      "name": "ReentrancyGuardReentrantCall",
      "type": "error"
    },
    {
      "anonymous": false,
      "inputs": [
        {
          "indexed": true,
          "internalType": "address",
          "name": "previousOwner",
          "type": "address"
        },
        {
          "indexed": true,
          "internalType": "address",
          "name": "newOwner",
          "type": "address"
        }
      ],
      "name": "OwnershipTransferred",
      "type": "event"
    },
    {
      "anonymous": false,
      "inputs": [
        {
          "indexed": false,
          "internalType": "address",
          "name": "account",
          "type": "address"
        }
      ],
      "name": "Paused",
      "type": "event"
    },
    {
      "anonymous": false,
      "inputs": [
        {
          "indexed": true,
          "internalType": "uint256",
          "name": "eventId",
          "type": "uint256"
        },
        {
          "indexed": true,
          "internalType": "address",
          "name": "payer",
          "type": "address"
        },
        {
          "indexed": false,
          "internalType": "uint256",
          "name": "amount",
          "type": "uint256"
        }
      ],
      "name": "PaymentDeposited",
      "type": "event"
    },
    {
      "anonymous": false,
      "inputs": [
        {
          "indexed": true,
          "internalType": "uint256",
          "name": "eventId",
          "type": "uint256"
        },
        {
          "indexed": true,
          "internalType": "address",
          "name": "payer",
          "type": "address"
        },
        {
          "indexed": false,
          "internalType": "uint256",
          "name": "amount",
          "type": "uint256"
        }
      ],
      "name": "PaymentRefunded",
      "type": "event"
    },
    {
      "anonymous": false,
      "inputs": [
        {
          "indexed": true,
          "internalType": "uint256",
          "name": "eventId",
          "type": "uint256"
        },
        {
          "indexed": true,
          "internalType": "address",
          "name": "payer",
          "type": "address"
        },
        {
          "indexed": false,
          "internalType": "uint256",
          "name": "amount",
          "type": "uint256"
        }
      ],
      "name": "PaymentReleased",
      "type": "event"
    },
    {
      "anonymous": false,
      "inputs": [
        {
          "indexed": false,
          "internalType": "address",
          "name": "account",
          "type": "address"
        }
      ],
      "name": "Unpaused",
      "type": "event"
    },
    {
      "anonymous": false,
      "inputs": [
        {
          "indexed": true,
          "internalType": "uint256",
          "name": "eventId",
          "type": "uint256"
        },
        {
          "indexed": true,
          "internalType": "uint256",
          "name": "ticketId",
          "type": "uint256"
        }
      ],
      "name": "WaitlistRefundEnabled",
      "type": "event"
    },
    {
      "inputs": [
        {
          "internalType": "uint256",
          "name": "eventId",
          "type": "uint256"
        },
        {
          "internalType": "uint256",
          "name": "ticketId",
          "type": "uint256"
        }
      ],
      "name": "depositPayment",
      "outputs": [],
      "stateMutability": "payable",
      "type": "function"
    },
    {
      "inputs": [
        {
          "internalType": "uint256",
          "name": "eventId",
          "type": "uint256"
        },
        {
          "internalType": "uint256",
          "name": "ticketId",
          "type": "uint256"
        }
      ],
      "name": "enableWaitlistRefund",
      "outputs": [],
      "stateMutability": "nonpayable",
      "type": "function"
    },
    {
      "inputs": [
        {
          "internalType": "uint256",
          "name": "eventId",
          "type": "uint256"
        },
        {
          "internalType": "uint256",
          "name": "ticketId",
          "type": "uint256"
        }
      ],
      "name": "getPaymentAmount",
      "outputs": [
        {
          "internalType": "uint256",
          "name": "",
          "type": "uint256"
        }
      ],
      "stateMutability": "view",
      "type": "function"
    },
    {
      "inputs": [
        {
          "internalType": "uint256",
          "name": "eventId",
          "type": "uint256"
        },
        {
          "internalType": "uint256",
          "name": "ticketId",
          "type": "uint256"
        }
      ],
      "name": "getPaymentStatus",
      "outputs": [
        {
          "internalType": "enum IConditionalFundsEscrow.PaymentStatus",
          "name": "",
          "type": "uint8"
        }
      ],
      "stateMutability": "view",
      "type": "function"
    },
    {
      "inputs": [],
      "name": "owner",
      "outputs": [
        {
          "internalType": "address",
          "name": "",
          "type": "address"
        }
      ],
      "stateMutability": "view",
      "type": "function"
    },
    {
      "inputs": [],
      "name": "pause",
      "outputs": [],
      "stateMutability": "nonpayable",
      "type": "function"
    },
    {
      "inputs": [],
      "name": "paused",
      "outputs": [
        {
          "internalType": "bool",
          "name": "",
          "type": "bool"
        }
      ],
      "stateMutability": "view",
      "type": "function"
    },
    {
      "inputs": [
        {
          "internalType": "uint256",
          "name": "eventId",
          "type": "uint256"
        },
        {
          "internalType": "uint256",
          "name": "ticketId",
          "type": "uint256"
        }
      ],
      "name": "refundPayment",
      "outputs": [],
      "stateMutability": "nonpayable",
      "type": "function"
    },
    {
      "inputs": [
        {
          "internalType": "uint256",
          "name": "eventId",
          "type": "uint256"
        },
        {
          "internalType": "uint256",
          "name": "ticketId",
          "type": "uint256"
        }
      ],
      "name": "releasePayment",
      "outputs": [],
      "stateMutability": "nonpayable",
      "type": "function"
    },
    {
      "inputs": [],
      "name": "renounceOwnership",
      "outputs": [],
      "stateMutability": "nonpayable",
      "type": "function"
    },
    {
      "inputs": [
        {
          "internalType": "address",
          "name": "newOwner",
          "type": "address"
        }
      ],
      "name": "transferOwnership",
      "outputs": [],
      "stateMutability": "nonpayable",
      "type": "function"
    },
    {
      "inputs": [],
      "name": "unpause",
      "outputs": [],
      "stateMutability": "nonpayable",
      "type": "function"
    },
    {
      "inputs": [],
      "name": "withdrawStuckFunds",
      "outputs": [],
      "stateMutability": "nonpayable",
      "type": "function"
    }
  ],
  "bytecode": "0x60a03461011f57601f610ca138819003918201601f19168301916001600160401b038311848410176101245780849260209460405283398101031261011f57516001600160a01b0380821680830361011f573315610106576000543360018060a01b0319821617600055604051923391167f8be0079c531659141344cd1fd0a4f28419497f9722a3daafe3b4186f6b6457e0600080a36001805560ff1960025416600255156100c45750608052604051610b66908161013b82396080518161037b0152f35b62461bcd60e51b815260206004820152601c60248201527f496e76616c6964204576656e744d616e616765722061646472657373000000006044820152606490fd5b604051631e4fbdf760e01b815260006004820152602490fd5b600080fd5b634e487b7160e01b600052604160045260246000fdfe60406080815260048036101561001457600080fd5b600091823560e01c80632f62582c146109055780633f4ba83a1461089b5780635c975abb1461087757806366e008f814610848578063715018a6146107eb57806378c5e06d146107985780638456cb591461073d5780638da5cb5b1461071557806395144dc41461060857806397e99a801461034e5780639bdc727c146101b1578063c5b60a481461013f5763f2fde38b146100af57600080fd5b3461013b57602036600319011261013b576001600160a01b03823581811693919290849003610137576100e06109ca565b831561012157505082546001600160a01b0319811683178455167f8be0079c531659141344cd1fd0a4f28419497f9722a3daafe3b4186f6b6457e08380a380f35b51631e4fbdf760e01b8152908101849052602490fd5b8480fd5b8280fd5b503461013b578260031936011261013b576101586109ca565b8280808060018060a01b0381541647905af1610172610ab4565b501561017c578280f35b906020606492519162461bcd60e51b8352820152600f60248201526e151c985b9cd9995c8819985a5b1959608a1b6044820152fd5b5082906101bd366109af565b916101c6610a4c565b6101ce610a2e565b3415610319578184526003602090815281852084865281528185205490936001600160a01b039182166102e55782516080810181811067ffffffffffffffff8211176102d2579060029185523381528681013481528582019489865260608301948a8652888b5260038a52878b20908b528952868a209251166bffffffffffffffffffffffff60a01b8354161782555160018201550191519060038210156102bf5790829160ff61ff007f71284872bb4c088a81295dff2513729babbccfeda38a8d824bb1a73bcaab494e9695549251151560081b1692169061ffff19161717905551923484523393a36001805580f35b634e487b7160e01b875260218852602487fd5b634e487b7160e01b885260418952602488fd5b825162461bcd60e51b8152808801869052600e60248201526d5061796d656e742065786973747360901b6044820152606490fd5b5162461bcd60e51b8152602081860152601060248201526f14185e5b595b9d081c995c5d5a5c995960821b6044820152606490fd5b508290346106045761035f366109af565b9091610369610a4c565b610371610a2e565b6001600160a01b037f0000000000000000000000000000000000000000000000000000000000000000811695338790036105c1578486526020936003855283872090875284528286209060028201805460ff811660038110156105ae576103d89015610a6f565b8551631b11429360e31b815283810189905287816024818e5afa9081156105a4578a9161056a575b501561051b5760ff1916600117905583516329260ad160e11b815281810187905296978590889060249082905afa9687156105115788976104d5575b5087808080600186019a878c5491165af1610455610ab4565b50156104925750907f21d71db5be59bb9fa133895586b7404307dd33fb93b16db09dc6f1d9d7d231b0939291541694549051908152a36001805580f35b835162461bcd60e51b8152908101859052601760248201527f52656c65617365207472616e73666572206661696c65640000000000000000006044820152606490fd5b9096508481813d831161050a575b6104ed81836109f6565b810103126105065751828116810361050657958861043c565b8780fd5b503d6104e3565b84513d8a823e3d90fd5b855162461bcd60e51b81528084018890526024808201527f4576656e7420636f6e646974696f6e73206e6f74206d657420666f722072656c6044820152636561736560e01b6064820152608490fd5b90508781813d831161059d575b61058181836109f6565b8101031261059957518015158103610599578b610400565b8980fd5b503d610577565b87513d8c823e3d90fd5b634e487b7160e01b8a526021845260248afd5b606490602084519162461bcd60e51b8352820152601a60248201527f4f6e6c79204576656e744d616e616765722063616e2063616c6c0000000000006044820152fd5b5080fd5b503461013b57610617366109af565b610622929192610a4c565b61062a610a2e565b8285526003602052818520908552602052808420926002840180549460ff861660038110156107025760029161066260019215610a6f565b610675828060a01b038254163314610af4565b01549560ff19161790558480808087335af161068f610ab4565b50156106c75750519182527fe89ec1881a76229445bcd179b8c4b24f9edc7ddd87d07fb3b19c67ae9c6e27cc60203393a36001805580f35b6020606492519162461bcd60e51b835282015260166024820152751499599d5b99081d1c985b9cd9995c8819985a5b195960521b6044820152fd5b634e487b7160e01b885260218452602488fd5b838234610604578160031936011261060457905490516001600160a01b039091168152602090f35b83823461060457816003193601126106045760207f62e78cea01bee320cd4e420270b5ea74000d11b0c9f74754ebdbfc544b05a2589161077b6109ca565b610783610a2e565b600160ff19600254161760025551338152a180f35b50829034610604576107a9366109af565b908352600360205281832090835260205260ff600282842001541690519160038210156107d857602083838152f35b634e487b7160e01b815260218452602490fd5b83346108455780600319360112610845576108046109ca565b80546001600160a01b03198116825581906001600160a01b03167f8be0079c531659141344cd1fd0a4f28419497f9722a3daafe3b4186f6b6457e08280a380f35b80fd5b8382346106045760018160209361085e366109af565b9082526003865282822090825285522001549051908152f35b83823461060457816003193601126106045760209060ff6002541690519015158152f35b50903461013b578260031936011261013b576108b56109ca565b6002549060ff8216156108f7575060ff1916600255513381527f5db9ee0a495bf2e6ff9c91a7834c1ba4fdd244a5e8aa4e537bd38aeae4b073aa90602090a180f35b8251638dfc202b60e01b8152fd5b503461013b57610914366109af565b92909161091f610a2e565b8285526003602052808520848652602052842090600282019182549160ff831690600382101561099c5750610100929161095c61096d9215610a6f565b546001600160a01b03163314610af4565b61ff0019161790557f42a333aa9f5e83ed874e2c82d84df396c2a89c4ad056bc332d38ba044bbe8bba8380a380f35b634e487b7160e01b885260219052602487fd5b60409060031901126109c5576004359060243590565b600080fd5b6000546001600160a01b031633036109de57565b60405163118cdaa760e01b8152336004820152602490fd5b90601f8019910116810190811067ffffffffffffffff821117610a1857604052565b634e487b7160e01b600052604160045260246000fd5b60ff60025416610a3a57565b60405163d93c066560e01b8152600490fd5b600260015414610a5d576002600155565b604051633ee5aeb560e01b8152600490fd5b15610a7657565b60405162461bcd60e51b8152602060048201526016602482015275496e76616c6964207061796d656e742073746174757360501b6044820152606490fd5b3d15610aef573d9067ffffffffffffffff8211610a185760405191610ae3601f8201601f1916602001846109f6565b82523d6000602084013e565b606090565b15610afb57565b60405162461bcd60e51b815260206004820152600d60248201526c2737ba103a3432903830bcb2b960991b6044820152606490fdfea2646970667358221220a1c5fded22c46ecc202829def394996f86024a996ae7f5e4344b3a4383de523464736f6c63430008140033",
  "linkReferences": {},
  "deployedLinkReferences": {}
}